{
    "abi": [
        {
            "anonymous": false,
            "inputs": [
                {
                    "indexed": false,
                    "internalType": "address",
                    "name": "receiver",
                    "type": "address"
                },
                {
                    "indexed": false,
                    "internalType": "address",
                    "name": "assetContract",
                    "type": "address"
                },
                {
                    "indexed": false,
                    "internalType": "bool",
                    "name": "isERC721",
                    "type": "bool"
                },
                {
                    "indexed": false,
                    "internalType": "uint256",
                    "name": "amountOrNftIdToReceiver",
                    "type": "uint256"
                },
                {
                    "indexed": false,
                    "internalType": "uint256",
                    "name": "increaseTotalAmountClaimable",
                    "type": "uint256"
                }
            ],
            "name": "CallbackReceived",
            "type": "event"
        },
        {
            "anonymous": false,
            "inputs": [
                {
                    "indexed": false,
                    "internalType": "address",
                    "name": "currency",
                    "type": "address"
                }
            ],
            "name": "ERC20CurrencyAdded",
            "type": "event"
        },
        {
            "anonymous": false,
            "inputs": [
                {
                    "indexed": false,
                    "internalType": "address",
                    "name": "currency",
                    "type": "address"
                }
            ],
            "name": "ERC20CurrencyRemoved",
            "type": "event"
        },
        {
            "anonymous": false,
            "inputs": [
                {
                    "indexed": false,
                    "internalType": "uint8",
                    "name": "version",
                    "type": "uint8"
                }
            ],
            "name": "Initialized",
            "type": "event"
        },
        {
            "anonymous": false,
            "inputs": [
                {
                    "indexed": false,
                    "internalType": "uint256",
                    "name": "oldOpeningFee",
                    "type": "uint256"
                },
                {
                    "indexed": false,
                    "internalType": "uint256",
                    "name": "newOpeningFee",
                    "type": "uint256"
                }
            ],
            "name": "OpeningFeeUpdated",
            "type": "event"
        },
        {
            "anonymous": false,
            "inputs": [
                {
                    "indexed": true,
                    "internalType": "address",
                    "name": "previousOwner",
                    "type": "address"
                },
                {
                    "indexed": true,
                    "internalType": "address",
                    "name": "newOwner",
                    "type": "address"
                }
            ],
            "name": "OwnershipTransferred",
            "type": "event"
        },
        {
            "anonymous": false,
            "inputs": [
                {
                    "indexed": false,
                    "internalType": "address",
                    "name": "account",
                    "type": "address"
                }
            ],
            "name": "Paused",
            "type": "event"
        },
        {
            "anonymous": false,
            "inputs": [
                {
                    "indexed": false,
                    "internalType": "address",
                    "name": "oldPriceFeedAddress",
                    "type": "address"
                },
                {
                    "indexed": false,
                    "internalType": "address",
                    "name": "newPriceFeedAddress",
                    "type": "address"
                }
            ],
            "name": "PriceFeedUpdated",
            "type": "event"
        },
        {
            "anonymous": false,
            "inputs": [
                {
                    "indexed": false,
                    "internalType": "address",
                    "name": "assetRaffled",
                    "type": "address"
                },
                {
                    "indexed": false,
                    "internalType": "address",
                    "name": "raffleOwner",
                    "type": "address"
                },
                {
                    "indexed": false,
                    "internalType": "enum MainnetEscrow.RaffleType",
                    "name": "raffleType",
                    "type": "uint8"
                },
                {
                    "indexed": false,
                    "internalType": "uint128",
                    "name": "nftIdOrAmount",
                    "type": "uint128"
                },
                {
                    "indexed": false,
                    "internalType": "address",
                    "name": "paymentcurrency",
                    "type": "address"
                },
                {
                    "indexed": false,
                    "internalType": "uint128",
                    "name": "pricePerTicket",
                    "type": "uint128"
                },
                {
                    "indexed": false,
                    "internalType": "uint64",
                    "name": "numberOfTotalTickets",
                    "type": "uint64"
                },
                {
                    "indexed": false,
                    "internalType": "uint64",
                    "name": "minimumTicketsSold",
                    "type": "uint64"
                },
                {
                    "indexed": false,
                    "internalType": "uint64",
                    "name": "endTimestamp",
                    "type": "uint64"
                },
                {
                    "indexed": false,
                    "internalType": "bytes32",
                    "name": "merkleRoot",
                    "type": "bytes32"
                },
                {
                    "indexed": false,
                    "internalType": "uint256",
                    "name": "fairRaffleFee",
                    "type": "uint256"
                }
            ],
            "name": "RaffleCreated",
            "type": "event"
        },
        {
            "anonymous": false,
            "inputs": [
                {
                    "indexed": false,
                    "internalType": "address",
                    "name": "oldRelayerAddress",
                    "type": "address"
                },
                {
                    "indexed": false,
                    "internalType": "address",
                    "name": "newRelayerAddress",
                    "type": "address"
                }
            ],
            "name": "RelayerUpdated",
            "type": "event"
        },
        {
            "anonymous": false,
            "inputs": [
                {
                    "indexed": false,
                    "internalType": "address",
                    "name": "account",
                    "type": "address"
                }
            ],
            "name": "Unpaused",
            "type": "event"
        },
        {
            "inputs": [],
            "name": "FAIR_RAFFLE_FEE_DENOMINATOR",
            "outputs": [
                {
                    "internalType": "uint256",
                    "name": "",
                    "type": "uint256"
                }
            ],
            "stateMutability": "view",
            "type": "function"
        },
        {
            "inputs": [],
            "name": "FAIR_RAFFLE_FEE_NUMERATOR",
            "outputs": [
                {
                    "internalType": "uint256",
                    "name": "",
                    "type": "uint256"
                }
            ],
            "stateMutability": "view",
            "type": "function"
        },
        {
            "inputs": [],
            "name": "OPENING_FEE",
            "outputs": [
                {
                    "internalType": "uint256",
                    "name": "",
                    "type": "uint256"
                }
            ],
            "stateMutability": "view",
            "type": "function"
        },
        {
            "inputs": [
                {
                    "internalType": "address",
                    "name": "_ERC20TokenAddressPolygon",
                    "type": "address"
                }
            ],
            "name": "blacklistCurrency",
            "outputs": [],
            "stateMutability": "nonpayable",
            "type": "function"
        },
        {
            "inputs": [
                {
                    "internalType": "address",
                    "name": "_tokenAddress",
                    "type": "address"
                },
                {
                    "internalType": "uint128",
                    "name": "_amount",
                    "type": "uint128"
                },
                {
                    "internalType": "address",
                    "name": "_currencyInPolygon",
                    "type": "address"
                },
                {
                    "internalType": "uint128",
                    "name": "_pricePerTicket",
                    "type": "uint128"
                },
                {
                    "internalType": "uint64",
                    "name": "_numberOfTickets",
                    "type": "uint64"
                },
                {
                    "internalType": "uint64",
                    "name": "_minimumTicketsSold",
                    "type": "uint64"
                },
                {
                    "internalType": "uint64",
                    "name": "_durationInSeconds",
                    "type": "uint64"
                },
                {
                    "internalType": "bytes32",
                    "name": "_merkleRoot",
                    "type": "bytes32"
                }
            ],
            "name": "createERC20Raffle",
            "outputs": [],
            "stateMutability": "payable",
            "type": "function"
        },
        {
            "inputs": [
                {
                    "internalType": "address",
                    "name": "_nftCollection",
                    "type": "address"
                },
                {
                    "internalType": "uint128",
                    "name": "_nftId",
                    "type": "uint128"
                },
                {
                    "internalType": "address",
                    "name": "_currencyInPolygon",
                    "type": "address"
                },
                {
                    "internalType": "uint128",
                    "name": "_pricePerTicket",
                    "type": "uint128"
                },
                {
                    "internalType": "uint64",
                    "name": "_numberOfTickets",
                    "type": "uint64"
                },
                {
                    "internalType": "uint64",
                    "name": "_minimumTicketsSold",
                    "type": "uint64"
                },
                {
                    "internalType": "uint64",
                    "name": "_durationInSeconds",
                    "type": "uint64"
                },
                {
                    "internalType": "bytes32",
                    "name": "_merkleRoot",
                    "type": "bytes32"
                }
            ],
            "name": "createERC721Raffle",
            "outputs": [],
            "stateMutability": "payable",
            "type": "function"
        },
        {
            "inputs": [],
            "name": "currencyPriceFeed",
            "outputs": [
                {
                    "internalType": "contract ICurrencyPriceFeed",
                    "name": "",
                    "type": "address"
                }
            ],
            "stateMutability": "view",
            "type": "function"
        },
        {
            "inputs": [
                {
                    "internalType": "address",
                    "name": "_tokenAddress",
                    "type": "address"
                },
                {
                    "internalType": "uint128",
                    "name": "_amount",
                    "type": "uint128"
                },
                {
                    "internalType": "address",
                    "name": "_currencyInPolygon",
                    "type": "address"
                },
                {
                    "internalType": "uint128",
                    "name": "_pricePerTicket",
                    "type": "uint128"
                },
                {
                    "internalType": "uint64",
                    "name": "_numberOfTickets",
                    "type": "uint64"
                },
                {
                    "internalType": "uint64",
                    "name": "_minimumTicketsSold",
                    "type": "uint64"
                }
            ],
            "name": "fairRaffleFeeERC20",
            "outputs": [
                {
                    "internalType": "uint256",
                    "name": "",
                    "type": "uint256"
                }
            ],
            "stateMutability": "view",
            "type": "function"
        },
        {
            "inputs": [
                {
                    "internalType": "address",
                    "name": "_currencyInPolygon",
                    "type": "address"
                },
                {
                    "internalType": "uint128",
                    "name": "_pricePerTicket",
                    "type": "uint128"
                },
                {
                    "internalType": "uint64",
                    "name": "_minimumTicketsSold",
                    "type": "uint64"
                }
            ],
            "name": "fairRaffleFeeERC721",
            "outputs": [
                {
                    "internalType": "uint256",
                    "name": "",
                    "type": "uint256"
                }
            ],
            "stateMutability": "view",
            "type": "function"
        },
        {
            "inputs": [
                {
                    "internalType": "address",
                    "name": "_relayer",
                    "type": "address"
                },
                {
                    "internalType": "address",
                    "name": "_priceFeedContract",
                    "type": "address"
                }
            ],
            "name": "initialize",
            "outputs": [],
            "stateMutability": "nonpayable",
            "type": "function"
        },
        {
            "inputs": [
                {
                    "internalType": "address",
                    "name": "_erc20Token",
                    "type": "address"
                }
            ],
            "name": "isCurrencyWhitelisted",
            "outputs": [
                {
                    "internalType": "bool",
                    "name": "",
                    "type": "bool"
                }
            ],
            "stateMutability": "view",
            "type": "function"
        },
        {
            "inputs": [],
            "name": "owner",
            "outputs": [
                {
                    "internalType": "address",
                    "name": "",
                    "type": "address"
                }
            ],
            "stateMutability": "view",
            "type": "function"
        },
        {
            "inputs": [],
            "name": "paused",
            "outputs": [
                {
                    "internalType": "bool",
                    "name": "",
                    "type": "bool"
                }
            ],
            "stateMutability": "view",
            "type": "function"
        },
        {
            "inputs": [
                {
                    "components": [
                        {
                            "internalType": "address",
                            "name": "receiver",
                            "type": "address"
                        },
                        {
                            "internalType": "address",
                            "name": "assetContract",
                            "type": "address"
                        },
                        {
                            "internalType": "bool",
                            "name": "isERC721",
                            "type": "bool"
                        },
                        {
                            "internalType": "uint256",
                            "name": "amountOrNftIdToReceiver",
                            "type": "uint256"
                        },
                        {
                            "internalType": "uint256",
                            "name": "increaseTotalAmountClaimable",
                            "type": "uint256"
                        }
                    ],
                    "internalType": "struct MainnetEscrow.CallbackInfo[]",
                    "name": "callbackArr",
                    "type": "tuple[]"
                }
            ],
            "name": "polygonCallback",
            "outputs": [],
            "stateMutability": "nonpayable",
            "type": "function"
        },
        {
            "inputs": [
                {
                    "internalType": "address",
                    "name": "",
                    "type": "address"
                }
            ],
            "name": "polygonTokenToMainnetAddress",
            "outputs": [
                {
                    "internalType": "address",
                    "name": "",
                    "type": "address"
                }
            ],
            "stateMutability": "view",
            "type": "function"
        },
        {
            "inputs": [],
            "name": "priceFeedsEnabled",
            "outputs": [
                {
                    "internalType": "bool",
                    "name": "",
                    "type": "bool"
                }
            ],
            "stateMutability": "view",
            "type": "function"
        },
        {
            "inputs": [],
            "name": "relayer",
            "outputs": [
                {
                    "internalType": "address",
                    "name": "",
                    "type": "address"
                }
            ],
            "stateMutability": "view",
            "type": "function"
        },
        {
            "inputs": [],
            "name": "renounceOwnership",
            "outputs": [],
            "stateMutability": "nonpayable",
            "type": "function"
        },
        {
            "inputs": [
                {
                    "internalType": "uint256",
                    "name": "_openingFee",
                    "type": "uint256"
                }
            ],
            "name": "setOpeningFee",
            "outputs": [],
            "stateMutability": "nonpayable",
            "type": "function"
        },
        {
            "inputs": [
                {
                    "internalType": "address",
                    "name": "_currencyPriceFeed",
                    "type": "address"
                }
            ],
            "name": "setPriceFeed",
            "outputs": [],
            "stateMutability": "nonpayable",
            "type": "function"
        },
        {
            "inputs": [
                {
                    "internalType": "address",
                    "name": "_relayer",
                    "type": "address"
                }
            ],
            "name": "setRelayer",
            "outputs": [],
            "stateMutability": "nonpayable",
            "type": "function"
        },
        {
            "inputs": [],
            "name": "togglePause",
            "outputs": [],
            "stateMutability": "nonpayable",
            "type": "function"
        },
        {
            "inputs": [],
            "name": "togglePriceFeed",
            "outputs": [],
            "stateMutability": "nonpayable",
            "type": "function"
        },
        {
            "inputs": [
                {
                    "internalType": "address",
                    "name": "",
                    "type": "address"
                }
            ],
            "name": "totalAmountClaimable",
            "outputs": [
                {
                    "internalType": "uint256",
                    "name": "",
                    "type": "uint256"
                }
            ],
            "stateMutability": "view",
            "type": "function"
        },
        {
            "inputs": [
                {
                    "internalType": "address",
                    "name": "newOwner",
                    "type": "address"
                }
            ],
            "name": "transferOwnership",
            "outputs": [],
            "stateMutability": "nonpayable",
            "type": "function"
        },
        {
            "inputs": [
                {
                    "internalType": "address",
                    "name": "_ERC20TokenAddressPolygon",
                    "type": "address"
                },
                {
                    "internalType": "address",
                    "name": "_ERC20TokenAddressMainnet",
                    "type": "address"
                }
            ],
            "name": "whitelistCurrency",
            "outputs": [],
            "stateMutability": "nonpayable",
            "type": "function"
        },
        {
            "inputs": [
                {
                    "internalType": "address",
                    "name": "",
                    "type": "address"
                }
            ],
            "name": "whitelistedCurrencies",
            "outputs": [
                {
                    "internalType": "bool",
                    "name": "",
                    "type": "bool"
                }
            ],
            "stateMutability": "view",
            "type": "function"
        },
        {
            "inputs": [
                {
                    "internalType": "address[]",
                    "name": "_tokenAddress",
                    "type": "address[]"
                },
                {
                    "internalType": "uint256[]",
                    "name": "_amounts",
                    "type": "uint256[]"
                },
                {
                    "internalType": "address",
                    "name": "_receiver",
                    "type": "address"
                }
            ],
            "name": "withdrawFees",
            "outputs": [],
            "stateMutability": "nonpayable",
            "type": "function"
        }
    ],
    "bytecode": "608060405234801561001057600080fd5b50612ef1806100206000396000f3fe6080604052600436106101b75760003560e01c8063724e78da116100ec578063a21afc761161008a578063c4ae316811610064578063c4ae3168146104e7578063da653f00146104fc578063f2fde38b1461051c578063fcc76b801461053c57600080fd5b8063a21afc7614610492578063b3f8d40d146104bf578063c2f90a2b146104d257600080fd5b80638406c079116100c65780638406c079146103fe578063863759941461041e5780638da5cb5b1461043e57806395e3d9ab1461045c57600080fd5b8063724e78da14610386578063744476b6146103a65780637b631da5146103c657600080fd5b80634e4d58bb116101595780636548e9bc116101335780636548e9bc1461032157806366998e5014610341578063697ca93014610357578063715018a61461037157600080fd5b80634e4d58bb146102d357806352defbd0146102e95780635c975abb1461030957600080fd5b806334f65fa21161019557806334f65fa21461021a578063436cc1381461023a57806343b938c51461027a578063485cc955146102b357600080fd5b806323bbcb29146101bc5780632bf78dd8146101d157806331f91a84146101fa575b600080fd5b6101cf6101ca366004612621565b61055c565b005b3480156101dd57600080fd5b506101e760985481565b6040519081526020015b60405180910390f35b34801561020657600080fd5b506101cf610215366004612700565b610996565b34801561022657600080fd5b506101cf610235366004612783565b610b12565b34801561024657600080fd5b5061026a6102553660046127bc565b60976020526000908152604090205460ff1681565b60405190151581526020016101f1565b34801561028657600080fd5b5061026a6102953660046127bc565b6001600160a01b031660009081526097602052604090205460ff1690565b3480156102bf57600080fd5b506101cf6102ce366004612783565b610bfd565b3480156102df57600080fd5b506101e76101f481565b3480156102f557600080fd5b506101cf6103043660046127bc565b610deb565b34801561031557600080fd5b5060655460ff1661026a565b34801561032d57600080fd5b506101cf61033c3660046127bc565b610eb2565b34801561034d57600080fd5b506101e761271081565b34801561036357600080fd5b50609d5461026a9060ff1681565b34801561037d57600080fd5b506101cf610f23565b34801561039257600080fd5b506101cf6103a13660046127bc565b610f37565b3480156103b257600080fd5b506101e76103c13660046127d9565b610fa8565b3480156103d257600080fd5b50609b546103e6906001600160a01b031681565b6040516001600160a01b0390911681526020016101f1565b34801561040a57600080fd5b50609a546103e6906001600160a01b031681565b34801561042a57600080fd5b506101cf61043936600461281e565b6111ae565b34801561044a57600080fd5b506033546001600160a01b03166103e6565b34801561046857600080fd5b506103e66104773660046127bc565b609c602052600090815260409020546001600160a01b031681565b34801561049e57600080fd5b506101e76104ad3660046127bc565b60996020526000908152604090205481565b6101cf6104cd366004612621565b6111f7565b3480156104de57600080fd5b506101cf6115c9565b3480156104f357600080fd5b506101cf6115e5565b34801561050857600080fd5b506101e7610517366004612837565b611607565b34801561052857600080fd5b506101cf6105373660046127bc565b611a59565b34801561054857600080fd5b506101cf61055736600461292b565b611ad2565b610564611f28565b6040516331a9108f60e11b81526001600160801b03881660048201526001600160a01b03891690636352211e90602401602060405180830381865afa1580156105b1573d6000803e3d6000fd5b505050506040513d601f19601f820116820180604052508101906105d59190612a2d565b6001600160a01b0316336001600160a01b03161461063a5760405162461bcd60e51b815260206004820152601760248201527f596f7520646f206e6f74206f776e2074686973204e465400000000000000000060448201526064015b60405180910390fd5b6001600160a01b03861660009081526097602052604090205460ff166106a25760405162461bcd60e51b815260206004820181905260248201527f546869732063757272656e6379206973206e6f742077686974656c69737465646044820152606401610631565b6001846001600160401b0316116106cb5760405162461bcd60e51b815260040161063190612a4a565b836001600160401b0316836001600160401b031611156106fd5760405162461bcd60e51b815260040161063190612a8e565b61a8c0826001600160401b031610156107585760405162461bcd60e51b815260206004820152601c60248201527f4d696e696d756d206475726174696f6e20697320313220686f757273000000006044820152606401610631565b6000610765878786610fa8565b9050806098546107759190612af2565b34146107b95760405162461bcd60e51b8152602060048201526013602482015272125b98dbdc9c9958dd081999595cc81cd95b9d606a1b6044820152606401610631565b609854600080805260996020527f235d629dc802037ded8c61cb27fb29e40fa01b299719d8f991ffe20bdcc59f4f80549091906107f7908490612af2565b90915550506040516323b872dd60e01b81523360048201523060248201526001600160801b03891660448201526001600160a01b038a16906323b872dd90606401600060405180830381600087803b15801561085257600080fd5b505af1158015610866573d6000803e3d6000fd5b50506040516331a9108f60e11b81526001600160801b038b1660048201526001600160a01b038c169250636352211e9150602401602060405180830381865afa1580156108b7573d6000803e3d6000fd5b505050506040513d601f19601f820116820180604052508101906108db9190612a2d565b6001600160a01b0316306001600160a01b03161461092d5760405162461bcd60e51b815260206004820152600f60248201526e151c985b9cd9995c8819985a5b1959608a1b6044820152606401610631565b7fb26c0bf32d8d3eff0d0561d0b30f4bf8962a18678833b276fcbbe06c48e9eaaa893360008b8b8b8b8b61096a6001600160401b038d1642612af2565b8b8b6040516109839b9a99989796959493929190612b0a565b60405180910390a1505050505050505050565b61099e611f6e565b838281146109ee5760405162461bcd60e51b815260206004820152601a60248201527f4172726179206c656e6774687320646f206e6f74206d617463680000000000006044820152606401610631565b60008060005b83811015610b0757888882818110610a0e57610a0e612bc3565b9050602002016020810190610a2391906127bc565b9150868682818110610a3757610a37612bc3565b90506020020135925060996000836001600160a01b03166001600160a01b0316815260200190815260200160002054831115610aa75760405162461bcd60e51b815260206004820152600f60248201526e082dadeeadce840e8dede40d0d2ced608b1b6044820152606401610631565b6001600160a01b038216610ac457610abf8584611fc8565b610ad8565b610ad86001600160a01b038316868561210c565b6001600160a01b038216600090815260996020526040902080548490039055610b0081612bd9565b90506109f4565b505050505050505050565b610b1a611f6e565b6001600160a01b03821660009081526097602052604090205460ff1615610b835760405162461bcd60e51b815260206004820152601c60248201527f546f6b656e20697320616c72656164792077686974656c6973746564000000006044820152606401610631565b6001600160a01b0382811660008181526097602090815260408083208054600160ff19909116179055609c82529182902080546001600160a01b03191694861694909417909355519081527f5c6cf68a9d7e416d0eee740661627dd794257920f1c63ddae6c6af81d02d12ea910160405180910390a15050565b600054610100900460ff1615808015610c1d5750600054600160ff909116105b80610c375750303b158015610c37575060005460ff166001145b610c9a5760405162461bcd60e51b815260206004820152602e60248201527f496e697469616c697a61626c653a20636f6e747261637420697320616c72656160448201526d191e481a5b9a5d1a585b1a5e995960921b6064820152608401610631565b6000805460ff191660011790558015610cbd576000805461ff0019166101001790555b610cc561216f565b610ccd61219e565b609a80546001600160a01b038086166001600160a01b031992831617909255609b805492851692821692909217909155609d805460ff199081166001908117909255737ceb23fd6bc0add59e62ac25578270cff1b9f6196000527f1a0acac70e8cab5a31ac0c028653f1612aec657b1c8333c74eaba0c30e0ee39180549091169091179055609c6020527f54cb885aae8efe3410af7107761edcae51ee12661f9443184b5e9d063ddf7fa5805490911673c02aaa39b223fe8d0a0e5c4f27ead9083c756cc2179055666a94d74f4300006098558015610de6576000805461ff0019169055604051600181527f7f26b83ff96e1f2b6a682f133852f6798a09c465da95921460cefb38474024989060200160405180910390a15b505050565b610df3611f6e565b6001600160a01b03811660009081526097602052604090205460ff16610e5b5760405162461bcd60e51b815260206004820152601860248201527f546f6b656e206973206e6f742077686974656c697374656400000000000000006044820152606401610631565b6001600160a01b038116600081815260976020908152604091829020805460ff1916905590519182527f0dc0548bc90523a9e943ea77d199875fdc1e4f8a419b6d53a595b5e6671480e5910160405180910390a150565b610eba611f6e565b609a54604080516001600160a01b03928316815291831660208301527f605ca4e43489fb38b91aa63dd9147cd3847957694b080b9285ec898b34269f0c910160405180910390a1609a80546001600160a01b0319166001600160a01b0392909216919091179055565b610f2b611f6e565b610f3560006121cd565b565b610f3f611f6e565b609b54604080516001600160a01b03928316815291831660208301527fa8abe0398416476db5b05737cd4da3b3cbde5012d978a6a6c3fd49d321753536910160405180910390a1609b80546001600160a01b0319166001600160a01b0392909216919091179055565b6001600160a01b038084166000908152609c6020908152604080832054815163313ce56760e01b815291519394859491169263313ce56792600480820193918290030181865afa158015611000573d6000803e3d6000fd5b505050506040513d601f19601f820116820180604052508101906110249190612bf2565b61102f90600a612cfb565b609b546001600160a01b038781166000908152609c60205260409081902054905163a4b943fb60e01b815290821660048201526001600160401b038716926001600160801b03891692169063a4b943fb90602401602060405180830381865afa1580156110a0573d6000803e3d6000fd5b505050506040513d601f19601f820116820180604052508101906110c49190612d0a565b6110ce9190612d23565b6110d89190612d23565b6110e29190612d58565b905060006127106110f56101f484612d23565b6110ff9190612d58565b609b5460405163a4b943fb60e01b815273eeeeeeeeeeeeeeeeeeeeeeeeeeeeeeeeeeeeeeee60048201529192506000916001600160a01b039091169063a4b943fb90602401602060405180830381865afa158015611161573d6000803e3d6000fd5b505050506040513d601f19601f820116820180604052508101906111859190612d0a565b61119783670de0b6b3a7640000612d23565b6111a19190612d58565b93505050505b9392505050565b6111b6611f6e565b60985460408051918252602082018390527f9dc2340c6769757c8d7dfe3a65a3f1e297ed8f919bed31501223ac8aa85dc63d910160405180910390a1609855565b6111ff611f28565b6001600160a01b03861660009081526097602052604090205460ff166112675760405162461bcd60e51b815260206004820181905260248201527f546869732063757272656e6379206973206e6f742077686974656c69737465646044820152606401610631565b6001846001600160401b0316116112905760405162461bcd60e51b815260040161063190612a4a565b836001600160401b0316836001600160401b031611156112c25760405162461bcd60e51b815260040161063190612a8e565b61a8c0826001600160401b0316101561131d5760405162461bcd60e51b815260206004820152601c60248201527f4d696e696d756d206475726174696f6e20697320313220686f757273000000006044820152606401610631565b600061132d898989898989611607565b90506001600160a01b03891661139b57609854611353906001600160801b038a16612af2565b34146113965760405162461bcd60e51b8152602060048201526012602482015271125b98dbdc9c9958dd08199959481cd95b9d60721b6044820152606401610631565b611548565b60985434146113ec5760405162461bcd60e51b815260206004820152601a60248201527f496e636f7272656374204f50454e494e475f4645452073656e740000000000006044820152606401610631565b6040516370a0823160e01b81523060048201526000906001600160a01b038b16906370a0823190602401602060405180830381865afa158015611433573d6000803e3d6000fd5b505050506040513d601f19601f820116820180604052508101906114579190612d0a565b90506114776001600160a01b038b1633306001600160801b038d1661221f565b6040516370a0823160e01b81523060048201526000906001600160a01b038c16906370a0823190602401602060405180830381865afa1580156114be573d6000803e3d6000fd5b505050506040513d601f19601f820116820180604052508101906114e29190612d0a565b90506114ee8282612d6c565b8a6001600160801b0316146115455760405162461bcd60e51b815260206004820152601b60248201527f455243323020746f6b656e207472616e73666572206661696c656400000000006044820152606401610631565b50505b609854600080805260996020527f235d629dc802037ded8c61cb27fb29e40fa01b299719d8f991ffe20bdcc59f4f8054909190611586908490612af2565b909155507fb26c0bf32d8d3eff0d0561d0b30f4bf8962a18678833b276fcbbe06c48e9eaaa9050893360018b8b8b8b8b61096a6001600160401b038d1642612af2565b6115d1611f6e565b609d805460ff19811660ff90911615179055565b6115ed611f6e565b60655460ff166115ff57610f35612257565b610f356122b1565b609d54600090819060ff16611653576127106101f461162f876001600160401b038716612d83565b6001600160801b03166116429190612d23565b61164c9190612d58565b9050611a4e565b60006001600160a01b03891661171757609b5460405163a4b943fb60e01b815273c02aaa39b223fe8d0a0e5c4f27ead9083c756cc2600482018190529a50670de0b6b3a7640000916001600160801b038b16916001600160a01b039091169063a4b943fb90602401602060405180830381865afa1580156116d8573d6000803e3d6000fd5b505050506040513d601f19601f820116820180604052508101906116fc9190612d0a565b6117069190612d23565b6117109190612d58565b9050611812565b886001600160a01b031663313ce5676040518163ffffffff1660e01b8152600401602060405180830381865afa158015611755573d6000803e3d6000fd5b505050506040513d601f19601f820116820180604052508101906117799190612bf2565b61178490600a612cfb565b609b5460405163a4b943fb60e01b81526001600160a01b038c811660048301526001600160801b038c1692169063a4b943fb90602401602060405180830381865afa1580156117d7573d6000803e3d6000fd5b505050506040513d601f19601f820116820180604052508101906117fb9190612d0a565b6118059190612d23565b61180f9190612d58565b90505b6001600160a01b038088166000908152609c6020908152604080832054815163313ce56760e01b815291519394169263313ce567926004808401939192918290030181865afa158015611869573d6000803e3d6000fd5b505050506040513d601f19601f8201168201806040525081019061188d9190612bf2565b61189890600a612cfb565b609b546001600160a01b038a81166000908152609c60205260409081902054905163a4b943fb60e01b815290821660048201526001600160801b038b16926001600160401b038b1692169063a4b943fb90602401602060405180830381865afa158015611909573d6000803e3d6000fd5b505050506040513d601f19601f8201168201806040525081019061192d9190612d0a565b6119379190612d23565b6119419190612d23565b61194b9190612d58565b905060008261195c83612710612d23565b6119669190612d58565b9050612710811161197a5760009350611a4a565b6127108111801561198d5750612af88111155b156119ce576127106119a8896001600160401b038916612d83565b6119b4906101f4612d83565b6119be9190612db2565b6001600160801b03169350611a4a565b612af8811180156119e157506130d48111155b15611a08576127106119fc896001600160401b038916612d83565b6119b4906103e8612d83565b6130d4811115611a4a57612710611a28896001600160401b038916612d83565b611a34906107d0612d83565b611a3e9190612db2565b6001600160801b031693505b5050505b979650505050505050565b611a61611f6e565b6001600160a01b038116611ac65760405162461bcd60e51b815260206004820152602660248201527f4f776e61626c653a206e6577206f776e657220697320746865207a65726f206160448201526564647265737360d01b6064820152608401610631565b611acf816121cd565b50565b609a546001600160a01b03163314611b1a5760405162461bcd60e51b815260206004820152600b60248201526a27b7363ca932b630bcb2b960a91b6044820152606401610631565b805160005b81811015610de657828181518110611b3957611b39612bc3565b60200260200101516040015115611c5a5760006001600160a01b0316838281518110611b6757611b67612bc3565b6020026020010151600001516001600160a01b031614611c5557828181518110611b9357611b93612bc3565b6020026020010151602001516001600160a01b03166323b872dd30858481518110611bc057611bc0612bc3565b602002602001015160000151868581518110611bde57611bde612bc3565b6020908102919091010151606001516040516001600160e01b031960e086901b1681526001600160a01b0393841660048201529290911660248301526044820152606401600060405180830381600087803b158015611c3c57600080fd5b505af1158015611c50573d6000803e3d6000fd5b505050505b611d81565b60006001600160a01b0316838281518110611c7757611c77612bc3565b6020026020010151600001516001600160a01b031614611d815760006001600160a01b0316838281518110611cae57611cae612bc3565b6020026020010151602001516001600160a01b031603611d0c57611c55838281518110611cdd57611cdd612bc3565b602002602001015160000151848381518110611cfb57611cfb612bc3565b602002602001015160600151611fc8565b611d81838281518110611d2157611d21612bc3565b602002602001015160000151848381518110611d3f57611d3f612bc3565b602002602001015160600151858481518110611d5d57611d5d612bc3565b6020026020010151602001516001600160a01b031661210c9092919063ffffffff16565b6000838281518110611d9557611d95612bc3565b6020026020010151608001511115611e1c57828181518110611db957611db9612bc3565b60200260200101516080015160996000858481518110611ddb57611ddb612bc3565b6020026020010151602001516001600160a01b03166001600160a01b031681526020019081526020016000206000828254611e169190612af2565b90915550505b7ffdf87137985fce097c2059f7e3bd28b9104995cad66709fdecbaa5e8e48da9af838281518110611e4f57611e4f612bc3565b602002602001015160000151848381518110611e6d57611e6d612bc3565b602002602001015160200151858481518110611e8b57611e8b612bc3565b602002602001015160400151868581518110611ea957611ea9612bc3565b602002602001015160600151878681518110611ec757611ec7612bc3565b602002602001015160800151604051611f109594939291906001600160a01b03958616815293909416602084015290151560408301526060820152608081019190915260a00190565b60405180910390a1611f2181612bd9565b9050611b1f565b60655460ff1615610f355760405162461bcd60e51b815260206004820152601060248201526f14185d5cd8589b194e881c185d5cd95960821b6044820152606401610631565b6033546001600160a01b03163314610f355760405162461bcd60e51b815260206004820181905260248201527f4f776e61626c653a2063616c6c6572206973206e6f7420746865206f776e65726044820152606401610631565b804710156120185760405162461bcd60e51b815260206004820152601e60248201527f5f68616e646c6545746865725472616e7366657220696e736f6c76656e7400006044820152606401610631565b60005a90506000836001600160a01b0316838390604051600060405180830381858888f193505050503d806000811461206d576040519150601f19603f3d011682016040523d82523d6000602084013e612072565b606091505b50509050806121065773c02aaa39b223fe8d0a0e5c4f27ead9083c756cc26001600160a01b031663d0e30db0846040518263ffffffff1660e01b81526004016000604051808303818588803b1580156120ca57600080fd5b505af11580156120de573d6000803e3d6000fd5b50612106935073c02aaa39b223fe8d0a0e5c4f27ead9083c756cc2925087915086905061210c565b50505050565b6040516001600160a01b038316602482015260448101829052610de690849063a9059cbb60e01b906064015b60408051601f198184030181529190526020810180516001600160e01b03166001600160e01b0319909316929092179091526122ea565b600054610100900460ff166121965760405162461bcd60e51b815260040161063190612dd8565b610f356123bc565b600054610100900460ff166121c55760405162461bcd60e51b815260040161063190612dd8565b610f356123ec565b603380546001600160a01b038381166001600160a01b0319831681179093556040519116919082907f8be0079c531659141344cd1fd0a4f28419497f9722a3daafe3b4186f6b6457e090600090a35050565b6040516001600160a01b03808516602483015283166044820152606481018290526121069085906323b872dd60e01b90608401612138565b61225f611f28565b6065805460ff191660011790557f62e78cea01bee320cd4e420270b5ea74000d11b0c9f74754ebdbfc544b05a2586122943390565b6040516001600160a01b03909116815260200160405180910390a1565b6122b961241f565b6065805460ff191690557f5db9ee0a495bf2e6ff9c91a7834c1ba4fdd244a5e8aa4e537bd38aeae4b073aa33612294565b600061233f826040518060400160405280602081526020017f5361666545524332303a206c6f772d6c6576656c2063616c6c206661696c6564815250856001600160a01b03166124689092919063ffffffff16565b805190915015610de6578080602001905181019061235d9190612e23565b610de65760405162461bcd60e51b815260206004820152602a60248201527f5361666545524332303a204552433230206f7065726174696f6e20646964206e6044820152691bdd081cdd58d8d9595960b21b6064820152608401610631565b600054610100900460ff166123e35760405162461bcd60e51b815260040161063190612dd8565b610f35336121cd565b600054610100900460ff166124135760405162461bcd60e51b815260040161063190612dd8565b6065805460ff19169055565b60655460ff16610f355760405162461bcd60e51b815260206004820152601460248201527314185d5cd8589b194e881b9bdd081c185d5cd95960621b6044820152606401610631565b6060612477848460008561247f565b949350505050565b6060824710156124e05760405162461bcd60e51b815260206004820152602660248201527f416464726573733a20696e73756666696369656e742062616c616e636520666f6044820152651c8818d85b1b60d21b6064820152608401610631565b6001600160a01b0385163b6125375760405162461bcd60e51b815260206004820152601d60248201527f416464726573733a2063616c6c20746f206e6f6e2d636f6e74726163740000006044820152606401610631565b600080866001600160a01b031685876040516125539190612e6c565b60006040518083038185875af1925050503d8060008114612590576040519150601f19603f3d011682016040523d82523d6000602084013e612595565b606091505b5091509150611a4e828286606083156125af5750816111a7565b8251156125bf5782518084602001fd5b8160405162461bcd60e51b81526004016106319190612e88565b6001600160a01b0381168114611acf57600080fd5b80356001600160801b038116811461260557600080fd5b919050565b80356001600160401b038116811461260557600080fd5b600080600080600080600080610100898b03121561263e57600080fd5b8835612649816125d9565b975061265760208a016125ee565b96506040890135612667816125d9565b955061267560608a016125ee565b945061268360808a0161260a565b935061269160a08a0161260a565b925061269f60c08a0161260a565b915060e089013590509295985092959890939650565b60008083601f8401126126c757600080fd5b5081356001600160401b038111156126de57600080fd5b6020830191508360208260051b85010111156126f957600080fd5b9250929050565b60008060008060006060868803121561271857600080fd5b85356001600160401b038082111561272f57600080fd5b61273b89838a016126b5565b9097509550602088013591508082111561275457600080fd5b50612761888289016126b5565b9094509250506040860135612775816125d9565b809150509295509295909350565b6000806040838503121561279657600080fd5b82356127a1816125d9565b915060208301356127b1816125d9565b809150509250929050565b6000602082840312156127ce57600080fd5b81356111a7816125d9565b6000806000606084860312156127ee57600080fd5b83356127f9816125d9565b9250612807602085016125ee565b91506128156040850161260a565b90509250925092565b60006020828403121561283057600080fd5b5035919050565b60008060008060008060c0878903121561285057600080fd5b863561285b816125d9565b9550612869602088016125ee565b94506040870135612879816125d9565b9350612887606088016125ee565b92506128956080880161260a565b91506128a360a0880161260a565b90509295509295509295565b634e487b7160e01b600052604160045260246000fd5b60405160a081016001600160401b03811182821017156128e7576128e76128af565b60405290565b604051601f8201601f191681016001600160401b0381118282101715612915576129156128af565b604052919050565b8015158114611acf57600080fd5b6000602080838503121561293e57600080fd5b82356001600160401b038082111561295557600080fd5b818501915085601f83011261296957600080fd5b81358181111561297b5761297b6128af565b612989848260051b016128ed565b818152848101925060a09182028401850191888311156129a857600080fd5b938501935b82851015612a215780858a0312156129c55760008081fd5b6129cd6128c5565b85356129d8816125d9565b8152858701356129e7816125d9565b818801526040868101356129fa8161291d565b908201526060868101359082015260808087013590820152845293840193928501926129ad565b50979650505050505050565b600060208284031215612a3f57600080fd5b81516111a7816125d9565b60208082526024908201527f526166666c6573206d7573742068617665206174206c656173742032207469636040820152636b65747360e01b606082015260800190565b6020808252602e908201527f5f6d696e696d756d5469636b657473536f6c642073686f756c64203c3d205f6e60408201526d756d6265724f665469636b65747360901b606082015260800190565b634e487b7160e01b600052601160045260246000fd5b60008219821115612b0557612b05612adc565b500190565b6001600160a01b038c811682528b166020820152610160810160028b10612b4157634e487b7160e01b600052602160045260246000fd5b8a6040830152612b5c606083018b6001600160801b03169052565b6001600160a01b03891660808301526001600160801b03881660a08301526001600160401b03871660c08301526001600160401b03861660e08301526001600160401b03851661010083015261012082019390935261014001529998505050505050505050565b634e487b7160e01b600052603260045260246000fd5b600060018201612beb57612beb612adc565b5060010190565b600060208284031215612c0457600080fd5b815160ff811681146111a757600080fd5b600181815b80851115612c50578160001904821115612c3657612c36612adc565b80851615612c4357918102915b93841c9390800290612c1a565b509250929050565b600082612c6757506001612cf5565b81612c7457506000612cf5565b8160018114612c8a5760028114612c9457612cb0565b6001915050612cf5565b60ff841115612ca557612ca5612adc565b50506001821b612cf5565b5060208310610133831016604e8410600b8410161715612cd3575081810a612cf5565b612cdd8383612c15565b8060001904821115612cf157612cf1612adc565b0290505b92915050565b60006111a760ff841683612c58565b600060208284031215612d1c57600080fd5b5051919050565b6000816000190483118215151615612d3d57612d3d612adc565b500290565b634e487b7160e01b600052601260045260246000fd5b600082612d6757612d67612d42565b500490565b600082821015612d7e57612d7e612adc565b500390565b60006001600160801b0380831681851681830481118215151615612da957612da9612adc565b02949350505050565b60006001600160801b0380841680612dcc57612dcc612d42565b92169190910492915050565b6020808252602b908201527f496e697469616c697a61626c653a20636f6e7472616374206973206e6f74206960408201526a6e697469616c697a696e6760a81b606082015260800190565b600060208284031215612e3557600080fd5b81516111a78161291d565b60005b83811015612e5b578181015183820152602001612e43565b838111156121065750506000910152565b60008251612e7e818460208701612e40565b9190910192915050565b6020815260008251806020840152612ea7816040850160208701612e40565b601f01601f1916919091016040019291505056fea2646970667358221220c5538149a849373bd9f398e368a1fc8665baa9d71db6bb116444ffdf6bafacc564736f6c634300080f0033",
    "bytecodeSha1": "555e719cff894c6cce3f347d171bb836d41495b5",
    "compiler": {
        "evm_version": "istanbul",
        "optimizer": {
            "enabled": true,
            "runs": 200
        },
        "version": "0.8.15+commit.e14f2714"
    },
    "contractName": "MainnetEscrow",
    "language": "Solidity",
    "natspec": {
        "kind": "dev",
        "methods": {
            "blacklistCurrency(address)": {
                "notice": "Used to blacklist a ERC20 token so it can not be used any longer as a payment currency"
            },
            "createERC20Raffle(address,uint128,address,uint128,uint64,uint64,uint64,bytes32)": {
                "notice": "Allows users to create a raffle of an ERC20 asset",
                "params": {
                    "_amount": "Quantity of tokens to be raffled",
                    "_currencyInPolygon": "Polygon ERC20 token address used to buy tickets. address(0) should be put here if the currency will be MATIC",
                    "_durationInSeconds": "Duration in seconds of the raffle",
                    "_merkleRoot": "Used so only whitelisted users can buy raffle tickets",
                    "_minimumTicketsSold": "Number of tickets that should be sold in order to be a success raffle. If this minimum amount is not reached the owner of the raffle will be able to cancel the raffle, returning the users their payment plus a little collateral to cover for the gas fees. If this amount is reached, normal flow will be followed",
                    "_numberOfTickets": "Number of tickets that will be sold as maximum in the raffle",
                    "_pricePerTicket": "Price per ticket. It can be zero in case of an \"airdrop\"",
                    "_tokenAddress": "Address of the token amount to raffle"
                }
            },
            "createERC721Raffle(address,uint128,address,uint128,uint64,uint64,uint64,bytes32)": {
                "notice": "Allows users to create a raffle of an ERC721 asset",
                "params": {
                    "_currencyInPolygon": "Polygon ERC20 token address used to buy tickets. address(0) should be put here if the currency will be MATIC",
                    "_durationInSeconds": "Duration in seconds of the raffle",
                    "_merkleRoot": "Used so only whitelisted users can buy raffle tickets",
                    "_minimumTicketsSold": "Number of tickets that should be sold in order to be a success raffle. If this minimum amount is not reached the owner of the raffle will be able to cancel the raffle, returning the users their payment plus a little collateral to cover for the gas fees. If this amount is reached, normal flow will be followed.",
                    "_nftCollection": "Address of the NFT to raffle",
                    "_nftId": "NFTid of the _nftCollection",
                    "_numberOfTickets": "Number of tickets that will be sold as maximum in the raffle",
                    "_pricePerTicket": "Price per ticket. It can be zero in case of an \"airdrop\""
                }
            },
            "isCurrencyWhitelisted(address)": {
                "notice": "############################################################################################                 VIEW FUNCTIONS  ############################################################################################"
            },
            "owner()": {
                "details": "Returns the address of the current owner."
            },
            "paused()": {
                "details": "Returns true if the contract is paused, and false otherwise."
            },
            "polygonCallback((address,address,bool,uint256,uint256)[])": {
                "notice": "Relayer will call this function to send updates from Polygon"
            },
            "renounceOwnership()": {
                "details": "Leaves the contract without owner. It will not be possible to call `onlyOwner` functions anymore. Can only be called by the current owner. NOTE: Renouncing ownership will leave the contract without an owner, thereby removing any functionality that is only available to the owner."
            },
            "setOpeningFee(uint256)": {
                "notice": "Used to set a new OPENING_FEE"
            },
            "setPriceFeed(address)": {
                "notice": "Used to set a new CurrencyPriceFeed contract"
            },
            "setRelayer(address)": {
                "notice": "Used to set a new relayer account"
            },
            "togglePause()": {
                "notice": "Used to pause/unpause the smart contract by the owner"
            },
            "togglePriceFeed()": {
                "notice": "Used to enable/disable CurrencyPriceFeeds contract"
            },
            "totalAmountClaimable(address)": {
                "notice": "Token address => Amount that owners of the contract can claim as fee rewards address(0) = Ether"
            },
            "transferOwnership(address)": {
                "details": "Transfers ownership of the contract to a new account (`newOwner`). Can only be called by the current owner."
            },
            "whitelistCurrency(address,address)": {
                "notice": "Used to whitelist a new ERC20 token to be used as a payment currency",
                "params": {
                    "_ERC20TokenAddressMainnet": "Address of the token in Mainnet",
                    "_ERC20TokenAddressPolygon": "Address of the token in Polygon"
                }
            },
            "withdrawFees(address[],uint256[],address)": {
                "notice": "Used by the contract owners to claim the fees accrued",
                "params": {
                    "_amounts": "List of amounts that will be withdrawn",
                    "_receiver": "Address that will receive the fees",
                    "_tokenAddress": "List of tokens to withdraw the fees"
                }
            }
        },
        "version": 1
    },
    "opcodes": "PUSH1 0x80 PUSH1 0x40 MSTORE PUSH1 0x4 CALLDATASIZE LT PUSH2 0x1B7 JUMPI PUSH1 0x0 CALLDATALOAD PUSH1 0xE0 SHR DUP1 PUSH4 0x724E78DA GT PUSH2 0xEC JUMPI DUP1 PUSH4 0xA21AFC76 GT PUSH2 0x8A JUMPI DUP1 PUSH4 0xC4AE3168 GT PUSH2 0x64 JUMPI DUP1 PUSH4 0xC4AE3168 EQ PUSH2 0x4E7 JUMPI DUP1 PUSH4 0xDA653F00 EQ PUSH2 0x4FC JUMPI DUP1 PUSH4 0xF2FDE38B EQ PUSH2 0x51C JUMPI DUP1 PUSH4 0xFCC76B80 EQ PUSH2 0x53C JUMPI PUSH1 0x0 DUP1 REVERT JUMPDEST DUP1 PUSH4 0xA21AFC76 EQ PUSH2 0x492 JUMPI DUP1 PUSH4 0xB3F8D40D EQ PUSH2 0x4BF JUMPI DUP1 PUSH4 0xC2F90A2B EQ PUSH2 0x4D2 JUMPI PUSH1 0x0 DUP1 REVERT JUMPDEST DUP1 PUSH4 0x8406C079 GT PUSH2 0xC6 JUMPI DUP1 PUSH4 0x8406C079 EQ PUSH2 0x3FE JUMPI DUP1 PUSH4 0x86375994 EQ PUSH2 0x41E JUMPI DUP1 PUSH4 0x8DA5CB5B EQ PUSH2 0x43E JUMPI DUP1 PUSH4 0x95E3D9AB EQ PUSH2 0x45C JUMPI PUSH1 0x0 DUP1 REVERT JUMPDEST DUP1 PUSH4 0x724E78DA EQ PUSH2 0x386 JUMPI DUP1 PUSH4 0x744476B6 EQ PUSH2 0x3A6 JUMPI DUP1 PUSH4 0x7B631DA5 EQ PUSH2 0x3C6 JUMPI PUSH1 0x0 DUP1 REVERT JUMPDEST DUP1 PUSH4 0x4E4D58BB GT PUSH2 0x159 JUMPI DUP1 PUSH4 0x6548E9BC GT PUSH2 0x133 JUMPI DUP1 PUSH4 0x6548E9BC EQ PUSH2 0x321 JUMPI DUP1 PUSH4 0x66998E50 EQ PUSH2 0x341 JUMPI DUP1 PUSH4 0x697CA930 EQ PUSH2 0x357 JUMPI DUP1 PUSH4 0x715018A6 EQ PUSH2 0x371 JUMPI PUSH1 0x0 DUP1 REVERT JUMPDEST DUP1 PUSH4 0x4E4D58BB EQ PUSH2 0x2D3 JUMPI DUP1 PUSH4 0x52DEFBD0 EQ PUSH2 0x2E9 JUMPI DUP1 PUSH4 0x5C975ABB EQ PUSH2 0x309 JUMPI PUSH1 0x0 DUP1 REVERT JUMPDEST DUP1 PUSH4 0x34F65FA2 GT PUSH2 0x195 JUMPI DUP1 PUSH4 0x34F65FA2 EQ PUSH2 0x21A JUMPI DUP1 PUSH4 0x436CC138 EQ PUSH2 0x23A JUMPI DUP1 PUSH4 0x43B938C5 EQ PUSH2 0x27A JUMPI DUP1 PUSH4 0x485CC955 EQ PUSH2 0x2B3 JUMPI PUSH1 0x0 DUP1 REVERT JUMPDEST DUP1 PUSH4 0x23BBCB29 EQ PUSH2 0x1BC JUMPI DUP1 PUSH4 0x2BF78DD8 EQ PUSH2 0x1D1 JUMPI DUP1 PUSH4 0x31F91A84 EQ PUSH2 0x1FA JUMPI JUMPDEST PUSH1 0x0 DUP1 REVERT JUMPDEST PUSH2 0x1CF PUSH2 0x1CA CALLDATASIZE PUSH1 0x4 PUSH2 0x2621 JUMP JUMPDEST PUSH2 0x55C JUMP JUMPDEST STOP JUMPDEST CALLVALUE DUP1 ISZERO PUSH2 0x1DD JUMPI PUSH1 0x0 DUP1 REVERT JUMPDEST POP PUSH2 0x1E7 PUSH1 0x98 SLOAD DUP2 JUMP JUMPDEST PUSH1 0x40 MLOAD SWAP1 DUP2 MSTORE PUSH1 0x20 ADD JUMPDEST PUSH1 0x40 MLOAD DUP1 SWAP2 SUB SWAP1 RETURN JUMPDEST CALLVALUE DUP1 ISZERO PUSH2 0x206 JUMPI PUSH1 0x0 DUP1 REVERT JUMPDEST POP PUSH2 0x1CF PUSH2 0x215 CALLDATASIZE PUSH1 0x4 PUSH2 0x2700 JUMP JUMPDEST PUSH2 0x996 JUMP JUMPDEST CALLVALUE DUP1 ISZERO PUSH2 0x226 JUMPI PUSH1 0x0 DUP1 REVERT JUMPDEST POP PUSH2 0x1CF PUSH2 0x235 CALLDATASIZE PUSH1 0x4 PUSH2 0x2783 JUMP JUMPDEST PUSH2 0xB12 JUMP JUMPDEST CALLVALUE DUP1 ISZERO PUSH2 0x246 JUMPI PUSH1 0x0 DUP1 REVERT JUMPDEST POP PUSH2 0x26A PUSH2 0x255 CALLDATASIZE PUSH1 0x4 PUSH2 0x27BC JUMP JUMPDEST PUSH1 0x97 PUSH1 0x20 MSTORE PUSH1 0x0 SWAP1 DUP2 MSTORE PUSH1 0x40 SWAP1 KECCAK256 SLOAD PUSH1 0xFF AND DUP2 JUMP JUMPDEST PUSH1 0x40 MLOAD SWAP1 ISZERO ISZERO DUP2 MSTORE PUSH1 0x20 ADD PUSH2 0x1F1 JUMP JUMPDEST CALLVALUE DUP1 ISZERO PUSH2 0x286 JUMPI PUSH1 0x0 DUP1 REVERT JUMPDEST POP PUSH2 0x26A PUSH2 0x295 CALLDATASIZE PUSH1 0x4 PUSH2 0x27BC JUMP JUMPDEST PUSH1 0x1 PUSH1 0x1 PUSH1 0xA0 SHL SUB AND PUSH1 0x0 SWAP1 DUP2 MSTORE PUSH1 0x97 PUSH1 0x20 MSTORE PUSH1 0x40 SWAP1 KECCAK256 SLOAD PUSH1 0xFF AND SWAP1 JUMP JUMPDEST CALLVALUE DUP1 ISZERO PUSH2 0x2BF JUMPI PUSH1 0x0 DUP1 REVERT JUMPDEST POP PUSH2 0x1CF PUSH2 0x2CE CALLDATASIZE PUSH1 0x4 PUSH2 0x2783 JUMP JUMPDEST PUSH2 0xBFD JUMP JUMPDEST CALLVALUE DUP1 ISZERO PUSH2 0x2DF JUMPI PUSH1 0x0 DUP1 REVERT JUMPDEST POP PUSH2 0x1E7 PUSH2 0x1F4 DUP2 JUMP JUMPDEST CALLVALUE DUP1 ISZERO PUSH2 0x2F5 JUMPI PUSH1 0x0 DUP1 REVERT JUMPDEST POP PUSH2 0x1CF PUSH2 0x304 CALLDATASIZE PUSH1 0x4 PUSH2 0x27BC JUMP JUMPDEST PUSH2 0xDEB JUMP JUMPDEST CALLVALUE DUP1 ISZERO PUSH2 0x315 JUMPI PUSH1 0x0 DUP1 REVERT JUMPDEST POP PUSH1 0x65 SLOAD PUSH1 0xFF AND PUSH2 0x26A JUMP JUMPDEST CALLVALUE DUP1 ISZERO PUSH2 0x32D JUMPI PUSH1 0x0 DUP1 REVERT JUMPDEST POP PUSH2 0x1CF PUSH2 0x33C CALLDATASIZE PUSH1 0x4 PUSH2 0x27BC JUMP JUMPDEST PUSH2 0xEB2 JUMP JUMPDEST CALLVALUE DUP1 ISZERO PUSH2 0x34D JUMPI PUSH1 0x0 DUP1 REVERT JUMPDEST POP PUSH2 0x1E7 PUSH2 0x2710 DUP2 JUMP JUMPDEST CALLVALUE DUP1 ISZERO PUSH2 0x363 JUMPI PUSH1 0x0 DUP1 REVERT JUMPDEST POP PUSH1 0x9D SLOAD PUSH2 0x26A SWAP1 PUSH1 0xFF AND DUP2 JUMP JUMPDEST CALLVALUE DUP1 ISZERO PUSH2 0x37D JUMPI PUSH1 0x0 DUP1 REVERT JUMPDEST POP PUSH2 0x1CF PUSH2 0xF23 JUMP JUMPDEST CALLVALUE DUP1 ISZERO PUSH2 0x392 JUMPI PUSH1 0x0 DUP1 REVERT JUMPDEST POP PUSH2 0x1CF PUSH2 0x3A1 CALLDATASIZE PUSH1 0x4 PUSH2 0x27BC JUMP JUMPDEST PUSH2 0xF37 JUMP JUMPDEST CALLVALUE DUP1 ISZERO PUSH2 0x3B2 JUMPI PUSH1 0x0 DUP1 REVERT JUMPDEST POP PUSH2 0x1E7 PUSH2 0x3C1 CALLDATASIZE PUSH1 0x4 PUSH2 0x27D9 JUMP JUMPDEST PUSH2 0xFA8 JUMP JUMPDEST CALLVALUE DUP1 ISZERO PUSH2 0x3D2 JUMPI PUSH1 0x0 DUP1 REVERT JUMPDEST POP PUSH1 0x9B SLOAD PUSH2 0x3E6 SWAP1 PUSH1 0x1 PUSH1 0x1 PUSH1 0xA0 SHL SUB AND DUP2 JUMP JUMPDEST PUSH1 0x40 MLOAD PUSH1 0x1 PUSH1 0x1 PUSH1 0xA0 SHL SUB SWAP1 SWAP2 AND DUP2 MSTORE PUSH1 0x20 ADD PUSH2 0x1F1 JUMP JUMPDEST CALLVALUE DUP1 ISZERO PUSH2 0x40A JUMPI PUSH1 0x0 DUP1 REVERT JUMPDEST POP PUSH1 0x9A SLOAD PUSH2 0x3E6 SWAP1 PUSH1 0x1 PUSH1 0x1 PUSH1 0xA0 SHL SUB AND DUP2 JUMP JUMPDEST CALLVALUE DUP1 ISZERO PUSH2 0x42A JUMPI PUSH1 0x0 DUP1 REVERT JUMPDEST POP PUSH2 0x1CF PUSH2 0x439 CALLDATASIZE PUSH1 0x4 PUSH2 0x281E JUMP JUMPDEST PUSH2 0x11AE JUMP JUMPDEST CALLVALUE DUP1 ISZERO PUSH2 0x44A JUMPI PUSH1 0x0 DUP1 REVERT JUMPDEST POP PUSH1 0x33 SLOAD PUSH1 0x1 PUSH1 0x1 PUSH1 0xA0 SHL SUB AND PUSH2 0x3E6 JUMP JUMPDEST CALLVALUE DUP1 ISZERO PUSH2 0x468 JUMPI PUSH1 0x0 DUP1 REVERT JUMPDEST POP PUSH2 0x3E6 PUSH2 0x477 CALLDATASIZE PUSH1 0x4 PUSH2 0x27BC JUMP JUMPDEST PUSH1 0x9C PUSH1 0x20 MSTORE PUSH1 0x0 SWAP1 DUP2 MSTORE PUSH1 0x40 SWAP1 KECCAK256 SLOAD PUSH1 0x1 PUSH1 0x1 PUSH1 0xA0 SHL SUB AND DUP2 JUMP JUMPDEST CALLVALUE DUP1 ISZERO PUSH2 0x49E JUMPI PUSH1 0x0 DUP1 REVERT JUMPDEST POP PUSH2 0x1E7 PUSH2 0x4AD CALLDATASIZE PUSH1 0x4 PUSH2 0x27BC JUMP JUMPDEST PUSH1 0x99 PUSH1 0x20 MSTORE PUSH1 0x0 SWAP1 DUP2 MSTORE PUSH1 0x40 SWAP1 KECCAK256 SLOAD DUP2 JUMP JUMPDEST PUSH2 0x1CF PUSH2 0x4CD CALLDATASIZE PUSH1 0x4 PUSH2 0x2621 JUMP JUMPDEST PUSH2 0x11F7 JUMP JUMPDEST CALLVALUE DUP1 ISZERO PUSH2 0x4DE JUMPI PUSH1 0x0 DUP1 REVERT JUMPDEST POP PUSH2 0x1CF PUSH2 0x15C9 JUMP JUMPDEST CALLVALUE DUP1 ISZERO PUSH2 0x4F3 JUMPI PUSH1 0x0 DUP1 REVERT JUMPDEST POP PUSH2 0x1CF PUSH2 0x15E5 JUMP JUMPDEST CALLVALUE DUP1 ISZERO PUSH2 0x508 JUMPI PUSH1 0x0 DUP1 REVERT JUMPDEST POP PUSH2 0x1E7 PUSH2 0x517 CALLDATASIZE PUSH1 0x4 PUSH2 0x2837 JUMP JUMPDEST PUSH2 0x1607 JUMP JUMPDEST CALLVALUE DUP1 ISZERO PUSH2 0x528 JUMPI PUSH1 0x0 DUP1 REVERT JUMPDEST POP PUSH2 0x1CF PUSH2 0x537 CALLDATASIZE PUSH1 0x4 PUSH2 0x27BC JUMP JUMPDEST PUSH2 0x1A59 JUMP JUMPDEST CALLVALUE DUP1 ISZERO PUSH2 0x548 JUMPI PUSH1 0x0 DUP1 REVERT JUMPDEST POP PUSH2 0x1CF PUSH2 0x557 CALLDATASIZE PUSH1 0x4 PUSH2 0x292B JUMP JUMPDEST PUSH2 0x1AD2 JUMP JUMPDEST PUSH2 0x564 PUSH2 0x1F28 JUMP JUMPDEST PUSH1 0x40 MLOAD PUSH4 0x31A9108F PUSH1 0xE1 SHL DUP2 MSTORE PUSH1 0x1 PUSH1 0x1 PUSH1 0x80 SHL SUB DUP9 AND PUSH1 0x4 DUP3 ADD MSTORE PUSH1 0x1 PUSH1 0x1 PUSH1 0xA0 SHL SUB DUP10 AND SWAP1 PUSH4 0x6352211E SWAP1 PUSH1 0x24 ADD PUSH1 0x20 PUSH1 0x40 MLOAD DUP1 DUP4 SUB DUP2 DUP7 GAS STATICCALL ISZERO DUP1 ISZERO PUSH2 0x5B1 JUMPI RETURNDATASIZE PUSH1 0x0 DUP1 RETURNDATACOPY RETURNDATASIZE PUSH1 0x0 REVERT JUMPDEST POP POP POP POP PUSH1 0x40 MLOAD RETURNDATASIZE PUSH1 0x1F NOT PUSH1 0x1F DUP3 ADD AND DUP3 ADD DUP1 PUSH1 0x40 MSTORE POP DUP2 ADD SWAP1 PUSH2 0x5D5 SWAP2 SWAP1 PUSH2 0x2A2D JUMP JUMPDEST PUSH1 0x1 PUSH1 0x1 PUSH1 0xA0 SHL SUB AND CALLER PUSH1 0x1 PUSH1 0x1 PUSH1 0xA0 SHL SUB AND EQ PUSH2 0x63A JUMPI PUSH1 0x40 MLOAD PUSH3 0x461BCD PUSH1 0xE5 SHL DUP2 MSTORE PUSH1 0x20 PUSH1 0x4 DUP3 ADD MSTORE PUSH1 0x17 PUSH1 0x24 DUP3 ADD MSTORE PUSH32 0x596F7520646F206E6F74206F776E2074686973204E4654000000000000000000 PUSH1 0x44 DUP3 ADD MSTORE PUSH1 0x64 ADD JUMPDEST PUSH1 0x40 MLOAD DUP1 SWAP2 SUB SWAP1 REVERT JUMPDEST PUSH1 0x1 PUSH1 0x1 PUSH1 0xA0 SHL SUB DUP7 AND PUSH1 0x0 SWAP1 DUP2 MSTORE PUSH1 0x97 PUSH1 0x20 MSTORE PUSH1 0x40 SWAP1 KECCAK256 SLOAD PUSH1 0xFF AND PUSH2 0x6A2 JUMPI PUSH1 0x40 MLOAD PUSH3 0x461BCD PUSH1 0xE5 SHL DUP2 MSTORE PUSH1 0x20 PUSH1 0x4 DUP3 ADD DUP2 SWAP1 MSTORE PUSH1 0x24 DUP3 ADD MSTORE PUSH32 0x546869732063757272656E6379206973206E6F742077686974656C6973746564 PUSH1 0x44 DUP3 ADD MSTORE PUSH1 0x64 ADD PUSH2 0x631 JUMP JUMPDEST PUSH1 0x1 DUP5 PUSH1 0x1 PUSH1 0x1 PUSH1 0x40 SHL SUB AND GT PUSH2 0x6CB JUMPI PUSH1 0x40 MLOAD PUSH3 0x461BCD PUSH1 0xE5 SHL DUP2 MSTORE PUSH1 0x4 ADD PUSH2 0x631 SWAP1 PUSH2 0x2A4A JUMP JUMPDEST DUP4 PUSH1 0x1 PUSH1 0x1 PUSH1 0x40 SHL SUB AND DUP4 PUSH1 0x1 PUSH1 0x1 PUSH1 0x40 SHL SUB AND GT ISZERO PUSH2 0x6FD JUMPI PUSH1 0x40 MLOAD PUSH3 0x461BCD PUSH1 0xE5 SHL DUP2 MSTORE PUSH1 0x4 ADD PUSH2 0x631 SWAP1 PUSH2 0x2A8E JUMP JUMPDEST PUSH2 0xA8C0 DUP3 PUSH1 0x1 PUSH1 0x1 PUSH1 0x40 SHL SUB AND LT ISZERO PUSH2 0x758 JUMPI PUSH1 0x40 MLOAD PUSH3 0x461BCD PUSH1 0xE5 SHL DUP2 MSTORE PUSH1 0x20 PUSH1 0x4 DUP3 ADD MSTORE PUSH1 0x1C PUSH1 0x24 DUP3 ADD MSTORE PUSH32 0x4D696E696D756D206475726174696F6E20697320313220686F75727300000000 PUSH1 0x44 DUP3 ADD MSTORE PUSH1 0x64 ADD PUSH2 0x631 JUMP JUMPDEST PUSH1 0x0 PUSH2 0x765 DUP8 DUP8 DUP7 PUSH2 0xFA8 JUMP JUMPDEST SWAP1 POP DUP1 PUSH1 0x98 SLOAD PUSH2 0x775 SWAP2 SWAP1 PUSH2 0x2AF2 JUMP JUMPDEST CALLVALUE EQ PUSH2 0x7B9 JUMPI PUSH1 0x40 MLOAD PUSH3 0x461BCD PUSH1 0xE5 SHL DUP2 MSTORE PUSH1 0x20 PUSH1 0x4 DUP3 ADD MSTORE PUSH1 0x13 PUSH1 0x24 DUP3 ADD MSTORE PUSH19 0x125B98DBDC9C9958DD081999595CC81CD95B9D PUSH1 0x6A SHL PUSH1 0x44 DUP3 ADD MSTORE PUSH1 0x64 ADD PUSH2 0x631 JUMP JUMPDEST PUSH1 0x98 SLOAD PUSH1 0x0 DUP1 DUP1 MSTORE PUSH1 0x99 PUSH1 0x20 MSTORE PUSH32 0x235D629DC802037DED8C61CB27FB29E40FA01B299719D8F991FFE20BDCC59F4F DUP1 SLOAD SWAP1 SWAP2 SWAP1 PUSH2 0x7F7 SWAP1 DUP5 SWAP1 PUSH2 0x2AF2 JUMP JUMPDEST SWAP1 SWAP2 SSTORE POP POP PUSH1 0x40 MLOAD PUSH4 0x23B872DD PUSH1 0xE0 SHL DUP2 MSTORE CALLER PUSH1 0x4 DUP3 ADD MSTORE ADDRESS PUSH1 0x24 DUP3 ADD MSTORE PUSH1 0x1 PUSH1 0x1 PUSH1 0x80 SHL SUB DUP10 AND PUSH1 0x44 DUP3 ADD MSTORE PUSH1 0x1 PUSH1 0x1 PUSH1 0xA0 SHL SUB DUP11 AND SWAP1 PUSH4 0x23B872DD SWAP1 PUSH1 0x64 ADD PUSH1 0x0 PUSH1 0x40 MLOAD DUP1 DUP4 SUB DUP2 PUSH1 0x0 DUP8 DUP1 EXTCODESIZE ISZERO DUP1 ISZERO PUSH2 0x852 JUMPI PUSH1 0x0 DUP1 REVERT JUMPDEST POP GAS CALL ISZERO DUP1 ISZERO PUSH2 0x866 JUMPI RETURNDATASIZE PUSH1 0x0 DUP1 RETURNDATACOPY RETURNDATASIZE PUSH1 0x0 REVERT JUMPDEST POP POP PUSH1 0x40 MLOAD PUSH4 0x31A9108F PUSH1 0xE1 SHL DUP2 MSTORE PUSH1 0x1 PUSH1 0x1 PUSH1 0x80 SHL SUB DUP12 AND PUSH1 0x4 DUP3 ADD MSTORE PUSH1 0x1 PUSH1 0x1 PUSH1 0xA0 SHL SUB DUP13 AND SWAP3 POP PUSH4 0x6352211E SWAP2 POP PUSH1 0x24 ADD PUSH1 0x20 PUSH1 0x40 MLOAD DUP1 DUP4 SUB DUP2 DUP7 GAS STATICCALL ISZERO DUP1 ISZERO PUSH2 0x8B7 JUMPI RETURNDATASIZE PUSH1 0x0 DUP1 RETURNDATACOPY RETURNDATASIZE PUSH1 0x0 REVERT JUMPDEST POP POP POP POP PUSH1 0x40 MLOAD RETURNDATASIZE PUSH1 0x1F NOT PUSH1 0x1F DUP3 ADD AND DUP3 ADD DUP1 PUSH1 0x40 MSTORE POP DUP2 ADD SWAP1 PUSH2 0x8DB SWAP2 SWAP1 PUSH2 0x2A2D JUMP JUMPDEST PUSH1 0x1 PUSH1 0x1 PUSH1 0xA0 SHL SUB AND ADDRESS PUSH1 0x1 PUSH1 0x1 PUSH1 0xA0 SHL SUB AND EQ PUSH2 0x92D JUMPI PUSH1 0x40 MLOAD PUSH3 0x461BCD PUSH1 0xE5 SHL DUP2 MSTORE PUSH1 0x20 PUSH1 0x4 DUP3 ADD MSTORE PUSH1 0xF PUSH1 0x24 DUP3 ADD MSTORE PUSH15 0x151C985B9CD9995C8819985A5B1959 PUSH1 0x8A SHL PUSH1 0x44 DUP3 ADD MSTORE PUSH1 0x64 ADD PUSH2 0x631 JUMP JUMPDEST PUSH32 0xB26C0BF32D8D3EFF0D0561D0B30F4BF8962A18678833B276FCBBE06C48E9EAAA DUP10 CALLER PUSH1 0x0 DUP12 DUP12 DUP12 DUP12 DUP12 PUSH2 0x96A PUSH1 0x1 PUSH1 0x1 PUSH1 0x40 SHL SUB DUP14 AND TIMESTAMP PUSH2 0x2AF2 JUMP JUMPDEST DUP12 DUP12 PUSH1 0x40 MLOAD PUSH2 0x983 SWAP12 SWAP11 SWAP10 SWAP9 SWAP8 SWAP7 SWAP6 SWAP5 SWAP4 SWAP3 SWAP2 SWAP1 PUSH2 0x2B0A JUMP JUMPDEST PUSH1 0x40 MLOAD DUP1 SWAP2 SUB SWAP1 LOG1 POP POP POP POP POP POP POP POP POP JUMP JUMPDEST PUSH2 0x99E PUSH2 0x1F6E JUMP JUMPDEST DUP4 DUP3 DUP2 EQ PUSH2 0x9EE JUMPI PUSH1 0x40 MLOAD PUSH3 0x461BCD PUSH1 0xE5 SHL DUP2 MSTORE PUSH1 0x20 PUSH1 0x4 DUP3 ADD MSTORE PUSH1 0x1A PUSH1 0x24 DUP3 ADD MSTORE PUSH32 0x4172726179206C656E6774687320646F206E6F74206D61746368000000000000 PUSH1 0x44 DUP3 ADD MSTORE PUSH1 0x64 ADD PUSH2 0x631 JUMP JUMPDEST PUSH1 0x0 DUP1 PUSH1 0x0 JUMPDEST DUP4 DUP2 LT ISZERO PUSH2 0xB07 JUMPI DUP9 DUP9 DUP3 DUP2 DUP2 LT PUSH2 0xA0E JUMPI PUSH2 0xA0E PUSH2 0x2BC3 JUMP JUMPDEST SWAP1 POP PUSH1 0x20 MUL ADD PUSH1 0x20 DUP2 ADD SWAP1 PUSH2 0xA23 SWAP2 SWAP1 PUSH2 0x27BC JUMP JUMPDEST SWAP2 POP DUP7 DUP7 DUP3 DUP2 DUP2 LT PUSH2 0xA37 JUMPI PUSH2 0xA37 PUSH2 0x2BC3 JUMP JUMPDEST SWAP1 POP PUSH1 0x20 MUL ADD CALLDATALOAD SWAP3 POP PUSH1 0x99 PUSH1 0x0 DUP4 PUSH1 0x1 PUSH1 0x1 PUSH1 0xA0 SHL SUB AND PUSH1 0x1 PUSH1 0x1 PUSH1 0xA0 SHL SUB AND DUP2 MSTORE PUSH1 0x20 ADD SWAP1 DUP2 MSTORE PUSH1 0x20 ADD PUSH1 0x0 KECCAK256 SLOAD DUP4 GT ISZERO PUSH2 0xAA7 JUMPI PUSH1 0x40 MLOAD PUSH3 0x461BCD PUSH1 0xE5 SHL DUP2 MSTORE PUSH1 0x20 PUSH1 0x4 DUP3 ADD MSTORE PUSH1 0xF PUSH1 0x24 DUP3 ADD MSTORE PUSH15 0x82DADEEADCE840E8DEDE40D0D2CED PUSH1 0x8B SHL PUSH1 0x44 DUP3 ADD MSTORE PUSH1 0x64 ADD PUSH2 0x631 JUMP JUMPDEST PUSH1 0x1 PUSH1 0x1 PUSH1 0xA0 SHL SUB DUP3 AND PUSH2 0xAC4 JUMPI PUSH2 0xABF DUP6 DUP5 PUSH2 0x1FC8 JUMP JUMPDEST PUSH2 0xAD8 JUMP JUMPDEST PUSH2 0xAD8 PUSH1 0x1 PUSH1 0x1 PUSH1 0xA0 SHL SUB DUP4 AND DUP7 DUP6 PUSH2 0x210C JUMP JUMPDEST PUSH1 0x1 PUSH1 0x1 PUSH1 0xA0 SHL SUB DUP3 AND PUSH1 0x0 SWAP1 DUP2 MSTORE PUSH1 0x99 PUSH1 0x20 MSTORE PUSH1 0x40 SWAP1 KECCAK256 DUP1 SLOAD DUP5 SWAP1 SUB SWAP1 SSTORE PUSH2 0xB00 DUP2 PUSH2 0x2BD9 JUMP JUMPDEST SWAP1 POP PUSH2 0x9F4 JUMP JUMPDEST POP POP POP POP POP POP POP POP POP JUMP JUMPDEST PUSH2 0xB1A PUSH2 0x1F6E JUMP JUMPDEST PUSH1 0x1 PUSH1 0x1 PUSH1 0xA0 SHL SUB DUP3 AND PUSH1 0x0 SWAP1 DUP2 MSTORE PUSH1 0x97 PUSH1 0x20 MSTORE PUSH1 0x40 SWAP1 KECCAK256 SLOAD PUSH1 0xFF AND ISZERO PUSH2 0xB83 JUMPI PUSH1 0x40 MLOAD PUSH3 0x461BCD PUSH1 0xE5 SHL DUP2 MSTORE PUSH1 0x20 PUSH1 0x4 DUP3 ADD MSTORE PUSH1 0x1C PUSH1 0x24 DUP3 ADD MSTORE PUSH32 0x546F6B656E20697320616C72656164792077686974656C697374656400000000 PUSH1 0x44 DUP3 ADD MSTORE PUSH1 0x64 ADD PUSH2 0x631 JUMP JUMPDEST PUSH1 0x1 PUSH1 0x1 PUSH1 0xA0 SHL SUB DUP3 DUP2 AND PUSH1 0x0 DUP2 DUP2 MSTORE PUSH1 0x97 PUSH1 0x20 SWAP1 DUP2 MSTORE PUSH1 0x40 DUP1 DUP4 KECCAK256 DUP1 SLOAD PUSH1 0x1 PUSH1 0xFF NOT SWAP1 SWAP2 AND OR SWAP1 SSTORE PUSH1 0x9C DUP3 MSTORE SWAP2 DUP3 SWAP1 KECCAK256 DUP1 SLOAD PUSH1 0x1 PUSH1 0x1 PUSH1 0xA0 SHL SUB NOT AND SWAP5 DUP7 AND SWAP5 SWAP1 SWAP5 OR SWAP1 SWAP4 SSTORE MLOAD SWAP1 DUP2 MSTORE PUSH32 0x5C6CF68A9D7E416D0EEE740661627DD794257920F1C63DDAE6C6AF81D02D12EA SWAP2 ADD PUSH1 0x40 MLOAD DUP1 SWAP2 SUB SWAP1 LOG1 POP POP JUMP JUMPDEST PUSH1 0x0 SLOAD PUSH2 0x100 SWAP1 DIV PUSH1 0xFF AND ISZERO DUP1 DUP1 ISZERO PUSH2 0xC1D JUMPI POP PUSH1 0x0 SLOAD PUSH1 0x1 PUSH1 0xFF SWAP1 SWAP2 AND LT JUMPDEST DUP1 PUSH2 0xC37 JUMPI POP ADDRESS EXTCODESIZE ISZERO DUP1 ISZERO PUSH2 0xC37 JUMPI POP PUSH1 0x0 SLOAD PUSH1 0xFF AND PUSH1 0x1 EQ JUMPDEST PUSH2 0xC9A JUMPI PUSH1 0x40 MLOAD PUSH3 0x461BCD PUSH1 0xE5 SHL DUP2 MSTORE PUSH1 0x20 PUSH1 0x4 DUP3 ADD MSTORE PUSH1 0x2E PUSH1 0x24 DUP3 ADD MSTORE PUSH32 0x496E697469616C697A61626C653A20636F6E747261637420697320616C726561 PUSH1 0x44 DUP3 ADD MSTORE PUSH14 0x191E481A5B9A5D1A585B1A5E9959 PUSH1 0x92 SHL PUSH1 0x64 DUP3 ADD MSTORE PUSH1 0x84 ADD PUSH2 0x631 JUMP JUMPDEST PUSH1 0x0 DUP1 SLOAD PUSH1 0xFF NOT AND PUSH1 0x1 OR SWAP1 SSTORE DUP1 ISZERO PUSH2 0xCBD JUMPI PUSH1 0x0 DUP1 SLOAD PUSH2 0xFF00 NOT AND PUSH2 0x100 OR SWAP1 SSTORE JUMPDEST PUSH2 0xCC5 PUSH2 0x216F JUMP JUMPDEST PUSH2 0xCCD PUSH2 0x219E JUMP JUMPDEST PUSH1 0x9A DUP1 SLOAD PUSH1 0x1 PUSH1 0x1 PUSH1 0xA0 SHL SUB DUP1 DUP7 AND PUSH1 0x1 PUSH1 0x1 PUSH1 0xA0 SHL SUB NOT SWAP3 DUP4 AND OR SWAP1 SWAP3 SSTORE PUSH1 0x9B DUP1 SLOAD SWAP3 DUP6 AND SWAP3 DUP3 AND SWAP3 SWAP1 SWAP3 OR SWAP1 SWAP2 SSTORE PUSH1 0x9D DUP1 SLOAD PUSH1 0xFF NOT SWAP1 DUP2 AND PUSH1 0x1 SWAP1 DUP2 OR SWAP1 SWAP3 SSTORE PUSH20 0x7CEB23FD6BC0ADD59E62AC25578270CFF1B9F619 PUSH1 0x0 MSTORE PUSH32 0x1A0ACAC70E8CAB5A31AC0C028653F1612AEC657B1C8333C74EABA0C30E0EE391 DUP1 SLOAD SWAP1 SWAP2 AND SWAP1 SWAP2 OR SWAP1 SSTORE PUSH1 0x9C PUSH1 0x20 MSTORE PUSH32 0x54CB885AAE8EFE3410AF7107761EDCAE51EE12661F9443184B5E9D063DDF7FA5 DUP1 SLOAD SWAP1 SWAP2 AND PUSH20 0xC02AAA39B223FE8D0A0E5C4F27EAD9083C756CC2 OR SWAP1 SSTORE PUSH7 0x6A94D74F430000 PUSH1 0x98 SSTORE DUP1 ISZERO PUSH2 0xDE6 JUMPI PUSH1 0x0 DUP1 SLOAD PUSH2 0xFF00 NOT AND SWAP1 SSTORE PUSH1 0x40 MLOAD PUSH1 0x1 DUP2 MSTORE PUSH32 0x7F26B83FF96E1F2B6A682F133852F6798A09C465DA95921460CEFB3847402498 SWAP1 PUSH1 0x20 ADD PUSH1 0x40 MLOAD DUP1 SWAP2 SUB SWAP1 LOG1 JUMPDEST POP POP POP JUMP JUMPDEST PUSH2 0xDF3 PUSH2 0x1F6E JUMP JUMPDEST PUSH1 0x1 PUSH1 0x1 PUSH1 0xA0 SHL SUB DUP2 AND PUSH1 0x0 SWAP1 DUP2 MSTORE PUSH1 0x97 PUSH1 0x20 MSTORE PUSH1 0x40 SWAP1 KECCAK256 SLOAD PUSH1 0xFF AND PUSH2 0xE5B JUMPI PUSH1 0x40 MLOAD PUSH3 0x461BCD PUSH1 0xE5 SHL DUP2 MSTORE PUSH1 0x20 PUSH1 0x4 DUP3 ADD MSTORE PUSH1 0x18 PUSH1 0x24 DUP3 ADD MSTORE PUSH32 0x546F6B656E206973206E6F742077686974656C69737465640000000000000000 PUSH1 0x44 DUP3 ADD MSTORE PUSH1 0x64 ADD PUSH2 0x631 JUMP JUMPDEST PUSH1 0x1 PUSH1 0x1 PUSH1 0xA0 SHL SUB DUP2 AND PUSH1 0x0 DUP2 DUP2 MSTORE PUSH1 0x97 PUSH1 0x20 SWAP1 DUP2 MSTORE PUSH1 0x40 SWAP2 DUP3 SWAP1 KECCAK256 DUP1 SLOAD PUSH1 0xFF NOT AND SWAP1 SSTORE SWAP1 MLOAD SWAP2 DUP3 MSTORE PUSH32 0xDC0548BC90523A9E943EA77D199875FDC1E4F8A419B6D53A595B5E6671480E5 SWAP2 ADD PUSH1 0x40 MLOAD DUP1 SWAP2 SUB SWAP1 LOG1 POP JUMP JUMPDEST PUSH2 0xEBA PUSH2 0x1F6E JUMP JUMPDEST PUSH1 0x9A SLOAD PUSH1 0x40 DUP1 MLOAD PUSH1 0x1 PUSH1 0x1 PUSH1 0xA0 SHL SUB SWAP3 DUP4 AND DUP2 MSTORE SWAP2 DUP4 AND PUSH1 0x20 DUP4 ADD MSTORE PUSH32 0x605CA4E43489FB38B91AA63DD9147CD3847957694B080B9285EC898B34269F0C SWAP2 ADD PUSH1 0x40 MLOAD DUP1 SWAP2 SUB SWAP1 LOG1 PUSH1 0x9A DUP1 SLOAD PUSH1 0x1 PUSH1 0x1 PUSH1 0xA0 SHL SUB NOT AND PUSH1 0x1 PUSH1 0x1 PUSH1 0xA0 SHL SUB SWAP3 SWAP1 SWAP3 AND SWAP2 SWAP1 SWAP2 OR SWAP1 SSTORE JUMP JUMPDEST PUSH2 0xF2B PUSH2 0x1F6E JUMP JUMPDEST PUSH2 0xF35 PUSH1 0x0 PUSH2 0x21CD JUMP JUMPDEST JUMP JUMPDEST PUSH2 0xF3F PUSH2 0x1F6E JUMP JUMPDEST PUSH1 0x9B SLOAD PUSH1 0x40 DUP1 MLOAD PUSH1 0x1 PUSH1 0x1 PUSH1 0xA0 SHL SUB SWAP3 DUP4 AND DUP2 MSTORE SWAP2 DUP4 AND PUSH1 0x20 DUP4 ADD MSTORE PUSH32 0xA8ABE0398416476DB5B05737CD4DA3B3CBDE5012D978A6A6C3FD49D321753536 SWAP2 ADD PUSH1 0x40 MLOAD DUP1 SWAP2 SUB SWAP1 LOG1 PUSH1 0x9B DUP1 SLOAD PUSH1 0x1 PUSH1 0x1 PUSH1 0xA0 SHL SUB NOT AND PUSH1 0x1 PUSH1 0x1 PUSH1 0xA0 SHL SUB SWAP3 SWAP1 SWAP3 AND SWAP2 SWAP1 SWAP2 OR SWAP1 SSTORE JUMP JUMPDEST PUSH1 0x1 PUSH1 0x1 PUSH1 0xA0 SHL SUB DUP1 DUP5 AND PUSH1 0x0 SWAP1 DUP2 MSTORE PUSH1 0x9C PUSH1 0x20 SWAP1 DUP2 MSTORE PUSH1 0x40 DUP1 DUP4 KECCAK256 SLOAD DUP2 MLOAD PUSH4 0x313CE567 PUSH1 0xE0 SHL DUP2 MSTORE SWAP2 MLOAD SWAP4 SWAP5 DUP6 SWAP5 SWAP2 AND SWAP3 PUSH4 0x313CE567 SWAP3 PUSH1 0x4 DUP1 DUP3 ADD SWAP4 SWAP2 DUP3 SWAP1 SUB ADD DUP2 DUP7 GAS STATICCALL ISZERO DUP1 ISZERO PUSH2 0x1000 JUMPI RETURNDATASIZE PUSH1 0x0 DUP1 RETURNDATACOPY RETURNDATASIZE PUSH1 0x0 REVERT JUMPDEST POP POP POP POP PUSH1 0x40 MLOAD RETURNDATASIZE PUSH1 0x1F NOT PUSH1 0x1F DUP3 ADD AND DUP3 ADD DUP1 PUSH1 0x40 MSTORE POP DUP2 ADD SWAP1 PUSH2 0x1024 SWAP2 SWAP1 PUSH2 0x2BF2 JUMP JUMPDEST PUSH2 0x102F SWAP1 PUSH1 0xA PUSH2 0x2CFB JUMP JUMPDEST PUSH1 0x9B SLOAD PUSH1 0x1 PUSH1 0x1 PUSH1 0xA0 SHL SUB DUP8 DUP2 AND PUSH1 0x0 SWAP1 DUP2 MSTORE PUSH1 0x9C PUSH1 0x20 MSTORE PUSH1 0x40 SWAP1 DUP2 SWAP1 KECCAK256 SLOAD SWAP1 MLOAD PUSH4 0xA4B943FB PUSH1 0xE0 SHL DUP2 MSTORE SWAP1 DUP3 AND PUSH1 0x4 DUP3 ADD MSTORE PUSH1 0x1 PUSH1 0x1 PUSH1 0x40 SHL SUB DUP8 AND SWAP3 PUSH1 0x1 PUSH1 0x1 PUSH1 0x80 SHL SUB DUP10 AND SWAP3 AND SWAP1 PUSH4 0xA4B943FB SWAP1 PUSH1 0x24 ADD PUSH1 0x20 PUSH1 0x40 MLOAD DUP1 DUP4 SUB DUP2 DUP7 GAS STATICCALL ISZERO DUP1 ISZERO PUSH2 0x10A0 JUMPI RETURNDATASIZE PUSH1 0x0 DUP1 RETURNDATACOPY RETURNDATASIZE PUSH1 0x0 REVERT JUMPDEST POP POP POP POP PUSH1 0x40 MLOAD RETURNDATASIZE PUSH1 0x1F NOT PUSH1 0x1F DUP3 ADD AND DUP3 ADD DUP1 PUSH1 0x40 MSTORE POP DUP2 ADD SWAP1 PUSH2 0x10C4 SWAP2 SWAP1 PUSH2 0x2D0A JUMP JUMPDEST PUSH2 0x10CE SWAP2 SWAP1 PUSH2 0x2D23 JUMP JUMPDEST PUSH2 0x10D8 SWAP2 SWAP1 PUSH2 0x2D23 JUMP JUMPDEST PUSH2 0x10E2 SWAP2 SWAP1 PUSH2 0x2D58 JUMP JUMPDEST SWAP1 POP PUSH1 0x0 PUSH2 0x2710 PUSH2 0x10F5 PUSH2 0x1F4 DUP5 PUSH2 0x2D23 JUMP JUMPDEST PUSH2 0x10FF SWAP2 SWAP1 PUSH2 0x2D58 JUMP JUMPDEST PUSH1 0x9B SLOAD PUSH1 0x40 MLOAD PUSH4 0xA4B943FB PUSH1 0xE0 SHL DUP2 MSTORE PUSH20 0xEEEEEEEEEEEEEEEEEEEEEEEEEEEEEEEEEEEEEEEE PUSH1 0x4 DUP3 ADD MSTORE SWAP2 SWAP3 POP PUSH1 0x0 SWAP2 PUSH1 0x1 PUSH1 0x1 PUSH1 0xA0 SHL SUB SWAP1 SWAP2 AND SWAP1 PUSH4 0xA4B943FB SWAP1 PUSH1 0x24 ADD PUSH1 0x20 PUSH1 0x40 MLOAD DUP1 DUP4 SUB DUP2 DUP7 GAS STATICCALL ISZERO DUP1 ISZERO PUSH2 0x1161 JUMPI RETURNDATASIZE PUSH1 0x0 DUP1 RETURNDATACOPY RETURNDATASIZE PUSH1 0x0 REVERT JUMPDEST POP POP POP POP PUSH1 0x40 MLOAD RETURNDATASIZE PUSH1 0x1F NOT PUSH1 0x1F DUP3 ADD AND DUP3 ADD DUP1 PUSH1 0x40 MSTORE POP DUP2 ADD SWAP1 PUSH2 0x1185 SWAP2 SWAP1 PUSH2 0x2D0A JUMP JUMPDEST PUSH2 0x1197 DUP4 PUSH8 0xDE0B6B3A7640000 PUSH2 0x2D23 JUMP JUMPDEST PUSH2 0x11A1 SWAP2 SWAP1 PUSH2 0x2D58 JUMP JUMPDEST SWAP4 POP POP POP POP JUMPDEST SWAP4 SWAP3 POP POP POP JUMP JUMPDEST PUSH2 0x11B6 PUSH2 0x1F6E JUMP JUMPDEST PUSH1 0x98 SLOAD PUSH1 0x40 DUP1 MLOAD SWAP2 DUP3 MSTORE PUSH1 0x20 DUP3 ADD DUP4 SWAP1 MSTORE PUSH32 0x9DC2340C6769757C8D7DFE3A65A3F1E297ED8F919BED31501223AC8AA85DC63D SWAP2 ADD PUSH1 0x40 MLOAD DUP1 SWAP2 SUB SWAP1 LOG1 PUSH1 0x98 SSTORE JUMP JUMPDEST PUSH2 0x11FF PUSH2 0x1F28 JUMP JUMPDEST PUSH1 0x1 PUSH1 0x1 PUSH1 0xA0 SHL SUB DUP7 AND PUSH1 0x0 SWAP1 DUP2 MSTORE PUSH1 0x97 PUSH1 0x20 MSTORE PUSH1 0x40 SWAP1 KECCAK256 SLOAD PUSH1 0xFF AND PUSH2 0x1267 JUMPI PUSH1 0x40 MLOAD PUSH3 0x461BCD PUSH1 0xE5 SHL DUP2 MSTORE PUSH1 0x20 PUSH1 0x4 DUP3 ADD DUP2 SWAP1 MSTORE PUSH1 0x24 DUP3 ADD MSTORE PUSH32 0x546869732063757272656E6379206973206E6F742077686974656C6973746564 PUSH1 0x44 DUP3 ADD MSTORE PUSH1 0x64 ADD PUSH2 0x631 JUMP JUMPDEST PUSH1 0x1 DUP5 PUSH1 0x1 PUSH1 0x1 PUSH1 0x40 SHL SUB AND GT PUSH2 0x1290 JUMPI PUSH1 0x40 MLOAD PUSH3 0x461BCD PUSH1 0xE5 SHL DUP2 MSTORE PUSH1 0x4 ADD PUSH2 0x631 SWAP1 PUSH2 0x2A4A JUMP JUMPDEST DUP4 PUSH1 0x1 PUSH1 0x1 PUSH1 0x40 SHL SUB AND DUP4 PUSH1 0x1 PUSH1 0x1 PUSH1 0x40 SHL SUB AND GT ISZERO PUSH2 0x12C2 JUMPI PUSH1 0x40 MLOAD PUSH3 0x461BCD PUSH1 0xE5 SHL DUP2 MSTORE PUSH1 0x4 ADD PUSH2 0x631 SWAP1 PUSH2 0x2A8E JUMP JUMPDEST PUSH2 0xA8C0 DUP3 PUSH1 0x1 PUSH1 0x1 PUSH1 0x40 SHL SUB AND LT ISZERO PUSH2 0x131D JUMPI PUSH1 0x40 MLOAD PUSH3 0x461BCD PUSH1 0xE5 SHL DUP2 MSTORE PUSH1 0x20 PUSH1 0x4 DUP3 ADD MSTORE PUSH1 0x1C PUSH1 0x24 DUP3 ADD MSTORE PUSH32 0x4D696E696D756D206475726174696F6E20697320313220686F75727300000000 PUSH1 0x44 DUP3 ADD MSTORE PUSH1 0x64 ADD PUSH2 0x631 JUMP JUMPDEST PUSH1 0x0 PUSH2 0x132D DUP10 DUP10 DUP10 DUP10 DUP10 DUP10 PUSH2 0x1607 JUMP JUMPDEST SWAP1 POP PUSH1 0x1 PUSH1 0x1 PUSH1 0xA0 SHL SUB DUP10 AND PUSH2 0x139B JUMPI PUSH1 0x98 SLOAD PUSH2 0x1353 SWAP1 PUSH1 0x1 PUSH1 0x1 PUSH1 0x80 SHL SUB DUP11 AND PUSH2 0x2AF2 JUMP JUMPDEST CALLVALUE EQ PUSH2 0x1396 JUMPI PUSH1 0x40 MLOAD PUSH3 0x461BCD PUSH1 0xE5 SHL DUP2 MSTORE PUSH1 0x20 PUSH1 0x4 DUP3 ADD MSTORE PUSH1 0x12 PUSH1 0x24 DUP3 ADD MSTORE PUSH18 0x125B98DBDC9C9958DD08199959481CD95B9D PUSH1 0x72 SHL PUSH1 0x44 DUP3 ADD MSTORE PUSH1 0x64 ADD PUSH2 0x631 JUMP JUMPDEST PUSH2 0x1548 JUMP JUMPDEST PUSH1 0x98 SLOAD CALLVALUE EQ PUSH2 0x13EC JUMPI PUSH1 0x40 MLOAD PUSH3 0x461BCD PUSH1 0xE5 SHL DUP2 MSTORE PUSH1 0x20 PUSH1 0x4 DUP3 ADD MSTORE PUSH1 0x1A PUSH1 0x24 DUP3 ADD MSTORE PUSH32 0x496E636F7272656374204F50454E494E475F4645452073656E74000000000000 PUSH1 0x44 DUP3 ADD MSTORE PUSH1 0x64 ADD PUSH2 0x631 JUMP JUMPDEST PUSH1 0x40 MLOAD PUSH4 0x70A08231 PUSH1 0xE0 SHL DUP2 MSTORE ADDRESS PUSH1 0x4 DUP3 ADD MSTORE PUSH1 0x0 SWAP1 PUSH1 0x1 PUSH1 0x1 PUSH1 0xA0 SHL SUB DUP12 AND SWAP1 PUSH4 0x70A08231 SWAP1 PUSH1 0x24 ADD PUSH1 0x20 PUSH1 0x40 MLOAD DUP1 DUP4 SUB DUP2 DUP7 GAS STATICCALL ISZERO DUP1 ISZERO PUSH2 0x1433 JUMPI RETURNDATASIZE PUSH1 0x0 DUP1 RETURNDATACOPY RETURNDATASIZE PUSH1 0x0 REVERT JUMPDEST POP POP POP POP PUSH1 0x40 MLOAD RETURNDATASIZE PUSH1 0x1F NOT PUSH1 0x1F DUP3 ADD AND DUP3 ADD DUP1 PUSH1 0x40 MSTORE POP DUP2 ADD SWAP1 PUSH2 0x1457 SWAP2 SWAP1 PUSH2 0x2D0A JUMP JUMPDEST SWAP1 POP PUSH2 0x1477 PUSH1 0x1 PUSH1 0x1 PUSH1 0xA0 SHL SUB DUP12 AND CALLER ADDRESS PUSH1 0x1 PUSH1 0x1 PUSH1 0x80 SHL SUB DUP14 AND PUSH2 0x221F JUMP JUMPDEST PUSH1 0x40 MLOAD PUSH4 0x70A08231 PUSH1 0xE0 SHL DUP2 MSTORE ADDRESS PUSH1 0x4 DUP3 ADD MSTORE PUSH1 0x0 SWAP1 PUSH1 0x1 PUSH1 0x1 PUSH1 0xA0 SHL SUB DUP13 AND SWAP1 PUSH4 0x70A08231 SWAP1 PUSH1 0x24 ADD PUSH1 0x20 PUSH1 0x40 MLOAD DUP1 DUP4 SUB DUP2 DUP7 GAS STATICCALL ISZERO DUP1 ISZERO PUSH2 0x14BE JUMPI RETURNDATASIZE PUSH1 0x0 DUP1 RETURNDATACOPY RETURNDATASIZE PUSH1 0x0 REVERT JUMPDEST POP POP POP POP PUSH1 0x40 MLOAD RETURNDATASIZE PUSH1 0x1F NOT PUSH1 0x1F DUP3 ADD AND DUP3 ADD DUP1 PUSH1 0x40 MSTORE POP DUP2 ADD SWAP1 PUSH2 0x14E2 SWAP2 SWAP1 PUSH2 0x2D0A JUMP JUMPDEST SWAP1 POP PUSH2 0x14EE DUP3 DUP3 PUSH2 0x2D6C JUMP JUMPDEST DUP11 PUSH1 0x1 PUSH1 0x1 PUSH1 0x80 SHL SUB AND EQ PUSH2 0x1545 JUMPI PUSH1 0x40 MLOAD PUSH3 0x461BCD PUSH1 0xE5 SHL DUP2 MSTORE PUSH1 0x20 PUSH1 0x4 DUP3 ADD MSTORE PUSH1 0x1B PUSH1 0x24 DUP3 ADD MSTORE PUSH32 0x455243323020746F6B656E207472616E73666572206661696C65640000000000 PUSH1 0x44 DUP3 ADD MSTORE PUSH1 0x64 ADD PUSH2 0x631 JUMP JUMPDEST POP POP JUMPDEST PUSH1 0x98 SLOAD PUSH1 0x0 DUP1 DUP1 MSTORE PUSH1 0x99 PUSH1 0x20 MSTORE PUSH32 0x235D629DC802037DED8C61CB27FB29E40FA01B299719D8F991FFE20BDCC59F4F DUP1 SLOAD SWAP1 SWAP2 SWAP1 PUSH2 0x1586 SWAP1 DUP5 SWAP1 PUSH2 0x2AF2 JUMP JUMPDEST SWAP1 SWAP2 SSTORE POP PUSH32 0xB26C0BF32D8D3EFF0D0561D0B30F4BF8962A18678833B276FCBBE06C48E9EAAA SWAP1 POP DUP10 CALLER PUSH1 0x1 DUP12 DUP12 DUP12 DUP12 DUP12 PUSH2 0x96A PUSH1 0x1 PUSH1 0x1 PUSH1 0x40 SHL SUB DUP14 AND TIMESTAMP PUSH2 0x2AF2 JUMP JUMPDEST PUSH2 0x15D1 PUSH2 0x1F6E JUMP JUMPDEST PUSH1 0x9D DUP1 SLOAD PUSH1 0xFF NOT DUP2 AND PUSH1 0xFF SWAP1 SWAP2 AND ISZERO OR SWAP1 SSTORE JUMP JUMPDEST PUSH2 0x15ED PUSH2 0x1F6E JUMP JUMPDEST PUSH1 0x65 SLOAD PUSH1 0xFF AND PUSH2 0x15FF JUMPI PUSH2 0xF35 PUSH2 0x2257 JUMP JUMPDEST PUSH2 0xF35 PUSH2 0x22B1 JUMP JUMPDEST PUSH1 0x9D SLOAD PUSH1 0x0 SWAP1 DUP2 SWAP1 PUSH1 0xFF AND PUSH2 0x1653 JUMPI PUSH2 0x2710 PUSH2 0x1F4 PUSH2 0x162F DUP8 PUSH1 0x1 PUSH1 0x1 PUSH1 0x40 SHL SUB DUP8 AND PUSH2 0x2D83 JUMP JUMPDEST PUSH1 0x1 PUSH1 0x1 PUSH1 0x80 SHL SUB AND PUSH2 0x1642 SWAP2 SWAP1 PUSH2 0x2D23 JUMP JUMPDEST PUSH2 0x164C SWAP2 SWAP1 PUSH2 0x2D58 JUMP JUMPDEST SWAP1 POP PUSH2 0x1A4E JUMP JUMPDEST PUSH1 0x0 PUSH1 0x1 PUSH1 0x1 PUSH1 0xA0 SHL SUB DUP10 AND PUSH2 0x1717 JUMPI PUSH1 0x9B SLOAD PUSH1 0x40 MLOAD PUSH4 0xA4B943FB PUSH1 0xE0 SHL DUP2 MSTORE PUSH20 0xC02AAA39B223FE8D0A0E5C4F27EAD9083C756CC2 PUSH1 0x4 DUP3 ADD DUP2 SWAP1 MSTORE SWAP11 POP PUSH8 0xDE0B6B3A7640000 SWAP2 PUSH1 0x1 PUSH1 0x1 PUSH1 0x80 SHL SUB DUP12 AND SWAP2 PUSH1 0x1 PUSH1 0x1 PUSH1 0xA0 SHL SUB SWAP1 SWAP2 AND SWAP1 PUSH4 0xA4B943FB SWAP1 PUSH1 0x24 ADD PUSH1 0x20 PUSH1 0x40 MLOAD DUP1 DUP4 SUB DUP2 DUP7 GAS STATICCALL ISZERO DUP1 ISZERO PUSH2 0x16D8 JUMPI RETURNDATASIZE PUSH1 0x0 DUP1 RETURNDATACOPY RETURNDATASIZE PUSH1 0x0 REVERT JUMPDEST POP POP POP POP PUSH1 0x40 MLOAD RETURNDATASIZE PUSH1 0x1F NOT PUSH1 0x1F DUP3 ADD AND DUP3 ADD DUP1 PUSH1 0x40 MSTORE POP DUP2 ADD SWAP1 PUSH2 0x16FC SWAP2 SWAP1 PUSH2 0x2D0A JUMP JUMPDEST PUSH2 0x1706 SWAP2 SWAP1 PUSH2 0x2D23 JUMP JUMPDEST PUSH2 0x1710 SWAP2 SWAP1 PUSH2 0x2D58 JUMP JUMPDEST SWAP1 POP PUSH2 0x1812 JUMP JUMPDEST DUP9 PUSH1 0x1 PUSH1 0x1 PUSH1 0xA0 SHL SUB AND PUSH4 0x313CE567 PUSH1 0x40 MLOAD DUP2 PUSH4 0xFFFFFFFF AND PUSH1 0xE0 SHL DUP2 MSTORE PUSH1 0x4 ADD PUSH1 0x20 PUSH1 0x40 MLOAD DUP1 DUP4 SUB DUP2 DUP7 GAS STATICCALL ISZERO DUP1 ISZERO PUSH2 0x1755 JUMPI RETURNDATASIZE PUSH1 0x0 DUP1 RETURNDATACOPY RETURNDATASIZE PUSH1 0x0 REVERT JUMPDEST POP POP POP POP PUSH1 0x40 MLOAD RETURNDATASIZE PUSH1 0x1F NOT PUSH1 0x1F DUP3 ADD AND DUP3 ADD DUP1 PUSH1 0x40 MSTORE POP DUP2 ADD SWAP1 PUSH2 0x1779 SWAP2 SWAP1 PUSH2 0x2BF2 JUMP JUMPDEST PUSH2 0x1784 SWAP1 PUSH1 0xA PUSH2 0x2CFB JUMP JUMPDEST PUSH1 0x9B SLOAD PUSH1 0x40 MLOAD PUSH4 0xA4B943FB PUSH1 0xE0 SHL DUP2 MSTORE PUSH1 0x1 PUSH1 0x1 PUSH1 0xA0 SHL SUB DUP13 DUP2 AND PUSH1 0x4 DUP4 ADD MSTORE PUSH1 0x1 PUSH1 0x1 PUSH1 0x80 SHL SUB DUP13 AND SWAP3 AND SWAP1 PUSH4 0xA4B943FB SWAP1 PUSH1 0x24 ADD PUSH1 0x20 PUSH1 0x40 MLOAD DUP1 DUP4 SUB DUP2 DUP7 GAS STATICCALL ISZERO DUP1 ISZERO PUSH2 0x17D7 JUMPI RETURNDATASIZE PUSH1 0x0 DUP1 RETURNDATACOPY RETURNDATASIZE PUSH1 0x0 REVERT JUMPDEST POP POP POP POP PUSH1 0x40 MLOAD RETURNDATASIZE PUSH1 0x1F NOT PUSH1 0x1F DUP3 ADD AND DUP3 ADD DUP1 PUSH1 0x40 MSTORE POP DUP2 ADD SWAP1 PUSH2 0x17FB SWAP2 SWAP1 PUSH2 0x2D0A JUMP JUMPDEST PUSH2 0x1805 SWAP2 SWAP1 PUSH2 0x2D23 JUMP JUMPDEST PUSH2 0x180F SWAP2 SWAP1 PUSH2 0x2D58 JUMP JUMPDEST SWAP1 POP JUMPDEST PUSH1 0x1 PUSH1 0x1 PUSH1 0xA0 SHL SUB DUP1 DUP9 AND PUSH1 0x0 SWAP1 DUP2 MSTORE PUSH1 0x9C PUSH1 0x20 SWAP1 DUP2 MSTORE PUSH1 0x40 DUP1 DUP4 KECCAK256 SLOAD DUP2 MLOAD PUSH4 0x313CE567 PUSH1 0xE0 SHL DUP2 MSTORE SWAP2 MLOAD SWAP4 SWAP5 AND SWAP3 PUSH4 0x313CE567 SWAP3 PUSH1 0x4 DUP1 DUP5 ADD SWAP4 SWAP2 SWAP3 SWAP2 DUP3 SWAP1 SUB ADD DUP2 DUP7 GAS STATICCALL ISZERO DUP1 ISZERO PUSH2 0x1869 JUMPI RETURNDATASIZE PUSH1 0x0 DUP1 RETURNDATACOPY RETURNDATASIZE PUSH1 0x0 REVERT JUMPDEST POP POP POP POP PUSH1 0x40 MLOAD RETURNDATASIZE PUSH1 0x1F NOT PUSH1 0x1F DUP3 ADD AND DUP3 ADD DUP1 PUSH1 0x40 MSTORE POP DUP2 ADD SWAP1 PUSH2 0x188D SWAP2 SWAP1 PUSH2 0x2BF2 JUMP JUMPDEST PUSH2 0x1898 SWAP1 PUSH1 0xA PUSH2 0x2CFB JUMP JUMPDEST PUSH1 0x9B SLOAD PUSH1 0x1 PUSH1 0x1 PUSH1 0xA0 SHL SUB DUP11 DUP2 AND PUSH1 0x0 SWAP1 DUP2 MSTORE PUSH1 0x9C PUSH1 0x20 MSTORE PUSH1 0x40 SWAP1 DUP2 SWAP1 KECCAK256 SLOAD SWAP1 MLOAD PUSH4 0xA4B943FB PUSH1 0xE0 SHL DUP2 MSTORE SWAP1 DUP3 AND PUSH1 0x4 DUP3 ADD MSTORE PUSH1 0x1 PUSH1 0x1 PUSH1 0x80 SHL SUB DUP12 AND SWAP3 PUSH1 0x1 PUSH1 0x1 PUSH1 0x40 SHL SUB DUP12 AND SWAP3 AND SWAP1 PUSH4 0xA4B943FB SWAP1 PUSH1 0x24 ADD PUSH1 0x20 PUSH1 0x40 MLOAD DUP1 DUP4 SUB DUP2 DUP7 GAS STATICCALL ISZERO DUP1 ISZERO PUSH2 0x1909 JUMPI RETURNDATASIZE PUSH1 0x0 DUP1 RETURNDATACOPY RETURNDATASIZE PUSH1 0x0 REVERT JUMPDEST POP POP POP POP PUSH1 0x40 MLOAD RETURNDATASIZE PUSH1 0x1F NOT PUSH1 0x1F DUP3 ADD AND DUP3 ADD DUP1 PUSH1 0x40 MSTORE POP DUP2 ADD SWAP1 PUSH2 0x192D SWAP2 SWAP1 PUSH2 0x2D0A JUMP JUMPDEST PUSH2 0x1937 SWAP2 SWAP1 PUSH2 0x2D23 JUMP JUMPDEST PUSH2 0x1941 SWAP2 SWAP1 PUSH2 0x2D23 JUMP JUMPDEST PUSH2 0x194B SWAP2 SWAP1 PUSH2 0x2D58 JUMP JUMPDEST SWAP1 POP PUSH1 0x0 DUP3 PUSH2 0x195C DUP4 PUSH2 0x2710 PUSH2 0x2D23 JUMP JUMPDEST PUSH2 0x1966 SWAP2 SWAP1 PUSH2 0x2D58 JUMP JUMPDEST SWAP1 POP PUSH2 0x2710 DUP2 GT PUSH2 0x197A JUMPI PUSH1 0x0 SWAP4 POP PUSH2 0x1A4A JUMP JUMPDEST PUSH2 0x2710 DUP2 GT DUP1 ISZERO PUSH2 0x198D JUMPI POP PUSH2 0x2AF8 DUP2 GT ISZERO JUMPDEST ISZERO PUSH2 0x19CE JUMPI PUSH2 0x2710 PUSH2 0x19A8 DUP10 PUSH1 0x1 PUSH1 0x1 PUSH1 0x40 SHL SUB DUP10 AND PUSH2 0x2D83 JUMP JUMPDEST PUSH2 0x19B4 SWAP1 PUSH2 0x1F4 PUSH2 0x2D83 JUMP JUMPDEST PUSH2 0x19BE SWAP2 SWAP1 PUSH2 0x2DB2 JUMP JUMPDEST PUSH1 0x1 PUSH1 0x1 PUSH1 0x80 SHL SUB AND SWAP4 POP PUSH2 0x1A4A JUMP JUMPDEST PUSH2 0x2AF8 DUP2 GT DUP1 ISZERO PUSH2 0x19E1 JUMPI POP PUSH2 0x30D4 DUP2 GT ISZERO JUMPDEST ISZERO PUSH2 0x1A08 JUMPI PUSH2 0x2710 PUSH2 0x19FC DUP10 PUSH1 0x1 PUSH1 0x1 PUSH1 0x40 SHL SUB DUP10 AND PUSH2 0x2D83 JUMP JUMPDEST PUSH2 0x19B4 SWAP1 PUSH2 0x3E8 PUSH2 0x2D83 JUMP JUMPDEST PUSH2 0x30D4 DUP2 GT ISZERO PUSH2 0x1A4A JUMPI PUSH2 0x2710 PUSH2 0x1A28 DUP10 PUSH1 0x1 PUSH1 0x1 PUSH1 0x40 SHL SUB DUP10 AND PUSH2 0x2D83 JUMP JUMPDEST PUSH2 0x1A34 SWAP1 PUSH2 0x7D0 PUSH2 0x2D83 JUMP JUMPDEST PUSH2 0x1A3E SWAP2 SWAP1 PUSH2 0x2DB2 JUMP JUMPDEST PUSH1 0x1 PUSH1 0x1 PUSH1 0x80 SHL SUB AND SWAP4 POP JUMPDEST POP POP POP JUMPDEST SWAP8 SWAP7 POP POP POP POP POP POP POP JUMP JUMPDEST PUSH2 0x1A61 PUSH2 0x1F6E JUMP JUMPDEST PUSH1 0x1 PUSH1 0x1 PUSH1 0xA0 SHL SUB DUP2 AND PUSH2 0x1AC6 JUMPI PUSH1 0x40 MLOAD PUSH3 0x461BCD PUSH1 0xE5 SHL DUP2 MSTORE PUSH1 0x20 PUSH1 0x4 DUP3 ADD MSTORE PUSH1 0x26 PUSH1 0x24 DUP3 ADD MSTORE PUSH32 0x4F776E61626C653A206E6577206F776E657220697320746865207A65726F2061 PUSH1 0x44 DUP3 ADD MSTORE PUSH6 0x646472657373 PUSH1 0xD0 SHL PUSH1 0x64 DUP3 ADD MSTORE PUSH1 0x84 ADD PUSH2 0x631 JUMP JUMPDEST PUSH2 0x1ACF DUP2 PUSH2 0x21CD JUMP JUMPDEST POP JUMP JUMPDEST PUSH1 0x9A SLOAD PUSH1 0x1 PUSH1 0x1 PUSH1 0xA0 SHL SUB AND CALLER EQ PUSH2 0x1B1A JUMPI PUSH1 0x40 MLOAD PUSH3 0x461BCD PUSH1 0xE5 SHL DUP2 MSTORE PUSH1 0x20 PUSH1 0x4 DUP3 ADD MSTORE PUSH1 0xB PUSH1 0x24 DUP3 ADD MSTORE PUSH11 0x27B7363CA932B630BCB2B9 PUSH1 0xA9 SHL PUSH1 0x44 DUP3 ADD MSTORE PUSH1 0x64 ADD PUSH2 0x631 JUMP JUMPDEST DUP1 MLOAD PUSH1 0x0 JUMPDEST DUP2 DUP2 LT ISZERO PUSH2 0xDE6 JUMPI DUP3 DUP2 DUP2 MLOAD DUP2 LT PUSH2 0x1B39 JUMPI PUSH2 0x1B39 PUSH2 0x2BC3 JUMP JUMPDEST PUSH1 0x20 MUL PUSH1 0x20 ADD ADD MLOAD PUSH1 0x40 ADD MLOAD ISZERO PUSH2 0x1C5A JUMPI PUSH1 0x0 PUSH1 0x1 PUSH1 0x1 PUSH1 0xA0 SHL SUB AND DUP4 DUP3 DUP2 MLOAD DUP2 LT PUSH2 0x1B67 JUMPI PUSH2 0x1B67 PUSH2 0x2BC3 JUMP JUMPDEST PUSH1 0x20 MUL PUSH1 0x20 ADD ADD MLOAD PUSH1 0x0 ADD MLOAD PUSH1 0x1 PUSH1 0x1 PUSH1 0xA0 SHL SUB AND EQ PUSH2 0x1C55 JUMPI DUP3 DUP2 DUP2 MLOAD DUP2 LT PUSH2 0x1B93 JUMPI PUSH2 0x1B93 PUSH2 0x2BC3 JUMP JUMPDEST PUSH1 0x20 MUL PUSH1 0x20 ADD ADD MLOAD PUSH1 0x20 ADD MLOAD PUSH1 0x1 PUSH1 0x1 PUSH1 0xA0 SHL SUB AND PUSH4 0x23B872DD ADDRESS DUP6 DUP5 DUP2 MLOAD DUP2 LT PUSH2 0x1BC0 JUMPI PUSH2 0x1BC0 PUSH2 0x2BC3 JUMP JUMPDEST PUSH1 0x20 MUL PUSH1 0x20 ADD ADD MLOAD PUSH1 0x0 ADD MLOAD DUP7 DUP6 DUP2 MLOAD DUP2 LT PUSH2 0x1BDE JUMPI PUSH2 0x1BDE PUSH2 0x2BC3 JUMP JUMPDEST PUSH1 0x20 SWAP1 DUP2 MUL SWAP2 SWAP1 SWAP2 ADD ADD MLOAD PUSH1 0x60 ADD MLOAD PUSH1 0x40 MLOAD PUSH1 0x1 PUSH1 0x1 PUSH1 0xE0 SHL SUB NOT PUSH1 0xE0 DUP7 SWAP1 SHL AND DUP2 MSTORE PUSH1 0x1 PUSH1 0x1 PUSH1 0xA0 SHL SUB SWAP4 DUP5 AND PUSH1 0x4 DUP3 ADD MSTORE SWAP3 SWAP1 SWAP2 AND PUSH1 0x24 DUP4 ADD MSTORE PUSH1 0x44 DUP3 ADD MSTORE PUSH1 0x64 ADD PUSH1 0x0 PUSH1 0x40 MLOAD DUP1 DUP4 SUB DUP2 PUSH1 0x0 DUP8 DUP1 EXTCODESIZE ISZERO DUP1 ISZERO PUSH2 0x1C3C JUMPI PUSH1 0x0 DUP1 REVERT JUMPDEST POP GAS CALL ISZERO DUP1 ISZERO PUSH2 0x1C50 JUMPI RETURNDATASIZE PUSH1 0x0 DUP1 RETURNDATACOPY RETURNDATASIZE PUSH1 0x0 REVERT JUMPDEST POP POP POP POP JUMPDEST PUSH2 0x1D81 JUMP JUMPDEST PUSH1 0x0 PUSH1 0x1 PUSH1 0x1 PUSH1 0xA0 SHL SUB AND DUP4 DUP3 DUP2 MLOAD DUP2 LT PUSH2 0x1C77 JUMPI PUSH2 0x1C77 PUSH2 0x2BC3 JUMP JUMPDEST PUSH1 0x20 MUL PUSH1 0x20 ADD ADD MLOAD PUSH1 0x0 ADD MLOAD PUSH1 0x1 PUSH1 0x1 PUSH1 0xA0 SHL SUB AND EQ PUSH2 0x1D81 JUMPI PUSH1 0x0 PUSH1 0x1 PUSH1 0x1 PUSH1 0xA0 SHL SUB AND DUP4 DUP3 DUP2 MLOAD DUP2 LT PUSH2 0x1CAE JUMPI PUSH2 0x1CAE PUSH2 0x2BC3 JUMP JUMPDEST PUSH1 0x20 MUL PUSH1 0x20 ADD ADD MLOAD PUSH1 0x20 ADD MLOAD PUSH1 0x1 PUSH1 0x1 PUSH1 0xA0 SHL SUB AND SUB PUSH2 0x1D0C JUMPI PUSH2 0x1C55 DUP4 DUP3 DUP2 MLOAD DUP2 LT PUSH2 0x1CDD JUMPI PUSH2 0x1CDD PUSH2 0x2BC3 JUMP JUMPDEST PUSH1 0x20 MUL PUSH1 0x20 ADD ADD MLOAD PUSH1 0x0 ADD MLOAD DUP5 DUP4 DUP2 MLOAD DUP2 LT PUSH2 0x1CFB JUMPI PUSH2 0x1CFB PUSH2 0x2BC3 JUMP JUMPDEST PUSH1 0x20 MUL PUSH1 0x20 ADD ADD MLOAD PUSH1 0x60 ADD MLOAD PUSH2 0x1FC8 JUMP JUMPDEST PUSH2 0x1D81 DUP4 DUP3 DUP2 MLOAD DUP2 LT PUSH2 0x1D21 JUMPI PUSH2 0x1D21 PUSH2 0x2BC3 JUMP JUMPDEST PUSH1 0x20 MUL PUSH1 0x20 ADD ADD MLOAD PUSH1 0x0 ADD MLOAD DUP5 DUP4 DUP2 MLOAD DUP2 LT PUSH2 0x1D3F JUMPI PUSH2 0x1D3F PUSH2 0x2BC3 JUMP JUMPDEST PUSH1 0x20 MUL PUSH1 0x20 ADD ADD MLOAD PUSH1 0x60 ADD MLOAD DUP6 DUP5 DUP2 MLOAD DUP2 LT PUSH2 0x1D5D JUMPI PUSH2 0x1D5D PUSH2 0x2BC3 JUMP JUMPDEST PUSH1 0x20 MUL PUSH1 0x20 ADD ADD MLOAD PUSH1 0x20 ADD MLOAD PUSH1 0x1 PUSH1 0x1 PUSH1 0xA0 SHL SUB AND PUSH2 0x210C SWAP1 SWAP3 SWAP2 SWAP1 PUSH4 0xFFFFFFFF AND JUMP JUMPDEST PUSH1 0x0 DUP4 DUP3 DUP2 MLOAD DUP2 LT PUSH2 0x1D95 JUMPI PUSH2 0x1D95 PUSH2 0x2BC3 JUMP JUMPDEST PUSH1 0x20 MUL PUSH1 0x20 ADD ADD MLOAD PUSH1 0x80 ADD MLOAD GT ISZERO PUSH2 0x1E1C JUMPI DUP3 DUP2 DUP2 MLOAD DUP2 LT PUSH2 0x1DB9 JUMPI PUSH2 0x1DB9 PUSH2 0x2BC3 JUMP JUMPDEST PUSH1 0x20 MUL PUSH1 0x20 ADD ADD MLOAD PUSH1 0x80 ADD MLOAD PUSH1 0x99 PUSH1 0x0 DUP6 DUP5 DUP2 MLOAD DUP2 LT PUSH2 0x1DDB JUMPI PUSH2 0x1DDB PUSH2 0x2BC3 JUMP JUMPDEST PUSH1 0x20 MUL PUSH1 0x20 ADD ADD MLOAD PUSH1 0x20 ADD MLOAD PUSH1 0x1 PUSH1 0x1 PUSH1 0xA0 SHL SUB AND PUSH1 0x1 PUSH1 0x1 PUSH1 0xA0 SHL SUB AND DUP2 MSTORE PUSH1 0x20 ADD SWAP1 DUP2 MSTORE PUSH1 0x20 ADD PUSH1 0x0 KECCAK256 PUSH1 0x0 DUP3 DUP3 SLOAD PUSH2 0x1E16 SWAP2 SWAP1 PUSH2 0x2AF2 JUMP JUMPDEST SWAP1 SWAP2 SSTORE POP POP JUMPDEST PUSH32 0xFDF87137985FCE097C2059F7E3BD28B9104995CAD66709FDECBAA5E8E48DA9AF DUP4 DUP3 DUP2 MLOAD DUP2 LT PUSH2 0x1E4F JUMPI PUSH2 0x1E4F PUSH2 0x2BC3 JUMP JUMPDEST PUSH1 0x20 MUL PUSH1 0x20 ADD ADD MLOAD PUSH1 0x0 ADD MLOAD DUP5 DUP4 DUP2 MLOAD DUP2 LT PUSH2 0x1E6D JUMPI PUSH2 0x1E6D PUSH2 0x2BC3 JUMP JUMPDEST PUSH1 0x20 MUL PUSH1 0x20 ADD ADD MLOAD PUSH1 0x20 ADD MLOAD DUP6 DUP5 DUP2 MLOAD DUP2 LT PUSH2 0x1E8B JUMPI PUSH2 0x1E8B PUSH2 0x2BC3 JUMP JUMPDEST PUSH1 0x20 MUL PUSH1 0x20 ADD ADD MLOAD PUSH1 0x40 ADD MLOAD DUP7 DUP6 DUP2 MLOAD DUP2 LT PUSH2 0x1EA9 JUMPI PUSH2 0x1EA9 PUSH2 0x2BC3 JUMP JUMPDEST PUSH1 0x20 MUL PUSH1 0x20 ADD ADD MLOAD PUSH1 0x60 ADD MLOAD DUP8 DUP7 DUP2 MLOAD DUP2 LT PUSH2 0x1EC7 JUMPI PUSH2 0x1EC7 PUSH2 0x2BC3 JUMP JUMPDEST PUSH1 0x20 MUL PUSH1 0x20 ADD ADD MLOAD PUSH1 0x80 ADD MLOAD PUSH1 0x40 MLOAD PUSH2 0x1F10 SWAP6 SWAP5 SWAP4 SWAP3 SWAP2 SWAP1 PUSH1 0x1 PUSH1 0x1 PUSH1 0xA0 SHL SUB SWAP6 DUP7 AND DUP2 MSTORE SWAP4 SWAP1 SWAP5 AND PUSH1 0x20 DUP5 ADD MSTORE SWAP1 ISZERO ISZERO PUSH1 0x40 DUP4 ADD MSTORE PUSH1 0x60 DUP3 ADD MSTORE PUSH1 0x80 DUP2 ADD SWAP2 SWAP1 SWAP2 MSTORE PUSH1 0xA0 ADD SWAP1 JUMP JUMPDEST PUSH1 0x40 MLOAD DUP1 SWAP2 SUB SWAP1 LOG1 PUSH2 0x1F21 DUP2 PUSH2 0x2BD9 JUMP JUMPDEST SWAP1 POP PUSH2 0x1B1F JUMP JUMPDEST PUSH1 0x65 SLOAD PUSH1 0xFF AND ISZERO PUSH2 0xF35 JUMPI PUSH1 0x40 MLOAD PUSH3 0x461BCD PUSH1 0xE5 SHL DUP2 MSTORE PUSH1 0x20 PUSH1 0x4 DUP3 ADD MSTORE PUSH1 0x10 PUSH1 0x24 DUP3 ADD MSTORE PUSH16 0x14185D5CD8589B194E881C185D5CD959 PUSH1 0x82 SHL PUSH1 0x44 DUP3 ADD MSTORE PUSH1 0x64 ADD PUSH2 0x631 JUMP JUMPDEST PUSH1 0x33 SLOAD PUSH1 0x1 PUSH1 0x1 PUSH1 0xA0 SHL SUB AND CALLER EQ PUSH2 0xF35 JUMPI PUSH1 0x40 MLOAD PUSH3 0x461BCD PUSH1 0xE5 SHL DUP2 MSTORE PUSH1 0x20 PUSH1 0x4 DUP3 ADD DUP2 SWAP1 MSTORE PUSH1 0x24 DUP3 ADD MSTORE PUSH32 0x4F776E61626C653A2063616C6C6572206973206E6F7420746865206F776E6572 PUSH1 0x44 DUP3 ADD MSTORE PUSH1 0x64 ADD PUSH2 0x631 JUMP JUMPDEST DUP1 SELFBALANCE LT ISZERO PUSH2 0x2018 JUMPI PUSH1 0x40 MLOAD PUSH3 0x461BCD PUSH1 0xE5 SHL DUP2 MSTORE PUSH1 0x20 PUSH1 0x4 DUP3 ADD MSTORE PUSH1 0x1E PUSH1 0x24 DUP3 ADD MSTORE PUSH32 0x5F68616E646C6545746865725472616E7366657220696E736F6C76656E740000 PUSH1 0x44 DUP3 ADD MSTORE PUSH1 0x64 ADD PUSH2 0x631 JUMP JUMPDEST PUSH1 0x0 GAS SWAP1 POP PUSH1 0x0 DUP4 PUSH1 0x1 PUSH1 0x1 PUSH1 0xA0 SHL SUB AND DUP4 DUP4 SWAP1 PUSH1 0x40 MLOAD PUSH1 0x0 PUSH1 0x40 MLOAD DUP1 DUP4 SUB DUP2 DUP6 DUP9 DUP9 CALL SWAP4 POP POP POP POP RETURNDATASIZE DUP1 PUSH1 0x0 DUP2 EQ PUSH2 0x206D JUMPI PUSH1 0x40 MLOAD SWAP2 POP PUSH1 0x1F NOT PUSH1 0x3F RETURNDATASIZE ADD AND DUP3 ADD PUSH1 0x40 MSTORE RETURNDATASIZE DUP3 MSTORE RETURNDATASIZE PUSH1 0x0 PUSH1 0x20 DUP5 ADD RETURNDATACOPY PUSH2 0x2072 JUMP JUMPDEST PUSH1 0x60 SWAP2 POP JUMPDEST POP POP SWAP1 POP DUP1 PUSH2 0x2106 JUMPI PUSH20 0xC02AAA39B223FE8D0A0E5C4F27EAD9083C756CC2 PUSH1 0x1 PUSH1 0x1 PUSH1 0xA0 SHL SUB AND PUSH4 0xD0E30DB0 DUP5 PUSH1 0x40 MLOAD DUP3 PUSH4 0xFFFFFFFF AND PUSH1 0xE0 SHL DUP2 MSTORE PUSH1 0x4 ADD PUSH1 0x0 PUSH1 0x40 MLOAD DUP1 DUP4 SUB DUP2 DUP6 DUP9 DUP1 EXTCODESIZE ISZERO DUP1 ISZERO PUSH2 0x20CA JUMPI PUSH1 0x0 DUP1 REVERT JUMPDEST POP GAS CALL ISZERO DUP1 ISZERO PUSH2 0x20DE JUMPI RETURNDATASIZE PUSH1 0x0 DUP1 RETURNDATACOPY RETURNDATASIZE PUSH1 0x0 REVERT JUMPDEST POP PUSH2 0x2106 SWAP4 POP PUSH20 0xC02AAA39B223FE8D0A0E5C4F27EAD9083C756CC2 SWAP3 POP DUP8 SWAP2 POP DUP7 SWAP1 POP PUSH2 0x210C JUMP JUMPDEST POP POP POP POP JUMP JUMPDEST PUSH1 0x40 MLOAD PUSH1 0x1 PUSH1 0x1 PUSH1 0xA0 SHL SUB DUP4 AND PUSH1 0x24 DUP3 ADD MSTORE PUSH1 0x44 DUP2 ADD DUP3 SWAP1 MSTORE PUSH2 0xDE6 SWAP1 DUP5 SWAP1 PUSH4 0xA9059CBB PUSH1 0xE0 SHL SWAP1 PUSH1 0x64 ADD JUMPDEST PUSH1 0x40 DUP1 MLOAD PUSH1 0x1F NOT DUP2 DUP5 SUB ADD DUP2 MSTORE SWAP2 SWAP1 MSTORE PUSH1 0x20 DUP2 ADD DUP1 MLOAD PUSH1 0x1 PUSH1 0x1 PUSH1 0xE0 SHL SUB AND PUSH1 0x1 PUSH1 0x1 PUSH1 0xE0 SHL SUB NOT SWAP1 SWAP4 AND SWAP3 SWAP1 SWAP3 OR SWAP1 SWAP2 MSTORE PUSH2 0x22EA JUMP JUMPDEST PUSH1 0x0 SLOAD PUSH2 0x100 SWAP1 DIV PUSH1 0xFF AND PUSH2 0x2196 JUMPI PUSH1 0x40 MLOAD PUSH3 0x461BCD PUSH1 0xE5 SHL DUP2 MSTORE PUSH1 0x4 ADD PUSH2 0x631 SWAP1 PUSH2 0x2DD8 JUMP JUMPDEST PUSH2 0xF35 PUSH2 0x23BC JUMP JUMPDEST PUSH1 0x0 SLOAD PUSH2 0x100 SWAP1 DIV PUSH1 0xFF AND PUSH2 0x21C5 JUMPI PUSH1 0x40 MLOAD PUSH3 0x461BCD PUSH1 0xE5 SHL DUP2 MSTORE PUSH1 0x4 ADD PUSH2 0x631 SWAP1 PUSH2 0x2DD8 JUMP JUMPDEST PUSH2 0xF35 PUSH2 0x23EC JUMP JUMPDEST PUSH1 0x33 DUP1 SLOAD PUSH1 0x1 PUSH1 0x1 PUSH1 0xA0 SHL SUB DUP4 DUP2 AND PUSH1 0x1 PUSH1 0x1 PUSH1 0xA0 SHL SUB NOT DUP4 AND DUP2 OR SWAP1 SWAP4 SSTORE PUSH1 0x40 MLOAD SWAP2 AND SWAP2 SWAP1 DUP3 SWAP1 PUSH32 0x8BE0079C531659141344CD1FD0A4F28419497F9722A3DAAFE3B4186F6B6457E0 SWAP1 PUSH1 0x0 SWAP1 LOG3 POP POP JUMP JUMPDEST PUSH1 0x40 MLOAD PUSH1 0x1 PUSH1 0x1 PUSH1 0xA0 SHL SUB DUP1 DUP6 AND PUSH1 0x24 DUP4 ADD MSTORE DUP4 AND PUSH1 0x44 DUP3 ADD MSTORE PUSH1 0x64 DUP2 ADD DUP3 SWAP1 MSTORE PUSH2 0x2106 SWAP1 DUP6 SWAP1 PUSH4 0x23B872DD PUSH1 0xE0 SHL SWAP1 PUSH1 0x84 ADD PUSH2 0x2138 JUMP JUMPDEST PUSH2 0x225F PUSH2 0x1F28 JUMP JUMPDEST PUSH1 0x65 DUP1 SLOAD PUSH1 0xFF NOT AND PUSH1 0x1 OR SWAP1 SSTORE PUSH32 0x62E78CEA01BEE320CD4E420270B5EA74000D11B0C9F74754EBDBFC544B05A258 PUSH2 0x2294 CALLER SWAP1 JUMP JUMPDEST PUSH1 0x40 MLOAD PUSH1 0x1 PUSH1 0x1 PUSH1 0xA0 SHL SUB SWAP1 SWAP2 AND DUP2 MSTORE PUSH1 0x20 ADD PUSH1 0x40 MLOAD DUP1 SWAP2 SUB SWAP1 LOG1 JUMP JUMPDEST PUSH2 0x22B9 PUSH2 0x241F JUMP JUMPDEST PUSH1 0x65 DUP1 SLOAD PUSH1 0xFF NOT AND SWAP1 SSTORE PUSH32 0x5DB9EE0A495BF2E6FF9C91A7834C1BA4FDD244A5E8AA4E537BD38AEAE4B073AA CALLER PUSH2 0x2294 JUMP JUMPDEST PUSH1 0x0 PUSH2 0x233F DUP3 PUSH1 0x40 MLOAD DUP1 PUSH1 0x40 ADD PUSH1 0x40 MSTORE DUP1 PUSH1 0x20 DUP2 MSTORE PUSH1 0x20 ADD PUSH32 0x5361666545524332303A206C6F772D6C6576656C2063616C6C206661696C6564 DUP2 MSTORE POP DUP6 PUSH1 0x1 PUSH1 0x1 PUSH1 0xA0 SHL SUB AND PUSH2 0x2468 SWAP1 SWAP3 SWAP2 SWAP1 PUSH4 0xFFFFFFFF AND JUMP JUMPDEST DUP1 MLOAD SWAP1 SWAP2 POP ISZERO PUSH2 0xDE6 JUMPI DUP1 DUP1 PUSH1 0x20 ADD SWAP1 MLOAD DUP2 ADD SWAP1 PUSH2 0x235D SWAP2 SWAP1 PUSH2 0x2E23 JUMP JUMPDEST PUSH2 0xDE6 JUMPI PUSH1 0x40 MLOAD PUSH3 0x461BCD PUSH1 0xE5 SHL DUP2 MSTORE PUSH1 0x20 PUSH1 0x4 DUP3 ADD MSTORE PUSH1 0x2A PUSH1 0x24 DUP3 ADD MSTORE PUSH32 0x5361666545524332303A204552433230206F7065726174696F6E20646964206E PUSH1 0x44 DUP3 ADD MSTORE PUSH10 0x1BDD081CDD58D8D95959 PUSH1 0xB2 SHL PUSH1 0x64 DUP3 ADD MSTORE PUSH1 0x84 ADD PUSH2 0x631 JUMP JUMPDEST PUSH1 0x0 SLOAD PUSH2 0x100 SWAP1 DIV PUSH1 0xFF AND PUSH2 0x23E3 JUMPI PUSH1 0x40 MLOAD PUSH3 0x461BCD PUSH1 0xE5 SHL DUP2 MSTORE PUSH1 0x4 ADD PUSH2 0x631 SWAP1 PUSH2 0x2DD8 JUMP JUMPDEST PUSH2 0xF35 CALLER PUSH2 0x21CD JUMP JUMPDEST PUSH1 0x0 SLOAD PUSH2 0x100 SWAP1 DIV PUSH1 0xFF AND PUSH2 0x2413 JUMPI PUSH1 0x40 MLOAD PUSH3 0x461BCD PUSH1 0xE5 SHL DUP2 MSTORE PUSH1 0x4 ADD PUSH2 0x631 SWAP1 PUSH2 0x2DD8 JUMP JUMPDEST PUSH1 0x65 DUP1 SLOAD PUSH1 0xFF NOT AND SWAP1 SSTORE JUMP JUMPDEST PUSH1 0x65 SLOAD PUSH1 0xFF AND PUSH2 0xF35 JUMPI PUSH1 0x40 MLOAD PUSH3 0x461BCD PUSH1 0xE5 SHL DUP2 MSTORE PUSH1 0x20 PUSH1 0x4 DUP3 ADD MSTORE PUSH1 0x14 PUSH1 0x24 DUP3 ADD MSTORE PUSH20 0x14185D5CD8589B194E881B9BDD081C185D5CD959 PUSH1 0x62 SHL PUSH1 0x44 DUP3 ADD MSTORE PUSH1 0x64 ADD PUSH2 0x631 JUMP JUMPDEST PUSH1 0x60 PUSH2 0x2477 DUP5 DUP5 PUSH1 0x0 DUP6 PUSH2 0x247F JUMP JUMPDEST SWAP5 SWAP4 POP POP POP POP JUMP JUMPDEST PUSH1 0x60 DUP3 SELFBALANCE LT ISZERO PUSH2 0x24E0 JUMPI PUSH1 0x40 MLOAD PUSH3 0x461BCD PUSH1 0xE5 SHL DUP2 MSTORE PUSH1 0x20 PUSH1 0x4 DUP3 ADD MSTORE PUSH1 0x26 PUSH1 0x24 DUP3 ADD MSTORE PUSH32 0x416464726573733A20696E73756666696369656E742062616C616E636520666F PUSH1 0x44 DUP3 ADD MSTORE PUSH6 0x1C8818D85B1B PUSH1 0xD2 SHL PUSH1 0x64 DUP3 ADD MSTORE PUSH1 0x84 ADD PUSH2 0x631 JUMP JUMPDEST PUSH1 0x1 PUSH1 0x1 PUSH1 0xA0 SHL SUB DUP6 AND EXTCODESIZE PUSH2 0x2537 JUMPI PUSH1 0x40 MLOAD PUSH3 0x461BCD PUSH1 0xE5 SHL DUP2 MSTORE PUSH1 0x20 PUSH1 0x4 DUP3 ADD MSTORE PUSH1 0x1D PUSH1 0x24 DUP3 ADD MSTORE PUSH32 0x416464726573733A2063616C6C20746F206E6F6E2D636F6E7472616374000000 PUSH1 0x44 DUP3 ADD MSTORE PUSH1 0x64 ADD PUSH2 0x631 JUMP JUMPDEST PUSH1 0x0 DUP1 DUP7 PUSH1 0x1 PUSH1 0x1 PUSH1 0xA0 SHL SUB AND DUP6 DUP8 PUSH1 0x40 MLOAD PUSH2 0x2553 SWAP2 SWAP1 PUSH2 0x2E6C JUMP JUMPDEST PUSH1 0x0 PUSH1 0x40 MLOAD DUP1 DUP4 SUB DUP2 DUP6 DUP8 GAS CALL SWAP3 POP POP POP RETURNDATASIZE DUP1 PUSH1 0x0 DUP2 EQ PUSH2 0x2590 JUMPI PUSH1 0x40 MLOAD SWAP2 POP PUSH1 0x1F NOT PUSH1 0x3F RETURNDATASIZE ADD AND DUP3 ADD PUSH1 0x40 MSTORE RETURNDATASIZE DUP3 MSTORE RETURNDATASIZE PUSH1 0x0 PUSH1 0x20 DUP5 ADD RETURNDATACOPY PUSH2 0x2595 JUMP JUMPDEST PUSH1 0x60 SWAP2 POP JUMPDEST POP SWAP2 POP SWAP2 POP PUSH2 0x1A4E DUP3 DUP3 DUP7 PUSH1 0x60 DUP4 ISZERO PUSH2 0x25AF JUMPI POP DUP2 PUSH2 0x11A7 JUMP JUMPDEST DUP3 MLOAD ISZERO PUSH2 0x25BF JUMPI DUP3 MLOAD DUP1 DUP5 PUSH1 0x20 ADD REVERT JUMPDEST DUP2 PUSH1 0x40 MLOAD PUSH3 0x461BCD PUSH1 0xE5 SHL DUP2 MSTORE PUSH1 0x4 ADD PUSH2 0x631 SWAP2 SWAP1 PUSH2 0x2E88 JUMP JUMPDEST PUSH1 0x1 PUSH1 0x1 PUSH1 0xA0 SHL SUB DUP2 AND DUP2 EQ PUSH2 0x1ACF JUMPI PUSH1 0x0 DUP1 REVERT JUMPDEST DUP1 CALLDATALOAD PUSH1 0x1 PUSH1 0x1 PUSH1 0x80 SHL SUB DUP2 AND DUP2 EQ PUSH2 0x2605 JUMPI PUSH1 0x0 DUP1 REVERT JUMPDEST SWAP2 SWAP1 POP JUMP JUMPDEST DUP1 CALLDATALOAD PUSH1 0x1 PUSH1 0x1 PUSH1 0x40 SHL SUB DUP2 AND DUP2 EQ PUSH2 0x2605 JUMPI PUSH1 0x0 DUP1 REVERT JUMPDEST PUSH1 0x0 DUP1 PUSH1 0x0 DUP1 PUSH1 0x0 DUP1 PUSH1 0x0 DUP1 PUSH2 0x100 DUP10 DUP12 SUB SLT ISZERO PUSH2 0x263E JUMPI PUSH1 0x0 DUP1 REVERT JUMPDEST DUP9 CALLDATALOAD PUSH2 0x2649 DUP2 PUSH2 0x25D9 JUMP JUMPDEST SWAP8 POP PUSH2 0x2657 PUSH1 0x20 DUP11 ADD PUSH2 0x25EE JUMP JUMPDEST SWAP7 POP PUSH1 0x40 DUP10 ADD CALLDATALOAD PUSH2 0x2667 DUP2 PUSH2 0x25D9 JUMP JUMPDEST SWAP6 POP PUSH2 0x2675 PUSH1 0x60 DUP11 ADD PUSH2 0x25EE JUMP JUMPDEST SWAP5 POP PUSH2 0x2683 PUSH1 0x80 DUP11 ADD PUSH2 0x260A JUMP JUMPDEST SWAP4 POP PUSH2 0x2691 PUSH1 0xA0 DUP11 ADD PUSH2 0x260A JUMP JUMPDEST SWAP3 POP PUSH2 0x269F PUSH1 0xC0 DUP11 ADD PUSH2 0x260A JUMP JUMPDEST SWAP2 POP PUSH1 0xE0 DUP10 ADD CALLDATALOAD SWAP1 POP SWAP3 SWAP6 SWAP9 POP SWAP3 SWAP6 SWAP9 SWAP1 SWAP4 SWAP7 POP JUMP JUMPDEST PUSH1 0x0 DUP1 DUP4 PUSH1 0x1F DUP5 ADD SLT PUSH2 0x26C7 JUMPI PUSH1 0x0 DUP1 REVERT JUMPDEST POP DUP2 CALLDATALOAD PUSH1 0x1 PUSH1 0x1 PUSH1 0x40 SHL SUB DUP2 GT ISZERO PUSH2 0x26DE JUMPI PUSH1 0x0 DUP1 REVERT JUMPDEST PUSH1 0x20 DUP4 ADD SWAP2 POP DUP4 PUSH1 0x20 DUP3 PUSH1 0x5 SHL DUP6 ADD ADD GT ISZERO PUSH2 0x26F9 JUMPI PUSH1 0x0 DUP1 REVERT JUMPDEST SWAP3 POP SWAP3 SWAP1 POP JUMP JUMPDEST PUSH1 0x0 DUP1 PUSH1 0x0 DUP1 PUSH1 0x0 PUSH1 0x60 DUP7 DUP9 SUB SLT ISZERO PUSH2 0x2718 JUMPI PUSH1 0x0 DUP1 REVERT JUMPDEST DUP6 CALLDATALOAD PUSH1 0x1 PUSH1 0x1 PUSH1 0x40 SHL SUB DUP1 DUP3 GT ISZERO PUSH2 0x272F JUMPI PUSH1 0x0 DUP1 REVERT JUMPDEST PUSH2 0x273B DUP10 DUP4 DUP11 ADD PUSH2 0x26B5 JUMP JUMPDEST SWAP1 SWAP8 POP SWAP6 POP PUSH1 0x20 DUP9 ADD CALLDATALOAD SWAP2 POP DUP1 DUP3 GT ISZERO PUSH2 0x2754 JUMPI PUSH1 0x0 DUP1 REVERT JUMPDEST POP PUSH2 0x2761 DUP9 DUP3 DUP10 ADD PUSH2 0x26B5 JUMP JUMPDEST SWAP1 SWAP5 POP SWAP3 POP POP PUSH1 0x40 DUP7 ADD CALLDATALOAD PUSH2 0x2775 DUP2 PUSH2 0x25D9 JUMP JUMPDEST DUP1 SWAP2 POP POP SWAP3 SWAP6 POP SWAP3 SWAP6 SWAP1 SWAP4 POP JUMP JUMPDEST PUSH1 0x0 DUP1 PUSH1 0x40 DUP4 DUP6 SUB SLT ISZERO PUSH2 0x2796 JUMPI PUSH1 0x0 DUP1 REVERT JUMPDEST DUP3 CALLDATALOAD PUSH2 0x27A1 DUP2 PUSH2 0x25D9 JUMP JUMPDEST SWAP2 POP PUSH1 0x20 DUP4 ADD CALLDATALOAD PUSH2 0x27B1 DUP2 PUSH2 0x25D9 JUMP JUMPDEST DUP1 SWAP2 POP POP SWAP3 POP SWAP3 SWAP1 POP JUMP JUMPDEST PUSH1 0x0 PUSH1 0x20 DUP3 DUP5 SUB SLT ISZERO PUSH2 0x27CE JUMPI PUSH1 0x0 DUP1 REVERT JUMPDEST DUP2 CALLDATALOAD PUSH2 0x11A7 DUP2 PUSH2 0x25D9 JUMP JUMPDEST PUSH1 0x0 DUP1 PUSH1 0x0 PUSH1 0x60 DUP5 DUP7 SUB SLT ISZERO PUSH2 0x27EE JUMPI PUSH1 0x0 DUP1 REVERT JUMPDEST DUP4 CALLDATALOAD PUSH2 0x27F9 DUP2 PUSH2 0x25D9 JUMP JUMPDEST SWAP3 POP PUSH2 0x2807 PUSH1 0x20 DUP6 ADD PUSH2 0x25EE JUMP JUMPDEST SWAP2 POP PUSH2 0x2815 PUSH1 0x40 DUP6 ADD PUSH2 0x260A JUMP JUMPDEST SWAP1 POP SWAP3 POP SWAP3 POP SWAP3 JUMP JUMPDEST PUSH1 0x0 PUSH1 0x20 DUP3 DUP5 SUB SLT ISZERO PUSH2 0x2830 JUMPI PUSH1 0x0 DUP1 REVERT JUMPDEST POP CALLDATALOAD SWAP2 SWAP1 POP JUMP JUMPDEST PUSH1 0x0 DUP1 PUSH1 0x0 DUP1 PUSH1 0x0 DUP1 PUSH1 0xC0 DUP8 DUP10 SUB SLT ISZERO PUSH2 0x2850 JUMPI PUSH1 0x0 DUP1 REVERT JUMPDEST DUP7 CALLDATALOAD PUSH2 0x285B DUP2 PUSH2 0x25D9 JUMP JUMPDEST SWAP6 POP PUSH2 0x2869 PUSH1 0x20 DUP9 ADD PUSH2 0x25EE JUMP JUMPDEST SWAP5 POP PUSH1 0x40 DUP8 ADD CALLDATALOAD PUSH2 0x2879 DUP2 PUSH2 0x25D9 JUMP JUMPDEST SWAP4 POP PUSH2 0x2887 PUSH1 0x60 DUP9 ADD PUSH2 0x25EE JUMP JUMPDEST SWAP3 POP PUSH2 0x2895 PUSH1 0x80 DUP9 ADD PUSH2 0x260A JUMP JUMPDEST SWAP2 POP PUSH2 0x28A3 PUSH1 0xA0 DUP9 ADD PUSH2 0x260A JUMP JUMPDEST SWAP1 POP SWAP3 SWAP6 POP SWAP3 SWAP6 POP SWAP3 SWAP6 JUMP JUMPDEST PUSH4 0x4E487B71 PUSH1 0xE0 SHL PUSH1 0x0 MSTORE PUSH1 0x41 PUSH1 0x4 MSTORE PUSH1 0x24 PUSH1 0x0 REVERT JUMPDEST PUSH1 0x40 MLOAD PUSH1 0xA0 DUP2 ADD PUSH1 0x1 PUSH1 0x1 PUSH1 0x40 SHL SUB DUP2 GT DUP3 DUP3 LT OR ISZERO PUSH2 0x28E7 JUMPI PUSH2 0x28E7 PUSH2 0x28AF JUMP JUMPDEST PUSH1 0x40 MSTORE SWAP1 JUMP JUMPDEST PUSH1 0x40 MLOAD PUSH1 0x1F DUP3 ADD PUSH1 0x1F NOT AND DUP2 ADD PUSH1 0x1 PUSH1 0x1 PUSH1 0x40 SHL SUB DUP2 GT DUP3 DUP3 LT OR ISZERO PUSH2 0x2915 JUMPI PUSH2 0x2915 PUSH2 0x28AF JUMP JUMPDEST PUSH1 0x40 MSTORE SWAP2 SWAP1 POP JUMP JUMPDEST DUP1 ISZERO ISZERO DUP2 EQ PUSH2 0x1ACF JUMPI PUSH1 0x0 DUP1 REVERT JUMPDEST PUSH1 0x0 PUSH1 0x20 DUP1 DUP4 DUP6 SUB SLT ISZERO PUSH2 0x293E JUMPI PUSH1 0x0 DUP1 REVERT JUMPDEST DUP3 CALLDATALOAD PUSH1 0x1 PUSH1 0x1 PUSH1 0x40 SHL SUB DUP1 DUP3 GT ISZERO PUSH2 0x2955 JUMPI PUSH1 0x0 DUP1 REVERT JUMPDEST DUP2 DUP6 ADD SWAP2 POP DUP6 PUSH1 0x1F DUP4 ADD SLT PUSH2 0x2969 JUMPI PUSH1 0x0 DUP1 REVERT JUMPDEST DUP2 CALLDATALOAD DUP2 DUP2 GT ISZERO PUSH2 0x297B JUMPI PUSH2 0x297B PUSH2 0x28AF JUMP JUMPDEST PUSH2 0x2989 DUP5 DUP3 PUSH1 0x5 SHL ADD PUSH2 0x28ED JUMP JUMPDEST DUP2 DUP2 MSTORE DUP5 DUP2 ADD SWAP3 POP PUSH1 0xA0 SWAP2 DUP3 MUL DUP5 ADD DUP6 ADD SWAP2 DUP9 DUP4 GT ISZERO PUSH2 0x29A8 JUMPI PUSH1 0x0 DUP1 REVERT JUMPDEST SWAP4 DUP6 ADD SWAP4 JUMPDEST DUP3 DUP6 LT ISZERO PUSH2 0x2A21 JUMPI DUP1 DUP6 DUP11 SUB SLT ISZERO PUSH2 0x29C5 JUMPI PUSH1 0x0 DUP1 DUP2 REVERT JUMPDEST PUSH2 0x29CD PUSH2 0x28C5 JUMP JUMPDEST DUP6 CALLDATALOAD PUSH2 0x29D8 DUP2 PUSH2 0x25D9 JUMP JUMPDEST DUP2 MSTORE DUP6 DUP8 ADD CALLDATALOAD PUSH2 0x29E7 DUP2 PUSH2 0x25D9 JUMP JUMPDEST DUP2 DUP9 ADD MSTORE PUSH1 0x40 DUP7 DUP2 ADD CALLDATALOAD PUSH2 0x29FA DUP2 PUSH2 0x291D JUMP JUMPDEST SWAP1 DUP3 ADD MSTORE PUSH1 0x60 DUP7 DUP2 ADD CALLDATALOAD SWAP1 DUP3 ADD MSTORE PUSH1 0x80 DUP1 DUP8 ADD CALLDATALOAD SWAP1 DUP3 ADD MSTORE DUP5 MSTORE SWAP4 DUP5 ADD SWAP4 SWAP3 DUP6 ADD SWAP3 PUSH2 0x29AD JUMP JUMPDEST POP SWAP8 SWAP7 POP POP POP POP POP POP POP JUMP JUMPDEST PUSH1 0x0 PUSH1 0x20 DUP3 DUP5 SUB SLT ISZERO PUSH2 0x2A3F JUMPI PUSH1 0x0 DUP1 REVERT JUMPDEST DUP2 MLOAD PUSH2 0x11A7 DUP2 PUSH2 0x25D9 JUMP JUMPDEST PUSH1 0x20 DUP1 DUP3 MSTORE PUSH1 0x24 SWAP1 DUP3 ADD MSTORE PUSH32 0x526166666C6573206D7573742068617665206174206C65617374203220746963 PUSH1 0x40 DUP3 ADD MSTORE PUSH4 0x6B657473 PUSH1 0xE0 SHL PUSH1 0x60 DUP3 ADD MSTORE PUSH1 0x80 ADD SWAP1 JUMP JUMPDEST PUSH1 0x20 DUP1 DUP3 MSTORE PUSH1 0x2E SWAP1 DUP3 ADD MSTORE PUSH32 0x5F6D696E696D756D5469636B657473536F6C642073686F756C64203C3D205F6E PUSH1 0x40 DUP3 ADD MSTORE PUSH14 0x756D6265724F665469636B657473 PUSH1 0x90 SHL PUSH1 0x60 DUP3 ADD MSTORE PUSH1 0x80 ADD SWAP1 JUMP JUMPDEST PUSH4 0x4E487B71 PUSH1 0xE0 SHL PUSH1 0x0 MSTORE PUSH1 0x11 PUSH1 0x4 MSTORE PUSH1 0x24 PUSH1 0x0 REVERT JUMPDEST PUSH1 0x0 DUP3 NOT DUP3 GT ISZERO PUSH2 0x2B05 JUMPI PUSH2 0x2B05 PUSH2 0x2ADC JUMP JUMPDEST POP ADD SWAP1 JUMP JUMPDEST PUSH1 0x1 PUSH1 0x1 PUSH1 0xA0 SHL SUB DUP13 DUP2 AND DUP3 MSTORE DUP12 AND PUSH1 0x20 DUP3 ADD MSTORE PUSH2 0x160 DUP2 ADD PUSH1 0x2 DUP12 LT PUSH2 0x2B41 JUMPI PUSH4 0x4E487B71 PUSH1 0xE0 SHL PUSH1 0x0 MSTORE PUSH1 0x21 PUSH1 0x4 MSTORE PUSH1 0x24 PUSH1 0x0 REVERT JUMPDEST DUP11 PUSH1 0x40 DUP4 ADD MSTORE PUSH2 0x2B5C PUSH1 0x60 DUP4 ADD DUP12 PUSH1 0x1 PUSH1 0x1 PUSH1 0x80 SHL SUB AND SWAP1 MSTORE JUMP JUMPDEST PUSH1 0x1 PUSH1 0x1 PUSH1 0xA0 SHL SUB DUP10 AND PUSH1 0x80 DUP4 ADD MSTORE PUSH1 0x1 PUSH1 0x1 PUSH1 0x80 SHL SUB DUP9 AND PUSH1 0xA0 DUP4 ADD MSTORE PUSH1 0x1 PUSH1 0x1 PUSH1 0x40 SHL SUB DUP8 AND PUSH1 0xC0 DUP4 ADD MSTORE PUSH1 0x1 PUSH1 0x1 PUSH1 0x40 SHL SUB DUP7 AND PUSH1 0xE0 DUP4 ADD MSTORE PUSH1 0x1 PUSH1 0x1 PUSH1 0x40 SHL SUB DUP6 AND PUSH2 0x100 DUP4 ADD MSTORE PUSH2 0x120 DUP3 ADD SWAP4 SWAP1 SWAP4 MSTORE PUSH2 0x140 ADD MSTORE SWAP10 SWAP9 POP POP POP POP POP POP POP POP POP JUMP JUMPDEST PUSH4 0x4E487B71 PUSH1 0xE0 SHL PUSH1 0x0 MSTORE PUSH1 0x32 PUSH1 0x4 MSTORE PUSH1 0x24 PUSH1 0x0 REVERT JUMPDEST PUSH1 0x0 PUSH1 0x1 DUP3 ADD PUSH2 0x2BEB JUMPI PUSH2 0x2BEB PUSH2 0x2ADC JUMP JUMPDEST POP PUSH1 0x1 ADD SWAP1 JUMP JUMPDEST PUSH1 0x0 PUSH1 0x20 DUP3 DUP5 SUB SLT ISZERO PUSH2 0x2C04 JUMPI PUSH1 0x0 DUP1 REVERT JUMPDEST DUP2 MLOAD PUSH1 0xFF DUP2 AND DUP2 EQ PUSH2 0x11A7 JUMPI PUSH1 0x0 DUP1 REVERT JUMPDEST PUSH1 0x1 DUP2 DUP2 JUMPDEST DUP1 DUP6 GT ISZERO PUSH2 0x2C50 JUMPI DUP2 PUSH1 0x0 NOT DIV DUP3 GT ISZERO PUSH2 0x2C36 JUMPI PUSH2 0x2C36 PUSH2 0x2ADC JUMP JUMPDEST DUP1 DUP6 AND ISZERO PUSH2 0x2C43 JUMPI SWAP2 DUP2 MUL SWAP2 JUMPDEST SWAP4 DUP5 SHR SWAP4 SWAP1 DUP1 MUL SWAP1 PUSH2 0x2C1A JUMP JUMPDEST POP SWAP3 POP SWAP3 SWAP1 POP JUMP JUMPDEST PUSH1 0x0 DUP3 PUSH2 0x2C67 JUMPI POP PUSH1 0x1 PUSH2 0x2CF5 JUMP JUMPDEST DUP2 PUSH2 0x2C74 JUMPI POP PUSH1 0x0 PUSH2 0x2CF5 JUMP JUMPDEST DUP2 PUSH1 0x1 DUP2 EQ PUSH2 0x2C8A JUMPI PUSH1 0x2 DUP2 EQ PUSH2 0x2C94 JUMPI PUSH2 0x2CB0 JUMP JUMPDEST PUSH1 0x1 SWAP2 POP POP PUSH2 0x2CF5 JUMP JUMPDEST PUSH1 0xFF DUP5 GT ISZERO PUSH2 0x2CA5 JUMPI PUSH2 0x2CA5 PUSH2 0x2ADC JUMP JUMPDEST POP POP PUSH1 0x1 DUP3 SHL PUSH2 0x2CF5 JUMP JUMPDEST POP PUSH1 0x20 DUP4 LT PUSH2 0x133 DUP4 LT AND PUSH1 0x4E DUP5 LT PUSH1 0xB DUP5 LT AND OR ISZERO PUSH2 0x2CD3 JUMPI POP DUP2 DUP2 EXP PUSH2 0x2CF5 JUMP JUMPDEST PUSH2 0x2CDD DUP4 DUP4 PUSH2 0x2C15 JUMP JUMPDEST DUP1 PUSH1 0x0 NOT DIV DUP3 GT ISZERO PUSH2 0x2CF1 JUMPI PUSH2 0x2CF1 PUSH2 0x2ADC JUMP JUMPDEST MUL SWAP1 POP JUMPDEST SWAP3 SWAP2 POP POP JUMP JUMPDEST PUSH1 0x0 PUSH2 0x11A7 PUSH1 0xFF DUP5 AND DUP4 PUSH2 0x2C58 JUMP JUMPDEST PUSH1 0x0 PUSH1 0x20 DUP3 DUP5 SUB SLT ISZERO PUSH2 0x2D1C JUMPI PUSH1 0x0 DUP1 REVERT JUMPDEST POP MLOAD SWAP2 SWAP1 POP JUMP JUMPDEST PUSH1 0x0 DUP2 PUSH1 0x0 NOT DIV DUP4 GT DUP3 ISZERO ISZERO AND ISZERO PUSH2 0x2D3D JUMPI PUSH2 0x2D3D PUSH2 0x2ADC JUMP JUMPDEST POP MUL SWAP1 JUMP JUMPDEST PUSH4 0x4E487B71 PUSH1 0xE0 SHL PUSH1 0x0 MSTORE PUSH1 0x12 PUSH1 0x4 MSTORE PUSH1 0x24 PUSH1 0x0 REVERT JUMPDEST PUSH1 0x0 DUP3 PUSH2 0x2D67 JUMPI PUSH2 0x2D67 PUSH2 0x2D42 JUMP JUMPDEST POP DIV SWAP1 JUMP JUMPDEST PUSH1 0x0 DUP3 DUP3 LT ISZERO PUSH2 0x2D7E JUMPI PUSH2 0x2D7E PUSH2 0x2ADC JUMP JUMPDEST POP SUB SWAP1 JUMP JUMPDEST PUSH1 0x0 PUSH1 0x1 PUSH1 0x1 PUSH1 0x80 SHL SUB DUP1 DUP4 AND DUP2 DUP6 AND DUP2 DUP4 DIV DUP2 GT DUP3 ISZERO ISZERO AND ISZERO PUSH2 0x2DA9 JUMPI PUSH2 0x2DA9 PUSH2 0x2ADC JUMP JUMPDEST MUL SWAP5 SWAP4 POP POP POP POP JUMP JUMPDEST PUSH1 0x0 PUSH1 0x1 PUSH1 0x1 PUSH1 0x80 SHL SUB DUP1 DUP5 AND DUP1 PUSH2 0x2DCC JUMPI PUSH2 0x2DCC PUSH2 0x2D42 JUMP JUMPDEST SWAP3 AND SWAP2 SWAP1 SWAP2 DIV SWAP3 SWAP2 POP POP JUMP JUMPDEST PUSH1 0x20 DUP1 DUP3 MSTORE PUSH1 0x2B SWAP1 DUP3 ADD MSTORE PUSH32 0x496E697469616C697A61626C653A20636F6E7472616374206973206E6F742069 PUSH1 0x40 DUP3 ADD MSTORE PUSH11 0x6E697469616C697A696E67 PUSH1 0xA8 SHL PUSH1 0x60 DUP3 ADD MSTORE PUSH1 0x80 ADD SWAP1 JUMP JUMPDEST PUSH1 0x0 PUSH1 0x20 DUP3 DUP5 SUB SLT ISZERO PUSH2 0x2E35 JUMPI PUSH1 0x0 DUP1 REVERT JUMPDEST DUP2 MLOAD PUSH2 0x11A7 DUP2 PUSH2 0x291D JUMP JUMPDEST PUSH1 0x0 JUMPDEST DUP4 DUP2 LT ISZERO PUSH2 0x2E5B JUMPI DUP2 DUP2 ADD MLOAD DUP4 DUP3 ADD MSTORE PUSH1 0x20 ADD PUSH2 0x2E43 JUMP JUMPDEST DUP4 DUP2 GT ISZERO PUSH2 0x2106 JUMPI POP POP PUSH1 0x0 SWAP2 ADD MSTORE JUMP JUMPDEST PUSH1 0x0 DUP3 MLOAD PUSH2 0x2E7E DUP2 DUP5 PUSH1 0x20 DUP8 ADD PUSH2 0x2E40 JUMP JUMPDEST SWAP2 SWAP1 SWAP2 ADD SWAP3 SWAP2 POP POP JUMP JUMPDEST PUSH1 0x20 DUP2 MSTORE PUSH1 0x0 DUP3 MLOAD DUP1 PUSH1 0x20 DUP5 ADD MSTORE PUSH2 0x2EA7 DUP2 PUSH1 0x40 DUP6 ADD PUSH1 0x20 DUP8 ADD PUSH2 0x2E40 JUMP JUMPDEST PUSH1 0x1F ADD PUSH1 0x1F NOT AND SWAP2 SWAP1 SWAP2 ADD PUSH1 0x40 ADD SWAP3 SWAP2 POP POP JUMP INVALID LOG2 PUSH5 0x6970667358 0x22 SLT KECCAK256 0xC5 MSTORE8 DUP2 0x49 0xA8 0x49 CALLDATACOPY EXTCODESIZE 0xD9 RETURN SWAP9 0xE3 PUSH9 0xA1FC8665BAA9D71DB6 0xBB GT PUSH5 0x44FFDF6BAF 0xAC 0xC5 PUSH5 0x736F6C6343 STOP ADDMOD 0xF STOP CALLER ",
    "sha1": "999b1cf657fe93e346223562fe6a4fc52b3ac91a",
    "source": "// SPDX-License-Identifier: MIT\npragma solidity 0.8.15;\n\n/**\n\n█▄▄▄▄ ██   ▄████  ▄████  █     ▄███▄   ▄████  ▄█ \n█  ▄▀ █ █  █▀   ▀ █▀   ▀ █     █▀   ▀  █▀   ▀ ██ \n█▀▀▌  █▄▄█ █▀▀    █▀▀    █     ██▄▄    █▀▀    ██ \n█  █  █  █ █      █      ███▄  █▄   ▄▀ █      ▐█ \n  █      █  █      █         ▀ ▀███▀    █      ▐ \n ▀      █    ▀      ▀                    ▀       \n       ▀                                         \n\n Written by: UnT4x3d\n\n RaffleFi© 2022\n \n */\n\nimport \"node_modules/@openzeppelin/contracts-upgradeable/access/OwnableUpgradeable.sol\";\nimport \"node_modules/@openzeppelin/contracts-upgradeable/security/PausableUpgradeable.sol\";\nimport \"node_modules/@openzeppelin/contracts/token/ERC721/IERC721.sol\";\nimport \"node_modules/@openzeppelin/contracts/token/ERC20/IERC20.sol\";\nimport \"node_modules/@openzeppelin/contracts/token/ERC20/utils/SafeERC20.sol\";\nimport {IWETH} from \"./interfaces/IWETH.sol\";\n\ninterface ICurrencyPriceFeed {\n    function getUsdPriceOfToken(address token_) external view returns (uint256);\n}\n\ninterface IERC20Extended is IERC20 {\n    function decimals() external view returns (uint8);\n}\n\ncontract MainnetEscrow is Initializable, OwnableUpgradeable, PausableUpgradeable {\n    using SafeERC20 for IERC20;\n\n    enum RaffleType {\n        ERC721,\n        ERC20\n    }\n\n    struct CallbackInfo {\n        // Address that will receive the payment\n        address receiver;\n        // Contract that will be called to do the transfer for the payment. address(0) = Ether\n        address assetContract;\n        // Is this contract an ERC721? Otherwise it is an ERC20\n        bool isERC721;\n        // Amount/NftID to send to the receiver\n        uint256 amountOrNftIdToReceiver;\n        // If >0 our fees mapping should be increased\n        uint256 increaseTotalAmountClaimable;\n    }\n\n    // ERC20 address => isWhitelisted?\n    mapping(address => bool) public whitelistedCurrencies;\n\n    IWETH private constant WETH = IWETH(0xC02aaA39b223FE8D0A0e5C4F27eAD9083C756Cc2);\n    uint256 public OPENING_FEE; // ~$60 per RaffleCreated\n\n    // 5% FAIR_RAFFLE_FEE\n    uint256 public constant FAIR_RAFFLE_FEE_NUMERATOR = 500;\n    uint256 public constant FAIR_RAFFLE_FEE_DENOMINATOR = 10000;\n    /**\n        Token address => Amount that owners of the contract can claim as fee rewards\n        address(0) = Ether\n     */\n    mapping(address => uint256) public totalAmountClaimable;\n\n    // EOA that will relay the data from Polygon with the results of the raffle\n    address public relayer;\n    // Contract to retrieve from Chainlink Price Feeds the price of different tokens in USD\n    ICurrencyPriceFeed public currencyPriceFeed;\n\n    // Address of Token in Polygon => Address of token in mainnet used to get the price\n    mapping(address => address) public polygonTokenToMainnetAddress;\n    // If this is false the CurrencyPriceFeeds contract will not be used\n    bool public priceFeedsEnabled;\n    // NOTE: Reserved for future upgrades\n    uint256[20] private __gap;\n\n    event RaffleCreated(\n        address assetRaffled,\n        address raffleOwner,\n        RaffleType raffleType,\n        uint128 nftIdOrAmount, \n        address paymentcurrency, \n        uint128 pricePerTicket, \n        uint64 numberOfTotalTickets, \n        uint64 minimumTicketsSold, \n        uint64 endTimestamp, \n        bytes32 merkleRoot,\n        uint256 fairRaffleFee\n    );\n    event ERC20CurrencyAdded(address currency);\n    event ERC20CurrencyRemoved(address currency);\n    event CallbackReceived(\n        address receiver,\n        address assetContract,\n        bool isERC721,\n        uint256 amountOrNftIdToReceiver,\n        uint256 increaseTotalAmountClaimable\n    );\n    event RelayerUpdated(address oldRelayerAddress, address newRelayerAddress);\n    event PriceFeedUpdated(address oldPriceFeedAddress, address newPriceFeedAddress);\n    event OpeningFeeUpdated(uint256 oldOpeningFee, uint256 newOpeningFee);\n\n    function initialize(address _relayer, address _priceFeedContract) public initializer {\n        __Ownable_init();\n        __Pausable_init();\n\n        relayer = _relayer;\n        currencyPriceFeed = ICurrencyPriceFeed(_priceFeedContract);\n        priceFeedsEnabled = true;\n        // WETH address in Polygon\n        whitelistedCurrencies[0x7ceB23fD6bC0adD59E62ac25578270cFf1b9f619] = true;\n        // WETH Polygon => WETH Mainnet\n        polygonTokenToMainnetAddress[0x7ceB23fD6bC0adD59E62ac25578270cFf1b9f619] = address(WETH);\n        OPENING_FEE = 0.03 ether;\n    }\n\n    modifier onlyRelayer {\n        require(msg.sender == relayer, \"OnlyRelayer\");\n        _;\n    }\n\n    /**\n     * @notice  Allows users to create a raffle of an ERC721 asset\n     * @param   _nftCollection Address of the NFT to raffle\n     * @param   _nftId NFTid of the _nftCollection\n     * @param   _currencyInPolygon Polygon ERC20 token address used to buy tickets. address(0) should be put here if the currency will be MATIC\n     * @param   _pricePerTicket Price per ticket. It can be zero in case of an \"airdrop\"\n     * @param   _numberOfTickets Number of tickets that will be sold as maximum in the raffle\n     * @param   _minimumTicketsSold Number of tickets that should be sold in order to be a success raffle. If this minimum amount is not\n        reached the owner of the raffle will be able to cancel the raffle, returning the users their payment plus a little collateral to cover\n        for the gas fees. If this amount is reached, normal flow will be followed.\n     * @param   _durationInSeconds Duration in seconds of the raffle\n     * @param   _merkleRoot Used so only whitelisted users can buy raffle tickets\n     */\n    function createERC721Raffle(address _nftCollection, uint128 _nftId, address _currencyInPolygon, uint128 _pricePerTicket, uint64 _numberOfTickets, uint64 _minimumTicketsSold, uint64 _durationInSeconds, bytes32 _merkleRoot) external payable whenNotPaused {\n        require(msg.sender == IERC721(_nftCollection).ownerOf(_nftId), \"You do not own this NFT\");\n        require(whitelistedCurrencies[_currencyInPolygon], \"This currency is not whitelisted\");\n        require(_numberOfTickets > 1, \"Raffles must have at least 2 tickets\");\n        require(_minimumTicketsSold <= _numberOfTickets, \"_minimumTicketsSold should <= _numberOfTickets\");\n        require(_durationInSeconds >= 43200, \"Minimum duration is 12 hours\");\n\n        // TOTAL FEES: OPENING_FEE + FAIR_RAFFLE_FEE (5% for all the ERC721 Raffles)\n        uint256 FAIR_RAFFLE_FEE = fairRaffleFeeERC721(_currencyInPolygon, _pricePerTicket, _minimumTicketsSold);\n\n        require(msg.value == (OPENING_FEE + FAIR_RAFFLE_FEE), \"Incorrect fees sent\");\n        totalAmountClaimable[address(0)] += OPENING_FEE;\n\n        // Transfering the NFT into our contract\n        IERC721(_nftCollection).transferFrom(msg.sender, address(this), _nftId);\n        require(address(this) == IERC721(_nftCollection).ownerOf(_nftId), \"Transfer failed\");\n\n        emit RaffleCreated(\n            _nftCollection,\n            msg.sender,\n            RaffleType.ERC721,\n            _nftId, \n            _currencyInPolygon, \n            _pricePerTicket, \n            _numberOfTickets, \n            _minimumTicketsSold, \n            uint64(block.timestamp + _durationInSeconds), \n            _merkleRoot,\n            FAIR_RAFFLE_FEE\n        );\n    }\n\n    /**\n        * @notice  Allows users to create a raffle of an ERC20 asset\n        * @param   _tokenAddress Address of the token amount to raffle\n        * @param   _amount Quantity of tokens to be raffled\n        * @param   _currencyInPolygon Polygon ERC20 token address used to buy tickets. address(0) should be put here if the currency will be MATIC\n        * @param   _pricePerTicket Price per ticket. It can be zero in case of an \"airdrop\"\n        * @param   _numberOfTickets Number of tickets that will be sold as maximum in the raffle\n        * @param   _minimumTicketsSold Number of tickets that should be sold in order to be a success raffle. If this minimum amount is not\n        reached the owner of the raffle will be able to cancel the raffle, returning the users their payment plus a little collateral to cover\n        for the gas fees. If this amount is reached, normal flow will be followed\n        * @param   _durationInSeconds Duration in seconds of the raffle\n        * @param   _merkleRoot Used so only whitelisted users can buy raffle tickets\n    */\n    function createERC20Raffle(address _tokenAddress, uint128 _amount, address _currencyInPolygon, uint128 _pricePerTicket, uint64 _numberOfTickets, uint64 _minimumTicketsSold, uint64 _durationInSeconds, bytes32 _merkleRoot) external payable whenNotPaused {\n        require(whitelistedCurrencies[_currencyInPolygon], \"This currency is not whitelisted\");\n        require(_numberOfTickets > 1, \"Raffles must have at least 2 tickets\");\n        require(_minimumTicketsSold <= _numberOfTickets, \"_minimumTicketsSold should <= _numberOfTickets\");\n        require(_durationInSeconds >= 43200, \"Minimum duration is 12 hours\");\n        \n        uint256 FAIR_RAFFLE_FEE = fairRaffleFeeERC20( _tokenAddress, _amount, _currencyInPolygon, _pricePerTicket, _numberOfTickets, _minimumTicketsSold);\n\n        if (_tokenAddress == address(0)) {\n            require(msg.value == _amount + OPENING_FEE, \"Incorrect fee sent\");\n        } else {\n            require(msg.value == OPENING_FEE, \"Incorrect OPENING_FEE sent\");\n            uint256 balanceBefore = IERC20(_tokenAddress).balanceOf(address(this));\n            // Transfer tokens to the contract\n            IERC20(_tokenAddress).safeTransferFrom(msg.sender, address(this), _amount);\n            uint256 balanceAfter = IERC20(_tokenAddress).balanceOf(address(this));\n            require(_amount == balanceAfter - balanceBefore, \"ERC20 token transfer failed\");\n        }\n\n        totalAmountClaimable[address(0)] += OPENING_FEE;\n        emit RaffleCreated(\n            _tokenAddress,\n            msg.sender,\n            RaffleType.ERC20,\n            _amount, \n            _currencyInPolygon, \n            _pricePerTicket, \n            _numberOfTickets, \n            _minimumTicketsSold, \n            uint64(block.timestamp + _durationInSeconds), \n            _merkleRoot,\n            FAIR_RAFFLE_FEE\n        );\n    }\n\n    /**\n     * @notice  Relayer will call this function to send updates from Polygon\n     */\n    function polygonCallback(CallbackInfo[] memory callbackArr) external onlyRelayer {\n        uint256 len = callbackArr.length;\n        for (uint256 i; i < len; ++i){\n            if(callbackArr[i].isERC721){\n                if(callbackArr[i].receiver != address(0)){\n                    IERC721(callbackArr[i].assetContract).transferFrom(address(this), callbackArr[i].receiver, callbackArr[i].amountOrNftIdToReceiver);\n                }\n            }\n            else{\n                if(callbackArr[i].receiver != address(0)){\n                    if(callbackArr[i].assetContract == address(0)){\n                        _handleEtherTransfer(callbackArr[i].receiver, callbackArr[i].amountOrNftIdToReceiver);\n                    }\n                    else {\n                        IERC20(callbackArr[i].assetContract).safeTransfer(callbackArr[i].receiver, callbackArr[i].amountOrNftIdToReceiver);\n                    }\n                }\n            }\n            if(callbackArr[i].increaseTotalAmountClaimable > 0){\n                totalAmountClaimable[callbackArr[i].assetContract] += callbackArr[i].increaseTotalAmountClaimable;\n            }\n            emit CallbackReceived(\n                callbackArr[i].receiver,\n                callbackArr[i].assetContract,\n                callbackArr[i].isERC721,\n                callbackArr[i].amountOrNftIdToReceiver,\n                callbackArr[i].increaseTotalAmountClaimable\n            );\n        }\n    }\n\n    /**\n     *  Function to handle Ether transfers\n     */\n    function _handleEtherTransfer(address _dest, uint256 _amount) internal {\n        // Handle ETH payment\n        require(address(this).balance >= _amount, \"_handleEtherTransfer insolvent\");\n        uint256 gas =  gasleft();\n        (bool success, ) = _dest.call{value: _amount, gas: gas}(\"\");\n        // If the ETH transfer fails (sigh), wrap the ETH and try send it as WETH.\n        if (!success) {\n            WETH.deposit{value: _amount}();\n            IERC20(address(WETH)).safeTransfer(_dest, _amount);\n        }\n    }\n\n    /** ############################################################################################\n     *              ONLYOWNER FUNCTIONS\n     *  ############################################################################################\n     */\n\n    /**\n     * @notice  Used to pause/unpause the smart contract by the owner\n     */\n    function togglePause() external onlyOwner {\n        if (!paused()) _pause();\n        else _unpause();\n    }\n\n    /**\n     * @notice  Used to set a new relayer account\n     */\n    function setRelayer(address _relayer) external onlyOwner {\n        emit RelayerUpdated(relayer, _relayer);\n        relayer = _relayer;\n    }\n\n    /**\n     * @notice  Used to set a new CurrencyPriceFeed contract\n     */\n    function setPriceFeed(address _currencyPriceFeed) external onlyOwner {\n        emit PriceFeedUpdated(address(currencyPriceFeed), _currencyPriceFeed);\n        currencyPriceFeed = ICurrencyPriceFeed(_currencyPriceFeed);\n    }\n\n    /**\n     * @notice  Used to enable/disable CurrencyPriceFeeds contract\n     */\n    function togglePriceFeed() external onlyOwner {\n        priceFeedsEnabled = !priceFeedsEnabled;\n    }\n\n    /**\n     * @notice  Used to set a new OPENING_FEE\n     */\n    function setOpeningFee(uint256 _openingFee) external onlyOwner {\n        emit OpeningFeeUpdated(OPENING_FEE, _openingFee);\n        OPENING_FEE = _openingFee;\n    }\n\n    /**\n     * @notice  Used to whitelist a new ERC20 token to be used as a payment currency\n    * @param   _ERC20TokenAddressPolygon Address of the token in Polygon\n    * @param   _ERC20TokenAddressMainnet Address of the token in Mainnet\n     */\n    function whitelistCurrency(address _ERC20TokenAddressPolygon, address _ERC20TokenAddressMainnet) external onlyOwner {\n        require(!whitelistedCurrencies[_ERC20TokenAddressPolygon], \"Token is already whitelisted\");\n        whitelistedCurrencies[_ERC20TokenAddressPolygon] = true;\n        polygonTokenToMainnetAddress[_ERC20TokenAddressPolygon] = _ERC20TokenAddressMainnet;\n        emit ERC20CurrencyAdded(_ERC20TokenAddressPolygon);\n    }\n\n    /**\n     * @notice  Used to blacklist a ERC20 token so it can not be used any longer as a payment currency\n     */\n    function blacklistCurrency(address _ERC20TokenAddressPolygon) external onlyOwner {\n        require(whitelistedCurrencies[_ERC20TokenAddressPolygon], \"Token is not whitelisted\");\n        whitelistedCurrencies[_ERC20TokenAddressPolygon] = false;\n        emit ERC20CurrencyRemoved(_ERC20TokenAddressPolygon);\n    }\n\n    /**\n     * @notice  Used by the contract owners to claim the fees accrued\n     * @param   _tokenAddress List of tokens to withdraw the fees\n     * @param   _amounts List of amounts that will be withdrawn\n     * @param   _receiver Address that will receive the fees\n     */\n    function withdrawFees(address[] calldata _tokenAddress, uint256[] calldata _amounts, address _receiver) external onlyOwner {\n        uint256 len = _tokenAddress.length;\n        require(len == _amounts.length, \"Array lengths do not match\");\n        uint256 amount;\n        address tokenAddress;\n        for (uint256 i; i < len; ++i) {\n            tokenAddress = _tokenAddress[i];\n            amount = _amounts[i];\n            require(amount <= totalAmountClaimable[tokenAddress], \"Amount too high\");\n            if(tokenAddress == address(0)){\n                _handleEtherTransfer(_receiver, amount);\n            }\n            else{\n                IERC20(tokenAddress).safeTransfer(_receiver, amount);\n            }\n            // No overflow here as => require(amount <= totalAmountClaimable[tokenAddress])\n            unchecked {\n                totalAmountClaimable[tokenAddress] -= amount;\n            }\n        }\n    }\n\n    /** ############################################################################################\n     *                 VIEW FUNCTIONS\n     *  ############################################################################################\n     */\n\n    function isCurrencyWhitelisted(address _erc20Token) external view returns(bool) {\n        return whitelistedCurrencies[_erc20Token];\n    }\n\n    function fairRaffleFeeERC20(address _tokenAddress, uint128 _amount, address _currencyInPolygon, uint128 _pricePerTicket, uint64 _numberOfTickets, uint64 _minimumTicketsSold) public view returns(uint256) {\n        uint256 FAIR_RAFFLE_FEE;\n        if (!priceFeedsEnabled){\n            FAIR_RAFFLE_FEE = (_minimumTicketsSold * _pricePerTicket * FAIR_RAFFLE_FEE_NUMERATOR) / FAIR_RAFFLE_FEE_DENOMINATOR;\n        }\n        else{\n            uint256 totalRaffleValueInUsd;\n            if (_tokenAddress == address(0)){\n                _tokenAddress = address(WETH);\n                totalRaffleValueInUsd = (currencyPriceFeed.getUsdPriceOfToken(_tokenAddress) * _amount) / (10 ** 18); // As Ether has 18 decimals\n            }\n            else{\n                totalRaffleValueInUsd = (currencyPriceFeed.getUsdPriceOfToken(_tokenAddress) * _amount) / (10 ** IERC20Extended(_tokenAddress).decimals());\n            }\n            uint256 totalValueAllTicketsInUsd = (currencyPriceFeed.getUsdPriceOfToken(polygonTokenToMainnetAddress[_currencyInPolygon]) * _numberOfTickets * _pricePerTicket) / (10 ** IERC20Extended(polygonTokenToMainnetAddress[_currencyInPolygon]).decimals());\n            uint256 ratio = (totalValueAllTicketsInUsd * 10000) / totalRaffleValueInUsd;\n        \n            // If the Raffle is fair, FAIR_RAFFLE_FEE = 0\n            if (ratio <= 10000){\n                FAIR_RAFFLE_FEE = 0;\n            }\n            else if ((ratio > 10000) && (ratio <= 11000)) {\n                // 5%\n                FAIR_RAFFLE_FEE = (_minimumTicketsSold * _pricePerTicket * 500) / 10000;\n            }\n            else if ((ratio > 11000) && (ratio <= 12500)) {\n                // 10%\n                FAIR_RAFFLE_FEE = (_minimumTicketsSold * _pricePerTicket * 1000) / 10000;\n            }\n            else if (ratio > 12500) {\n                // 20%\n                FAIR_RAFFLE_FEE = (_minimumTicketsSold * _pricePerTicket * 2000) / 10000;\n            }\n        }\n        return FAIR_RAFFLE_FEE;\n    }\n\n    function fairRaffleFeeERC721(address _currencyInPolygon, uint128 _pricePerTicket, uint64 _minimumTicketsSold) public view returns(uint256) {\n        uint256 totalRaffledTicketsValueInUsd = (currencyPriceFeed.getUsdPriceOfToken(polygonTokenToMainnetAddress[_currencyInPolygon]) * _pricePerTicket * _minimumTicketsSold) / (10 ** IERC20Extended(polygonTokenToMainnetAddress[_currencyInPolygon]).decimals());\n        uint256 FAIR_RAFFLE_FEE_IN_USD = (totalRaffledTicketsValueInUsd * FAIR_RAFFLE_FEE_NUMERATOR) / FAIR_RAFFLE_FEE_DENOMINATOR;\n        uint256 FAIR_RAFFLE_FEE = (FAIR_RAFFLE_FEE_IN_USD * 1e18) / currencyPriceFeed.getUsdPriceOfToken(0xEeeeeEeeeEeEeeEeEeEeeEEEeeeeEeeeeeeeEEeE);\n        return FAIR_RAFFLE_FEE;\n    }\n}",
    "sourcePath": "contracts/MainnetEscrow.sol",
    "type": "contract"
}