{
  "abi": [
    {
      "anonymous": false,
      "inputs": [
        {
          "indexed": false,
          "internalType": "bytes32",
          "name": "requestId",
          "type": "bytes32"
        }
      ],
      "name": "ChainlinkRequest",
      "type": "event"
    },
    {
      "anonymous": false,
      "inputs": [
        {
          "indexed": false,
          "internalType": "address",
          "name": "currency",
          "type": "address"
        }
      ],
      "name": "ERC20CurrencyAdded",
      "type": "event"
    },
    {
      "anonymous": false,
      "inputs": [
        {
          "indexed": false,
          "internalType": "address",
          "name": "currency",
          "type": "address"
        }
      ],
      "name": "ERC20CurrencyRemoved",
      "type": "event"
    },
    {
      "anonymous": false,
      "inputs": [
        {
          "indexed": false,
          "internalType": "uint8",
          "name": "version",
          "type": "uint8"
        }
      ],
      "name": "Initialized",
      "type": "event"
    },
    {
      "anonymous": false,
      "inputs": [
        {
          "indexed": false,
          "internalType": "address",
          "name": "receiver",
          "type": "address"
        },
        {
          "indexed": false,
          "internalType": "address",
          "name": "assetContract",
          "type": "address"
        },
        {
          "indexed": false,
          "internalType": "bool",
          "name": "isERC721",
          "type": "bool"
        },
        {
          "indexed": false,
          "internalType": "uint256",
          "name": "amountOrNftIdToReceiver",
          "type": "uint256"
        },
        {
          "indexed": false,
          "internalType": "uint256",
          "name": "increaseTotalAmountClaimable",
          "type": "uint256"
        }
      ],
      "name": "MainnetCall",
      "type": "event"
    },
    {
      "anonymous": false,
      "inputs": [
        {
          "indexed": false,
          "internalType": "uint256",
          "name": "raffleId",
          "type": "uint256"
        }
      ],
      "name": "NewRaffleCreated",
      "type": "event"
    },
    {
      "anonymous": false,
      "inputs": [
        {
          "indexed": false,
          "internalType": "uint256",
          "name": "raffleId",
          "type": "uint256"
        },
        {
          "indexed": false,
          "internalType": "address",
          "name": "buyer",
          "type": "address"
        },
        {
          "indexed": false,
          "internalType": "uint64",
          "name": "numberOfTickets",
          "type": "uint64"
        },
        {
          "indexed": false,
          "internalType": "uint256",
          "name": "initTicketId",
          "type": "uint256"
        },
        {
          "indexed": false,
          "internalType": "uint256",
          "name": "endTicketId",
          "type": "uint256"
        }
      ],
      "name": "NewRaffleTicketBought",
      "type": "event"
    },
    {
      "anonymous": false,
      "inputs": [
        {
          "indexed": true,
          "internalType": "address",
          "name": "previousOwner",
          "type": "address"
        },
        {
          "indexed": true,
          "internalType": "address",
          "name": "newOwner",
          "type": "address"
        }
      ],
      "name": "OwnershipTransferred",
      "type": "event"
    },
    {
      "anonymous": false,
      "inputs": [
        {
          "indexed": false,
          "internalType": "address",
          "name": "account",
          "type": "address"
        }
      ],
      "name": "Paused",
      "type": "event"
    },
    {
      "anonymous": false,
      "inputs": [
        {
          "indexed": false,
          "internalType": "uint256",
          "name": "oldFee",
          "type": "uint256"
        },
        {
          "indexed": false,
          "internalType": "uint256",
          "name": "newFee",
          "type": "uint256"
        }
      ],
      "name": "ProtocolFeeUpdated",
      "type": "event"
    },
    {
      "anonymous": false,
      "inputs": [
        {
          "indexed": false,
          "internalType": "uint256",
          "name": "raffleId",
          "type": "uint256"
        }
      ],
      "name": "RaffleCancelled",
      "type": "event"
    },
    {
      "anonymous": false,
      "inputs": [
        {
          "indexed": false,
          "internalType": "uint256",
          "name": "raffleId",
          "type": "uint256"
        },
        {
          "indexed": false,
          "internalType": "enum RafflePolygon.RaffleState",
          "name": "oldRaffleState",
          "type": "uint8"
        },
        {
          "indexed": false,
          "internalType": "enum RafflePolygon.RaffleState",
          "name": "newRaffleState",
          "type": "uint8"
        }
      ],
      "name": "RaffleStateChanged",
      "type": "event"
    },
    {
      "anonymous": false,
      "inputs": [
        {
          "indexed": false,
          "internalType": "address",
          "name": "newRaffleTicketContract",
          "type": "address"
        }
      ],
      "name": "RaffleTicketContractSet",
      "type": "event"
    },
    {
      "anonymous": false,
      "inputs": [
        {
          "indexed": false,
          "internalType": "address",
          "name": "oldRelayerAddress",
          "type": "address"
        },
        {
          "indexed": false,
          "internalType": "address",
          "name": "newRelayerAddress",
          "type": "address"
        }
      ],
      "name": "RelayerUpdated",
      "type": "event"
    },
    {
      "anonymous": false,
      "inputs": [
        {
          "indexed": false,
          "internalType": "address",
          "name": "account",
          "type": "address"
        }
      ],
      "name": "Unpaused",
      "type": "event"
    },
    {
      "inputs": [],
      "name": "FEE_DENOMINATOR",
      "outputs": [
        {
          "internalType": "uint256",
          "name": "",
          "type": "uint256"
        }
      ],
      "stateMutability": "view",
      "type": "function"
    },
    {
      "inputs": [],
      "name": "FEE_NUMERATOR",
      "outputs": [
        {
          "internalType": "uint256",
          "name": "",
          "type": "uint256"
        }
      ],
      "stateMutability": "view",
      "type": "function"
    },
    {
      "inputs": [
        {
          "internalType": "uint256",
          "name": "_raffleId",
          "type": "uint256"
        },
        {
          "internalType": "uint64",
          "name": "_numberOfTickets",
          "type": "uint64"
        },
        {
          "internalType": "bytes32[]",
          "name": "_merkleProof",
          "type": "bytes32[]"
        }
      ],
      "name": "buyRaffleTicket",
      "outputs": [],
      "stateMutability": "nonpayable",
      "type": "function"
    },
    {
      "inputs": [
        {
          "internalType": "uint256",
          "name": "_raffleId",
          "type": "uint256"
        }
      ],
      "name": "cancelRaffle",
      "outputs": [],
      "stateMutability": "nonpayable",
      "type": "function"
    },
    {
      "inputs": [
        {
          "internalType": "uint256",
          "name": "_raffleId",
          "type": "uint256"
        },
        {
          "internalType": "uint256[]",
          "name": "ticketIds",
          "type": "uint256[]"
        }
      ],
      "name": "claimCancelledRaffle",
      "outputs": [],
      "stateMutability": "nonpayable",
      "type": "function"
    },
    {
      "inputs": [
        {
          "internalType": "uint256",
          "name": "_raffleId",
          "type": "uint256"
        }
      ],
      "name": "claimRaffle",
      "outputs": [],
      "stateMutability": "nonpayable",
      "type": "function"
    },
    {
      "inputs": [
        {
          "internalType": "uint256",
          "name": "_raffleId",
          "type": "uint256"
        }
      ],
      "name": "completeRaffle",
      "outputs": [],
      "stateMutability": "nonpayable",
      "type": "function"
    },
    {
      "inputs": [
        {
          "components": [
            {
              "internalType": "address",
              "name": "assetContract",
              "type": "address"
            },
            {
              "internalType": "address",
              "name": "raffleOwner",
              "type": "address"
            },
            {
              "internalType": "address",
              "name": "raffleWinner",
              "type": "address"
            },
            {
              "internalType": "enum RafflePolygon.RaffleState",
              "name": "raffleState",
              "type": "uint8"
            },
            {
              "internalType": "enum RafflePolygon.RaffleType",
              "name": "raffleType",
              "type": "uint8"
            },
            {
              "internalType": "address",
              "name": "currency",
              "type": "address"
            },
            {
              "internalType": "bytes32",
              "name": "MerkleRoot",
              "type": "bytes32"
            },
            {
              "internalType": "uint128",
              "name": "nftIdOrAmount",
              "type": "uint128"
            },
            {
              "internalType": "uint128",
              "name": "pricePerTicket",
              "type": "uint128"
            },
            {
              "internalType": "uint64",
              "name": "endTimestamp",
              "type": "uint64"
            },
            {
              "internalType": "uint64",
              "name": "numberOfTickets",
              "type": "uint64"
            },
            {
              "internalType": "uint64",
              "name": "ticketsSold",
              "type": "uint64"
            },
            {
              "internalType": "uint64",
              "name": "minimumTicketsSold",
              "type": "uint64"
            }
          ],
          "internalType": "struct RafflePolygon.RaffleData",
          "name": "_raffleData",
          "type": "tuple"
        },
        {
          "internalType": "uint256",
          "name": "_fairRaffleFee",
          "type": "uint256"
        }
      ],
      "name": "createRaffle",
      "outputs": [],
      "stateMutability": "nonpayable",
      "type": "function"
    },
    {
      "inputs": [
        {
          "internalType": "bytes32",
          "name": "requestId",
          "type": "bytes32"
        },
        {
          "internalType": "uint256",
          "name": "randomness",
          "type": "uint256"
        }
      ],
      "name": "fulfillRandomnessTest",
      "outputs": [],
      "stateMutability": "nonpayable",
      "type": "function"
    },
    {
      "inputs": [
        {
          "internalType": "uint256",
          "name": "_raffleId",
          "type": "uint256"
        }
      ],
      "name": "getRaffleDetails",
      "outputs": [
        {
          "components": [
            {
              "internalType": "address",
              "name": "assetContract",
              "type": "address"
            },
            {
              "internalType": "address",
              "name": "raffleOwner",
              "type": "address"
            },
            {
              "internalType": "address",
              "name": "raffleWinner",
              "type": "address"
            },
            {
              "internalType": "enum RafflePolygon.RaffleState",
              "name": "raffleState",
              "type": "uint8"
            },
            {
              "internalType": "enum RafflePolygon.RaffleType",
              "name": "raffleType",
              "type": "uint8"
            },
            {
              "internalType": "address",
              "name": "currency",
              "type": "address"
            },
            {
              "internalType": "bytes32",
              "name": "MerkleRoot",
              "type": "bytes32"
            },
            {
              "internalType": "uint128",
              "name": "nftIdOrAmount",
              "type": "uint128"
            },
            {
              "internalType": "uint128",
              "name": "pricePerTicket",
              "type": "uint128"
            },
            {
              "internalType": "uint64",
              "name": "endTimestamp",
              "type": "uint64"
            },
            {
              "internalType": "uint64",
              "name": "numberOfTickets",
              "type": "uint64"
            },
            {
              "internalType": "uint64",
              "name": "ticketsSold",
              "type": "uint64"
            },
            {
              "internalType": "uint64",
              "name": "minimumTicketsSold",
              "type": "uint64"
            }
          ],
          "internalType": "struct RafflePolygon.RaffleData",
          "name": "",
          "type": "tuple"
        }
      ],
      "stateMutability": "view",
      "type": "function"
    },
    {
      "inputs": [
        {
          "internalType": "uint256",
          "name": "_raffleId",
          "type": "uint256"
        }
      ],
      "name": "getRaffleState",
      "outputs": [
        {
          "internalType": "enum RafflePolygon.RaffleState",
          "name": "",
          "type": "uint8"
        }
      ],
      "stateMutability": "view",
      "type": "function"
    },
    {
      "inputs": [
        {
          "internalType": "address",
          "name": "_relayer",
          "type": "address"
        },
        {
          "internalType": "bytes32",
          "name": "_linkKeyHash",
          "type": "bytes32"
        },
        {
          "internalType": "uint256",
          "name": "_linkFee",
          "type": "uint256"
        },
        {
          "internalType": "address",
          "name": "_vrfCoordinator",
          "type": "address"
        },
        {
          "internalType": "address",
          "name": "_vrfLinkTokenAddress",
          "type": "address"
        }
      ],
      "name": "initialize",
      "outputs": [],
      "stateMutability": "nonpayable",
      "type": "function"
    },
    {
      "inputs": [
        {
          "internalType": "address",
          "name": "_erc20Token",
          "type": "address"
        }
      ],
      "name": "isCurrencyWhitelisted",
      "outputs": [
        {
          "internalType": "bool",
          "name": "",
          "type": "bool"
        }
      ],
      "stateMutability": "view",
      "type": "function"
    },
    {
      "inputs": [],
      "name": "linkFee",
      "outputs": [
        {
          "internalType": "uint256",
          "name": "",
          "type": "uint256"
        }
      ],
      "stateMutability": "view",
      "type": "function"
    },
    {
      "inputs": [],
      "name": "linkKeyHash",
      "outputs": [
        {
          "internalType": "bytes32",
          "name": "",
          "type": "bytes32"
        }
      ],
      "stateMutability": "view",
      "type": "function"
    },
    {
      "inputs": [],
      "name": "owner",
      "outputs": [
        {
          "internalType": "address",
          "name": "",
          "type": "address"
        }
      ],
      "stateMutability": "view",
      "type": "function"
    },
    {
      "inputs": [],
      "name": "paused",
      "outputs": [
        {
          "internalType": "bool",
          "name": "",
          "type": "bool"
        }
      ],
      "stateMutability": "view",
      "type": "function"
    },
    {
      "inputs": [],
      "name": "raffleCounter",
      "outputs": [
        {
          "internalType": "uint256",
          "name": "",
          "type": "uint256"
        }
      ],
      "stateMutability": "view",
      "type": "function"
    },
    {
      "inputs": [],
      "name": "raffleTicketSystem",
      "outputs": [
        {
          "internalType": "contract IRaffleTicketSystem",
          "name": "",
          "type": "address"
        }
      ],
      "stateMutability": "view",
      "type": "function"
    },
    {
      "inputs": [
        {
          "internalType": "uint256",
          "name": "",
          "type": "uint256"
        }
      ],
      "name": "raffleToFairRaffleFee",
      "outputs": [
        {
          "internalType": "uint256",
          "name": "",
          "type": "uint256"
        }
      ],
      "stateMutability": "view",
      "type": "function"
    },
    {
      "inputs": [
        {
          "internalType": "uint256",
          "name": "",
          "type": "uint256"
        }
      ],
      "name": "raffles",
      "outputs": [
        {
          "internalType": "address",
          "name": "assetContract",
          "type": "address"
        },
        {
          "internalType": "address",
          "name": "raffleOwner",
          "type": "address"
        },
        {
          "internalType": "address",
          "name": "raffleWinner",
          "type": "address"
        },
        {
          "internalType": "enum RafflePolygon.RaffleState",
          "name": "raffleState",
          "type": "uint8"
        },
        {
          "internalType": "enum RafflePolygon.RaffleType",
          "name": "raffleType",
          "type": "uint8"
        },
        {
          "internalType": "address",
          "name": "currency",
          "type": "address"
        },
        {
          "internalType": "bytes32",
          "name": "MerkleRoot",
          "type": "bytes32"
        },
        {
          "internalType": "uint128",
          "name": "nftIdOrAmount",
          "type": "uint128"
        },
        {
          "internalType": "uint128",
          "name": "pricePerTicket",
          "type": "uint128"
        },
        {
          "internalType": "uint64",
          "name": "endTimestamp",
          "type": "uint64"
        },
        {
          "internalType": "uint64",
          "name": "numberOfTickets",
          "type": "uint64"
        },
        {
          "internalType": "uint64",
          "name": "ticketsSold",
          "type": "uint64"
        },
        {
          "internalType": "uint64",
          "name": "minimumTicketsSold",
          "type": "uint64"
        }
      ],
      "stateMutability": "view",
      "type": "function"
    },
    {
      "inputs": [
        {
          "internalType": "bytes32",
          "name": "requestId",
          "type": "bytes32"
        },
        {
          "internalType": "uint256",
          "name": "randomness",
          "type": "uint256"
        }
      ],
      "name": "rawFulfillRandomness",
      "outputs": [],
      "stateMutability": "nonpayable",
      "type": "function"
    },
    {
      "inputs": [],
      "name": "relayer",
      "outputs": [
        {
          "internalType": "address",
          "name": "",
          "type": "address"
        }
      ],
      "stateMutability": "view",
      "type": "function"
    },
    {
      "inputs": [],
      "name": "renounceOwnership",
      "outputs": [],
      "stateMutability": "nonpayable",
      "type": "function"
    },
    {
      "inputs": [
        {
          "internalType": "uint256",
          "name": "_newFeeNumerator",
          "type": "uint256"
        }
      ],
      "name": "setProtocolFee",
      "outputs": [],
      "stateMutability": "nonpayable",
      "type": "function"
    },
    {
      "inputs": [
        {
          "internalType": "address",
          "name": "_raffleTicketContract",
          "type": "address"
        }
      ],
      "name": "setRaffleTicketContract",
      "outputs": [],
      "stateMutability": "nonpayable",
      "type": "function"
    },
    {
      "inputs": [
        {
          "internalType": "address",
          "name": "_relayer",
          "type": "address"
        }
      ],
      "name": "setRelayer",
      "outputs": [],
      "stateMutability": "nonpayable",
      "type": "function"
    },
    {
      "inputs": [
        {
          "internalType": "address",
          "name": "_ERC20TokenAddress",
          "type": "address"
        }
      ],
      "name": "toggleCurrency",
      "outputs": [],
      "stateMutability": "nonpayable",
      "type": "function"
    },
    {
      "inputs": [],
      "name": "togglePause",
      "outputs": [],
      "stateMutability": "nonpayable",
      "type": "function"
    },
    {
      "inputs": [
        {
          "internalType": "address",
          "name": "",
          "type": "address"
        }
      ],
      "name": "totalAmountClaimable",
      "outputs": [
        {
          "internalType": "uint256",
          "name": "",
          "type": "uint256"
        }
      ],
      "stateMutability": "view",
      "type": "function"
    },
    {
      "inputs": [
        {
          "internalType": "address",
          "name": "newOwner",
          "type": "address"
        }
      ],
      "name": "transferOwnership",
      "outputs": [],
      "stateMutability": "nonpayable",
      "type": "function"
    },
    {
      "inputs": [
        {
          "internalType": "address",
          "name": "",
          "type": "address"
        }
      ],
      "name": "whitelistedCurrencies",
      "outputs": [
        {
          "internalType": "bool",
          "name": "",
          "type": "bool"
        }
      ],
      "stateMutability": "view",
      "type": "function"
    },
    {
      "inputs": [
        {
          "internalType": "address[]",
          "name": "_tokenAddress",
          "type": "address[]"
        },
        {
          "internalType": "uint256[]",
          "name": "_amounts",
          "type": "uint256[]"
        },
        {
          "internalType": "address",
          "name": "_receiver",
          "type": "address"
        }
      ],
      "name": "withdrawFees",
      "outputs": [],
      "stateMutability": "nonpayable",
      "type": "function"
    }
  ],
  "bytecode": "608060405234801561001057600080fd5b506139b7806100206000396000f3fe608060405234801561001057600080fd5b50600436106101fb5760003560e01c80635d4bc0ce1161011a57806394985ddd116100ad578063c4ae31681161007c578063c4ae316814610516578063ce806e8c1461051e578063d69003e414610531578063d73792a914610551578063f2fde38b1461055a57600080fd5b806394985ddd146104ba578063a080dffe146104cd578063a21afc76146104ed578063c2f306a51461050d57600080fd5b8063787dce3d116100e9578063787dce3d1461047a57806382c7317d1461048d5780638406c079146104965780638da5cb5b146104a957600080fd5b80635d4bc0ce146103875780635fba31711461044c5780636548e9bc1461045f578063715018a61461047257600080fd5b806331f91a841161019257806343b938c51161016157806343b938c51461031d578063457ab7dc14610349578063566777cc1461035c5780635c975abb1461037c57600080fd5b806331f91a84146102bb5780634178cdfb146102ce57806341cd47bf146102e1578063436cc138146102ea57600080fd5b8063273201bf116101ce578063273201bf1461026f5780632cf316f9146102825780632f9c7345146102955780633077a863146102a857600080fd5b806301889611146102005780630af5a2631461021c5780630b229bc714610231578063115773391461025c575b600080fd5b61020960d55481565b6040519081526020015b60405180910390f35b61022f61022a366004612f84565b61056d565b005b60d154610244906001600160a01b031681565b6040516001600160a01b039091168152602001610213565b61022f61026a366004612fe3565b61074b565b61022f61027d366004613067565b610759565b61022f6102903660046130c0565b610c6c565b61022f6102a336600461310b565b611038565b61022f6102b6366004613128565b611095565b61022f6102c9366004613141565b611469565b61022f6102dc366004613128565b6115e5565b61020960d65481565b61030d6102f836600461310b565b60ce6020526000908152604090205460ff1681565b6040519015158152602001610213565b61030d61032b36600461310b565b6001600160a01b0316600090815260ce602052604090205460ff1690565b61022f61035736600461310b565b6118cf565b61036f61036a366004613128565b6119a0565b60405161021391906131e0565b60655460ff1661030d565b610433610395366004613128565b60cf6020526000908152604090208054600182015460028301546003840154600485015460058601546006909601546001600160a01b0395861696948616958481169560ff600160a01b8704811696600160a81b9004169490911692916001600160801b0380831692600160801b90819004909116916001600160401b0380821692600160401b8304821692908104821691600160c01b909104168d565b6040516102139d9c9b9a999897969594939291906131fe565b61022f61045a366004613128565b611a14565b61022f61046d36600461310b565b611e3d565b61022f611eae565b61022f610488366004613128565b611ec2565b61020960d45481565b60cd54610244906001600160a01b031681565b6033546001600160a01b0316610244565b61022f6104c8366004612fe3565b611f53565b6104e06104db366004613128565b611fad565b604051610213919061329f565b6102096104fb36600461310b565b60d86020526000908152604090205481565b61020960d35481565b61022f6121a5565b61022f61052c366004613413565b6121c7565b61020961053f366004613128565b60d06020526000908152604090205481565b61020960d75481565b61022f61056836600461310b565b6123c2565b600054610100900460ff161580801561058d5750600054600160ff909116105b806105a75750303b1580156105a7575060005460ff166001145b61060f5760405162461bcd60e51b815260206004820152602e60248201527f496e697469616c697a61626c653a20636f6e747261637420697320616c72656160448201526d191e481a5b9a5d1a585b1a5e995960921b60648201526084015b60405180910390fd5b6000805460ff191660011790558015610632576000805461ff0019166101001790555b61063a612438565b610642612467565b61064a612496565b61065483836124c5565b60cd80546001600160a01b0319166001600160a01b03881617905560d485905560d584905560ce6020527fd3f5862f6f80175da7514904f3a889cc3cc8c4f3af5129e28cdeaee2baa6efc4805460ff199081166001908117909255737ceb23fd6bc0add59e62ac25578270cff1b9f6196000527f6985af4d533839a9e01bfe2a291ab3c21991755bb1fc7738994c4c096d6bba6b8054909116909117905560fa60d65561271060d7558015610743576000805461ff0019169055604051600181527f7f26b83ff96e1f2b6a682f133852f6798a09c465da95921460cefb38474024989060200160405180910390a15b505050505050565b610755828261251f565b5050565b610761612641565b600084815260cf6020908152604080832081516101a08101835281546001600160a01b039081168252600183015481169482019490945260028201549384169281019290925290916060830190600160a01b900460ff1660048111156107c9576107c96131b6565b60048111156107da576107da6131b6565b81526020016002820160159054906101000a900460ff166001811115610802576108026131b6565b6001811115610813576108136131b6565b815260038201546001600160a01b039081166020808401919091526004840154604084015260058401546001600160801b038082166060860152600160801b918290041660808501526006909401546001600160401b0380821660a0860152600160401b8204811660c0860152948104851660e0850152600160c01b90049093166101009092019190915290820151919250166108c25760405162461bcd60e51b815260040161060690613522565b8061012001516001600160401b031642106108ef5760405162461bcd60e51b815260040161060690613559565b600081606001516004811115610907576109076131b6565b146109245760405162461bcd60e51b815260040161060690613559565b8061014001516001600160401b03168161016001516001600160401b0316106109825760405162461bcd60e51b815260206004820152601060248201526f151a58dad95d1cc81cdbdb19081bdd5d60821b6044820152606401610606565b80610160015181610140015161099891906135a6565b6001600160401b0316846001600160401b03161115610a105760405162461bcd60e51b815260206004820152602e60248201527f546865726520617265206e6f7420736f206d616e79207469636b65747320617660448201526d61696c61626c6520746f2062757960901b6064820152608401610606565b60c081015115610ad9576040516bffffffffffffffffffffffff193360601b166020820152600090603401604051602081830303815290604052805190602001209050610a9484848080602002602001604051908101604052809392919081815260200183836020028082843760009201919091525050505060c084015183612687565b610ad75760405162461bcd60e51b8152602060048201526014602482015273155cd95c881b9bdd081dda1a5d195b1a5cdd195960621b6044820152606401610606565b505b610b173330836101000151876001600160401b0316610af891906135ce565b60a08501516001600160a01b03169291906001600160801b031661269f565b60008161016001516001600160401b0316905060006001866001600160401b031683610b4391906135fd565b610b4d9190613615565b60d154604051630a82e3f960e01b8152336004820152602481018a905260448101859052606481018390529192506001600160a01b031690630a82e3f990608401600060405180830381600087803b158015610ba857600080fd5b505af1158015610bbc573d6000803e3d6000fd5b505050600088815260cf602052604090206006018054889250601090610bf3908490600160801b90046001600160401b031661362c565b82546101009290920a6001600160401b03818102199093169183160217909155604080518a81523360208201529189169082015260608101849052608081018390527f718102f3e28b91e1d6ba4863a841bb1f80811baf107b5e2b3da734e3e03d0444915060a00160405180910390a150505050505050565b600260975403610c8e5760405162461bcd60e51b815260040161060690613657565b6002609755610c9b612641565b600083815260cf6020908152604080832081516101a08101835281546001600160a01b039081168252600183015481169482019490945260028201549384169281019290925290916060830190600160a01b900460ff166004811115610d0357610d036131b6565b6004811115610d1457610d146131b6565b81526020016002820160159054906101000a900460ff166001811115610d3c57610d3c6131b6565b6001811115610d4d57610d4d6131b6565b81526003828101546001600160a01b031660208301526004830154604083015260058301546001600160801b038082166060850152600160801b918290041660808401526006909301546001600160401b0380821660a0850152600160401b8204811660c0850152938104841660e0840152600160c01b90049092166101009091015290915081606001516004811115610de957610de96131b6565b14610e365760405162461bcd60e51b815260206004820152601f60248201527f526166666c65206973206e6f7420696e20524546554e444544207374617465006044820152606401610606565b8160005b81811015610ff25760d15433906001600160a01b0316635f773d7f88888886818110610e6857610e6861368e565b905060200201356040518363ffffffff1660e01b8152600401610e95929190918252602082015260400190565b602060405180830381865afa158015610eb2573d6000803e3d6000fd5b505050506040513d601f19601f82011682018060405250810190610ed691906136a4565b6001600160a01b031614610f2c5760405162461bcd60e51b815260206004820152601d60248201527f596f7520646f206e6f74206f776e2074686973207469636b65742049640000006044820152606401610606565b60d1546001600160a01b0316630a82e3f9600088888886818110610f5257610f5261368e565b90506020020135898987818110610f6b57610f6b61368e565b6040516001600160e01b031960e089901b1681526001600160a01b0390961660048701526024860194909452506044840191909152602090910201356064820152608401600060405180830381600087803b158015610fc957600080fd5b505af1158015610fdd573d6000803e3d6000fd5b5050505080610feb906136c1565b9050610e3a565b5060008261010001516001600160801b03168261100f91906136da565b60a084015190915061102b906001600160a01b03163383612710565b5050600160975550505050565b611040612745565b60d180546001600160a01b0319166001600160a01b0383169081179091556040519081527f93fccc87f16ac33885c2bd084012c57d83b6219781a14aded2b94fe9190c4716906020015b60405180910390a150565b61109d612641565b600081815260cf6020908152604080832081516101a08101835281546001600160a01b039081168252600183015481169482019490945260028201549384169281019290925290916060830190600160a01b900460ff166004811115611105576111056131b6565b6004811115611116576111166131b6565b81526020016002820160159054906101000a900460ff16600181111561113e5761113e6131b6565b600181111561114f5761114f6131b6565b815260038201546001600160a01b039081166020808401919091526004840154604084015260058401546001600160801b038082166060860152600160801b918290041660808501526006909401546001600160401b0380821660a0860152600160401b8204811660c0860152948104851660e0850152600160c01b90049093166101009092019190915290820151919250166111fe5760405162461bcd60e51b815260040161060690613522565b600081606001516004811115611216576112166131b6565b146112335760405162461bcd60e51b8152600401610606906136f9565b8061014001516001600160401b03168161016001516001600160401b0316146112b4578061012001516001600160401b03164210156112b45760405162461bcd60e51b815260206004820152601760248201527f526166666c65206973206e6f7420636f6d706c657465640000000000000000006044820152606401610606565b8061018001516001600160401b03168161016001516001600160401b0316101561140e576000816080015160018111156112f0576112f06131b6565b03611331576000805160206139428339815191528160200151826000015160018460e00151600060405161132895949392919061373a565b60405180910390a15b600181608001516001811115611349576113496131b6565b036113bf5760008051602061394283398151915281602001518260000151600160d06000878152602001908152602001600020548560e001516001600160801b03166113959190613615565b600087815260d06020526040908190205490516113b6959493929190613774565b60405180910390a15b600082815260cf6020526040808220600201805460ff60a01b1916600360a01b1790555160008051602061396283398151915291611402918591906003906137a5565b60405180910390a15050565b60006114198361279f565b90507f0830daf1b0e427c4692464a26bdcb77252bc16b9bab2254964095367edf6430f8160405161144c91815260200190565b60405180910390a1600090815260d2602052604090208290555050565b611471612745565b838281146114c15760405162461bcd60e51b815260206004820152601a60248201527f4172726179206c656e6774687320646f206e6f74206d617463680000000000006044820152606401610606565b60008060005b838110156115da578888828181106114e1576114e161368e565b90506020020160208101906114f6919061310b565b915086868281811061150a5761150a61368e565b90506020020135925060d86000836001600160a01b03166001600160a01b031681526020019081526020016000205483111561157a5760405162461bcd60e51b815260206004820152600f60248201526e082dadeeadce840e8dede40d0d2ced608b1b6044820152606401610606565b6001600160a01b0382166115975761159285846128ac565b6115ab565b6115ab6001600160a01b0383168685612710565b6001600160a01b038216600090815260d860205260409020805484900390556115d3816136c1565b90506114c7565b505050505050505050565b6002609754036116075760405162461bcd60e51b815260040161060690613657565b6002609755611614612641565b600081815260cf6020526040902060018101546001600160a01b031661164c5760405162461bcd60e51b815260040161060690613522565b600280820154600160a01b900460ff16600481111561166d5761166d6131b6565b1461168a5760405162461bcd60e51b8152600401610606906136f9565b6002818101805460ff60a01b1916600160a21b179055604051600080516020613962833981519152916116c2918591906004906137a5565b60405180910390a1600181015460028201546001600160a01b03918216911660006002840154600160a81b900460ff166001811115611703576117036131b6565b0361179d5782546005840154604051600080516020613942833981519152926117499285926001600160a01b03909216916001916001600160801b03169060009061373a565b60405180910390a16001830154600085815260d0602052604080822054905160008051602061394283398151915293611794936001600160a01b039091169290918291908290613774565b60405180910390a15b60016002840154600160a81b900460ff1660018111156117bf576117bf6131b6565b0361180d5782546005840154604051600080516020613942833981519152926118049285926001600160a01b03909216916000916001600160801b031690829061373a565b60405180910390a15b60058301546006840154600091611841916001600160801b03600160801b9283900416916001600160401b039104166135ce565b6001600160801b03169050600060d75460d6548361185f91906136da565b61186991906137dc565b90506118758183613615565b60038601546001600160a01b0316600081815260d86020526040812080549395509192849291906118a79084906135fd565b909155506118c190506001600160a01b0382168685612710565b505060016097555050505050565b6118d7612745565b6001600160a01b038116600090815260ce602052604090205460ff1615611949576001600160a01b038116600081815260ce6020908152604091829020805460ff1916905590519182527f0dc0548bc90523a9e943ea77d199875fdc1e4f8a419b6d53a595b5e6671480e5910161108a565b6001600160a01b038116600081815260ce6020908152604091829020805460ff1916600117905590519182527f5c6cf68a9d7e416d0eee740661627dd794257920f1c63ddae6c6af81d02d12ea910161108a565b50565b600060d3548211156119f45760405162461bcd60e51b815260206004820152601c60248201527f54686520726166666c6520494420646f6573206e6f74206578697374000000006044820152606401610606565b50600090815260cf6020526040902060020154600160a01b900460ff1690565b600260975403611a365760405162461bcd60e51b815260040161060690613657565b6002609755611a43612641565b600081815260cf6020908152604080832081516101a08101835281546001600160a01b039081168252600183015481169482019490945260028201549384169281019290925290916060830190600160a01b900460ff166004811115611aab57611aab6131b6565b6004811115611abc57611abc6131b6565b81526020016002820160159054906101000a900460ff166001811115611ae457611ae46131b6565b6001811115611af557611af56131b6565b815260038201546001600160a01b039081166020808401919091526004840154604084015260058401546001600160801b038082166060860152600160801b918290041660808501526006909401546001600160401b0380821660a0860152600160401b8204811660c0860152948104851660e0850152600160c01b90049093166101009092019190915290820151919250163314611be65760405162461bcd60e51b815260206004820152602760248201527f596f752063616e6e6f742063616e63656c20736f6d656f6e6520656c7365277360448201526620726166666c6560c81b6064820152608401610606565b600081606001516004811115611bfe57611bfe6131b6565b14611c1b5760405162461bcd60e51b815260040161060690613559565b60018161016001516001600160401b031610611c795760405162461bcd60e51b815260206004820181905260248201527f5469636b657473206861766520616c7265616479206265656e20626f756768746044820152606401610606565b600082815260cf602052604080822080546001600160a01b031990811682556001820180548216905560028201805460038085018054909416909355600484018690556005840186905560069093018590556001600160b01b0319909216600360a01b17909155905160008051602061396283398151915292611cfd9286926137a5565b60405180910390a1600081608001516001811115611d1d57611d1d6131b6565b03611da8576000805160206139428339815191528160200151826000015160018460e001516000604051611d5595949392919061373a565b60405180910390a1600080516020613942833981519152816020015160008060d06000878152602001908152602001600020546000604051611d9b959493929190613774565b60405180910390a1611e01565b600181608001516001811115611dc057611dc06131b6565b03611e01576000805160206139428339815191528160200151826000015160008460e001516000604051611df895949392919061373a565b60405180910390a15b6040518281527f7fa78bab5d5570f162c69234a3f4d1b9294fd5bca72219cb16c1fe38839ccb8a9060200160405180910390a150506001609755565b611e45612745565b60cd54604080516001600160a01b03928316815291831660208301527f605ca4e43489fb38b91aa63dd9147cd3847957694b080b9285ec898b34269f0c910160405180910390a160cd80546001600160a01b0319166001600160a01b0392909216919091179055565b611eb6612745565b611ec060006129ea565b565b611eca612745565b6127108110611f125760405162461bcd60e51b8152602060048201526014602482015273466565206d757374206265203c3d20313030202560601b6044820152606401610606565b60d65460408051918252602082018390527fb404cac19fb1cbeff98d325795b08886e3cd8fe8cb1a2f193aac66f13fb239c3910160405180910390a160d655565b60cb546001600160a01b0316331461074b5760405162461bcd60e51b815260206004820152601f60248201527f4f6e6c7920565246436f6f7264696e61746f722063616e2066756c66696c6c006044820152606401610606565b612019604080516101a08101825260008082526020820181905291810182905290606082019081526020016000815260006020820181905260408201819052606082018190526080820181905260a0820181905260c0820181905260e082018190526101009091015290565b60d35482111561206b5760405162461bcd60e51b815260206004820152601c60248201527f54686520726166666c6520494420646f6573206e6f74206578697374000000006044820152606401610606565b600082815260cf602090815260409182902082516101a08101845281546001600160a01b0390811682526001830154811693820193909352600282015492831693810193909352906060830190600160a01b900460ff1660048111156120d3576120d36131b6565b60048111156120e4576120e46131b6565b81526020016002820160159054906101000a900460ff16600181111561210c5761210c6131b6565b600181111561211d5761211d6131b6565b815260038201546001600160a01b031660208201526004820154604082015260058201546001600160801b038082166060840152600160801b918290041660808301526006909201546001600160401b0380821660a0840152600160401b8204811660c0840152928104831660e0830152600160c01b90049091166101009091015292915050565b6121ad612745565b60655460ff166121bf57611ec0612a3c565b611ec0612a96565b60cd546001600160a01b0316331461220f5760405162461bcd60e51b815260206004820152600b60248201526a27b7363ca932b630bcb2b960a91b6044820152606401610606565b612217612641565b600160d3600082825461222a91906135fd565b909155505060d354600090815260cf60209081526040909120835181546001600160a01b039182166001600160a01b03199182161783559285015160018084018054929093169190941617905560028101805460ff60a01b19811682556080860151929361ffff60a01b1990911690600160a81b9084908111156122b0576122b06131b6565b021790555060e083015160a08401516003830180546001600160a01b039092166001600160a01b03199092169190911790556101008401516001600160801b03908116600160801b02911617600582015560c083015160048201556101208301516006820180546101408601516101808701516001600160401b03908116600160c01b026001600160c01b03928216600160401b026fffffffffffffffffffffffffffffffff19949094169190951617919091171691909117905560d38054600090815260d0602052604090819020849055905490517f28da189cbd771ff4d67710b07a94a6785e6dfb42f2dc01b7f0f95f03658bff3d916123b59190815260200190565b60405180910390a1505050565b6123ca612745565b6001600160a01b03811661242f5760405162461bcd60e51b815260206004820152602660248201527f4f776e61626c653a206e6577206f776e657220697320746865207a65726f206160448201526564647265737360d01b6064820152608401610606565b61199d816129ea565b600054610100900460ff1661245f5760405162461bcd60e51b8152600401610606906137f0565b611ec0612acf565b600054610100900460ff1661248e5760405162461bcd60e51b8152600401610606906137f0565b611ec0612aff565b600054610100900460ff166124bd5760405162461bcd60e51b8152600401610606906137f0565b611ec0612b32565b600054610100900460ff166124ec5760405162461bcd60e51b8152600401610606906137f0565b60cb80546001600160a01b039384166001600160a01b03199182161790915560ca8054929093169116179055600060c955565b600082815260d2602090815260408083205480845260cf9092529091206002808201805460ff60a01b1916600160a01b8302179055506000805160206139628339815191528260016002604051612578939291906137a5565b60405180910390a160068101546000906125a290600160801b90046001600160401b03168561383b565b60d154604051635f773d7f60e01b815260048101869052602481018390529192506001600160a01b031690635f773d7f90604401602060405180830381865afa1580156125f3573d6000803e3d6000fd5b505050506040513d601f19601f8201168201806040525081019061261791906136a4565b60029290920180546001600160a01b0319166001600160a01b039093169290921790915550505050565b60655460ff1615611ec05760405162461bcd60e51b815260206004820152601060248201526f14185d5cd8589b194e881c185d5cd95960821b6044820152606401610606565b6000826126948584612b60565b1490505b9392505050565b6040516001600160a01b038085166024830152831660448201526064810182905261270a9085906323b872dd60e01b906084015b60408051601f198184030181529190526020810180516001600160e01b03166001600160e01b031990931692909217909152612baf565b50505050565b6040516001600160a01b03831660248201526044810182905261274090849063a9059cbb60e01b906064016126d3565b505050565b6033546001600160a01b03163314611ec05760405162461bcd60e51b815260206004820181905260248201527f4f776e61626c653a2063616c6c6572206973206e6f7420746865206f776e65726044820152606401610606565b60d55460ca546040516370a0823160e01b8152306004820152600092916001600160a01b0316906370a0823190602401602060405180830381865afa1580156127ec573d6000803e3d6000fd5b505050506040513d601f19601f82011682018060405250810190612810919061384f565b10156128505760405162461bcd60e51b815260206004820152600f60248201526e4e6f7420656e6f756768204c494e4b60881b6044820152606401610606565b600082815260cf602052604080822060028101805460ff60a01b1916600160a01b17905590519091600080516020613962833981519152916128969186916001906137a5565b60405180910390a161269860d45460d554612c81565b804710156128fc5760405162461bcd60e51b815260206004820152601f60248201527f5f68616e646c654e61746976655472616e7366657220696e736f6c76656e74006044820152606401610606565b60005a90506000836001600160a01b0316838390604051600060405180830381858888f193505050503d8060008114612951576040519150601f19603f3d011682016040523d82523d6000602084013e612956565b606091505b505090508061270a57730d500b1d8e8ef31e21c99d1db9a6444d3adf12706001600160a01b031663d0e30db0846040518263ffffffff1660e01b81526004016000604051808303818588803b1580156129ae57600080fd5b505af11580156129c2573d6000803e3d6000fd5b5061270a9350730d500b1d8e8ef31e21c99d1db9a6444d3adf12709250879150869050612710565b603380546001600160a01b038381166001600160a01b0319831681179093556040519116919082907f8be0079c531659141344cd1fd0a4f28419497f9722a3daafe3b4186f6b6457e090600090a35050565b612a44612641565b6065805460ff191660011790557f62e78cea01bee320cd4e420270b5ea74000d11b0c9f74754ebdbfc544b05a258612a793390565b6040516001600160a01b03909116815260200160405180910390a1565b612a9e612dd6565b6065805460ff191690557f5db9ee0a495bf2e6ff9c91a7834c1ba4fdd244a5e8aa4e537bd38aeae4b073aa33612a79565b600054610100900460ff16612af65760405162461bcd60e51b8152600401610606906137f0565b611ec0336129ea565b600054610100900460ff16612b265760405162461bcd60e51b8152600401610606906137f0565b6065805460ff19169055565b600054610100900460ff16612b595760405162461bcd60e51b8152600401610606906137f0565b6001609755565b600081815b8451811015612ba557612b9182868381518110612b8457612b8461368e565b6020026020010151612e1f565b915080612b9d816136c1565b915050612b65565b5090505b92915050565b6000612c04826040518060400160405280602081526020017f5361666545524332303a206c6f772d6c6576656c2063616c6c206661696c6564815250856001600160a01b0316612e4b9092919063ffffffff16565b8051909150156127405780806020019051810190612c229190613868565b6127405760405162461bcd60e51b815260206004820152602a60248201527f5361666545524332303a204552433230206f7065726174696f6e20646964206e6044820152691bdd081cdd58d8d9595960b21b6064820152608401610606565b60ca5460cb5460c9546040516000936001600160a01b0390811693634000aea0939116918691612cbf91899190602001918252602082015260400190565b6040516020818303038152906040526040518463ffffffff1660e01b8152600401612cec939291906138e2565b6020604051808303816000875af1158015612d0b573d6000803e3d6000fd5b505050506040513d601f19601f82011682018060405250810190612d2f9190613868565b5060c954600084815260cc602081815260408084205481518084018a90528083019690965230606087015260808087018290528251808803909101815260a0909601909152845194820194909420928790525290612d8e9060016135fd565b600085815260cc6020526040902055612dce8482604080516020808201949094528082019290925280518083038201815260609092019052805191012090565b949350505050565b60655460ff16611ec05760405162461bcd60e51b815260206004820152601460248201527314185d5cd8589b194e881b9bdd081c185d5cd95960621b6044820152606401610606565b6000818310612e3b576000828152602084905260409020612698565b5060009182526020526040902090565b6060612dce8484600085856001600160a01b0385163b612ead5760405162461bcd60e51b815260206004820152601d60248201527f416464726573733a2063616c6c20746f206e6f6e2d636f6e74726163740000006044820152606401610606565b600080866001600160a01b03168587604051612ec99190613912565b60006040518083038185875af1925050503d8060008114612f06576040519150601f19603f3d011682016040523d82523d6000602084013e612f0b565b606091505b5091509150612f1b828286612f26565b979650505050505050565b60608315612f35575081612698565b825115612f455782518084602001fd5b8160405162461bcd60e51b8152600401610606919061392e565b6001600160a01b038116811461199d57600080fd5b8035612f7f81612f5f565b919050565b600080600080600060a08688031215612f9c57600080fd5b8535612fa781612f5f565b945060208601359350604086013592506060860135612fc581612f5f565b91506080860135612fd581612f5f565b809150509295509295909350565b60008060408385031215612ff657600080fd5b50508035926020909101359150565b80356001600160401b0381168114612f7f57600080fd5b60008083601f84011261302e57600080fd5b5081356001600160401b0381111561304557600080fd5b6020830191508360208260051b850101111561306057600080fd5b9250929050565b6000806000806060858703121561307d57600080fd5b8435935061308d60208601613005565b925060408501356001600160401b038111156130a857600080fd5b6130b48782880161301c565b95989497509550505050565b6000806000604084860312156130d557600080fd5b8335925060208401356001600160401b038111156130f257600080fd5b6130fe8682870161301c565b9497909650939450505050565b60006020828403121561311d57600080fd5b813561269881612f5f565b60006020828403121561313a57600080fd5b5035919050565b60008060008060006060868803121561315957600080fd5b85356001600160401b038082111561317057600080fd5b61317c89838a0161301c565b9097509550602088013591508082111561319557600080fd5b506131a28882890161301c565b9094509250506040860135612fd581612f5f565b634e487b7160e01b600052602160045260246000fd5b600581106131dc576131dc6131b6565b9052565b60208101612ba982846131cc565b600281106131dc576131dc6131b6565b6001600160a01b038e811682528d811660208301528c1660408201526101a0810161322c606083018d6131cc565b613239608083018c6131ee565b6001600160a01b039990991660a082015260c08101979097526001600160801b0395861660e0880152939094166101008601526001600160401b039182166101208601528116610140850152918216610160840152166101809091015295945050505050565b81516001600160a01b031681526101a0810160208301516132cb60208401826001600160a01b03169052565b5060408301516132e660408401826001600160a01b03169052565b5060608301516132f960608401826131cc565b50608083015161330c60808401826131ee565b5060a083015161332760a08401826001600160a01b03169052565b5060c083015160c083015260e083015161334c60e08401826001600160801b03169052565b50610100838101516001600160801b031690830152610120808401516001600160401b039081169184019190915261014080850151821690840152610160808501518216908401526101809384015116929091019190915290565b6040516101a081016001600160401b03811182821017156133d857634e487b7160e01b600052604160045260246000fd5b60405290565b803560058110612f7f57600080fd5b803560028110612f7f57600080fd5b80356001600160801b0381168114612f7f57600080fd5b6000808284036101c081121561342857600080fd5b6101a08082121561343857600080fd5b6134406133a7565b915061344b85612f74565b825261345960208601612f74565b602083015261346a60408601612f74565b604083015261347b606086016133de565b606083015261348c608086016133ed565b608083015261349d60a08601612f74565b60a083015260c085013560c08301526134b860e086016133fc565b60e08301526101006134cb8187016133fc565b908301526101206134dd868201613005565b908301526101406134ef868201613005565b90830152610160613501868201613005565b90830152610180613513868201613005565b90830152909593013593505050565b6020808252601a908201527f5468697320726166666c6520646f6573206e6f74206578697374000000000000604082015260600190565b6020808252601d908201527f5468697320726166666c652068617320616c726561647920656e646564000000604082015260600190565b634e487b7160e01b600052601160045260246000fd5b60006001600160401b03838116908316818110156135c6576135c6613590565b039392505050565b60006001600160801b03808316818516818304811182151516156135f4576135f4613590565b02949350505050565b6000821982111561361057613610613590565b500190565b60008282101561362757613627613590565b500390565b60006001600160401b0380831681851680830382111561364e5761364e613590565b01949350505050565b6020808252601f908201527f5265656e7472616e637947756172643a207265656e7472616e742063616c6c00604082015260600190565b634e487b7160e01b600052603260045260246000fd5b6000602082840312156136b657600080fd5b815161269881612f5f565b6000600182016136d3576136d3613590565b5060010190565b60008160001904831182151516156136f4576136f4613590565b500290565b60208082526021908201527f5468697320726166666c652077617320616c726561647920636f6d706c6574656040820152601960fa1b606082015260800190565b6001600160a01b03958616815293909416602084015290151560408301526001600160801b03166060820152608081019190915260a00190565b6001600160a01b03958616815293909416602084015290151560408301526060820152608081019190915260a00190565b838152606081016137b960208301856131cc565b612dce60408301846131cc565b634e487b7160e01b600052601260045260246000fd5b6000826137eb576137eb6137c6565b500490565b6020808252602b908201527f496e697469616c697a61626c653a20636f6e7472616374206973206e6f74206960408201526a6e697469616c697a696e6760a81b606082015260800190565b60008261384a5761384a6137c6565b500690565b60006020828403121561386157600080fd5b5051919050565b60006020828403121561387a57600080fd5b8151801515811461269857600080fd5b60005b838110156138a557818101518382015260200161388d565b8381111561270a5750506000910152565b600081518084526138ce81602086016020860161388a565b601f01601f19169290920160200192915050565b60018060a01b038416815282602082015260606040820152600061390960608301846138b6565b95945050505050565b6000825161392481846020870161388a565b9190910192915050565b60208152600061269860208301846138b656feea3e4901ee8777d40ee0bdeedc4514a831fd4c7b59537df939b09d2dacf1486798f4d55a8071907ab4e28727c006f2a8a315cd8c01e117f04430d9587875ad3da26469706673582212203afc38e78bd7ba6a7bf80734de4a6aa32201f640a4fb2253c91965852911d50664736f6c634300080f0033",
  "bytecodeSha1": "2864852c2777d356349e1eb25665bd85fca78adc",
  "compiler": {
    "evm_version": "istanbul",
    "optimizer": {
      "enabled": true,
      "runs": 200
    },
    "version": "0.8.15+commit.e14f2714"
  },
  "contractName": "RafflePolygon",
  "language": "Solidity",
  "natspec": {
    "kind": "dev",
    "methods": {
      "buyRaffleTicket(uint256,uint64,bytes32[])": {
        "notice": "Allows users to buy tickets for a Raffle",
        "params": {
          "_merkleProof": "MerkleProof used to verify user is part of the whitelist ",
          "_numberOfTickets": "The number of tickets a user wants to buy ",
          "_raffleId": "The ID of the raffle the user wants to buy a ticket for"
        }
      },
      "cancelRaffle(uint256)": {
        "notice": "Allows raffle owners to cancel a raffle if NO tickets were sold yet",
        "params": {
          "_raffleId": "The ID of the raffle"
        }
      },
      "claimCancelledRaffle(uint256,uint256[])": {
        "notice": "Allows users to claim a cancelled raffle where they will receive their initially payment",
        "params": {
          "_raffleId": "The ID of the raffle the user wants to buy a ticket for",
          "ticketIds": "Array of ticketIds to claim"
        }
      },
      "claimRaffle(uint256)": {
        "notice": "Allows users to claim the raffle. Owner of the raffle will receive the payment and the winner his asset",
        "params": {
          "_raffleId": "The ID of the raffle the user wants to buy a ticket for"
        }
      },
      "completeRaffle(uint256)": {
        "notice": "Allows users to complete a Raffle. The winner of the raffle will receive the asset. The owner of the raffle will receive his payment Cron job will call daily all the pending raffles. Users can also call it",
        "params": {
          "_raffleId": "The ID of the raffle the user wants to buy a ticket for"
        }
      },
      "createRaffle((address,address,address,uint8,uint8,address,bytes32,uint128,uint128,uint64,uint64,uint64,uint64),uint256)": {
        "notice": "Creates a raffle",
        "params": {
          "_fairRaffleFee": "FairRaffleFee",
          "_raffleData": "Structure that contains all the data related to the Raffle"
        }
      },
      "getRaffleDetails(uint256)": {
        "notice": "############################################################################################                 VIEW FUNCTIONS  ############################################################################################"
      },
      "owner()": {
        "details": "Returns the address of the current owner."
      },
      "paused()": {
        "details": "Returns true if the contract is paused, and false otherwise."
      },
      "renounceOwnership()": {
        "details": "Leaves the contract without owner. It will not be possible to call `onlyOwner` functions anymore. Can only be called by the current owner. NOTE: Renouncing ownership will leave the contract without an owner, thereby removing any functionality that is only available to the owner."
      },
      "setProtocolFee(uint256)": {
        "notice": "Used to set the FEE_NUMERATOR by the owner"
      },
      "setRaffleTicketContract(address)": {
        "notice": "Used to set the contract that will manage all the ticket logic"
      },
      "setRelayer(address)": {
        "notice": "Used to set a new relayer account"
      },
      "toggleCurrency(address)": {
        "notice": "Used to whitelist/blacklist an ERC20 token to be used as a payment currency"
      },
      "togglePause()": {
        "notice": "Used to pause/unpause the smart contract by the owner"
      },
      "totalAmountClaimable(address)": {
        "notice": "Token address => Amount that owners of the contract can claim as fee rewards address(0) = Matic"
      },
      "transferOwnership(address)": {
        "details": "Transfers ownership of the contract to a new account (`newOwner`). Can only be called by the current owner."
      },
      "withdrawFees(address[],uint256[],address)": {
        "notice": "Used by the contract owners to claim the fees accrued",
        "params": {
          "_amounts": "List of amounts that will be withdrawn",
          "_receiver": "Address that will receive the fees",
          "_tokenAddress": "List of tokens to withdraw the fees"
        }
      }
    },
    "version": 1
  },
  "opcodes": "PUSH1 0x80 PUSH1 0x40 MSTORE CALLVALUE DUP1 ISZERO PUSH2 0x10 JUMPI PUSH1 0x0 DUP1 REVERT JUMPDEST POP PUSH1 0x4 CALLDATASIZE LT PUSH2 0x1FB JUMPI PUSH1 0x0 CALLDATALOAD PUSH1 0xE0 SHR DUP1 PUSH4 0x5D4BC0CE GT PUSH2 0x11A JUMPI DUP1 PUSH4 0x94985DDD GT PUSH2 0xAD JUMPI DUP1 PUSH4 0xC4AE3168 GT PUSH2 0x7C JUMPI DUP1 PUSH4 0xC4AE3168 EQ PUSH2 0x516 JUMPI DUP1 PUSH4 0xCE806E8C EQ PUSH2 0x51E JUMPI DUP1 PUSH4 0xD69003E4 EQ PUSH2 0x531 JUMPI DUP1 PUSH4 0xD73792A9 EQ PUSH2 0x551 JUMPI DUP1 PUSH4 0xF2FDE38B EQ PUSH2 0x55A JUMPI PUSH1 0x0 DUP1 REVERT JUMPDEST DUP1 PUSH4 0x94985DDD EQ PUSH2 0x4BA JUMPI DUP1 PUSH4 0xA080DFFE EQ PUSH2 0x4CD JUMPI DUP1 PUSH4 0xA21AFC76 EQ PUSH2 0x4ED JUMPI DUP1 PUSH4 0xC2F306A5 EQ PUSH2 0x50D JUMPI PUSH1 0x0 DUP1 REVERT JUMPDEST DUP1 PUSH4 0x787DCE3D GT PUSH2 0xE9 JUMPI DUP1 PUSH4 0x787DCE3D EQ PUSH2 0x47A JUMPI DUP1 PUSH4 0x82C7317D EQ PUSH2 0x48D JUMPI DUP1 PUSH4 0x8406C079 EQ PUSH2 0x496 JUMPI DUP1 PUSH4 0x8DA5CB5B EQ PUSH2 0x4A9 JUMPI PUSH1 0x0 DUP1 REVERT JUMPDEST DUP1 PUSH4 0x5D4BC0CE EQ PUSH2 0x387 JUMPI DUP1 PUSH4 0x5FBA3171 EQ PUSH2 0x44C JUMPI DUP1 PUSH4 0x6548E9BC EQ PUSH2 0x45F JUMPI DUP1 PUSH4 0x715018A6 EQ PUSH2 0x472 JUMPI PUSH1 0x0 DUP1 REVERT JUMPDEST DUP1 PUSH4 0x31F91A84 GT PUSH2 0x192 JUMPI DUP1 PUSH4 0x43B938C5 GT PUSH2 0x161 JUMPI DUP1 PUSH4 0x43B938C5 EQ PUSH2 0x31D JUMPI DUP1 PUSH4 0x457AB7DC EQ PUSH2 0x349 JUMPI DUP1 PUSH4 0x566777CC EQ PUSH2 0x35C JUMPI DUP1 PUSH4 0x5C975ABB EQ PUSH2 0x37C JUMPI PUSH1 0x0 DUP1 REVERT JUMPDEST DUP1 PUSH4 0x31F91A84 EQ PUSH2 0x2BB JUMPI DUP1 PUSH4 0x4178CDFB EQ PUSH2 0x2CE JUMPI DUP1 PUSH4 0x41CD47BF EQ PUSH2 0x2E1 JUMPI DUP1 PUSH4 0x436CC138 EQ PUSH2 0x2EA JUMPI PUSH1 0x0 DUP1 REVERT JUMPDEST DUP1 PUSH4 0x273201BF GT PUSH2 0x1CE JUMPI DUP1 PUSH4 0x273201BF EQ PUSH2 0x26F JUMPI DUP1 PUSH4 0x2CF316F9 EQ PUSH2 0x282 JUMPI DUP1 PUSH4 0x2F9C7345 EQ PUSH2 0x295 JUMPI DUP1 PUSH4 0x3077A863 EQ PUSH2 0x2A8 JUMPI PUSH1 0x0 DUP1 REVERT JUMPDEST DUP1 PUSH4 0x1889611 EQ PUSH2 0x200 JUMPI DUP1 PUSH4 0xAF5A263 EQ PUSH2 0x21C JUMPI DUP1 PUSH4 0xB229BC7 EQ PUSH2 0x231 JUMPI DUP1 PUSH4 0x11577339 EQ PUSH2 0x25C JUMPI JUMPDEST PUSH1 0x0 DUP1 REVERT JUMPDEST PUSH2 0x209 PUSH1 0xD5 SLOAD DUP2 JUMP JUMPDEST PUSH1 0x40 MLOAD SWAP1 DUP2 MSTORE PUSH1 0x20 ADD JUMPDEST PUSH1 0x40 MLOAD DUP1 SWAP2 SUB SWAP1 RETURN JUMPDEST PUSH2 0x22F PUSH2 0x22A CALLDATASIZE PUSH1 0x4 PUSH2 0x2F84 JUMP JUMPDEST PUSH2 0x56D JUMP JUMPDEST STOP JUMPDEST PUSH1 0xD1 SLOAD PUSH2 0x244 SWAP1 PUSH1 0x1 PUSH1 0x1 PUSH1 0xA0 SHL SUB AND DUP2 JUMP JUMPDEST PUSH1 0x40 MLOAD PUSH1 0x1 PUSH1 0x1 PUSH1 0xA0 SHL SUB SWAP1 SWAP2 AND DUP2 MSTORE PUSH1 0x20 ADD PUSH2 0x213 JUMP JUMPDEST PUSH2 0x22F PUSH2 0x26A CALLDATASIZE PUSH1 0x4 PUSH2 0x2FE3 JUMP JUMPDEST PUSH2 0x74B JUMP JUMPDEST PUSH2 0x22F PUSH2 0x27D CALLDATASIZE PUSH1 0x4 PUSH2 0x3067 JUMP JUMPDEST PUSH2 0x759 JUMP JUMPDEST PUSH2 0x22F PUSH2 0x290 CALLDATASIZE PUSH1 0x4 PUSH2 0x30C0 JUMP JUMPDEST PUSH2 0xC6C JUMP JUMPDEST PUSH2 0x22F PUSH2 0x2A3 CALLDATASIZE PUSH1 0x4 PUSH2 0x310B JUMP JUMPDEST PUSH2 0x1038 JUMP JUMPDEST PUSH2 0x22F PUSH2 0x2B6 CALLDATASIZE PUSH1 0x4 PUSH2 0x3128 JUMP JUMPDEST PUSH2 0x1095 JUMP JUMPDEST PUSH2 0x22F PUSH2 0x2C9 CALLDATASIZE PUSH1 0x4 PUSH2 0x3141 JUMP JUMPDEST PUSH2 0x1469 JUMP JUMPDEST PUSH2 0x22F PUSH2 0x2DC CALLDATASIZE PUSH1 0x4 PUSH2 0x3128 JUMP JUMPDEST PUSH2 0x15E5 JUMP JUMPDEST PUSH2 0x209 PUSH1 0xD6 SLOAD DUP2 JUMP JUMPDEST PUSH2 0x30D PUSH2 0x2F8 CALLDATASIZE PUSH1 0x4 PUSH2 0x310B JUMP JUMPDEST PUSH1 0xCE PUSH1 0x20 MSTORE PUSH1 0x0 SWAP1 DUP2 MSTORE PUSH1 0x40 SWAP1 KECCAK256 SLOAD PUSH1 0xFF AND DUP2 JUMP JUMPDEST PUSH1 0x40 MLOAD SWAP1 ISZERO ISZERO DUP2 MSTORE PUSH1 0x20 ADD PUSH2 0x213 JUMP JUMPDEST PUSH2 0x30D PUSH2 0x32B CALLDATASIZE PUSH1 0x4 PUSH2 0x310B JUMP JUMPDEST PUSH1 0x1 PUSH1 0x1 PUSH1 0xA0 SHL SUB AND PUSH1 0x0 SWAP1 DUP2 MSTORE PUSH1 0xCE PUSH1 0x20 MSTORE PUSH1 0x40 SWAP1 KECCAK256 SLOAD PUSH1 0xFF AND SWAP1 JUMP JUMPDEST PUSH2 0x22F PUSH2 0x357 CALLDATASIZE PUSH1 0x4 PUSH2 0x310B JUMP JUMPDEST PUSH2 0x18CF JUMP JUMPDEST PUSH2 0x36F PUSH2 0x36A CALLDATASIZE PUSH1 0x4 PUSH2 0x3128 JUMP JUMPDEST PUSH2 0x19A0 JUMP JUMPDEST PUSH1 0x40 MLOAD PUSH2 0x213 SWAP2 SWAP1 PUSH2 0x31E0 JUMP JUMPDEST PUSH1 0x65 SLOAD PUSH1 0xFF AND PUSH2 0x30D JUMP JUMPDEST PUSH2 0x433 PUSH2 0x395 CALLDATASIZE PUSH1 0x4 PUSH2 0x3128 JUMP JUMPDEST PUSH1 0xCF PUSH1 0x20 MSTORE PUSH1 0x0 SWAP1 DUP2 MSTORE PUSH1 0x40 SWAP1 KECCAK256 DUP1 SLOAD PUSH1 0x1 DUP3 ADD SLOAD PUSH1 0x2 DUP4 ADD SLOAD PUSH1 0x3 DUP5 ADD SLOAD PUSH1 0x4 DUP6 ADD SLOAD PUSH1 0x5 DUP7 ADD SLOAD PUSH1 0x6 SWAP1 SWAP7 ADD SLOAD PUSH1 0x1 PUSH1 0x1 PUSH1 0xA0 SHL SUB SWAP6 DUP7 AND SWAP7 SWAP5 DUP7 AND SWAP6 DUP5 DUP2 AND SWAP6 PUSH1 0xFF PUSH1 0x1 PUSH1 0xA0 SHL DUP8 DIV DUP2 AND SWAP7 PUSH1 0x1 PUSH1 0xA8 SHL SWAP1 DIV AND SWAP5 SWAP1 SWAP2 AND SWAP3 SWAP2 PUSH1 0x1 PUSH1 0x1 PUSH1 0x80 SHL SUB DUP1 DUP4 AND SWAP3 PUSH1 0x1 PUSH1 0x80 SHL SWAP1 DUP2 SWAP1 DIV SWAP1 SWAP2 AND SWAP2 PUSH1 0x1 PUSH1 0x1 PUSH1 0x40 SHL SUB DUP1 DUP3 AND SWAP3 PUSH1 0x1 PUSH1 0x40 SHL DUP4 DIV DUP3 AND SWAP3 SWAP1 DUP2 DIV DUP3 AND SWAP2 PUSH1 0x1 PUSH1 0xC0 SHL SWAP1 SWAP2 DIV AND DUP14 JUMP JUMPDEST PUSH1 0x40 MLOAD PUSH2 0x213 SWAP14 SWAP13 SWAP12 SWAP11 SWAP10 SWAP9 SWAP8 SWAP7 SWAP6 SWAP5 SWAP4 SWAP3 SWAP2 SWAP1 PUSH2 0x31FE JUMP JUMPDEST PUSH2 0x22F PUSH2 0x45A CALLDATASIZE PUSH1 0x4 PUSH2 0x3128 JUMP JUMPDEST PUSH2 0x1A14 JUMP JUMPDEST PUSH2 0x22F PUSH2 0x46D CALLDATASIZE PUSH1 0x4 PUSH2 0x310B JUMP JUMPDEST PUSH2 0x1E3D JUMP JUMPDEST PUSH2 0x22F PUSH2 0x1EAE JUMP JUMPDEST PUSH2 0x22F PUSH2 0x488 CALLDATASIZE PUSH1 0x4 PUSH2 0x3128 JUMP JUMPDEST PUSH2 0x1EC2 JUMP JUMPDEST PUSH2 0x209 PUSH1 0xD4 SLOAD DUP2 JUMP JUMPDEST PUSH1 0xCD SLOAD PUSH2 0x244 SWAP1 PUSH1 0x1 PUSH1 0x1 PUSH1 0xA0 SHL SUB AND DUP2 JUMP JUMPDEST PUSH1 0x33 SLOAD PUSH1 0x1 PUSH1 0x1 PUSH1 0xA0 SHL SUB AND PUSH2 0x244 JUMP JUMPDEST PUSH2 0x22F PUSH2 0x4C8 CALLDATASIZE PUSH1 0x4 PUSH2 0x2FE3 JUMP JUMPDEST PUSH2 0x1F53 JUMP JUMPDEST PUSH2 0x4E0 PUSH2 0x4DB CALLDATASIZE PUSH1 0x4 PUSH2 0x3128 JUMP JUMPDEST PUSH2 0x1FAD JUMP JUMPDEST PUSH1 0x40 MLOAD PUSH2 0x213 SWAP2 SWAP1 PUSH2 0x329F JUMP JUMPDEST PUSH2 0x209 PUSH2 0x4FB CALLDATASIZE PUSH1 0x4 PUSH2 0x310B JUMP JUMPDEST PUSH1 0xD8 PUSH1 0x20 MSTORE PUSH1 0x0 SWAP1 DUP2 MSTORE PUSH1 0x40 SWAP1 KECCAK256 SLOAD DUP2 JUMP JUMPDEST PUSH2 0x209 PUSH1 0xD3 SLOAD DUP2 JUMP JUMPDEST PUSH2 0x22F PUSH2 0x21A5 JUMP JUMPDEST PUSH2 0x22F PUSH2 0x52C CALLDATASIZE PUSH1 0x4 PUSH2 0x3413 JUMP JUMPDEST PUSH2 0x21C7 JUMP JUMPDEST PUSH2 0x209 PUSH2 0x53F CALLDATASIZE PUSH1 0x4 PUSH2 0x3128 JUMP JUMPDEST PUSH1 0xD0 PUSH1 0x20 MSTORE PUSH1 0x0 SWAP1 DUP2 MSTORE PUSH1 0x40 SWAP1 KECCAK256 SLOAD DUP2 JUMP JUMPDEST PUSH2 0x209 PUSH1 0xD7 SLOAD DUP2 JUMP JUMPDEST PUSH2 0x22F PUSH2 0x568 CALLDATASIZE PUSH1 0x4 PUSH2 0x310B JUMP JUMPDEST PUSH2 0x23C2 JUMP JUMPDEST PUSH1 0x0 SLOAD PUSH2 0x100 SWAP1 DIV PUSH1 0xFF AND ISZERO DUP1 DUP1 ISZERO PUSH2 0x58D JUMPI POP PUSH1 0x0 SLOAD PUSH1 0x1 PUSH1 0xFF SWAP1 SWAP2 AND LT JUMPDEST DUP1 PUSH2 0x5A7 JUMPI POP ADDRESS EXTCODESIZE ISZERO DUP1 ISZERO PUSH2 0x5A7 JUMPI POP PUSH1 0x0 SLOAD PUSH1 0xFF AND PUSH1 0x1 EQ JUMPDEST PUSH2 0x60F JUMPI PUSH1 0x40 MLOAD PUSH3 0x461BCD PUSH1 0xE5 SHL DUP2 MSTORE PUSH1 0x20 PUSH1 0x4 DUP3 ADD MSTORE PUSH1 0x2E PUSH1 0x24 DUP3 ADD MSTORE PUSH32 0x496E697469616C697A61626C653A20636F6E747261637420697320616C726561 PUSH1 0x44 DUP3 ADD MSTORE PUSH14 0x191E481A5B9A5D1A585B1A5E9959 PUSH1 0x92 SHL PUSH1 0x64 DUP3 ADD MSTORE PUSH1 0x84 ADD JUMPDEST PUSH1 0x40 MLOAD DUP1 SWAP2 SUB SWAP1 REVERT JUMPDEST PUSH1 0x0 DUP1 SLOAD PUSH1 0xFF NOT AND PUSH1 0x1 OR SWAP1 SSTORE DUP1 ISZERO PUSH2 0x632 JUMPI PUSH1 0x0 DUP1 SLOAD PUSH2 0xFF00 NOT AND PUSH2 0x100 OR SWAP1 SSTORE JUMPDEST PUSH2 0x63A PUSH2 0x2438 JUMP JUMPDEST PUSH2 0x642 PUSH2 0x2467 JUMP JUMPDEST PUSH2 0x64A PUSH2 0x2496 JUMP JUMPDEST PUSH2 0x654 DUP4 DUP4 PUSH2 0x24C5 JUMP JUMPDEST PUSH1 0xCD DUP1 SLOAD PUSH1 0x1 PUSH1 0x1 PUSH1 0xA0 SHL SUB NOT AND PUSH1 0x1 PUSH1 0x1 PUSH1 0xA0 SHL SUB DUP9 AND OR SWAP1 SSTORE PUSH1 0xD4 DUP6 SWAP1 SSTORE PUSH1 0xD5 DUP5 SWAP1 SSTORE PUSH1 0xCE PUSH1 0x20 MSTORE PUSH32 0xD3F5862F6F80175DA7514904F3A889CC3CC8C4F3AF5129E28CDEAEE2BAA6EFC4 DUP1 SLOAD PUSH1 0xFF NOT SWAP1 DUP2 AND PUSH1 0x1 SWAP1 DUP2 OR SWAP1 SWAP3 SSTORE PUSH20 0x7CEB23FD6BC0ADD59E62AC25578270CFF1B9F619 PUSH1 0x0 MSTORE PUSH32 0x6985AF4D533839A9E01BFE2A291AB3C21991755BB1FC7738994C4C096D6BBA6B DUP1 SLOAD SWAP1 SWAP2 AND SWAP1 SWAP2 OR SWAP1 SSTORE PUSH1 0xFA PUSH1 0xD6 SSTORE PUSH2 0x2710 PUSH1 0xD7 SSTORE DUP1 ISZERO PUSH2 0x743 JUMPI PUSH1 0x0 DUP1 SLOAD PUSH2 0xFF00 NOT AND SWAP1 SSTORE PUSH1 0x40 MLOAD PUSH1 0x1 DUP2 MSTORE PUSH32 0x7F26B83FF96E1F2B6A682F133852F6798A09C465DA95921460CEFB3847402498 SWAP1 PUSH1 0x20 ADD PUSH1 0x40 MLOAD DUP1 SWAP2 SUB SWAP1 LOG1 JUMPDEST POP POP POP POP POP POP JUMP JUMPDEST PUSH2 0x755 DUP3 DUP3 PUSH2 0x251F JUMP JUMPDEST POP POP JUMP JUMPDEST PUSH2 0x761 PUSH2 0x2641 JUMP JUMPDEST PUSH1 0x0 DUP5 DUP2 MSTORE PUSH1 0xCF PUSH1 0x20 SWAP1 DUP2 MSTORE PUSH1 0x40 DUP1 DUP4 KECCAK256 DUP2 MLOAD PUSH2 0x1A0 DUP2 ADD DUP4 MSTORE DUP2 SLOAD PUSH1 0x1 PUSH1 0x1 PUSH1 0xA0 SHL SUB SWAP1 DUP2 AND DUP3 MSTORE PUSH1 0x1 DUP4 ADD SLOAD DUP2 AND SWAP5 DUP3 ADD SWAP5 SWAP1 SWAP5 MSTORE PUSH1 0x2 DUP3 ADD SLOAD SWAP4 DUP5 AND SWAP3 DUP2 ADD SWAP3 SWAP1 SWAP3 MSTORE SWAP1 SWAP2 PUSH1 0x60 DUP4 ADD SWAP1 PUSH1 0x1 PUSH1 0xA0 SHL SWAP1 DIV PUSH1 0xFF AND PUSH1 0x4 DUP2 GT ISZERO PUSH2 0x7C9 JUMPI PUSH2 0x7C9 PUSH2 0x31B6 JUMP JUMPDEST PUSH1 0x4 DUP2 GT ISZERO PUSH2 0x7DA JUMPI PUSH2 0x7DA PUSH2 0x31B6 JUMP JUMPDEST DUP2 MSTORE PUSH1 0x20 ADD PUSH1 0x2 DUP3 ADD PUSH1 0x15 SWAP1 SLOAD SWAP1 PUSH2 0x100 EXP SWAP1 DIV PUSH1 0xFF AND PUSH1 0x1 DUP2 GT ISZERO PUSH2 0x802 JUMPI PUSH2 0x802 PUSH2 0x31B6 JUMP JUMPDEST PUSH1 0x1 DUP2 GT ISZERO PUSH2 0x813 JUMPI PUSH2 0x813 PUSH2 0x31B6 JUMP JUMPDEST DUP2 MSTORE PUSH1 0x3 DUP3 ADD SLOAD PUSH1 0x1 PUSH1 0x1 PUSH1 0xA0 SHL SUB SWAP1 DUP2 AND PUSH1 0x20 DUP1 DUP5 ADD SWAP2 SWAP1 SWAP2 MSTORE PUSH1 0x4 DUP5 ADD SLOAD PUSH1 0x40 DUP5 ADD MSTORE PUSH1 0x5 DUP5 ADD SLOAD PUSH1 0x1 PUSH1 0x1 PUSH1 0x80 SHL SUB DUP1 DUP3 AND PUSH1 0x60 DUP7 ADD MSTORE PUSH1 0x1 PUSH1 0x80 SHL SWAP2 DUP3 SWAP1 DIV AND PUSH1 0x80 DUP6 ADD MSTORE PUSH1 0x6 SWAP1 SWAP5 ADD SLOAD PUSH1 0x1 PUSH1 0x1 PUSH1 0x40 SHL SUB DUP1 DUP3 AND PUSH1 0xA0 DUP7 ADD MSTORE PUSH1 0x1 PUSH1 0x40 SHL DUP3 DIV DUP2 AND PUSH1 0xC0 DUP7 ADD MSTORE SWAP5 DUP2 DIV DUP6 AND PUSH1 0xE0 DUP6 ADD MSTORE PUSH1 0x1 PUSH1 0xC0 SHL SWAP1 DIV SWAP1 SWAP4 AND PUSH2 0x100 SWAP1 SWAP3 ADD SWAP2 SWAP1 SWAP2 MSTORE SWAP1 DUP3 ADD MLOAD SWAP2 SWAP3 POP AND PUSH2 0x8C2 JUMPI PUSH1 0x40 MLOAD PUSH3 0x461BCD PUSH1 0xE5 SHL DUP2 MSTORE PUSH1 0x4 ADD PUSH2 0x606 SWAP1 PUSH2 0x3522 JUMP JUMPDEST DUP1 PUSH2 0x120 ADD MLOAD PUSH1 0x1 PUSH1 0x1 PUSH1 0x40 SHL SUB AND TIMESTAMP LT PUSH2 0x8EF JUMPI PUSH1 0x40 MLOAD PUSH3 0x461BCD PUSH1 0xE5 SHL DUP2 MSTORE PUSH1 0x4 ADD PUSH2 0x606 SWAP1 PUSH2 0x3559 JUMP JUMPDEST PUSH1 0x0 DUP2 PUSH1 0x60 ADD MLOAD PUSH1 0x4 DUP2 GT ISZERO PUSH2 0x907 JUMPI PUSH2 0x907 PUSH2 0x31B6 JUMP JUMPDEST EQ PUSH2 0x924 JUMPI PUSH1 0x40 MLOAD PUSH3 0x461BCD PUSH1 0xE5 SHL DUP2 MSTORE PUSH1 0x4 ADD PUSH2 0x606 SWAP1 PUSH2 0x3559 JUMP JUMPDEST DUP1 PUSH2 0x140 ADD MLOAD PUSH1 0x1 PUSH1 0x1 PUSH1 0x40 SHL SUB AND DUP2 PUSH2 0x160 ADD MLOAD PUSH1 0x1 PUSH1 0x1 PUSH1 0x40 SHL SUB AND LT PUSH2 0x982 JUMPI PUSH1 0x40 MLOAD PUSH3 0x461BCD PUSH1 0xE5 SHL DUP2 MSTORE PUSH1 0x20 PUSH1 0x4 DUP3 ADD MSTORE PUSH1 0x10 PUSH1 0x24 DUP3 ADD MSTORE PUSH16 0x151A58DAD95D1CC81CDBDB19081BDD5D PUSH1 0x82 SHL PUSH1 0x44 DUP3 ADD MSTORE PUSH1 0x64 ADD PUSH2 0x606 JUMP JUMPDEST DUP1 PUSH2 0x160 ADD MLOAD DUP2 PUSH2 0x140 ADD MLOAD PUSH2 0x998 SWAP2 SWAP1 PUSH2 0x35A6 JUMP JUMPDEST PUSH1 0x1 PUSH1 0x1 PUSH1 0x40 SHL SUB AND DUP5 PUSH1 0x1 PUSH1 0x1 PUSH1 0x40 SHL SUB AND GT ISZERO PUSH2 0xA10 JUMPI PUSH1 0x40 MLOAD PUSH3 0x461BCD PUSH1 0xE5 SHL DUP2 MSTORE PUSH1 0x20 PUSH1 0x4 DUP3 ADD MSTORE PUSH1 0x2E PUSH1 0x24 DUP3 ADD MSTORE PUSH32 0x546865726520617265206E6F7420736F206D616E79207469636B657473206176 PUSH1 0x44 DUP3 ADD MSTORE PUSH14 0x61696C61626C6520746F20627579 PUSH1 0x90 SHL PUSH1 0x64 DUP3 ADD MSTORE PUSH1 0x84 ADD PUSH2 0x606 JUMP JUMPDEST PUSH1 0xC0 DUP2 ADD MLOAD ISZERO PUSH2 0xAD9 JUMPI PUSH1 0x40 MLOAD PUSH12 0xFFFFFFFFFFFFFFFFFFFFFFFF NOT CALLER PUSH1 0x60 SHL AND PUSH1 0x20 DUP3 ADD MSTORE PUSH1 0x0 SWAP1 PUSH1 0x34 ADD PUSH1 0x40 MLOAD PUSH1 0x20 DUP2 DUP4 SUB SUB DUP2 MSTORE SWAP1 PUSH1 0x40 MSTORE DUP1 MLOAD SWAP1 PUSH1 0x20 ADD KECCAK256 SWAP1 POP PUSH2 0xA94 DUP5 DUP5 DUP1 DUP1 PUSH1 0x20 MUL PUSH1 0x20 ADD PUSH1 0x40 MLOAD SWAP1 DUP2 ADD PUSH1 0x40 MSTORE DUP1 SWAP4 SWAP3 SWAP2 SWAP1 DUP2 DUP2 MSTORE PUSH1 0x20 ADD DUP4 DUP4 PUSH1 0x20 MUL DUP1 DUP3 DUP5 CALLDATACOPY PUSH1 0x0 SWAP3 ADD SWAP2 SWAP1 SWAP2 MSTORE POP POP POP POP PUSH1 0xC0 DUP5 ADD MLOAD DUP4 PUSH2 0x2687 JUMP JUMPDEST PUSH2 0xAD7 JUMPI PUSH1 0x40 MLOAD PUSH3 0x461BCD PUSH1 0xE5 SHL DUP2 MSTORE PUSH1 0x20 PUSH1 0x4 DUP3 ADD MSTORE PUSH1 0x14 PUSH1 0x24 DUP3 ADD MSTORE PUSH20 0x155CD95C881B9BDD081DDA1A5D195B1A5CDD1959 PUSH1 0x62 SHL PUSH1 0x44 DUP3 ADD MSTORE PUSH1 0x64 ADD PUSH2 0x606 JUMP JUMPDEST POP JUMPDEST PUSH2 0xB17 CALLER ADDRESS DUP4 PUSH2 0x100 ADD MLOAD DUP8 PUSH1 0x1 PUSH1 0x1 PUSH1 0x40 SHL SUB AND PUSH2 0xAF8 SWAP2 SWAP1 PUSH2 0x35CE JUMP JUMPDEST PUSH1 0xA0 DUP6 ADD MLOAD PUSH1 0x1 PUSH1 0x1 PUSH1 0xA0 SHL SUB AND SWAP3 SWAP2 SWAP1 PUSH1 0x1 PUSH1 0x1 PUSH1 0x80 SHL SUB AND PUSH2 0x269F JUMP JUMPDEST PUSH1 0x0 DUP2 PUSH2 0x160 ADD MLOAD PUSH1 0x1 PUSH1 0x1 PUSH1 0x40 SHL SUB AND SWAP1 POP PUSH1 0x0 PUSH1 0x1 DUP7 PUSH1 0x1 PUSH1 0x1 PUSH1 0x40 SHL SUB AND DUP4 PUSH2 0xB43 SWAP2 SWAP1 PUSH2 0x35FD JUMP JUMPDEST PUSH2 0xB4D SWAP2 SWAP1 PUSH2 0x3615 JUMP JUMPDEST PUSH1 0xD1 SLOAD PUSH1 0x40 MLOAD PUSH4 0xA82E3F9 PUSH1 0xE0 SHL DUP2 MSTORE CALLER PUSH1 0x4 DUP3 ADD MSTORE PUSH1 0x24 DUP2 ADD DUP11 SWAP1 MSTORE PUSH1 0x44 DUP2 ADD DUP6 SWAP1 MSTORE PUSH1 0x64 DUP2 ADD DUP4 SWAP1 MSTORE SWAP2 SWAP3 POP PUSH1 0x1 PUSH1 0x1 PUSH1 0xA0 SHL SUB AND SWAP1 PUSH4 0xA82E3F9 SWAP1 PUSH1 0x84 ADD PUSH1 0x0 PUSH1 0x40 MLOAD DUP1 DUP4 SUB DUP2 PUSH1 0x0 DUP8 DUP1 EXTCODESIZE ISZERO DUP1 ISZERO PUSH2 0xBA8 JUMPI PUSH1 0x0 DUP1 REVERT JUMPDEST POP GAS CALL ISZERO DUP1 ISZERO PUSH2 0xBBC JUMPI RETURNDATASIZE PUSH1 0x0 DUP1 RETURNDATACOPY RETURNDATASIZE PUSH1 0x0 REVERT JUMPDEST POP POP POP PUSH1 0x0 DUP9 DUP2 MSTORE PUSH1 0xCF PUSH1 0x20 MSTORE PUSH1 0x40 SWAP1 KECCAK256 PUSH1 0x6 ADD DUP1 SLOAD DUP9 SWAP3 POP PUSH1 0x10 SWAP1 PUSH2 0xBF3 SWAP1 DUP5 SWAP1 PUSH1 0x1 PUSH1 0x80 SHL SWAP1 DIV PUSH1 0x1 PUSH1 0x1 PUSH1 0x40 SHL SUB AND PUSH2 0x362C JUMP JUMPDEST DUP3 SLOAD PUSH2 0x100 SWAP3 SWAP1 SWAP3 EXP PUSH1 0x1 PUSH1 0x1 PUSH1 0x40 SHL SUB DUP2 DUP2 MUL NOT SWAP1 SWAP4 AND SWAP2 DUP4 AND MUL OR SWAP1 SWAP2 SSTORE PUSH1 0x40 DUP1 MLOAD DUP11 DUP2 MSTORE CALLER PUSH1 0x20 DUP3 ADD MSTORE SWAP2 DUP10 AND SWAP1 DUP3 ADD MSTORE PUSH1 0x60 DUP2 ADD DUP5 SWAP1 MSTORE PUSH1 0x80 DUP2 ADD DUP4 SWAP1 MSTORE PUSH32 0x718102F3E28B91E1D6BA4863A841BB1F80811BAF107B5E2B3DA734E3E03D0444 SWAP2 POP PUSH1 0xA0 ADD PUSH1 0x40 MLOAD DUP1 SWAP2 SUB SWAP1 LOG1 POP POP POP POP POP POP POP JUMP JUMPDEST PUSH1 0x2 PUSH1 0x97 SLOAD SUB PUSH2 0xC8E JUMPI PUSH1 0x40 MLOAD PUSH3 0x461BCD PUSH1 0xE5 SHL DUP2 MSTORE PUSH1 0x4 ADD PUSH2 0x606 SWAP1 PUSH2 0x3657 JUMP JUMPDEST PUSH1 0x2 PUSH1 0x97 SSTORE PUSH2 0xC9B PUSH2 0x2641 JUMP JUMPDEST PUSH1 0x0 DUP4 DUP2 MSTORE PUSH1 0xCF PUSH1 0x20 SWAP1 DUP2 MSTORE PUSH1 0x40 DUP1 DUP4 KECCAK256 DUP2 MLOAD PUSH2 0x1A0 DUP2 ADD DUP4 MSTORE DUP2 SLOAD PUSH1 0x1 PUSH1 0x1 PUSH1 0xA0 SHL SUB SWAP1 DUP2 AND DUP3 MSTORE PUSH1 0x1 DUP4 ADD SLOAD DUP2 AND SWAP5 DUP3 ADD SWAP5 SWAP1 SWAP5 MSTORE PUSH1 0x2 DUP3 ADD SLOAD SWAP4 DUP5 AND SWAP3 DUP2 ADD SWAP3 SWAP1 SWAP3 MSTORE SWAP1 SWAP2 PUSH1 0x60 DUP4 ADD SWAP1 PUSH1 0x1 PUSH1 0xA0 SHL SWAP1 DIV PUSH1 0xFF AND PUSH1 0x4 DUP2 GT ISZERO PUSH2 0xD03 JUMPI PUSH2 0xD03 PUSH2 0x31B6 JUMP JUMPDEST PUSH1 0x4 DUP2 GT ISZERO PUSH2 0xD14 JUMPI PUSH2 0xD14 PUSH2 0x31B6 JUMP JUMPDEST DUP2 MSTORE PUSH1 0x20 ADD PUSH1 0x2 DUP3 ADD PUSH1 0x15 SWAP1 SLOAD SWAP1 PUSH2 0x100 EXP SWAP1 DIV PUSH1 0xFF AND PUSH1 0x1 DUP2 GT ISZERO PUSH2 0xD3C JUMPI PUSH2 0xD3C PUSH2 0x31B6 JUMP JUMPDEST PUSH1 0x1 DUP2 GT ISZERO PUSH2 0xD4D JUMPI PUSH2 0xD4D PUSH2 0x31B6 JUMP JUMPDEST DUP2 MSTORE PUSH1 0x3 DUP3 DUP2 ADD SLOAD PUSH1 0x1 PUSH1 0x1 PUSH1 0xA0 SHL SUB AND PUSH1 0x20 DUP4 ADD MSTORE PUSH1 0x4 DUP4 ADD SLOAD PUSH1 0x40 DUP4 ADD MSTORE PUSH1 0x5 DUP4 ADD SLOAD PUSH1 0x1 PUSH1 0x1 PUSH1 0x80 SHL SUB DUP1 DUP3 AND PUSH1 0x60 DUP6 ADD MSTORE PUSH1 0x1 PUSH1 0x80 SHL SWAP2 DUP3 SWAP1 DIV AND PUSH1 0x80 DUP5 ADD MSTORE PUSH1 0x6 SWAP1 SWAP4 ADD SLOAD PUSH1 0x1 PUSH1 0x1 PUSH1 0x40 SHL SUB DUP1 DUP3 AND PUSH1 0xA0 DUP6 ADD MSTORE PUSH1 0x1 PUSH1 0x40 SHL DUP3 DIV DUP2 AND PUSH1 0xC0 DUP6 ADD MSTORE SWAP4 DUP2 DIV DUP5 AND PUSH1 0xE0 DUP5 ADD MSTORE PUSH1 0x1 PUSH1 0xC0 SHL SWAP1 DIV SWAP1 SWAP3 AND PUSH2 0x100 SWAP1 SWAP2 ADD MSTORE SWAP1 SWAP2 POP DUP2 PUSH1 0x60 ADD MLOAD PUSH1 0x4 DUP2 GT ISZERO PUSH2 0xDE9 JUMPI PUSH2 0xDE9 PUSH2 0x31B6 JUMP JUMPDEST EQ PUSH2 0xE36 JUMPI PUSH1 0x40 MLOAD PUSH3 0x461BCD PUSH1 0xE5 SHL DUP2 MSTORE PUSH1 0x20 PUSH1 0x4 DUP3 ADD MSTORE PUSH1 0x1F PUSH1 0x24 DUP3 ADD MSTORE PUSH32 0x526166666C65206973206E6F7420696E20524546554E44454420737461746500 PUSH1 0x44 DUP3 ADD MSTORE PUSH1 0x64 ADD PUSH2 0x606 JUMP JUMPDEST DUP2 PUSH1 0x0 JUMPDEST DUP2 DUP2 LT ISZERO PUSH2 0xFF2 JUMPI PUSH1 0xD1 SLOAD CALLER SWAP1 PUSH1 0x1 PUSH1 0x1 PUSH1 0xA0 SHL SUB AND PUSH4 0x5F773D7F DUP9 DUP9 DUP9 DUP7 DUP2 DUP2 LT PUSH2 0xE68 JUMPI PUSH2 0xE68 PUSH2 0x368E JUMP JUMPDEST SWAP1 POP PUSH1 0x20 MUL ADD CALLDATALOAD PUSH1 0x40 MLOAD DUP4 PUSH4 0xFFFFFFFF AND PUSH1 0xE0 SHL DUP2 MSTORE PUSH1 0x4 ADD PUSH2 0xE95 SWAP3 SWAP2 SWAP1 SWAP2 DUP3 MSTORE PUSH1 0x20 DUP3 ADD MSTORE PUSH1 0x40 ADD SWAP1 JUMP JUMPDEST PUSH1 0x20 PUSH1 0x40 MLOAD DUP1 DUP4 SUB DUP2 DUP7 GAS STATICCALL ISZERO DUP1 ISZERO PUSH2 0xEB2 JUMPI RETURNDATASIZE PUSH1 0x0 DUP1 RETURNDATACOPY RETURNDATASIZE PUSH1 0x0 REVERT JUMPDEST POP POP POP POP PUSH1 0x40 MLOAD RETURNDATASIZE PUSH1 0x1F NOT PUSH1 0x1F DUP3 ADD AND DUP3 ADD DUP1 PUSH1 0x40 MSTORE POP DUP2 ADD SWAP1 PUSH2 0xED6 SWAP2 SWAP1 PUSH2 0x36A4 JUMP JUMPDEST PUSH1 0x1 PUSH1 0x1 PUSH1 0xA0 SHL SUB AND EQ PUSH2 0xF2C JUMPI PUSH1 0x40 MLOAD PUSH3 0x461BCD PUSH1 0xE5 SHL DUP2 MSTORE PUSH1 0x20 PUSH1 0x4 DUP3 ADD MSTORE PUSH1 0x1D PUSH1 0x24 DUP3 ADD MSTORE PUSH32 0x596F7520646F206E6F74206F776E2074686973207469636B6574204964000000 PUSH1 0x44 DUP3 ADD MSTORE PUSH1 0x64 ADD PUSH2 0x606 JUMP JUMPDEST PUSH1 0xD1 SLOAD PUSH1 0x1 PUSH1 0x1 PUSH1 0xA0 SHL SUB AND PUSH4 0xA82E3F9 PUSH1 0x0 DUP9 DUP9 DUP9 DUP7 DUP2 DUP2 LT PUSH2 0xF52 JUMPI PUSH2 0xF52 PUSH2 0x368E JUMP JUMPDEST SWAP1 POP PUSH1 0x20 MUL ADD CALLDATALOAD DUP10 DUP10 DUP8 DUP2 DUP2 LT PUSH2 0xF6B JUMPI PUSH2 0xF6B PUSH2 0x368E JUMP JUMPDEST PUSH1 0x40 MLOAD PUSH1 0x1 PUSH1 0x1 PUSH1 0xE0 SHL SUB NOT PUSH1 0xE0 DUP10 SWAP1 SHL AND DUP2 MSTORE PUSH1 0x1 PUSH1 0x1 PUSH1 0xA0 SHL SUB SWAP1 SWAP7 AND PUSH1 0x4 DUP8 ADD MSTORE PUSH1 0x24 DUP7 ADD SWAP5 SWAP1 SWAP5 MSTORE POP PUSH1 0x44 DUP5 ADD SWAP2 SWAP1 SWAP2 MSTORE PUSH1 0x20 SWAP1 SWAP2 MUL ADD CALLDATALOAD PUSH1 0x64 DUP3 ADD MSTORE PUSH1 0x84 ADD PUSH1 0x0 PUSH1 0x40 MLOAD DUP1 DUP4 SUB DUP2 PUSH1 0x0 DUP8 DUP1 EXTCODESIZE ISZERO DUP1 ISZERO PUSH2 0xFC9 JUMPI PUSH1 0x0 DUP1 REVERT JUMPDEST POP GAS CALL ISZERO DUP1 ISZERO PUSH2 0xFDD JUMPI RETURNDATASIZE PUSH1 0x0 DUP1 RETURNDATACOPY RETURNDATASIZE PUSH1 0x0 REVERT JUMPDEST POP POP POP POP DUP1 PUSH2 0xFEB SWAP1 PUSH2 0x36C1 JUMP JUMPDEST SWAP1 POP PUSH2 0xE3A JUMP JUMPDEST POP PUSH1 0x0 DUP3 PUSH2 0x100 ADD MLOAD PUSH1 0x1 PUSH1 0x1 PUSH1 0x80 SHL SUB AND DUP3 PUSH2 0x100F SWAP2 SWAP1 PUSH2 0x36DA JUMP JUMPDEST PUSH1 0xA0 DUP5 ADD MLOAD SWAP1 SWAP2 POP PUSH2 0x102B SWAP1 PUSH1 0x1 PUSH1 0x1 PUSH1 0xA0 SHL SUB AND CALLER DUP4 PUSH2 0x2710 JUMP JUMPDEST POP POP PUSH1 0x1 PUSH1 0x97 SSTORE POP POP POP POP JUMP JUMPDEST PUSH2 0x1040 PUSH2 0x2745 JUMP JUMPDEST PUSH1 0xD1 DUP1 SLOAD PUSH1 0x1 PUSH1 0x1 PUSH1 0xA0 SHL SUB NOT AND PUSH1 0x1 PUSH1 0x1 PUSH1 0xA0 SHL SUB DUP4 AND SWAP1 DUP2 OR SWAP1 SWAP2 SSTORE PUSH1 0x40 MLOAD SWAP1 DUP2 MSTORE PUSH32 0x93FCCC87F16AC33885C2BD084012C57D83B6219781A14ADED2B94FE9190C4716 SWAP1 PUSH1 0x20 ADD JUMPDEST PUSH1 0x40 MLOAD DUP1 SWAP2 SUB SWAP1 LOG1 POP JUMP JUMPDEST PUSH2 0x109D PUSH2 0x2641 JUMP JUMPDEST PUSH1 0x0 DUP2 DUP2 MSTORE PUSH1 0xCF PUSH1 0x20 SWAP1 DUP2 MSTORE PUSH1 0x40 DUP1 DUP4 KECCAK256 DUP2 MLOAD PUSH2 0x1A0 DUP2 ADD DUP4 MSTORE DUP2 SLOAD PUSH1 0x1 PUSH1 0x1 PUSH1 0xA0 SHL SUB SWAP1 DUP2 AND DUP3 MSTORE PUSH1 0x1 DUP4 ADD SLOAD DUP2 AND SWAP5 DUP3 ADD SWAP5 SWAP1 SWAP5 MSTORE PUSH1 0x2 DUP3 ADD SLOAD SWAP4 DUP5 AND SWAP3 DUP2 ADD SWAP3 SWAP1 SWAP3 MSTORE SWAP1 SWAP2 PUSH1 0x60 DUP4 ADD SWAP1 PUSH1 0x1 PUSH1 0xA0 SHL SWAP1 DIV PUSH1 0xFF AND PUSH1 0x4 DUP2 GT ISZERO PUSH2 0x1105 JUMPI PUSH2 0x1105 PUSH2 0x31B6 JUMP JUMPDEST PUSH1 0x4 DUP2 GT ISZERO PUSH2 0x1116 JUMPI PUSH2 0x1116 PUSH2 0x31B6 JUMP JUMPDEST DUP2 MSTORE PUSH1 0x20 ADD PUSH1 0x2 DUP3 ADD PUSH1 0x15 SWAP1 SLOAD SWAP1 PUSH2 0x100 EXP SWAP1 DIV PUSH1 0xFF AND PUSH1 0x1 DUP2 GT ISZERO PUSH2 0x113E JUMPI PUSH2 0x113E PUSH2 0x31B6 JUMP JUMPDEST PUSH1 0x1 DUP2 GT ISZERO PUSH2 0x114F JUMPI PUSH2 0x114F PUSH2 0x31B6 JUMP JUMPDEST DUP2 MSTORE PUSH1 0x3 DUP3 ADD SLOAD PUSH1 0x1 PUSH1 0x1 PUSH1 0xA0 SHL SUB SWAP1 DUP2 AND PUSH1 0x20 DUP1 DUP5 ADD SWAP2 SWAP1 SWAP2 MSTORE PUSH1 0x4 DUP5 ADD SLOAD PUSH1 0x40 DUP5 ADD MSTORE PUSH1 0x5 DUP5 ADD SLOAD PUSH1 0x1 PUSH1 0x1 PUSH1 0x80 SHL SUB DUP1 DUP3 AND PUSH1 0x60 DUP7 ADD MSTORE PUSH1 0x1 PUSH1 0x80 SHL SWAP2 DUP3 SWAP1 DIV AND PUSH1 0x80 DUP6 ADD MSTORE PUSH1 0x6 SWAP1 SWAP5 ADD SLOAD PUSH1 0x1 PUSH1 0x1 PUSH1 0x40 SHL SUB DUP1 DUP3 AND PUSH1 0xA0 DUP7 ADD MSTORE PUSH1 0x1 PUSH1 0x40 SHL DUP3 DIV DUP2 AND PUSH1 0xC0 DUP7 ADD MSTORE SWAP5 DUP2 DIV DUP6 AND PUSH1 0xE0 DUP6 ADD MSTORE PUSH1 0x1 PUSH1 0xC0 SHL SWAP1 DIV SWAP1 SWAP4 AND PUSH2 0x100 SWAP1 SWAP3 ADD SWAP2 SWAP1 SWAP2 MSTORE SWAP1 DUP3 ADD MLOAD SWAP2 SWAP3 POP AND PUSH2 0x11FE JUMPI PUSH1 0x40 MLOAD PUSH3 0x461BCD PUSH1 0xE5 SHL DUP2 MSTORE PUSH1 0x4 ADD PUSH2 0x606 SWAP1 PUSH2 0x3522 JUMP JUMPDEST PUSH1 0x0 DUP2 PUSH1 0x60 ADD MLOAD PUSH1 0x4 DUP2 GT ISZERO PUSH2 0x1216 JUMPI PUSH2 0x1216 PUSH2 0x31B6 JUMP JUMPDEST EQ PUSH2 0x1233 JUMPI PUSH1 0x40 MLOAD PUSH3 0x461BCD PUSH1 0xE5 SHL DUP2 MSTORE PUSH1 0x4 ADD PUSH2 0x606 SWAP1 PUSH2 0x36F9 JUMP JUMPDEST DUP1 PUSH2 0x140 ADD MLOAD PUSH1 0x1 PUSH1 0x1 PUSH1 0x40 SHL SUB AND DUP2 PUSH2 0x160 ADD MLOAD PUSH1 0x1 PUSH1 0x1 PUSH1 0x40 SHL SUB AND EQ PUSH2 0x12B4 JUMPI DUP1 PUSH2 0x120 ADD MLOAD PUSH1 0x1 PUSH1 0x1 PUSH1 0x40 SHL SUB AND TIMESTAMP LT ISZERO PUSH2 0x12B4 JUMPI PUSH1 0x40 MLOAD PUSH3 0x461BCD PUSH1 0xE5 SHL DUP2 MSTORE PUSH1 0x20 PUSH1 0x4 DUP3 ADD MSTORE PUSH1 0x17 PUSH1 0x24 DUP3 ADD MSTORE PUSH32 0x526166666C65206973206E6F7420636F6D706C65746564000000000000000000 PUSH1 0x44 DUP3 ADD MSTORE PUSH1 0x64 ADD PUSH2 0x606 JUMP JUMPDEST DUP1 PUSH2 0x180 ADD MLOAD PUSH1 0x1 PUSH1 0x1 PUSH1 0x40 SHL SUB AND DUP2 PUSH2 0x160 ADD MLOAD PUSH1 0x1 PUSH1 0x1 PUSH1 0x40 SHL SUB AND LT ISZERO PUSH2 0x140E JUMPI PUSH1 0x0 DUP2 PUSH1 0x80 ADD MLOAD PUSH1 0x1 DUP2 GT ISZERO PUSH2 0x12F0 JUMPI PUSH2 0x12F0 PUSH2 0x31B6 JUMP JUMPDEST SUB PUSH2 0x1331 JUMPI PUSH1 0x0 DUP1 MLOAD PUSH1 0x20 PUSH2 0x3942 DUP4 CODECOPY DUP2 MLOAD SWAP2 MSTORE DUP2 PUSH1 0x20 ADD MLOAD DUP3 PUSH1 0x0 ADD MLOAD PUSH1 0x1 DUP5 PUSH1 0xE0 ADD MLOAD PUSH1 0x0 PUSH1 0x40 MLOAD PUSH2 0x1328 SWAP6 SWAP5 SWAP4 SWAP3 SWAP2 SWAP1 PUSH2 0x373A JUMP JUMPDEST PUSH1 0x40 MLOAD DUP1 SWAP2 SUB SWAP1 LOG1 JUMPDEST PUSH1 0x1 DUP2 PUSH1 0x80 ADD MLOAD PUSH1 0x1 DUP2 GT ISZERO PUSH2 0x1349 JUMPI PUSH2 0x1349 PUSH2 0x31B6 JUMP JUMPDEST SUB PUSH2 0x13BF JUMPI PUSH1 0x0 DUP1 MLOAD PUSH1 0x20 PUSH2 0x3942 DUP4 CODECOPY DUP2 MLOAD SWAP2 MSTORE DUP2 PUSH1 0x20 ADD MLOAD DUP3 PUSH1 0x0 ADD MLOAD PUSH1 0x1 PUSH1 0xD0 PUSH1 0x0 DUP8 DUP2 MSTORE PUSH1 0x20 ADD SWAP1 DUP2 MSTORE PUSH1 0x20 ADD PUSH1 0x0 KECCAK256 SLOAD DUP6 PUSH1 0xE0 ADD MLOAD PUSH1 0x1 PUSH1 0x1 PUSH1 0x80 SHL SUB AND PUSH2 0x1395 SWAP2 SWAP1 PUSH2 0x3615 JUMP JUMPDEST PUSH1 0x0 DUP8 DUP2 MSTORE PUSH1 0xD0 PUSH1 0x20 MSTORE PUSH1 0x40 SWAP1 DUP2 SWAP1 KECCAK256 SLOAD SWAP1 MLOAD PUSH2 0x13B6 SWAP6 SWAP5 SWAP4 SWAP3 SWAP2 SWAP1 PUSH2 0x3774 JUMP JUMPDEST PUSH1 0x40 MLOAD DUP1 SWAP2 SUB SWAP1 LOG1 JUMPDEST PUSH1 0x0 DUP3 DUP2 MSTORE PUSH1 0xCF PUSH1 0x20 MSTORE PUSH1 0x40 DUP1 DUP3 KECCAK256 PUSH1 0x2 ADD DUP1 SLOAD PUSH1 0xFF PUSH1 0xA0 SHL NOT AND PUSH1 0x3 PUSH1 0xA0 SHL OR SWAP1 SSTORE MLOAD PUSH1 0x0 DUP1 MLOAD PUSH1 0x20 PUSH2 0x3962 DUP4 CODECOPY DUP2 MLOAD SWAP2 MSTORE SWAP2 PUSH2 0x1402 SWAP2 DUP6 SWAP2 SWAP1 PUSH1 0x3 SWAP1 PUSH2 0x37A5 JUMP JUMPDEST PUSH1 0x40 MLOAD DUP1 SWAP2 SUB SWAP1 LOG1 POP POP JUMP JUMPDEST PUSH1 0x0 PUSH2 0x1419 DUP4 PUSH2 0x279F JUMP JUMPDEST SWAP1 POP PUSH32 0x830DAF1B0E427C4692464A26BDCB77252BC16B9BAB2254964095367EDF6430F DUP2 PUSH1 0x40 MLOAD PUSH2 0x144C SWAP2 DUP2 MSTORE PUSH1 0x20 ADD SWAP1 JUMP JUMPDEST PUSH1 0x40 MLOAD DUP1 SWAP2 SUB SWAP1 LOG1 PUSH1 0x0 SWAP1 DUP2 MSTORE PUSH1 0xD2 PUSH1 0x20 MSTORE PUSH1 0x40 SWAP1 KECCAK256 DUP3 SWAP1 SSTORE POP POP JUMP JUMPDEST PUSH2 0x1471 PUSH2 0x2745 JUMP JUMPDEST DUP4 DUP3 DUP2 EQ PUSH2 0x14C1 JUMPI PUSH1 0x40 MLOAD PUSH3 0x461BCD PUSH1 0xE5 SHL DUP2 MSTORE PUSH1 0x20 PUSH1 0x4 DUP3 ADD MSTORE PUSH1 0x1A PUSH1 0x24 DUP3 ADD MSTORE PUSH32 0x4172726179206C656E6774687320646F206E6F74206D61746368000000000000 PUSH1 0x44 DUP3 ADD MSTORE PUSH1 0x64 ADD PUSH2 0x606 JUMP JUMPDEST PUSH1 0x0 DUP1 PUSH1 0x0 JUMPDEST DUP4 DUP2 LT ISZERO PUSH2 0x15DA JUMPI DUP9 DUP9 DUP3 DUP2 DUP2 LT PUSH2 0x14E1 JUMPI PUSH2 0x14E1 PUSH2 0x368E JUMP JUMPDEST SWAP1 POP PUSH1 0x20 MUL ADD PUSH1 0x20 DUP2 ADD SWAP1 PUSH2 0x14F6 SWAP2 SWAP1 PUSH2 0x310B JUMP JUMPDEST SWAP2 POP DUP7 DUP7 DUP3 DUP2 DUP2 LT PUSH2 0x150A JUMPI PUSH2 0x150A PUSH2 0x368E JUMP JUMPDEST SWAP1 POP PUSH1 0x20 MUL ADD CALLDATALOAD SWAP3 POP PUSH1 0xD8 PUSH1 0x0 DUP4 PUSH1 0x1 PUSH1 0x1 PUSH1 0xA0 SHL SUB AND PUSH1 0x1 PUSH1 0x1 PUSH1 0xA0 SHL SUB AND DUP2 MSTORE PUSH1 0x20 ADD SWAP1 DUP2 MSTORE PUSH1 0x20 ADD PUSH1 0x0 KECCAK256 SLOAD DUP4 GT ISZERO PUSH2 0x157A JUMPI PUSH1 0x40 MLOAD PUSH3 0x461BCD PUSH1 0xE5 SHL DUP2 MSTORE PUSH1 0x20 PUSH1 0x4 DUP3 ADD MSTORE PUSH1 0xF PUSH1 0x24 DUP3 ADD MSTORE PUSH15 0x82DADEEADCE840E8DEDE40D0D2CED PUSH1 0x8B SHL PUSH1 0x44 DUP3 ADD MSTORE PUSH1 0x64 ADD PUSH2 0x606 JUMP JUMPDEST PUSH1 0x1 PUSH1 0x1 PUSH1 0xA0 SHL SUB DUP3 AND PUSH2 0x1597 JUMPI PUSH2 0x1592 DUP6 DUP5 PUSH2 0x28AC JUMP JUMPDEST PUSH2 0x15AB JUMP JUMPDEST PUSH2 0x15AB PUSH1 0x1 PUSH1 0x1 PUSH1 0xA0 SHL SUB DUP4 AND DUP7 DUP6 PUSH2 0x2710 JUMP JUMPDEST PUSH1 0x1 PUSH1 0x1 PUSH1 0xA0 SHL SUB DUP3 AND PUSH1 0x0 SWAP1 DUP2 MSTORE PUSH1 0xD8 PUSH1 0x20 MSTORE PUSH1 0x40 SWAP1 KECCAK256 DUP1 SLOAD DUP5 SWAP1 SUB SWAP1 SSTORE PUSH2 0x15D3 DUP2 PUSH2 0x36C1 JUMP JUMPDEST SWAP1 POP PUSH2 0x14C7 JUMP JUMPDEST POP POP POP POP POP POP POP POP POP JUMP JUMPDEST PUSH1 0x2 PUSH1 0x97 SLOAD SUB PUSH2 0x1607 JUMPI PUSH1 0x40 MLOAD PUSH3 0x461BCD PUSH1 0xE5 SHL DUP2 MSTORE PUSH1 0x4 ADD PUSH2 0x606 SWAP1 PUSH2 0x3657 JUMP JUMPDEST PUSH1 0x2 PUSH1 0x97 SSTORE PUSH2 0x1614 PUSH2 0x2641 JUMP JUMPDEST PUSH1 0x0 DUP2 DUP2 MSTORE PUSH1 0xCF PUSH1 0x20 MSTORE PUSH1 0x40 SWAP1 KECCAK256 PUSH1 0x1 DUP2 ADD SLOAD PUSH1 0x1 PUSH1 0x1 PUSH1 0xA0 SHL SUB AND PUSH2 0x164C JUMPI PUSH1 0x40 MLOAD PUSH3 0x461BCD PUSH1 0xE5 SHL DUP2 MSTORE PUSH1 0x4 ADD PUSH2 0x606 SWAP1 PUSH2 0x3522 JUMP JUMPDEST PUSH1 0x2 DUP1 DUP3 ADD SLOAD PUSH1 0x1 PUSH1 0xA0 SHL SWAP1 DIV PUSH1 0xFF AND PUSH1 0x4 DUP2 GT ISZERO PUSH2 0x166D JUMPI PUSH2 0x166D PUSH2 0x31B6 JUMP JUMPDEST EQ PUSH2 0x168A JUMPI PUSH1 0x40 MLOAD PUSH3 0x461BCD PUSH1 0xE5 SHL DUP2 MSTORE PUSH1 0x4 ADD PUSH2 0x606 SWAP1 PUSH2 0x36F9 JUMP JUMPDEST PUSH1 0x2 DUP2 DUP2 ADD DUP1 SLOAD PUSH1 0xFF PUSH1 0xA0 SHL NOT AND PUSH1 0x1 PUSH1 0xA2 SHL OR SWAP1 SSTORE PUSH1 0x40 MLOAD PUSH1 0x0 DUP1 MLOAD PUSH1 0x20 PUSH2 0x3962 DUP4 CODECOPY DUP2 MLOAD SWAP2 MSTORE SWAP2 PUSH2 0x16C2 SWAP2 DUP6 SWAP2 SWAP1 PUSH1 0x4 SWAP1 PUSH2 0x37A5 JUMP JUMPDEST PUSH1 0x40 MLOAD DUP1 SWAP2 SUB SWAP1 LOG1 PUSH1 0x1 DUP2 ADD SLOAD PUSH1 0x2 DUP3 ADD SLOAD PUSH1 0x1 PUSH1 0x1 PUSH1 0xA0 SHL SUB SWAP2 DUP3 AND SWAP2 AND PUSH1 0x0 PUSH1 0x2 DUP5 ADD SLOAD PUSH1 0x1 PUSH1 0xA8 SHL SWAP1 DIV PUSH1 0xFF AND PUSH1 0x1 DUP2 GT ISZERO PUSH2 0x1703 JUMPI PUSH2 0x1703 PUSH2 0x31B6 JUMP JUMPDEST SUB PUSH2 0x179D JUMPI DUP3 SLOAD PUSH1 0x5 DUP5 ADD SLOAD PUSH1 0x40 MLOAD PUSH1 0x0 DUP1 MLOAD PUSH1 0x20 PUSH2 0x3942 DUP4 CODECOPY DUP2 MLOAD SWAP2 MSTORE SWAP3 PUSH2 0x1749 SWAP3 DUP6 SWAP3 PUSH1 0x1 PUSH1 0x1 PUSH1 0xA0 SHL SUB SWAP1 SWAP3 AND SWAP2 PUSH1 0x1 SWAP2 PUSH1 0x1 PUSH1 0x1 PUSH1 0x80 SHL SUB AND SWAP1 PUSH1 0x0 SWAP1 PUSH2 0x373A JUMP JUMPDEST PUSH1 0x40 MLOAD DUP1 SWAP2 SUB SWAP1 LOG1 PUSH1 0x1 DUP4 ADD SLOAD PUSH1 0x0 DUP6 DUP2 MSTORE PUSH1 0xD0 PUSH1 0x20 MSTORE PUSH1 0x40 DUP1 DUP3 KECCAK256 SLOAD SWAP1 MLOAD PUSH1 0x0 DUP1 MLOAD PUSH1 0x20 PUSH2 0x3942 DUP4 CODECOPY DUP2 MLOAD SWAP2 MSTORE SWAP4 PUSH2 0x1794 SWAP4 PUSH1 0x1 PUSH1 0x1 PUSH1 0xA0 SHL SUB SWAP1 SWAP2 AND SWAP3 SWAP1 SWAP2 DUP3 SWAP2 SWAP1 DUP3 SWAP1 PUSH2 0x3774 JUMP JUMPDEST PUSH1 0x40 MLOAD DUP1 SWAP2 SUB SWAP1 LOG1 JUMPDEST PUSH1 0x1 PUSH1 0x2 DUP5 ADD SLOAD PUSH1 0x1 PUSH1 0xA8 SHL SWAP1 DIV PUSH1 0xFF AND PUSH1 0x1 DUP2 GT ISZERO PUSH2 0x17BF JUMPI PUSH2 0x17BF PUSH2 0x31B6 JUMP JUMPDEST SUB PUSH2 0x180D JUMPI DUP3 SLOAD PUSH1 0x5 DUP5 ADD SLOAD PUSH1 0x40 MLOAD PUSH1 0x0 DUP1 MLOAD PUSH1 0x20 PUSH2 0x3942 DUP4 CODECOPY DUP2 MLOAD SWAP2 MSTORE SWAP3 PUSH2 0x1804 SWAP3 DUP6 SWAP3 PUSH1 0x1 PUSH1 0x1 PUSH1 0xA0 SHL SUB SWAP1 SWAP3 AND SWAP2 PUSH1 0x0 SWAP2 PUSH1 0x1 PUSH1 0x1 PUSH1 0x80 SHL SUB AND SWAP1 DUP3 SWAP1 PUSH2 0x373A JUMP JUMPDEST PUSH1 0x40 MLOAD DUP1 SWAP2 SUB SWAP1 LOG1 JUMPDEST PUSH1 0x5 DUP4 ADD SLOAD PUSH1 0x6 DUP5 ADD SLOAD PUSH1 0x0 SWAP2 PUSH2 0x1841 SWAP2 PUSH1 0x1 PUSH1 0x1 PUSH1 0x80 SHL SUB PUSH1 0x1 PUSH1 0x80 SHL SWAP3 DUP4 SWAP1 DIV AND SWAP2 PUSH1 0x1 PUSH1 0x1 PUSH1 0x40 SHL SUB SWAP2 DIV AND PUSH2 0x35CE JUMP JUMPDEST PUSH1 0x1 PUSH1 0x1 PUSH1 0x80 SHL SUB AND SWAP1 POP PUSH1 0x0 PUSH1 0xD7 SLOAD PUSH1 0xD6 SLOAD DUP4 PUSH2 0x185F SWAP2 SWAP1 PUSH2 0x36DA JUMP JUMPDEST PUSH2 0x1869 SWAP2 SWAP1 PUSH2 0x37DC JUMP JUMPDEST SWAP1 POP PUSH2 0x1875 DUP2 DUP4 PUSH2 0x3615 JUMP JUMPDEST PUSH1 0x3 DUP7 ADD SLOAD PUSH1 0x1 PUSH1 0x1 PUSH1 0xA0 SHL SUB AND PUSH1 0x0 DUP2 DUP2 MSTORE PUSH1 0xD8 PUSH1 0x20 MSTORE PUSH1 0x40 DUP2 KECCAK256 DUP1 SLOAD SWAP4 SWAP6 POP SWAP2 SWAP3 DUP5 SWAP3 SWAP2 SWAP1 PUSH2 0x18A7 SWAP1 DUP5 SWAP1 PUSH2 0x35FD JUMP JUMPDEST SWAP1 SWAP2 SSTORE POP PUSH2 0x18C1 SWAP1 POP PUSH1 0x1 PUSH1 0x1 PUSH1 0xA0 SHL SUB DUP3 AND DUP7 DUP6 PUSH2 0x2710 JUMP JUMPDEST POP POP PUSH1 0x1 PUSH1 0x97 SSTORE POP POP POP POP POP JUMP JUMPDEST PUSH2 0x18D7 PUSH2 0x2745 JUMP JUMPDEST PUSH1 0x1 PUSH1 0x1 PUSH1 0xA0 SHL SUB DUP2 AND PUSH1 0x0 SWAP1 DUP2 MSTORE PUSH1 0xCE PUSH1 0x20 MSTORE PUSH1 0x40 SWAP1 KECCAK256 SLOAD PUSH1 0xFF AND ISZERO PUSH2 0x1949 JUMPI PUSH1 0x1 PUSH1 0x1 PUSH1 0xA0 SHL SUB DUP2 AND PUSH1 0x0 DUP2 DUP2 MSTORE PUSH1 0xCE PUSH1 0x20 SWAP1 DUP2 MSTORE PUSH1 0x40 SWAP2 DUP3 SWAP1 KECCAK256 DUP1 SLOAD PUSH1 0xFF NOT AND SWAP1 SSTORE SWAP1 MLOAD SWAP2 DUP3 MSTORE PUSH32 0xDC0548BC90523A9E943EA77D199875FDC1E4F8A419B6D53A595B5E6671480E5 SWAP2 ADD PUSH2 0x108A JUMP JUMPDEST PUSH1 0x1 PUSH1 0x1 PUSH1 0xA0 SHL SUB DUP2 AND PUSH1 0x0 DUP2 DUP2 MSTORE PUSH1 0xCE PUSH1 0x20 SWAP1 DUP2 MSTORE PUSH1 0x40 SWAP2 DUP3 SWAP1 KECCAK256 DUP1 SLOAD PUSH1 0xFF NOT AND PUSH1 0x1 OR SWAP1 SSTORE SWAP1 MLOAD SWAP2 DUP3 MSTORE PUSH32 0x5C6CF68A9D7E416D0EEE740661627DD794257920F1C63DDAE6C6AF81D02D12EA SWAP2 ADD PUSH2 0x108A JUMP JUMPDEST POP JUMP JUMPDEST PUSH1 0x0 PUSH1 0xD3 SLOAD DUP3 GT ISZERO PUSH2 0x19F4 JUMPI PUSH1 0x40 MLOAD PUSH3 0x461BCD PUSH1 0xE5 SHL DUP2 MSTORE PUSH1 0x20 PUSH1 0x4 DUP3 ADD MSTORE PUSH1 0x1C PUSH1 0x24 DUP3 ADD MSTORE PUSH32 0x54686520726166666C6520494420646F6573206E6F7420657869737400000000 PUSH1 0x44 DUP3 ADD MSTORE PUSH1 0x64 ADD PUSH2 0x606 JUMP JUMPDEST POP PUSH1 0x0 SWAP1 DUP2 MSTORE PUSH1 0xCF PUSH1 0x20 MSTORE PUSH1 0x40 SWAP1 KECCAK256 PUSH1 0x2 ADD SLOAD PUSH1 0x1 PUSH1 0xA0 SHL SWAP1 DIV PUSH1 0xFF AND SWAP1 JUMP JUMPDEST PUSH1 0x2 PUSH1 0x97 SLOAD SUB PUSH2 0x1A36 JUMPI PUSH1 0x40 MLOAD PUSH3 0x461BCD PUSH1 0xE5 SHL DUP2 MSTORE PUSH1 0x4 ADD PUSH2 0x606 SWAP1 PUSH2 0x3657 JUMP JUMPDEST PUSH1 0x2 PUSH1 0x97 SSTORE PUSH2 0x1A43 PUSH2 0x2641 JUMP JUMPDEST PUSH1 0x0 DUP2 DUP2 MSTORE PUSH1 0xCF PUSH1 0x20 SWAP1 DUP2 MSTORE PUSH1 0x40 DUP1 DUP4 KECCAK256 DUP2 MLOAD PUSH2 0x1A0 DUP2 ADD DUP4 MSTORE DUP2 SLOAD PUSH1 0x1 PUSH1 0x1 PUSH1 0xA0 SHL SUB SWAP1 DUP2 AND DUP3 MSTORE PUSH1 0x1 DUP4 ADD SLOAD DUP2 AND SWAP5 DUP3 ADD SWAP5 SWAP1 SWAP5 MSTORE PUSH1 0x2 DUP3 ADD SLOAD SWAP4 DUP5 AND SWAP3 DUP2 ADD SWAP3 SWAP1 SWAP3 MSTORE SWAP1 SWAP2 PUSH1 0x60 DUP4 ADD SWAP1 PUSH1 0x1 PUSH1 0xA0 SHL SWAP1 DIV PUSH1 0xFF AND PUSH1 0x4 DUP2 GT ISZERO PUSH2 0x1AAB JUMPI PUSH2 0x1AAB PUSH2 0x31B6 JUMP JUMPDEST PUSH1 0x4 DUP2 GT ISZERO PUSH2 0x1ABC JUMPI PUSH2 0x1ABC PUSH2 0x31B6 JUMP JUMPDEST DUP2 MSTORE PUSH1 0x20 ADD PUSH1 0x2 DUP3 ADD PUSH1 0x15 SWAP1 SLOAD SWAP1 PUSH2 0x100 EXP SWAP1 DIV PUSH1 0xFF AND PUSH1 0x1 DUP2 GT ISZERO PUSH2 0x1AE4 JUMPI PUSH2 0x1AE4 PUSH2 0x31B6 JUMP JUMPDEST PUSH1 0x1 DUP2 GT ISZERO PUSH2 0x1AF5 JUMPI PUSH2 0x1AF5 PUSH2 0x31B6 JUMP JUMPDEST DUP2 MSTORE PUSH1 0x3 DUP3 ADD SLOAD PUSH1 0x1 PUSH1 0x1 PUSH1 0xA0 SHL SUB SWAP1 DUP2 AND PUSH1 0x20 DUP1 DUP5 ADD SWAP2 SWAP1 SWAP2 MSTORE PUSH1 0x4 DUP5 ADD SLOAD PUSH1 0x40 DUP5 ADD MSTORE PUSH1 0x5 DUP5 ADD SLOAD PUSH1 0x1 PUSH1 0x1 PUSH1 0x80 SHL SUB DUP1 DUP3 AND PUSH1 0x60 DUP7 ADD MSTORE PUSH1 0x1 PUSH1 0x80 SHL SWAP2 DUP3 SWAP1 DIV AND PUSH1 0x80 DUP6 ADD MSTORE PUSH1 0x6 SWAP1 SWAP5 ADD SLOAD PUSH1 0x1 PUSH1 0x1 PUSH1 0x40 SHL SUB DUP1 DUP3 AND PUSH1 0xA0 DUP7 ADD MSTORE PUSH1 0x1 PUSH1 0x40 SHL DUP3 DIV DUP2 AND PUSH1 0xC0 DUP7 ADD MSTORE SWAP5 DUP2 DIV DUP6 AND PUSH1 0xE0 DUP6 ADD MSTORE PUSH1 0x1 PUSH1 0xC0 SHL SWAP1 DIV SWAP1 SWAP4 AND PUSH2 0x100 SWAP1 SWAP3 ADD SWAP2 SWAP1 SWAP2 MSTORE SWAP1 DUP3 ADD MLOAD SWAP2 SWAP3 POP AND CALLER EQ PUSH2 0x1BE6 JUMPI PUSH1 0x40 MLOAD PUSH3 0x461BCD PUSH1 0xE5 SHL DUP2 MSTORE PUSH1 0x20 PUSH1 0x4 DUP3 ADD MSTORE PUSH1 0x27 PUSH1 0x24 DUP3 ADD MSTORE PUSH32 0x596F752063616E6E6F742063616E63656C20736F6D656F6E6520656C73652773 PUSH1 0x44 DUP3 ADD MSTORE PUSH7 0x20726166666C65 PUSH1 0xC8 SHL PUSH1 0x64 DUP3 ADD MSTORE PUSH1 0x84 ADD PUSH2 0x606 JUMP JUMPDEST PUSH1 0x0 DUP2 PUSH1 0x60 ADD MLOAD PUSH1 0x4 DUP2 GT ISZERO PUSH2 0x1BFE JUMPI PUSH2 0x1BFE PUSH2 0x31B6 JUMP JUMPDEST EQ PUSH2 0x1C1B JUMPI PUSH1 0x40 MLOAD PUSH3 0x461BCD PUSH1 0xE5 SHL DUP2 MSTORE PUSH1 0x4 ADD PUSH2 0x606 SWAP1 PUSH2 0x3559 JUMP JUMPDEST PUSH1 0x1 DUP2 PUSH2 0x160 ADD MLOAD PUSH1 0x1 PUSH1 0x1 PUSH1 0x40 SHL SUB AND LT PUSH2 0x1C79 JUMPI PUSH1 0x40 MLOAD PUSH3 0x461BCD PUSH1 0xE5 SHL DUP2 MSTORE PUSH1 0x20 PUSH1 0x4 DUP3 ADD DUP2 SWAP1 MSTORE PUSH1 0x24 DUP3 ADD MSTORE PUSH32 0x5469636B657473206861766520616C7265616479206265656E20626F75676874 PUSH1 0x44 DUP3 ADD MSTORE PUSH1 0x64 ADD PUSH2 0x606 JUMP JUMPDEST PUSH1 0x0 DUP3 DUP2 MSTORE PUSH1 0xCF PUSH1 0x20 MSTORE PUSH1 0x40 DUP1 DUP3 KECCAK256 DUP1 SLOAD PUSH1 0x1 PUSH1 0x1 PUSH1 0xA0 SHL SUB NOT SWAP1 DUP2 AND DUP3 SSTORE PUSH1 0x1 DUP3 ADD DUP1 SLOAD DUP3 AND SWAP1 SSTORE PUSH1 0x2 DUP3 ADD DUP1 SLOAD PUSH1 0x3 DUP1 DUP6 ADD DUP1 SLOAD SWAP1 SWAP5 AND SWAP1 SWAP4 SSTORE PUSH1 0x4 DUP5 ADD DUP7 SWAP1 SSTORE PUSH1 0x5 DUP5 ADD DUP7 SWAP1 SSTORE PUSH1 0x6 SWAP1 SWAP4 ADD DUP6 SWAP1 SSTORE PUSH1 0x1 PUSH1 0x1 PUSH1 0xB0 SHL SUB NOT SWAP1 SWAP3 AND PUSH1 0x3 PUSH1 0xA0 SHL OR SWAP1 SWAP2 SSTORE SWAP1 MLOAD PUSH1 0x0 DUP1 MLOAD PUSH1 0x20 PUSH2 0x3962 DUP4 CODECOPY DUP2 MLOAD SWAP2 MSTORE SWAP3 PUSH2 0x1CFD SWAP3 DUP7 SWAP3 PUSH2 0x37A5 JUMP JUMPDEST PUSH1 0x40 MLOAD DUP1 SWAP2 SUB SWAP1 LOG1 PUSH1 0x0 DUP2 PUSH1 0x80 ADD MLOAD PUSH1 0x1 DUP2 GT ISZERO PUSH2 0x1D1D JUMPI PUSH2 0x1D1D PUSH2 0x31B6 JUMP JUMPDEST SUB PUSH2 0x1DA8 JUMPI PUSH1 0x0 DUP1 MLOAD PUSH1 0x20 PUSH2 0x3942 DUP4 CODECOPY DUP2 MLOAD SWAP2 MSTORE DUP2 PUSH1 0x20 ADD MLOAD DUP3 PUSH1 0x0 ADD MLOAD PUSH1 0x1 DUP5 PUSH1 0xE0 ADD MLOAD PUSH1 0x0 PUSH1 0x40 MLOAD PUSH2 0x1D55 SWAP6 SWAP5 SWAP4 SWAP3 SWAP2 SWAP1 PUSH2 0x373A JUMP JUMPDEST PUSH1 0x40 MLOAD DUP1 SWAP2 SUB SWAP1 LOG1 PUSH1 0x0 DUP1 MLOAD PUSH1 0x20 PUSH2 0x3942 DUP4 CODECOPY DUP2 MLOAD SWAP2 MSTORE DUP2 PUSH1 0x20 ADD MLOAD PUSH1 0x0 DUP1 PUSH1 0xD0 PUSH1 0x0 DUP8 DUP2 MSTORE PUSH1 0x20 ADD SWAP1 DUP2 MSTORE PUSH1 0x20 ADD PUSH1 0x0 KECCAK256 SLOAD PUSH1 0x0 PUSH1 0x40 MLOAD PUSH2 0x1D9B SWAP6 SWAP5 SWAP4 SWAP3 SWAP2 SWAP1 PUSH2 0x3774 JUMP JUMPDEST PUSH1 0x40 MLOAD DUP1 SWAP2 SUB SWAP1 LOG1 PUSH2 0x1E01 JUMP JUMPDEST PUSH1 0x1 DUP2 PUSH1 0x80 ADD MLOAD PUSH1 0x1 DUP2 GT ISZERO PUSH2 0x1DC0 JUMPI PUSH2 0x1DC0 PUSH2 0x31B6 JUMP JUMPDEST SUB PUSH2 0x1E01 JUMPI PUSH1 0x0 DUP1 MLOAD PUSH1 0x20 PUSH2 0x3942 DUP4 CODECOPY DUP2 MLOAD SWAP2 MSTORE DUP2 PUSH1 0x20 ADD MLOAD DUP3 PUSH1 0x0 ADD MLOAD PUSH1 0x0 DUP5 PUSH1 0xE0 ADD MLOAD PUSH1 0x0 PUSH1 0x40 MLOAD PUSH2 0x1DF8 SWAP6 SWAP5 SWAP4 SWAP3 SWAP2 SWAP1 PUSH2 0x373A JUMP JUMPDEST PUSH1 0x40 MLOAD DUP1 SWAP2 SUB SWAP1 LOG1 JUMPDEST PUSH1 0x40 MLOAD DUP3 DUP2 MSTORE PUSH32 0x7FA78BAB5D5570F162C69234A3F4D1B9294FD5BCA72219CB16C1FE38839CCB8A SWAP1 PUSH1 0x20 ADD PUSH1 0x40 MLOAD DUP1 SWAP2 SUB SWAP1 LOG1 POP POP PUSH1 0x1 PUSH1 0x97 SSTORE JUMP JUMPDEST PUSH2 0x1E45 PUSH2 0x2745 JUMP JUMPDEST PUSH1 0xCD SLOAD PUSH1 0x40 DUP1 MLOAD PUSH1 0x1 PUSH1 0x1 PUSH1 0xA0 SHL SUB SWAP3 DUP4 AND DUP2 MSTORE SWAP2 DUP4 AND PUSH1 0x20 DUP4 ADD MSTORE PUSH32 0x605CA4E43489FB38B91AA63DD9147CD3847957694B080B9285EC898B34269F0C SWAP2 ADD PUSH1 0x40 MLOAD DUP1 SWAP2 SUB SWAP1 LOG1 PUSH1 0xCD DUP1 SLOAD PUSH1 0x1 PUSH1 0x1 PUSH1 0xA0 SHL SUB NOT AND PUSH1 0x1 PUSH1 0x1 PUSH1 0xA0 SHL SUB SWAP3 SWAP1 SWAP3 AND SWAP2 SWAP1 SWAP2 OR SWAP1 SSTORE JUMP JUMPDEST PUSH2 0x1EB6 PUSH2 0x2745 JUMP JUMPDEST PUSH2 0x1EC0 PUSH1 0x0 PUSH2 0x29EA JUMP JUMPDEST JUMP JUMPDEST PUSH2 0x1ECA PUSH2 0x2745 JUMP JUMPDEST PUSH2 0x2710 DUP2 LT PUSH2 0x1F12 JUMPI PUSH1 0x40 MLOAD PUSH3 0x461BCD PUSH1 0xE5 SHL DUP2 MSTORE PUSH1 0x20 PUSH1 0x4 DUP3 ADD MSTORE PUSH1 0x14 PUSH1 0x24 DUP3 ADD MSTORE PUSH20 0x466565206D757374206265203C3D203130302025 PUSH1 0x60 SHL PUSH1 0x44 DUP3 ADD MSTORE PUSH1 0x64 ADD PUSH2 0x606 JUMP JUMPDEST PUSH1 0xD6 SLOAD PUSH1 0x40 DUP1 MLOAD SWAP2 DUP3 MSTORE PUSH1 0x20 DUP3 ADD DUP4 SWAP1 MSTORE PUSH32 0xB404CAC19FB1CBEFF98D325795B08886E3CD8FE8CB1A2F193AAC66F13FB239C3 SWAP2 ADD PUSH1 0x40 MLOAD DUP1 SWAP2 SUB SWAP1 LOG1 PUSH1 0xD6 SSTORE JUMP JUMPDEST PUSH1 0xCB SLOAD PUSH1 0x1 PUSH1 0x1 PUSH1 0xA0 SHL SUB AND CALLER EQ PUSH2 0x74B JUMPI PUSH1 0x40 MLOAD PUSH3 0x461BCD PUSH1 0xE5 SHL DUP2 MSTORE PUSH1 0x20 PUSH1 0x4 DUP3 ADD MSTORE PUSH1 0x1F PUSH1 0x24 DUP3 ADD MSTORE PUSH32 0x4F6E6C7920565246436F6F7264696E61746F722063616E2066756C66696C6C00 PUSH1 0x44 DUP3 ADD MSTORE PUSH1 0x64 ADD PUSH2 0x606 JUMP JUMPDEST PUSH2 0x2019 PUSH1 0x40 DUP1 MLOAD PUSH2 0x1A0 DUP2 ADD DUP3 MSTORE PUSH1 0x0 DUP1 DUP3 MSTORE PUSH1 0x20 DUP3 ADD DUP2 SWAP1 MSTORE SWAP2 DUP2 ADD DUP3 SWAP1 MSTORE SWAP1 PUSH1 0x60 DUP3 ADD SWAP1 DUP2 MSTORE PUSH1 0x20 ADD PUSH1 0x0 DUP2 MSTORE PUSH1 0x0 PUSH1 0x20 DUP3 ADD DUP2 SWAP1 MSTORE PUSH1 0x40 DUP3 ADD DUP2 SWAP1 MSTORE PUSH1 0x60 DUP3 ADD DUP2 SWAP1 MSTORE PUSH1 0x80 DUP3 ADD DUP2 SWAP1 MSTORE PUSH1 0xA0 DUP3 ADD DUP2 SWAP1 MSTORE PUSH1 0xC0 DUP3 ADD DUP2 SWAP1 MSTORE PUSH1 0xE0 DUP3 ADD DUP2 SWAP1 MSTORE PUSH2 0x100 SWAP1 SWAP2 ADD MSTORE SWAP1 JUMP JUMPDEST PUSH1 0xD3 SLOAD DUP3 GT ISZERO PUSH2 0x206B JUMPI PUSH1 0x40 MLOAD PUSH3 0x461BCD PUSH1 0xE5 SHL DUP2 MSTORE PUSH1 0x20 PUSH1 0x4 DUP3 ADD MSTORE PUSH1 0x1C PUSH1 0x24 DUP3 ADD MSTORE PUSH32 0x54686520726166666C6520494420646F6573206E6F7420657869737400000000 PUSH1 0x44 DUP3 ADD MSTORE PUSH1 0x64 ADD PUSH2 0x606 JUMP JUMPDEST PUSH1 0x0 DUP3 DUP2 MSTORE PUSH1 0xCF PUSH1 0x20 SWAP1 DUP2 MSTORE PUSH1 0x40 SWAP2 DUP3 SWAP1 KECCAK256 DUP3 MLOAD PUSH2 0x1A0 DUP2 ADD DUP5 MSTORE DUP2 SLOAD PUSH1 0x1 PUSH1 0x1 PUSH1 0xA0 SHL SUB SWAP1 DUP2 AND DUP3 MSTORE PUSH1 0x1 DUP4 ADD SLOAD DUP2 AND SWAP4 DUP3 ADD SWAP4 SWAP1 SWAP4 MSTORE PUSH1 0x2 DUP3 ADD SLOAD SWAP3 DUP4 AND SWAP4 DUP2 ADD SWAP4 SWAP1 SWAP4 MSTORE SWAP1 PUSH1 0x60 DUP4 ADD SWAP1 PUSH1 0x1 PUSH1 0xA0 SHL SWAP1 DIV PUSH1 0xFF AND PUSH1 0x4 DUP2 GT ISZERO PUSH2 0x20D3 JUMPI PUSH2 0x20D3 PUSH2 0x31B6 JUMP JUMPDEST PUSH1 0x4 DUP2 GT ISZERO PUSH2 0x20E4 JUMPI PUSH2 0x20E4 PUSH2 0x31B6 JUMP JUMPDEST DUP2 MSTORE PUSH1 0x20 ADD PUSH1 0x2 DUP3 ADD PUSH1 0x15 SWAP1 SLOAD SWAP1 PUSH2 0x100 EXP SWAP1 DIV PUSH1 0xFF AND PUSH1 0x1 DUP2 GT ISZERO PUSH2 0x210C JUMPI PUSH2 0x210C PUSH2 0x31B6 JUMP JUMPDEST PUSH1 0x1 DUP2 GT ISZERO PUSH2 0x211D JUMPI PUSH2 0x211D PUSH2 0x31B6 JUMP JUMPDEST DUP2 MSTORE PUSH1 0x3 DUP3 ADD SLOAD PUSH1 0x1 PUSH1 0x1 PUSH1 0xA0 SHL SUB AND PUSH1 0x20 DUP3 ADD MSTORE PUSH1 0x4 DUP3 ADD SLOAD PUSH1 0x40 DUP3 ADD MSTORE PUSH1 0x5 DUP3 ADD SLOAD PUSH1 0x1 PUSH1 0x1 PUSH1 0x80 SHL SUB DUP1 DUP3 AND PUSH1 0x60 DUP5 ADD MSTORE PUSH1 0x1 PUSH1 0x80 SHL SWAP2 DUP3 SWAP1 DIV AND PUSH1 0x80 DUP4 ADD MSTORE PUSH1 0x6 SWAP1 SWAP3 ADD SLOAD PUSH1 0x1 PUSH1 0x1 PUSH1 0x40 SHL SUB DUP1 DUP3 AND PUSH1 0xA0 DUP5 ADD MSTORE PUSH1 0x1 PUSH1 0x40 SHL DUP3 DIV DUP2 AND PUSH1 0xC0 DUP5 ADD MSTORE SWAP3 DUP2 DIV DUP4 AND PUSH1 0xE0 DUP4 ADD MSTORE PUSH1 0x1 PUSH1 0xC0 SHL SWAP1 DIV SWAP1 SWAP2 AND PUSH2 0x100 SWAP1 SWAP2 ADD MSTORE SWAP3 SWAP2 POP POP JUMP JUMPDEST PUSH2 0x21AD PUSH2 0x2745 JUMP JUMPDEST PUSH1 0x65 SLOAD PUSH1 0xFF AND PUSH2 0x21BF JUMPI PUSH2 0x1EC0 PUSH2 0x2A3C JUMP JUMPDEST PUSH2 0x1EC0 PUSH2 0x2A96 JUMP JUMPDEST PUSH1 0xCD SLOAD PUSH1 0x1 PUSH1 0x1 PUSH1 0xA0 SHL SUB AND CALLER EQ PUSH2 0x220F JUMPI PUSH1 0x40 MLOAD PUSH3 0x461BCD PUSH1 0xE5 SHL DUP2 MSTORE PUSH1 0x20 PUSH1 0x4 DUP3 ADD MSTORE PUSH1 0xB PUSH1 0x24 DUP3 ADD MSTORE PUSH11 0x27B7363CA932B630BCB2B9 PUSH1 0xA9 SHL PUSH1 0x44 DUP3 ADD MSTORE PUSH1 0x64 ADD PUSH2 0x606 JUMP JUMPDEST PUSH2 0x2217 PUSH2 0x2641 JUMP JUMPDEST PUSH1 0x1 PUSH1 0xD3 PUSH1 0x0 DUP3 DUP3 SLOAD PUSH2 0x222A SWAP2 SWAP1 PUSH2 0x35FD JUMP JUMPDEST SWAP1 SWAP2 SSTORE POP POP PUSH1 0xD3 SLOAD PUSH1 0x0 SWAP1 DUP2 MSTORE PUSH1 0xCF PUSH1 0x20 SWAP1 DUP2 MSTORE PUSH1 0x40 SWAP1 SWAP2 KECCAK256 DUP4 MLOAD DUP2 SLOAD PUSH1 0x1 PUSH1 0x1 PUSH1 0xA0 SHL SUB SWAP2 DUP3 AND PUSH1 0x1 PUSH1 0x1 PUSH1 0xA0 SHL SUB NOT SWAP2 DUP3 AND OR DUP4 SSTORE SWAP3 DUP6 ADD MLOAD PUSH1 0x1 DUP1 DUP5 ADD DUP1 SLOAD SWAP3 SWAP1 SWAP4 AND SWAP2 SWAP1 SWAP5 AND OR SWAP1 SSTORE PUSH1 0x2 DUP2 ADD DUP1 SLOAD PUSH1 0xFF PUSH1 0xA0 SHL NOT DUP2 AND DUP3 SSTORE PUSH1 0x80 DUP7 ADD MLOAD SWAP3 SWAP4 PUSH2 0xFFFF PUSH1 0xA0 SHL NOT SWAP1 SWAP2 AND SWAP1 PUSH1 0x1 PUSH1 0xA8 SHL SWAP1 DUP5 SWAP1 DUP2 GT ISZERO PUSH2 0x22B0 JUMPI PUSH2 0x22B0 PUSH2 0x31B6 JUMP JUMPDEST MUL OR SWAP1 SSTORE POP PUSH1 0xE0 DUP4 ADD MLOAD PUSH1 0xA0 DUP5 ADD MLOAD PUSH1 0x3 DUP4 ADD DUP1 SLOAD PUSH1 0x1 PUSH1 0x1 PUSH1 0xA0 SHL SUB SWAP1 SWAP3 AND PUSH1 0x1 PUSH1 0x1 PUSH1 0xA0 SHL SUB NOT SWAP1 SWAP3 AND SWAP2 SWAP1 SWAP2 OR SWAP1 SSTORE PUSH2 0x100 DUP5 ADD MLOAD PUSH1 0x1 PUSH1 0x1 PUSH1 0x80 SHL SUB SWAP1 DUP2 AND PUSH1 0x1 PUSH1 0x80 SHL MUL SWAP2 AND OR PUSH1 0x5 DUP3 ADD SSTORE PUSH1 0xC0 DUP4 ADD MLOAD PUSH1 0x4 DUP3 ADD SSTORE PUSH2 0x120 DUP4 ADD MLOAD PUSH1 0x6 DUP3 ADD DUP1 SLOAD PUSH2 0x140 DUP7 ADD MLOAD PUSH2 0x180 DUP8 ADD MLOAD PUSH1 0x1 PUSH1 0x1 PUSH1 0x40 SHL SUB SWAP1 DUP2 AND PUSH1 0x1 PUSH1 0xC0 SHL MUL PUSH1 0x1 PUSH1 0x1 PUSH1 0xC0 SHL SUB SWAP3 DUP3 AND PUSH1 0x1 PUSH1 0x40 SHL MUL PUSH16 0xFFFFFFFFFFFFFFFFFFFFFFFFFFFFFFFF NOT SWAP5 SWAP1 SWAP5 AND SWAP2 SWAP1 SWAP6 AND OR SWAP2 SWAP1 SWAP2 OR AND SWAP2 SWAP1 SWAP2 OR SWAP1 SSTORE PUSH1 0xD3 DUP1 SLOAD PUSH1 0x0 SWAP1 DUP2 MSTORE PUSH1 0xD0 PUSH1 0x20 MSTORE PUSH1 0x40 SWAP1 DUP2 SWAP1 KECCAK256 DUP5 SWAP1 SSTORE SWAP1 SLOAD SWAP1 MLOAD PUSH32 0x28DA189CBD771FF4D67710B07A94A6785E6DFB42F2DC01B7F0F95F03658BFF3D SWAP2 PUSH2 0x23B5 SWAP2 SWAP1 DUP2 MSTORE PUSH1 0x20 ADD SWAP1 JUMP JUMPDEST PUSH1 0x40 MLOAD DUP1 SWAP2 SUB SWAP1 LOG1 POP POP POP JUMP JUMPDEST PUSH2 0x23CA PUSH2 0x2745 JUMP JUMPDEST PUSH1 0x1 PUSH1 0x1 PUSH1 0xA0 SHL SUB DUP2 AND PUSH2 0x242F JUMPI PUSH1 0x40 MLOAD PUSH3 0x461BCD PUSH1 0xE5 SHL DUP2 MSTORE PUSH1 0x20 PUSH1 0x4 DUP3 ADD MSTORE PUSH1 0x26 PUSH1 0x24 DUP3 ADD MSTORE PUSH32 0x4F776E61626C653A206E6577206F776E657220697320746865207A65726F2061 PUSH1 0x44 DUP3 ADD MSTORE PUSH6 0x646472657373 PUSH1 0xD0 SHL PUSH1 0x64 DUP3 ADD MSTORE PUSH1 0x84 ADD PUSH2 0x606 JUMP JUMPDEST PUSH2 0x199D DUP2 PUSH2 0x29EA JUMP JUMPDEST PUSH1 0x0 SLOAD PUSH2 0x100 SWAP1 DIV PUSH1 0xFF AND PUSH2 0x245F JUMPI PUSH1 0x40 MLOAD PUSH3 0x461BCD PUSH1 0xE5 SHL DUP2 MSTORE PUSH1 0x4 ADD PUSH2 0x606 SWAP1 PUSH2 0x37F0 JUMP JUMPDEST PUSH2 0x1EC0 PUSH2 0x2ACF JUMP JUMPDEST PUSH1 0x0 SLOAD PUSH2 0x100 SWAP1 DIV PUSH1 0xFF AND PUSH2 0x248E JUMPI PUSH1 0x40 MLOAD PUSH3 0x461BCD PUSH1 0xE5 SHL DUP2 MSTORE PUSH1 0x4 ADD PUSH2 0x606 SWAP1 PUSH2 0x37F0 JUMP JUMPDEST PUSH2 0x1EC0 PUSH2 0x2AFF JUMP JUMPDEST PUSH1 0x0 SLOAD PUSH2 0x100 SWAP1 DIV PUSH1 0xFF AND PUSH2 0x24BD JUMPI PUSH1 0x40 MLOAD PUSH3 0x461BCD PUSH1 0xE5 SHL DUP2 MSTORE PUSH1 0x4 ADD PUSH2 0x606 SWAP1 PUSH2 0x37F0 JUMP JUMPDEST PUSH2 0x1EC0 PUSH2 0x2B32 JUMP JUMPDEST PUSH1 0x0 SLOAD PUSH2 0x100 SWAP1 DIV PUSH1 0xFF AND PUSH2 0x24EC JUMPI PUSH1 0x40 MLOAD PUSH3 0x461BCD PUSH1 0xE5 SHL DUP2 MSTORE PUSH1 0x4 ADD PUSH2 0x606 SWAP1 PUSH2 0x37F0 JUMP JUMPDEST PUSH1 0xCB DUP1 SLOAD PUSH1 0x1 PUSH1 0x1 PUSH1 0xA0 SHL SUB SWAP4 DUP5 AND PUSH1 0x1 PUSH1 0x1 PUSH1 0xA0 SHL SUB NOT SWAP2 DUP3 AND OR SWAP1 SWAP2 SSTORE PUSH1 0xCA DUP1 SLOAD SWAP3 SWAP1 SWAP4 AND SWAP2 AND OR SWAP1 SSTORE PUSH1 0x0 PUSH1 0xC9 SSTORE JUMP JUMPDEST PUSH1 0x0 DUP3 DUP2 MSTORE PUSH1 0xD2 PUSH1 0x20 SWAP1 DUP2 MSTORE PUSH1 0x40 DUP1 DUP4 KECCAK256 SLOAD DUP1 DUP5 MSTORE PUSH1 0xCF SWAP1 SWAP3 MSTORE SWAP1 SWAP2 KECCAK256 PUSH1 0x2 DUP1 DUP3 ADD DUP1 SLOAD PUSH1 0xFF PUSH1 0xA0 SHL NOT AND PUSH1 0x1 PUSH1 0xA0 SHL DUP4 MUL OR SWAP1 SSTORE POP PUSH1 0x0 DUP1 MLOAD PUSH1 0x20 PUSH2 0x3962 DUP4 CODECOPY DUP2 MLOAD SWAP2 MSTORE DUP3 PUSH1 0x1 PUSH1 0x2 PUSH1 0x40 MLOAD PUSH2 0x2578 SWAP4 SWAP3 SWAP2 SWAP1 PUSH2 0x37A5 JUMP JUMPDEST PUSH1 0x40 MLOAD DUP1 SWAP2 SUB SWAP1 LOG1 PUSH1 0x6 DUP2 ADD SLOAD PUSH1 0x0 SWAP1 PUSH2 0x25A2 SWAP1 PUSH1 0x1 PUSH1 0x80 SHL SWAP1 DIV PUSH1 0x1 PUSH1 0x1 PUSH1 0x40 SHL SUB AND DUP6 PUSH2 0x383B JUMP JUMPDEST PUSH1 0xD1 SLOAD PUSH1 0x40 MLOAD PUSH4 0x5F773D7F PUSH1 0xE0 SHL DUP2 MSTORE PUSH1 0x4 DUP2 ADD DUP7 SWAP1 MSTORE PUSH1 0x24 DUP2 ADD DUP4 SWAP1 MSTORE SWAP2 SWAP3 POP PUSH1 0x1 PUSH1 0x1 PUSH1 0xA0 SHL SUB AND SWAP1 PUSH4 0x5F773D7F SWAP1 PUSH1 0x44 ADD PUSH1 0x20 PUSH1 0x40 MLOAD DUP1 DUP4 SUB DUP2 DUP7 GAS STATICCALL ISZERO DUP1 ISZERO PUSH2 0x25F3 JUMPI RETURNDATASIZE PUSH1 0x0 DUP1 RETURNDATACOPY RETURNDATASIZE PUSH1 0x0 REVERT JUMPDEST POP POP POP POP PUSH1 0x40 MLOAD RETURNDATASIZE PUSH1 0x1F NOT PUSH1 0x1F DUP3 ADD AND DUP3 ADD DUP1 PUSH1 0x40 MSTORE POP DUP2 ADD SWAP1 PUSH2 0x2617 SWAP2 SWAP1 PUSH2 0x36A4 JUMP JUMPDEST PUSH1 0x2 SWAP3 SWAP1 SWAP3 ADD DUP1 SLOAD PUSH1 0x1 PUSH1 0x1 PUSH1 0xA0 SHL SUB NOT AND PUSH1 0x1 PUSH1 0x1 PUSH1 0xA0 SHL SUB SWAP1 SWAP4 AND SWAP3 SWAP1 SWAP3 OR SWAP1 SWAP2 SSTORE POP POP POP POP JUMP JUMPDEST PUSH1 0x65 SLOAD PUSH1 0xFF AND ISZERO PUSH2 0x1EC0 JUMPI PUSH1 0x40 MLOAD PUSH3 0x461BCD PUSH1 0xE5 SHL DUP2 MSTORE PUSH1 0x20 PUSH1 0x4 DUP3 ADD MSTORE PUSH1 0x10 PUSH1 0x24 DUP3 ADD MSTORE PUSH16 0x14185D5CD8589B194E881C185D5CD959 PUSH1 0x82 SHL PUSH1 0x44 DUP3 ADD MSTORE PUSH1 0x64 ADD PUSH2 0x606 JUMP JUMPDEST PUSH1 0x0 DUP3 PUSH2 0x2694 DUP6 DUP5 PUSH2 0x2B60 JUMP JUMPDEST EQ SWAP1 POP JUMPDEST SWAP4 SWAP3 POP POP POP JUMP JUMPDEST PUSH1 0x40 MLOAD PUSH1 0x1 PUSH1 0x1 PUSH1 0xA0 SHL SUB DUP1 DUP6 AND PUSH1 0x24 DUP4 ADD MSTORE DUP4 AND PUSH1 0x44 DUP3 ADD MSTORE PUSH1 0x64 DUP2 ADD DUP3 SWAP1 MSTORE PUSH2 0x270A SWAP1 DUP6 SWAP1 PUSH4 0x23B872DD PUSH1 0xE0 SHL SWAP1 PUSH1 0x84 ADD JUMPDEST PUSH1 0x40 DUP1 MLOAD PUSH1 0x1F NOT DUP2 DUP5 SUB ADD DUP2 MSTORE SWAP2 SWAP1 MSTORE PUSH1 0x20 DUP2 ADD DUP1 MLOAD PUSH1 0x1 PUSH1 0x1 PUSH1 0xE0 SHL SUB AND PUSH1 0x1 PUSH1 0x1 PUSH1 0xE0 SHL SUB NOT SWAP1 SWAP4 AND SWAP3 SWAP1 SWAP3 OR SWAP1 SWAP2 MSTORE PUSH2 0x2BAF JUMP JUMPDEST POP POP POP POP JUMP JUMPDEST PUSH1 0x40 MLOAD PUSH1 0x1 PUSH1 0x1 PUSH1 0xA0 SHL SUB DUP4 AND PUSH1 0x24 DUP3 ADD MSTORE PUSH1 0x44 DUP2 ADD DUP3 SWAP1 MSTORE PUSH2 0x2740 SWAP1 DUP5 SWAP1 PUSH4 0xA9059CBB PUSH1 0xE0 SHL SWAP1 PUSH1 0x64 ADD PUSH2 0x26D3 JUMP JUMPDEST POP POP POP JUMP JUMPDEST PUSH1 0x33 SLOAD PUSH1 0x1 PUSH1 0x1 PUSH1 0xA0 SHL SUB AND CALLER EQ PUSH2 0x1EC0 JUMPI PUSH1 0x40 MLOAD PUSH3 0x461BCD PUSH1 0xE5 SHL DUP2 MSTORE PUSH1 0x20 PUSH1 0x4 DUP3 ADD DUP2 SWAP1 MSTORE PUSH1 0x24 DUP3 ADD MSTORE PUSH32 0x4F776E61626C653A2063616C6C6572206973206E6F7420746865206F776E6572 PUSH1 0x44 DUP3 ADD MSTORE PUSH1 0x64 ADD PUSH2 0x606 JUMP JUMPDEST PUSH1 0xD5 SLOAD PUSH1 0xCA SLOAD PUSH1 0x40 MLOAD PUSH4 0x70A08231 PUSH1 0xE0 SHL DUP2 MSTORE ADDRESS PUSH1 0x4 DUP3 ADD MSTORE PUSH1 0x0 SWAP3 SWAP2 PUSH1 0x1 PUSH1 0x1 PUSH1 0xA0 SHL SUB AND SWAP1 PUSH4 0x70A08231 SWAP1 PUSH1 0x24 ADD PUSH1 0x20 PUSH1 0x40 MLOAD DUP1 DUP4 SUB DUP2 DUP7 GAS STATICCALL ISZERO DUP1 ISZERO PUSH2 0x27EC JUMPI RETURNDATASIZE PUSH1 0x0 DUP1 RETURNDATACOPY RETURNDATASIZE PUSH1 0x0 REVERT JUMPDEST POP POP POP POP PUSH1 0x40 MLOAD RETURNDATASIZE PUSH1 0x1F NOT PUSH1 0x1F DUP3 ADD AND DUP3 ADD DUP1 PUSH1 0x40 MSTORE POP DUP2 ADD SWAP1 PUSH2 0x2810 SWAP2 SWAP1 PUSH2 0x384F JUMP JUMPDEST LT ISZERO PUSH2 0x2850 JUMPI PUSH1 0x40 MLOAD PUSH3 0x461BCD PUSH1 0xE5 SHL DUP2 MSTORE PUSH1 0x20 PUSH1 0x4 DUP3 ADD MSTORE PUSH1 0xF PUSH1 0x24 DUP3 ADD MSTORE PUSH15 0x4E6F7420656E6F756768204C494E4B PUSH1 0x88 SHL PUSH1 0x44 DUP3 ADD MSTORE PUSH1 0x64 ADD PUSH2 0x606 JUMP JUMPDEST PUSH1 0x0 DUP3 DUP2 MSTORE PUSH1 0xCF PUSH1 0x20 MSTORE PUSH1 0x40 DUP1 DUP3 KECCAK256 PUSH1 0x2 DUP2 ADD DUP1 SLOAD PUSH1 0xFF PUSH1 0xA0 SHL NOT AND PUSH1 0x1 PUSH1 0xA0 SHL OR SWAP1 SSTORE SWAP1 MLOAD SWAP1 SWAP2 PUSH1 0x0 DUP1 MLOAD PUSH1 0x20 PUSH2 0x3962 DUP4 CODECOPY DUP2 MLOAD SWAP2 MSTORE SWAP2 PUSH2 0x2896 SWAP2 DUP7 SWAP2 PUSH1 0x1 SWAP1 PUSH2 0x37A5 JUMP JUMPDEST PUSH1 0x40 MLOAD DUP1 SWAP2 SUB SWAP1 LOG1 PUSH2 0x2698 PUSH1 0xD4 SLOAD PUSH1 0xD5 SLOAD PUSH2 0x2C81 JUMP JUMPDEST DUP1 SELFBALANCE LT ISZERO PUSH2 0x28FC JUMPI PUSH1 0x40 MLOAD PUSH3 0x461BCD PUSH1 0xE5 SHL DUP2 MSTORE PUSH1 0x20 PUSH1 0x4 DUP3 ADD MSTORE PUSH1 0x1F PUSH1 0x24 DUP3 ADD MSTORE PUSH32 0x5F68616E646C654E61746976655472616E7366657220696E736F6C76656E7400 PUSH1 0x44 DUP3 ADD MSTORE PUSH1 0x64 ADD PUSH2 0x606 JUMP JUMPDEST PUSH1 0x0 GAS SWAP1 POP PUSH1 0x0 DUP4 PUSH1 0x1 PUSH1 0x1 PUSH1 0xA0 SHL SUB AND DUP4 DUP4 SWAP1 PUSH1 0x40 MLOAD PUSH1 0x0 PUSH1 0x40 MLOAD DUP1 DUP4 SUB DUP2 DUP6 DUP9 DUP9 CALL SWAP4 POP POP POP POP RETURNDATASIZE DUP1 PUSH1 0x0 DUP2 EQ PUSH2 0x2951 JUMPI PUSH1 0x40 MLOAD SWAP2 POP PUSH1 0x1F NOT PUSH1 0x3F RETURNDATASIZE ADD AND DUP3 ADD PUSH1 0x40 MSTORE RETURNDATASIZE DUP3 MSTORE RETURNDATASIZE PUSH1 0x0 PUSH1 0x20 DUP5 ADD RETURNDATACOPY PUSH2 0x2956 JUMP JUMPDEST PUSH1 0x60 SWAP2 POP JUMPDEST POP POP SWAP1 POP DUP1 PUSH2 0x270A JUMPI PUSH20 0xD500B1D8E8EF31E21C99D1DB9A6444D3ADF1270 PUSH1 0x1 PUSH1 0x1 PUSH1 0xA0 SHL SUB AND PUSH4 0xD0E30DB0 DUP5 PUSH1 0x40 MLOAD DUP3 PUSH4 0xFFFFFFFF AND PUSH1 0xE0 SHL DUP2 MSTORE PUSH1 0x4 ADD PUSH1 0x0 PUSH1 0x40 MLOAD DUP1 DUP4 SUB DUP2 DUP6 DUP9 DUP1 EXTCODESIZE ISZERO DUP1 ISZERO PUSH2 0x29AE JUMPI PUSH1 0x0 DUP1 REVERT JUMPDEST POP GAS CALL ISZERO DUP1 ISZERO PUSH2 0x29C2 JUMPI RETURNDATASIZE PUSH1 0x0 DUP1 RETURNDATACOPY RETURNDATASIZE PUSH1 0x0 REVERT JUMPDEST POP PUSH2 0x270A SWAP4 POP PUSH20 0xD500B1D8E8EF31E21C99D1DB9A6444D3ADF1270 SWAP3 POP DUP8 SWAP2 POP DUP7 SWAP1 POP PUSH2 0x2710 JUMP JUMPDEST PUSH1 0x33 DUP1 SLOAD PUSH1 0x1 PUSH1 0x1 PUSH1 0xA0 SHL SUB DUP4 DUP2 AND PUSH1 0x1 PUSH1 0x1 PUSH1 0xA0 SHL SUB NOT DUP4 AND DUP2 OR SWAP1 SWAP4 SSTORE PUSH1 0x40 MLOAD SWAP2 AND SWAP2 SWAP1 DUP3 SWAP1 PUSH32 0x8BE0079C531659141344CD1FD0A4F28419497F9722A3DAAFE3B4186F6B6457E0 SWAP1 PUSH1 0x0 SWAP1 LOG3 POP POP JUMP JUMPDEST PUSH2 0x2A44 PUSH2 0x2641 JUMP JUMPDEST PUSH1 0x65 DUP1 SLOAD PUSH1 0xFF NOT AND PUSH1 0x1 OR SWAP1 SSTORE PUSH32 0x62E78CEA01BEE320CD4E420270B5EA74000D11B0C9F74754EBDBFC544B05A258 PUSH2 0x2A79 CALLER SWAP1 JUMP JUMPDEST PUSH1 0x40 MLOAD PUSH1 0x1 PUSH1 0x1 PUSH1 0xA0 SHL SUB SWAP1 SWAP2 AND DUP2 MSTORE PUSH1 0x20 ADD PUSH1 0x40 MLOAD DUP1 SWAP2 SUB SWAP1 LOG1 JUMP JUMPDEST PUSH2 0x2A9E PUSH2 0x2DD6 JUMP JUMPDEST PUSH1 0x65 DUP1 SLOAD PUSH1 0xFF NOT AND SWAP1 SSTORE PUSH32 0x5DB9EE0A495BF2E6FF9C91A7834C1BA4FDD244A5E8AA4E537BD38AEAE4B073AA CALLER PUSH2 0x2A79 JUMP JUMPDEST PUSH1 0x0 SLOAD PUSH2 0x100 SWAP1 DIV PUSH1 0xFF AND PUSH2 0x2AF6 JUMPI PUSH1 0x40 MLOAD PUSH3 0x461BCD PUSH1 0xE5 SHL DUP2 MSTORE PUSH1 0x4 ADD PUSH2 0x606 SWAP1 PUSH2 0x37F0 JUMP JUMPDEST PUSH2 0x1EC0 CALLER PUSH2 0x29EA JUMP JUMPDEST PUSH1 0x0 SLOAD PUSH2 0x100 SWAP1 DIV PUSH1 0xFF AND PUSH2 0x2B26 JUMPI PUSH1 0x40 MLOAD PUSH3 0x461BCD PUSH1 0xE5 SHL DUP2 MSTORE PUSH1 0x4 ADD PUSH2 0x606 SWAP1 PUSH2 0x37F0 JUMP JUMPDEST PUSH1 0x65 DUP1 SLOAD PUSH1 0xFF NOT AND SWAP1 SSTORE JUMP JUMPDEST PUSH1 0x0 SLOAD PUSH2 0x100 SWAP1 DIV PUSH1 0xFF AND PUSH2 0x2B59 JUMPI PUSH1 0x40 MLOAD PUSH3 0x461BCD PUSH1 0xE5 SHL DUP2 MSTORE PUSH1 0x4 ADD PUSH2 0x606 SWAP1 PUSH2 0x37F0 JUMP JUMPDEST PUSH1 0x1 PUSH1 0x97 SSTORE JUMP JUMPDEST PUSH1 0x0 DUP2 DUP2 JUMPDEST DUP5 MLOAD DUP2 LT ISZERO PUSH2 0x2BA5 JUMPI PUSH2 0x2B91 DUP3 DUP7 DUP4 DUP2 MLOAD DUP2 LT PUSH2 0x2B84 JUMPI PUSH2 0x2B84 PUSH2 0x368E JUMP JUMPDEST PUSH1 0x20 MUL PUSH1 0x20 ADD ADD MLOAD PUSH2 0x2E1F JUMP JUMPDEST SWAP2 POP DUP1 PUSH2 0x2B9D DUP2 PUSH2 0x36C1 JUMP JUMPDEST SWAP2 POP POP PUSH2 0x2B65 JUMP JUMPDEST POP SWAP1 POP JUMPDEST SWAP3 SWAP2 POP POP JUMP JUMPDEST PUSH1 0x0 PUSH2 0x2C04 DUP3 PUSH1 0x40 MLOAD DUP1 PUSH1 0x40 ADD PUSH1 0x40 MSTORE DUP1 PUSH1 0x20 DUP2 MSTORE PUSH1 0x20 ADD PUSH32 0x5361666545524332303A206C6F772D6C6576656C2063616C6C206661696C6564 DUP2 MSTORE POP DUP6 PUSH1 0x1 PUSH1 0x1 PUSH1 0xA0 SHL SUB AND PUSH2 0x2E4B SWAP1 SWAP3 SWAP2 SWAP1 PUSH4 0xFFFFFFFF AND JUMP JUMPDEST DUP1 MLOAD SWAP1 SWAP2 POP ISZERO PUSH2 0x2740 JUMPI DUP1 DUP1 PUSH1 0x20 ADD SWAP1 MLOAD DUP2 ADD SWAP1 PUSH2 0x2C22 SWAP2 SWAP1 PUSH2 0x3868 JUMP JUMPDEST PUSH2 0x2740 JUMPI PUSH1 0x40 MLOAD PUSH3 0x461BCD PUSH1 0xE5 SHL DUP2 MSTORE PUSH1 0x20 PUSH1 0x4 DUP3 ADD MSTORE PUSH1 0x2A PUSH1 0x24 DUP3 ADD MSTORE PUSH32 0x5361666545524332303A204552433230206F7065726174696F6E20646964206E PUSH1 0x44 DUP3 ADD MSTORE PUSH10 0x1BDD081CDD58D8D95959 PUSH1 0xB2 SHL PUSH1 0x64 DUP3 ADD MSTORE PUSH1 0x84 ADD PUSH2 0x606 JUMP JUMPDEST PUSH1 0xCA SLOAD PUSH1 0xCB SLOAD PUSH1 0xC9 SLOAD PUSH1 0x40 MLOAD PUSH1 0x0 SWAP4 PUSH1 0x1 PUSH1 0x1 PUSH1 0xA0 SHL SUB SWAP1 DUP2 AND SWAP4 PUSH4 0x4000AEA0 SWAP4 SWAP2 AND SWAP2 DUP7 SWAP2 PUSH2 0x2CBF SWAP2 DUP10 SWAP2 SWAP1 PUSH1 0x20 ADD SWAP2 DUP3 MSTORE PUSH1 0x20 DUP3 ADD MSTORE PUSH1 0x40 ADD SWAP1 JUMP JUMPDEST PUSH1 0x40 MLOAD PUSH1 0x20 DUP2 DUP4 SUB SUB DUP2 MSTORE SWAP1 PUSH1 0x40 MSTORE PUSH1 0x40 MLOAD DUP5 PUSH4 0xFFFFFFFF AND PUSH1 0xE0 SHL DUP2 MSTORE PUSH1 0x4 ADD PUSH2 0x2CEC SWAP4 SWAP3 SWAP2 SWAP1 PUSH2 0x38E2 JUMP JUMPDEST PUSH1 0x20 PUSH1 0x40 MLOAD DUP1 DUP4 SUB DUP2 PUSH1 0x0 DUP8 GAS CALL ISZERO DUP1 ISZERO PUSH2 0x2D0B JUMPI RETURNDATASIZE PUSH1 0x0 DUP1 RETURNDATACOPY RETURNDATASIZE PUSH1 0x0 REVERT JUMPDEST POP POP POP POP PUSH1 0x40 MLOAD RETURNDATASIZE PUSH1 0x1F NOT PUSH1 0x1F DUP3 ADD AND DUP3 ADD DUP1 PUSH1 0x40 MSTORE POP DUP2 ADD SWAP1 PUSH2 0x2D2F SWAP2 SWAP1 PUSH2 0x3868 JUMP JUMPDEST POP PUSH1 0xC9 SLOAD PUSH1 0x0 DUP5 DUP2 MSTORE PUSH1 0xCC PUSH1 0x20 DUP2 DUP2 MSTORE PUSH1 0x40 DUP1 DUP5 KECCAK256 SLOAD DUP2 MLOAD DUP1 DUP5 ADD DUP11 SWAP1 MSTORE DUP1 DUP4 ADD SWAP7 SWAP1 SWAP7 MSTORE ADDRESS PUSH1 0x60 DUP8 ADD MSTORE PUSH1 0x80 DUP1 DUP8 ADD DUP3 SWAP1 MSTORE DUP3 MLOAD DUP1 DUP9 SUB SWAP1 SWAP2 ADD DUP2 MSTORE PUSH1 0xA0 SWAP1 SWAP7 ADD SWAP1 SWAP2 MSTORE DUP5 MLOAD SWAP5 DUP3 ADD SWAP5 SWAP1 SWAP5 KECCAK256 SWAP3 DUP8 SWAP1 MSTORE MSTORE SWAP1 PUSH2 0x2D8E SWAP1 PUSH1 0x1 PUSH2 0x35FD JUMP JUMPDEST PUSH1 0x0 DUP6 DUP2 MSTORE PUSH1 0xCC PUSH1 0x20 MSTORE PUSH1 0x40 SWAP1 KECCAK256 SSTORE PUSH2 0x2DCE DUP5 DUP3 PUSH1 0x40 DUP1 MLOAD PUSH1 0x20 DUP1 DUP3 ADD SWAP5 SWAP1 SWAP5 MSTORE DUP1 DUP3 ADD SWAP3 SWAP1 SWAP3 MSTORE DUP1 MLOAD DUP1 DUP4 SUB DUP3 ADD DUP2 MSTORE PUSH1 0x60 SWAP1 SWAP3 ADD SWAP1 MSTORE DUP1 MLOAD SWAP2 ADD KECCAK256 SWAP1 JUMP JUMPDEST SWAP5 SWAP4 POP POP POP POP JUMP JUMPDEST PUSH1 0x65 SLOAD PUSH1 0xFF AND PUSH2 0x1EC0 JUMPI PUSH1 0x40 MLOAD PUSH3 0x461BCD PUSH1 0xE5 SHL DUP2 MSTORE PUSH1 0x20 PUSH1 0x4 DUP3 ADD MSTORE PUSH1 0x14 PUSH1 0x24 DUP3 ADD MSTORE PUSH20 0x14185D5CD8589B194E881B9BDD081C185D5CD959 PUSH1 0x62 SHL PUSH1 0x44 DUP3 ADD MSTORE PUSH1 0x64 ADD PUSH2 0x606 JUMP JUMPDEST PUSH1 0x0 DUP2 DUP4 LT PUSH2 0x2E3B JUMPI PUSH1 0x0 DUP3 DUP2 MSTORE PUSH1 0x20 DUP5 SWAP1 MSTORE PUSH1 0x40 SWAP1 KECCAK256 PUSH2 0x2698 JUMP JUMPDEST POP PUSH1 0x0 SWAP2 DUP3 MSTORE PUSH1 0x20 MSTORE PUSH1 0x40 SWAP1 KECCAK256 SWAP1 JUMP JUMPDEST PUSH1 0x60 PUSH2 0x2DCE DUP5 DUP5 PUSH1 0x0 DUP6 DUP6 PUSH1 0x1 PUSH1 0x1 PUSH1 0xA0 SHL SUB DUP6 AND EXTCODESIZE PUSH2 0x2EAD JUMPI PUSH1 0x40 MLOAD PUSH3 0x461BCD PUSH1 0xE5 SHL DUP2 MSTORE PUSH1 0x20 PUSH1 0x4 DUP3 ADD MSTORE PUSH1 0x1D PUSH1 0x24 DUP3 ADD MSTORE PUSH32 0x416464726573733A2063616C6C20746F206E6F6E2D636F6E7472616374000000 PUSH1 0x44 DUP3 ADD MSTORE PUSH1 0x64 ADD PUSH2 0x606 JUMP JUMPDEST PUSH1 0x0 DUP1 DUP7 PUSH1 0x1 PUSH1 0x1 PUSH1 0xA0 SHL SUB AND DUP6 DUP8 PUSH1 0x40 MLOAD PUSH2 0x2EC9 SWAP2 SWAP1 PUSH2 0x3912 JUMP JUMPDEST PUSH1 0x0 PUSH1 0x40 MLOAD DUP1 DUP4 SUB DUP2 DUP6 DUP8 GAS CALL SWAP3 POP POP POP RETURNDATASIZE DUP1 PUSH1 0x0 DUP2 EQ PUSH2 0x2F06 JUMPI PUSH1 0x40 MLOAD SWAP2 POP PUSH1 0x1F NOT PUSH1 0x3F RETURNDATASIZE ADD AND DUP3 ADD PUSH1 0x40 MSTORE RETURNDATASIZE DUP3 MSTORE RETURNDATASIZE PUSH1 0x0 PUSH1 0x20 DUP5 ADD RETURNDATACOPY PUSH2 0x2F0B JUMP JUMPDEST PUSH1 0x60 SWAP2 POP JUMPDEST POP SWAP2 POP SWAP2 POP PUSH2 0x2F1B DUP3 DUP3 DUP7 PUSH2 0x2F26 JUMP JUMPDEST SWAP8 SWAP7 POP POP POP POP POP POP POP JUMP JUMPDEST PUSH1 0x60 DUP4 ISZERO PUSH2 0x2F35 JUMPI POP DUP2 PUSH2 0x2698 JUMP JUMPDEST DUP3 MLOAD ISZERO PUSH2 0x2F45 JUMPI DUP3 MLOAD DUP1 DUP5 PUSH1 0x20 ADD REVERT JUMPDEST DUP2 PUSH1 0x40 MLOAD PUSH3 0x461BCD PUSH1 0xE5 SHL DUP2 MSTORE PUSH1 0x4 ADD PUSH2 0x606 SWAP2 SWAP1 PUSH2 0x392E JUMP JUMPDEST PUSH1 0x1 PUSH1 0x1 PUSH1 0xA0 SHL SUB DUP2 AND DUP2 EQ PUSH2 0x199D JUMPI PUSH1 0x0 DUP1 REVERT JUMPDEST DUP1 CALLDATALOAD PUSH2 0x2F7F DUP2 PUSH2 0x2F5F JUMP JUMPDEST SWAP2 SWAP1 POP JUMP JUMPDEST PUSH1 0x0 DUP1 PUSH1 0x0 DUP1 PUSH1 0x0 PUSH1 0xA0 DUP7 DUP9 SUB SLT ISZERO PUSH2 0x2F9C JUMPI PUSH1 0x0 DUP1 REVERT JUMPDEST DUP6 CALLDATALOAD PUSH2 0x2FA7 DUP2 PUSH2 0x2F5F JUMP JUMPDEST SWAP5 POP PUSH1 0x20 DUP7 ADD CALLDATALOAD SWAP4 POP PUSH1 0x40 DUP7 ADD CALLDATALOAD SWAP3 POP PUSH1 0x60 DUP7 ADD CALLDATALOAD PUSH2 0x2FC5 DUP2 PUSH2 0x2F5F JUMP JUMPDEST SWAP2 POP PUSH1 0x80 DUP7 ADD CALLDATALOAD PUSH2 0x2FD5 DUP2 PUSH2 0x2F5F JUMP JUMPDEST DUP1 SWAP2 POP POP SWAP3 SWAP6 POP SWAP3 SWAP6 SWAP1 SWAP4 POP JUMP JUMPDEST PUSH1 0x0 DUP1 PUSH1 0x40 DUP4 DUP6 SUB SLT ISZERO PUSH2 0x2FF6 JUMPI PUSH1 0x0 DUP1 REVERT JUMPDEST POP POP DUP1 CALLDATALOAD SWAP3 PUSH1 0x20 SWAP1 SWAP2 ADD CALLDATALOAD SWAP2 POP JUMP JUMPDEST DUP1 CALLDATALOAD PUSH1 0x1 PUSH1 0x1 PUSH1 0x40 SHL SUB DUP2 AND DUP2 EQ PUSH2 0x2F7F JUMPI PUSH1 0x0 DUP1 REVERT JUMPDEST PUSH1 0x0 DUP1 DUP4 PUSH1 0x1F DUP5 ADD SLT PUSH2 0x302E JUMPI PUSH1 0x0 DUP1 REVERT JUMPDEST POP DUP2 CALLDATALOAD PUSH1 0x1 PUSH1 0x1 PUSH1 0x40 SHL SUB DUP2 GT ISZERO PUSH2 0x3045 JUMPI PUSH1 0x0 DUP1 REVERT JUMPDEST PUSH1 0x20 DUP4 ADD SWAP2 POP DUP4 PUSH1 0x20 DUP3 PUSH1 0x5 SHL DUP6 ADD ADD GT ISZERO PUSH2 0x3060 JUMPI PUSH1 0x0 DUP1 REVERT JUMPDEST SWAP3 POP SWAP3 SWAP1 POP JUMP JUMPDEST PUSH1 0x0 DUP1 PUSH1 0x0 DUP1 PUSH1 0x60 DUP6 DUP8 SUB SLT ISZERO PUSH2 0x307D JUMPI PUSH1 0x0 DUP1 REVERT JUMPDEST DUP5 CALLDATALOAD SWAP4 POP PUSH2 0x308D PUSH1 0x20 DUP7 ADD PUSH2 0x3005 JUMP JUMPDEST SWAP3 POP PUSH1 0x40 DUP6 ADD CALLDATALOAD PUSH1 0x1 PUSH1 0x1 PUSH1 0x40 SHL SUB DUP2 GT ISZERO PUSH2 0x30A8 JUMPI PUSH1 0x0 DUP1 REVERT JUMPDEST PUSH2 0x30B4 DUP8 DUP3 DUP9 ADD PUSH2 0x301C JUMP JUMPDEST SWAP6 SWAP9 SWAP5 SWAP8 POP SWAP6 POP POP POP POP JUMP JUMPDEST PUSH1 0x0 DUP1 PUSH1 0x0 PUSH1 0x40 DUP5 DUP7 SUB SLT ISZERO PUSH2 0x30D5 JUMPI PUSH1 0x0 DUP1 REVERT JUMPDEST DUP4 CALLDATALOAD SWAP3 POP PUSH1 0x20 DUP5 ADD CALLDATALOAD PUSH1 0x1 PUSH1 0x1 PUSH1 0x40 SHL SUB DUP2 GT ISZERO PUSH2 0x30F2 JUMPI PUSH1 0x0 DUP1 REVERT JUMPDEST PUSH2 0x30FE DUP7 DUP3 DUP8 ADD PUSH2 0x301C JUMP JUMPDEST SWAP5 SWAP8 SWAP1 SWAP7 POP SWAP4 SWAP5 POP POP POP POP JUMP JUMPDEST PUSH1 0x0 PUSH1 0x20 DUP3 DUP5 SUB SLT ISZERO PUSH2 0x311D JUMPI PUSH1 0x0 DUP1 REVERT JUMPDEST DUP2 CALLDATALOAD PUSH2 0x2698 DUP2 PUSH2 0x2F5F JUMP JUMPDEST PUSH1 0x0 PUSH1 0x20 DUP3 DUP5 SUB SLT ISZERO PUSH2 0x313A JUMPI PUSH1 0x0 DUP1 REVERT JUMPDEST POP CALLDATALOAD SWAP2 SWAP1 POP JUMP JUMPDEST PUSH1 0x0 DUP1 PUSH1 0x0 DUP1 PUSH1 0x0 PUSH1 0x60 DUP7 DUP9 SUB SLT ISZERO PUSH2 0x3159 JUMPI PUSH1 0x0 DUP1 REVERT JUMPDEST DUP6 CALLDATALOAD PUSH1 0x1 PUSH1 0x1 PUSH1 0x40 SHL SUB DUP1 DUP3 GT ISZERO PUSH2 0x3170 JUMPI PUSH1 0x0 DUP1 REVERT JUMPDEST PUSH2 0x317C DUP10 DUP4 DUP11 ADD PUSH2 0x301C JUMP JUMPDEST SWAP1 SWAP8 POP SWAP6 POP PUSH1 0x20 DUP9 ADD CALLDATALOAD SWAP2 POP DUP1 DUP3 GT ISZERO PUSH2 0x3195 JUMPI PUSH1 0x0 DUP1 REVERT JUMPDEST POP PUSH2 0x31A2 DUP9 DUP3 DUP10 ADD PUSH2 0x301C JUMP JUMPDEST SWAP1 SWAP5 POP SWAP3 POP POP PUSH1 0x40 DUP7 ADD CALLDATALOAD PUSH2 0x2FD5 DUP2 PUSH2 0x2F5F JUMP JUMPDEST PUSH4 0x4E487B71 PUSH1 0xE0 SHL PUSH1 0x0 MSTORE PUSH1 0x21 PUSH1 0x4 MSTORE PUSH1 0x24 PUSH1 0x0 REVERT JUMPDEST PUSH1 0x5 DUP2 LT PUSH2 0x31DC JUMPI PUSH2 0x31DC PUSH2 0x31B6 JUMP JUMPDEST SWAP1 MSTORE JUMP JUMPDEST PUSH1 0x20 DUP2 ADD PUSH2 0x2BA9 DUP3 DUP5 PUSH2 0x31CC JUMP JUMPDEST PUSH1 0x2 DUP2 LT PUSH2 0x31DC JUMPI PUSH2 0x31DC PUSH2 0x31B6 JUMP JUMPDEST PUSH1 0x1 PUSH1 0x1 PUSH1 0xA0 SHL SUB DUP15 DUP2 AND DUP3 MSTORE DUP14 DUP2 AND PUSH1 0x20 DUP4 ADD MSTORE DUP13 AND PUSH1 0x40 DUP3 ADD MSTORE PUSH2 0x1A0 DUP2 ADD PUSH2 0x322C PUSH1 0x60 DUP4 ADD DUP14 PUSH2 0x31CC JUMP JUMPDEST PUSH2 0x3239 PUSH1 0x80 DUP4 ADD DUP13 PUSH2 0x31EE JUMP JUMPDEST PUSH1 0x1 PUSH1 0x1 PUSH1 0xA0 SHL SUB SWAP10 SWAP1 SWAP10 AND PUSH1 0xA0 DUP3 ADD MSTORE PUSH1 0xC0 DUP2 ADD SWAP8 SWAP1 SWAP8 MSTORE PUSH1 0x1 PUSH1 0x1 PUSH1 0x80 SHL SUB SWAP6 DUP7 AND PUSH1 0xE0 DUP9 ADD MSTORE SWAP4 SWAP1 SWAP5 AND PUSH2 0x100 DUP7 ADD MSTORE PUSH1 0x1 PUSH1 0x1 PUSH1 0x40 SHL SUB SWAP2 DUP3 AND PUSH2 0x120 DUP7 ADD MSTORE DUP2 AND PUSH2 0x140 DUP6 ADD MSTORE SWAP2 DUP3 AND PUSH2 0x160 DUP5 ADD MSTORE AND PUSH2 0x180 SWAP1 SWAP2 ADD MSTORE SWAP6 SWAP5 POP POP POP POP POP JUMP JUMPDEST DUP2 MLOAD PUSH1 0x1 PUSH1 0x1 PUSH1 0xA0 SHL SUB AND DUP2 MSTORE PUSH2 0x1A0 DUP2 ADD PUSH1 0x20 DUP4 ADD MLOAD PUSH2 0x32CB PUSH1 0x20 DUP5 ADD DUP3 PUSH1 0x1 PUSH1 0x1 PUSH1 0xA0 SHL SUB AND SWAP1 MSTORE JUMP JUMPDEST POP PUSH1 0x40 DUP4 ADD MLOAD PUSH2 0x32E6 PUSH1 0x40 DUP5 ADD DUP3 PUSH1 0x1 PUSH1 0x1 PUSH1 0xA0 SHL SUB AND SWAP1 MSTORE JUMP JUMPDEST POP PUSH1 0x60 DUP4 ADD MLOAD PUSH2 0x32F9 PUSH1 0x60 DUP5 ADD DUP3 PUSH2 0x31CC JUMP JUMPDEST POP PUSH1 0x80 DUP4 ADD MLOAD PUSH2 0x330C PUSH1 0x80 DUP5 ADD DUP3 PUSH2 0x31EE JUMP JUMPDEST POP PUSH1 0xA0 DUP4 ADD MLOAD PUSH2 0x3327 PUSH1 0xA0 DUP5 ADD DUP3 PUSH1 0x1 PUSH1 0x1 PUSH1 0xA0 SHL SUB AND SWAP1 MSTORE JUMP JUMPDEST POP PUSH1 0xC0 DUP4 ADD MLOAD PUSH1 0xC0 DUP4 ADD MSTORE PUSH1 0xE0 DUP4 ADD MLOAD PUSH2 0x334C PUSH1 0xE0 DUP5 ADD DUP3 PUSH1 0x1 PUSH1 0x1 PUSH1 0x80 SHL SUB AND SWAP1 MSTORE JUMP JUMPDEST POP PUSH2 0x100 DUP4 DUP2 ADD MLOAD PUSH1 0x1 PUSH1 0x1 PUSH1 0x80 SHL SUB AND SWAP1 DUP4 ADD MSTORE PUSH2 0x120 DUP1 DUP5 ADD MLOAD PUSH1 0x1 PUSH1 0x1 PUSH1 0x40 SHL SUB SWAP1 DUP2 AND SWAP2 DUP5 ADD SWAP2 SWAP1 SWAP2 MSTORE PUSH2 0x140 DUP1 DUP6 ADD MLOAD DUP3 AND SWAP1 DUP5 ADD MSTORE PUSH2 0x160 DUP1 DUP6 ADD MLOAD DUP3 AND SWAP1 DUP5 ADD MSTORE PUSH2 0x180 SWAP4 DUP5 ADD MLOAD AND SWAP3 SWAP1 SWAP2 ADD SWAP2 SWAP1 SWAP2 MSTORE SWAP1 JUMP JUMPDEST PUSH1 0x40 MLOAD PUSH2 0x1A0 DUP2 ADD PUSH1 0x1 PUSH1 0x1 PUSH1 0x40 SHL SUB DUP2 GT DUP3 DUP3 LT OR ISZERO PUSH2 0x33D8 JUMPI PUSH4 0x4E487B71 PUSH1 0xE0 SHL PUSH1 0x0 MSTORE PUSH1 0x41 PUSH1 0x4 MSTORE PUSH1 0x24 PUSH1 0x0 REVERT JUMPDEST PUSH1 0x40 MSTORE SWAP1 JUMP JUMPDEST DUP1 CALLDATALOAD PUSH1 0x5 DUP2 LT PUSH2 0x2F7F JUMPI PUSH1 0x0 DUP1 REVERT JUMPDEST DUP1 CALLDATALOAD PUSH1 0x2 DUP2 LT PUSH2 0x2F7F JUMPI PUSH1 0x0 DUP1 REVERT JUMPDEST DUP1 CALLDATALOAD PUSH1 0x1 PUSH1 0x1 PUSH1 0x80 SHL SUB DUP2 AND DUP2 EQ PUSH2 0x2F7F JUMPI PUSH1 0x0 DUP1 REVERT JUMPDEST PUSH1 0x0 DUP1 DUP3 DUP5 SUB PUSH2 0x1C0 DUP2 SLT ISZERO PUSH2 0x3428 JUMPI PUSH1 0x0 DUP1 REVERT JUMPDEST PUSH2 0x1A0 DUP1 DUP3 SLT ISZERO PUSH2 0x3438 JUMPI PUSH1 0x0 DUP1 REVERT JUMPDEST PUSH2 0x3440 PUSH2 0x33A7 JUMP JUMPDEST SWAP2 POP PUSH2 0x344B DUP6 PUSH2 0x2F74 JUMP JUMPDEST DUP3 MSTORE PUSH2 0x3459 PUSH1 0x20 DUP7 ADD PUSH2 0x2F74 JUMP JUMPDEST PUSH1 0x20 DUP4 ADD MSTORE PUSH2 0x346A PUSH1 0x40 DUP7 ADD PUSH2 0x2F74 JUMP JUMPDEST PUSH1 0x40 DUP4 ADD MSTORE PUSH2 0x347B PUSH1 0x60 DUP7 ADD PUSH2 0x33DE JUMP JUMPDEST PUSH1 0x60 DUP4 ADD MSTORE PUSH2 0x348C PUSH1 0x80 DUP7 ADD PUSH2 0x33ED JUMP JUMPDEST PUSH1 0x80 DUP4 ADD MSTORE PUSH2 0x349D PUSH1 0xA0 DUP7 ADD PUSH2 0x2F74 JUMP JUMPDEST PUSH1 0xA0 DUP4 ADD MSTORE PUSH1 0xC0 DUP6 ADD CALLDATALOAD PUSH1 0xC0 DUP4 ADD MSTORE PUSH2 0x34B8 PUSH1 0xE0 DUP7 ADD PUSH2 0x33FC JUMP JUMPDEST PUSH1 0xE0 DUP4 ADD MSTORE PUSH2 0x100 PUSH2 0x34CB DUP2 DUP8 ADD PUSH2 0x33FC JUMP JUMPDEST SWAP1 DUP4 ADD MSTORE PUSH2 0x120 PUSH2 0x34DD DUP7 DUP3 ADD PUSH2 0x3005 JUMP JUMPDEST SWAP1 DUP4 ADD MSTORE PUSH2 0x140 PUSH2 0x34EF DUP7 DUP3 ADD PUSH2 0x3005 JUMP JUMPDEST SWAP1 DUP4 ADD MSTORE PUSH2 0x160 PUSH2 0x3501 DUP7 DUP3 ADD PUSH2 0x3005 JUMP JUMPDEST SWAP1 DUP4 ADD MSTORE PUSH2 0x180 PUSH2 0x3513 DUP7 DUP3 ADD PUSH2 0x3005 JUMP JUMPDEST SWAP1 DUP4 ADD MSTORE SWAP1 SWAP6 SWAP4 ADD CALLDATALOAD SWAP4 POP POP POP JUMP JUMPDEST PUSH1 0x20 DUP1 DUP3 MSTORE PUSH1 0x1A SWAP1 DUP3 ADD MSTORE PUSH32 0x5468697320726166666C6520646F6573206E6F74206578697374000000000000 PUSH1 0x40 DUP3 ADD MSTORE PUSH1 0x60 ADD SWAP1 JUMP JUMPDEST PUSH1 0x20 DUP1 DUP3 MSTORE PUSH1 0x1D SWAP1 DUP3 ADD MSTORE PUSH32 0x5468697320726166666C652068617320616C726561647920656E646564000000 PUSH1 0x40 DUP3 ADD MSTORE PUSH1 0x60 ADD SWAP1 JUMP JUMPDEST PUSH4 0x4E487B71 PUSH1 0xE0 SHL PUSH1 0x0 MSTORE PUSH1 0x11 PUSH1 0x4 MSTORE PUSH1 0x24 PUSH1 0x0 REVERT JUMPDEST PUSH1 0x0 PUSH1 0x1 PUSH1 0x1 PUSH1 0x40 SHL SUB DUP4 DUP2 AND SWAP1 DUP4 AND DUP2 DUP2 LT ISZERO PUSH2 0x35C6 JUMPI PUSH2 0x35C6 PUSH2 0x3590 JUMP JUMPDEST SUB SWAP4 SWAP3 POP POP POP JUMP JUMPDEST PUSH1 0x0 PUSH1 0x1 PUSH1 0x1 PUSH1 0x80 SHL SUB DUP1 DUP4 AND DUP2 DUP6 AND DUP2 DUP4 DIV DUP2 GT DUP3 ISZERO ISZERO AND ISZERO PUSH2 0x35F4 JUMPI PUSH2 0x35F4 PUSH2 0x3590 JUMP JUMPDEST MUL SWAP5 SWAP4 POP POP POP POP JUMP JUMPDEST PUSH1 0x0 DUP3 NOT DUP3 GT ISZERO PUSH2 0x3610 JUMPI PUSH2 0x3610 PUSH2 0x3590 JUMP JUMPDEST POP ADD SWAP1 JUMP JUMPDEST PUSH1 0x0 DUP3 DUP3 LT ISZERO PUSH2 0x3627 JUMPI PUSH2 0x3627 PUSH2 0x3590 JUMP JUMPDEST POP SUB SWAP1 JUMP JUMPDEST PUSH1 0x0 PUSH1 0x1 PUSH1 0x1 PUSH1 0x40 SHL SUB DUP1 DUP4 AND DUP2 DUP6 AND DUP1 DUP4 SUB DUP3 GT ISZERO PUSH2 0x364E JUMPI PUSH2 0x364E PUSH2 0x3590 JUMP JUMPDEST ADD SWAP5 SWAP4 POP POP POP POP JUMP JUMPDEST PUSH1 0x20 DUP1 DUP3 MSTORE PUSH1 0x1F SWAP1 DUP3 ADD MSTORE PUSH32 0x5265656E7472616E637947756172643A207265656E7472616E742063616C6C00 PUSH1 0x40 DUP3 ADD MSTORE PUSH1 0x60 ADD SWAP1 JUMP JUMPDEST PUSH4 0x4E487B71 PUSH1 0xE0 SHL PUSH1 0x0 MSTORE PUSH1 0x32 PUSH1 0x4 MSTORE PUSH1 0x24 PUSH1 0x0 REVERT JUMPDEST PUSH1 0x0 PUSH1 0x20 DUP3 DUP5 SUB SLT ISZERO PUSH2 0x36B6 JUMPI PUSH1 0x0 DUP1 REVERT JUMPDEST DUP2 MLOAD PUSH2 0x2698 DUP2 PUSH2 0x2F5F JUMP JUMPDEST PUSH1 0x0 PUSH1 0x1 DUP3 ADD PUSH2 0x36D3 JUMPI PUSH2 0x36D3 PUSH2 0x3590 JUMP JUMPDEST POP PUSH1 0x1 ADD SWAP1 JUMP JUMPDEST PUSH1 0x0 DUP2 PUSH1 0x0 NOT DIV DUP4 GT DUP3 ISZERO ISZERO AND ISZERO PUSH2 0x36F4 JUMPI PUSH2 0x36F4 PUSH2 0x3590 JUMP JUMPDEST POP MUL SWAP1 JUMP JUMPDEST PUSH1 0x20 DUP1 DUP3 MSTORE PUSH1 0x21 SWAP1 DUP3 ADD MSTORE PUSH32 0x5468697320726166666C652077617320616C726561647920636F6D706C657465 PUSH1 0x40 DUP3 ADD MSTORE PUSH1 0x19 PUSH1 0xFA SHL PUSH1 0x60 DUP3 ADD MSTORE PUSH1 0x80 ADD SWAP1 JUMP JUMPDEST PUSH1 0x1 PUSH1 0x1 PUSH1 0xA0 SHL SUB SWAP6 DUP7 AND DUP2 MSTORE SWAP4 SWAP1 SWAP5 AND PUSH1 0x20 DUP5 ADD MSTORE SWAP1 ISZERO ISZERO PUSH1 0x40 DUP4 ADD MSTORE PUSH1 0x1 PUSH1 0x1 PUSH1 0x80 SHL SUB AND PUSH1 0x60 DUP3 ADD MSTORE PUSH1 0x80 DUP2 ADD SWAP2 SWAP1 SWAP2 MSTORE PUSH1 0xA0 ADD SWAP1 JUMP JUMPDEST PUSH1 0x1 PUSH1 0x1 PUSH1 0xA0 SHL SUB SWAP6 DUP7 AND DUP2 MSTORE SWAP4 SWAP1 SWAP5 AND PUSH1 0x20 DUP5 ADD MSTORE SWAP1 ISZERO ISZERO PUSH1 0x40 DUP4 ADD MSTORE PUSH1 0x60 DUP3 ADD MSTORE PUSH1 0x80 DUP2 ADD SWAP2 SWAP1 SWAP2 MSTORE PUSH1 0xA0 ADD SWAP1 JUMP JUMPDEST DUP4 DUP2 MSTORE PUSH1 0x60 DUP2 ADD PUSH2 0x37B9 PUSH1 0x20 DUP4 ADD DUP6 PUSH2 0x31CC JUMP JUMPDEST PUSH2 0x2DCE PUSH1 0x40 DUP4 ADD DUP5 PUSH2 0x31CC JUMP JUMPDEST PUSH4 0x4E487B71 PUSH1 0xE0 SHL PUSH1 0x0 MSTORE PUSH1 0x12 PUSH1 0x4 MSTORE PUSH1 0x24 PUSH1 0x0 REVERT JUMPDEST PUSH1 0x0 DUP3 PUSH2 0x37EB JUMPI PUSH2 0x37EB PUSH2 0x37C6 JUMP JUMPDEST POP DIV SWAP1 JUMP JUMPDEST PUSH1 0x20 DUP1 DUP3 MSTORE PUSH1 0x2B SWAP1 DUP3 ADD MSTORE PUSH32 0x496E697469616C697A61626C653A20636F6E7472616374206973206E6F742069 PUSH1 0x40 DUP3 ADD MSTORE PUSH11 0x6E697469616C697A696E67 PUSH1 0xA8 SHL PUSH1 0x60 DUP3 ADD MSTORE PUSH1 0x80 ADD SWAP1 JUMP JUMPDEST PUSH1 0x0 DUP3 PUSH2 0x384A JUMPI PUSH2 0x384A PUSH2 0x37C6 JUMP JUMPDEST POP MOD SWAP1 JUMP JUMPDEST PUSH1 0x0 PUSH1 0x20 DUP3 DUP5 SUB SLT ISZERO PUSH2 0x3861 JUMPI PUSH1 0x0 DUP1 REVERT JUMPDEST POP MLOAD SWAP2 SWAP1 POP JUMP JUMPDEST PUSH1 0x0 PUSH1 0x20 DUP3 DUP5 SUB SLT ISZERO PUSH2 0x387A JUMPI PUSH1 0x0 DUP1 REVERT JUMPDEST DUP2 MLOAD DUP1 ISZERO ISZERO DUP2 EQ PUSH2 0x2698 JUMPI PUSH1 0x0 DUP1 REVERT JUMPDEST PUSH1 0x0 JUMPDEST DUP4 DUP2 LT ISZERO PUSH2 0x38A5 JUMPI DUP2 DUP2 ADD MLOAD DUP4 DUP3 ADD MSTORE PUSH1 0x20 ADD PUSH2 0x388D JUMP JUMPDEST DUP4 DUP2 GT ISZERO PUSH2 0x270A JUMPI POP POP PUSH1 0x0 SWAP2 ADD MSTORE JUMP JUMPDEST PUSH1 0x0 DUP2 MLOAD DUP1 DUP5 MSTORE PUSH2 0x38CE DUP2 PUSH1 0x20 DUP7 ADD PUSH1 0x20 DUP7 ADD PUSH2 0x388A JUMP JUMPDEST PUSH1 0x1F ADD PUSH1 0x1F NOT AND SWAP3 SWAP1 SWAP3 ADD PUSH1 0x20 ADD SWAP3 SWAP2 POP POP JUMP JUMPDEST PUSH1 0x1 DUP1 PUSH1 0xA0 SHL SUB DUP5 AND DUP2 MSTORE DUP3 PUSH1 0x20 DUP3 ADD MSTORE PUSH1 0x60 PUSH1 0x40 DUP3 ADD MSTORE PUSH1 0x0 PUSH2 0x3909 PUSH1 0x60 DUP4 ADD DUP5 PUSH2 0x38B6 JUMP JUMPDEST SWAP6 SWAP5 POP POP POP POP POP JUMP JUMPDEST PUSH1 0x0 DUP3 MLOAD PUSH2 0x3924 DUP2 DUP5 PUSH1 0x20 DUP8 ADD PUSH2 0x388A JUMP JUMPDEST SWAP2 SWAP1 SWAP2 ADD SWAP3 SWAP2 POP POP JUMP JUMPDEST PUSH1 0x20 DUP2 MSTORE PUSH1 0x0 PUSH2 0x2698 PUSH1 0x20 DUP4 ADD DUP5 PUSH2 0x38B6 JUMP INVALID 0xEA RETURNDATACOPY 0x49 ADD 0xEE DUP8 PUSH24 0xD40EE0BDEEDC4514A831FD4C7B59537DF939B09D2DACF148 PUSH8 0x98F4D55A8071907A 0xB4 0xE2 DUP8 0x27 0xC0 MOD CALLCODE 0xA8 LOG3 ISZERO 0xCD DUP13 ADD 0xE1 OR CREATE DIFFICULTY ADDRESS 0xD9 PC PUSH25 0x75AD3DA26469706673582212203AFC38E78BD7BA6A7BF80734 0xDE 0x4A PUSH11 0xA32201F640A4FB2253C919 PUSH6 0x852911D50664 PUSH20 0x6F6C634300080F00330000000000000000000000 ",
  "sha1": "52c430f63e2cb5a489233fb47b0b89f899ced59f",
  "source": "// SPDX-License-Identifier: MIT\npragma solidity 0.8.15;\n\n/**\n\n█▄▄▄▄ ██   ▄████  ▄████  █     ▄███▄   ▄████  ▄█ \n█  ▄▀ █ █  █▀   ▀ █▀   ▀ █     █▀   ▀  █▀   ▀ ██ \n█▀▀▌  █▄▄█ █▀▀    █▀▀    █     ██▄▄    █▀▀    ██ \n█  █  █  █ █      █      ███▄  █▄   ▄▀ █      ▐█ \n  █      █  █      █         ▀ ▀███▀    █      ▐ \n ▀      █    ▀      ▀                    ▀       \n       ▀                                         \n\n Written by: UnT4x3d\n\n RaffleFi© 2022\n\n */\n\nimport \"node_modules/@openzeppelin/contracts-upgradeable/access/OwnableUpgradeable.sol\";\nimport \"node_modules/@openzeppelin/contracts-upgradeable/security/PausableUpgradeable.sol\";\nimport \"node_modules/@openzeppelin/contracts/token/ERC721/IERC721.sol\";\nimport \"node_modules/@openzeppelin/contracts/token/ERC20/IERC20.sol\";\nimport \"node_modules/@openzeppelin/contracts/token/ERC20/utils/SafeERC20.sol\";\nimport \"./utils/VRFConsumerBaseUpgradeable.sol\";\nimport \"node_modules/@openzeppelin/contracts-upgradeable/security/ReentrancyGuardUpgradeable.sol\";\nimport \"node_modules/@openzeppelin/contracts/utils/cryptography/MerkleProof.sol\";\nimport {IWETH} from \"./interfaces/IWETH.sol\";\n\ninterface IRaffleTicketSystem {\n    function assignTicketToUser(address user, uint256 _raffleId, uint256 initTicketId, uint256 endTicketId) external;\n    function getTicketOwner(uint256 _raffleId, uint256 _ticketId) external view returns(address);\n}\n\ncontract RafflePolygon is Initializable, OwnableUpgradeable, PausableUpgradeable, ReentrancyGuardUpgradeable, VRFConsumerBaseUpgradeable {\n    using SafeERC20 for IERC20;\n\n    enum RaffleState {\n        IN_PROGRESS,\n        FINISHED,\n        COMPLETED,\n        REFUNDED,\n        CLAIMED\n    }\n\n    enum RaffleType {\n        ERC721,\n        ERC20\n    }\n\n    struct RaffleData {\n        address assetContract;\n        address raffleOwner;\n        address raffleWinner;\n        RaffleState raffleState;\n        RaffleType raffleType;\n        address currency;\n        bytes32 MerkleRoot;\n        uint128 nftIdOrAmount;\n        uint128 pricePerTicket;\n        uint64 endTimestamp;\n        uint64 numberOfTickets;\n        uint64 ticketsSold;\n        uint64 minimumTicketsSold;\n    }\n\n    struct Order {\n        address owner;\n        address currency;\n        uint128 price;\n    }\n\n    address public relayer;\n    // ERC20 address => isWhitelisted?\n    mapping(address => bool) public whitelistedCurrencies;\n    // raffleID => RaffleData\n    mapping(uint256 => RaffleData) public raffles;\n    // raffleID => FairRaffleFee\n    mapping(uint256 => uint256) public raffleToFairRaffleFee;\n    // RaffleTicketSystem contract that will handle all the secondary sales for Tickets\n    IRaffleTicketSystem public raffleTicketSystem;\n    // ChainlinkRequest => raffleID\n    mapping(bytes32 => uint256) private chainlinkRequestToRaffleID;\n\n    // Number of raffles created so far\n    uint256 public raffleCounter;\n\n    // Chainlink related state variables\n    bytes32 public linkKeyHash;\n    uint256 public linkFee;\n\n    // We can use IWETH interface as the contracts are identical\n    IWETH private constant WMATIC = IWETH(0x0d500B1d8E8eF31E21C99d1Db9A6444d3ADf1270); // WMATIC address in Polygon\n\n    // 2,5% Fee\n    uint256 public FEE_NUMERATOR;\n    uint256 public FEE_DENOMINATOR;\n\n    /**\n        Token address => Amount that owners of the contract can claim as fee rewards\n        address(0) = Matic\n     */\n    mapping(address => uint256) public totalAmountClaimable;\n    // NOTE: Reserved for future upgrades\n    uint256[20] private __gap;\n\n    event MainnetCall(\n        address receiver,\n        address assetContract,\n        bool isERC721,\n        uint256 amountOrNftIdToReceiver,\n        uint256 increaseTotalAmountClaimable\n    );\n    event NewRaffleCreated(uint256 raffleId);\n    event RaffleCancelled(uint256 raffleId);\n    event ERC20CurrencyAdded(address currency);\n    event ERC20CurrencyRemoved(address currency);\n    event RaffleStateChanged(\n        uint256 raffleId, \n        RaffleState oldRaffleState, \n        RaffleState newRaffleState\n    );\n    event NewRaffleTicketBought(\n        uint256 raffleId, \n        address buyer, \n        uint64 numberOfTickets, \n        uint256 initTicketId, \n        uint256 endTicketId\n    );\n    event ChainlinkRequest(bytes32 requestId);\n    event ProtocolFeeUpdated(uint256 oldFee, uint256 newFee);\n    event RaffleTicketContractSet(address newRaffleTicketContract);\n    event RelayerUpdated(address oldRelayerAddress, address newRelayerAddress);\n\n    function initialize(address _relayer, bytes32 _linkKeyHash, uint256 _linkFee, address _vrfCoordinator, address _vrfLinkTokenAddress) public initializer {\n        __Ownable_init();\n        __Pausable_init();\n        __ReentrancyGuard_init();\n        __VRFConsumerBase_init(_vrfCoordinator, _vrfLinkTokenAddress);\n\n        relayer = _relayer;\n        linkKeyHash = _linkKeyHash;\n        linkFee = _linkFee;\n        /** \n         * Matic is whitelisted here = address(0)\n         * Although it is not enabled in the Mainnet contract, which means that no raffles will be bought with matic. \n         * Matic can only be used to purchase tickets, not to buy RaffleTickets directly\n         */\n        whitelistedCurrencies[address(0)] = true;\n        // WETH\n        whitelistedCurrencies[0x7ceB23fD6bC0adD59E62ac25578270cFf1b9f619] = true;\n\n        FEE_NUMERATOR = 250;\n        FEE_DENOMINATOR = 10000;\n    }\n\n    modifier onlyRelayer {\n        require(msg.sender == relayer, \"OnlyRelayer\");\n        _;\n    }\n\n    /**\n     * @notice  Creates a raffle\n     * @param   _raffleData Structure that contains all the data related to the Raffle\n     * @param   _fairRaffleFee FairRaffleFee\n     */\n    function createRaffle(RaffleData memory _raffleData, uint256 _fairRaffleFee) external onlyRelayer whenNotPaused {\n        raffleCounter += 1;\n        // Validation is already done in the MainnetEscrow contract\n        RaffleData storage raffleData = raffles[raffleCounter];\n        raffleData.assetContract = _raffleData.assetContract;\n        raffleData.raffleOwner = _raffleData.raffleOwner;\n        raffleData.raffleState = RaffleState.IN_PROGRESS;\n        raffleData.raffleType = _raffleData.raffleType;\n        raffleData.nftIdOrAmount = _raffleData.nftIdOrAmount;\n        raffleData.currency = _raffleData.currency;\n        raffleData.pricePerTicket = _raffleData.pricePerTicket;\n        raffleData.MerkleRoot = _raffleData.MerkleRoot;\n        raffleData.endTimestamp = _raffleData.endTimestamp;\n        raffleData.numberOfTickets = _raffleData.numberOfTickets;\n        raffleData.minimumTicketsSold = _raffleData.minimumTicketsSold;\n        raffleToFairRaffleFee[raffleCounter] = _fairRaffleFee;\n        emit NewRaffleCreated(raffleCounter);\n    }\n\n    /**\n        * @notice  Allows raffle owners to cancel a raffle if NO tickets were sold yet\n        * @param   _raffleId The ID of the raffle\n    */\n    function cancelRaffle(uint256 _raffleId) external nonReentrant whenNotPaused{\n        RaffleData memory raffleData = raffles[_raffleId];\n        require(msg.sender == raffleData.raffleOwner, \"You cannot cancel someone else's raffle\");\n        require(raffleData.raffleState == RaffleState.IN_PROGRESS, \"This raffle has already ended\");\n        require(raffleData.ticketsSold < 1, \"Tickets have already been bought\");\n\n        // Delete the object from storage\n        delete raffles[_raffleId];\n        // Set is as REFUNDED\n        raffles[_raffleId].raffleState = RaffleState.REFUNDED;\n        emit RaffleStateChanged(_raffleId, RaffleState.IN_PROGRESS, RaffleState.REFUNDED);\n\n        // Check which type of asset \n        if (raffleData.raffleType == RaffleType.ERC721) {\n            // Emit event to refund the raffle owner\n            emit MainnetCall(\n                raffleData.raffleOwner,\n                raffleData.assetContract,\n                true,\n                raffleData.nftIdOrAmount,\n                0\n            );\n            // Give back to the Raffle Owner the FAIR_RAFFLE_FEE paid\n            emit MainnetCall(\n                raffleData.raffleOwner,\n                address(0),\n                false,\n                raffleToFairRaffleFee[_raffleId],\n                0\n            );\n        } \n        else if (raffleData.raffleType == RaffleType.ERC20) {\n            // Emit event to refund the raffle owner\n            emit MainnetCall(\n                raffleData.raffleOwner,\n                raffleData.assetContract,\n                false,\n                raffleData.nftIdOrAmount,\n                0\n            );\n        }\n        emit RaffleCancelled(_raffleId);\n    }\n\n    /**\n     * @notice  Allows users to buy tickets for a Raffle\n     * @param   _raffleId The ID of the raffle the user wants to buy a ticket for\n     * @param   _numberOfTickets The number of tickets a user wants to buy \n     * @param   _merkleProof MerkleProof used to verify user is part of the whitelist \n     */\n    function buyRaffleTicket(uint256 _raffleId, uint64 _numberOfTickets, bytes32[] calldata _merkleProof) external whenNotPaused {\n        RaffleData memory raffleData = raffles[_raffleId];\n        require(raffleData.raffleOwner != address(0), \"This raffle does not exist\");\n        require(block.timestamp < raffleData.endTimestamp, \"This raffle has already ended\");\n        require(raffleData.raffleState == RaffleState.IN_PROGRESS, \"This raffle has already ended\");\n        require(raffleData.ticketsSold < raffleData.numberOfTickets, \"Tickets sold out\");\n        require(_numberOfTickets <= (raffleData.numberOfTickets - raffleData.ticketsSold), \"There are not so many tickets available to buy\");\n        if(raffleData.MerkleRoot != bytes32(0)){\n            bytes32 leaf = keccak256(abi.encodePacked(msg.sender));\n            require(MerkleProof.verify(_merkleProof, raffleData.MerkleRoot, leaf), \"User not whitelisted\");\n        }\n        // Handle the payment\n        IERC20(raffleData.currency).safeTransferFrom(msg.sender, address(this), _numberOfTickets * raffleData.pricePerTicket);\n        // Assign the tickets to the buyer\n        uint256 initTicketId = raffleData.ticketsSold;\n        uint256 endTicketId = initTicketId + _numberOfTickets - 1;\n        raffleTicketSystem.assignTicketToUser(msg.sender, _raffleId, initTicketId, endTicketId);\n        raffles[_raffleId].ticketsSold += _numberOfTickets; \n        emit NewRaffleTicketBought(_raffleId, msg.sender, _numberOfTickets, initTicketId, endTicketId);\n    }\n\n    /**\n     * @notice  Allows users to complete a Raffle. The winner of the raffle will receive the asset.\n                The owner of the raffle will receive his payment\n                Cron job will call daily all the pending raffles. Users can also call it\n     * @param   _raffleId The ID of the raffle the user wants to buy a ticket for\n     */\n    function completeRaffle(uint256 _raffleId) external whenNotPaused {\n        RaffleData memory raffleData = raffles[_raffleId];\n        require(raffleData.raffleOwner != address(0), \"This raffle does not exist\");\n        require(raffleData.raffleState == RaffleState.IN_PROGRESS, \"This raffle was already completed\");\n        if (raffleData.ticketsSold != raffleData.numberOfTickets){\n            require(block.timestamp >= raffleData.endTimestamp, \"Raffle is not completed\");\n        }\n        // In this case we must refund all the ticket buyers\n        if (raffleData.ticketsSold < raffleData.minimumTicketsSold){\n            // Send the asset back to the raffleOwner\n            if (raffleData.raffleType == RaffleType.ERC721){\n                emit MainnetCall(\n                    raffleData.raffleOwner,\n                    raffleData.assetContract,\n                    true,\n                    raffleData.nftIdOrAmount,\n                    0\n                );\n            }\n            if (raffleData.raffleType == RaffleType.ERC20){\n                emit MainnetCall(\n                    raffleData.raffleOwner,\n                    raffleData.assetContract,\n                    true,\n                    raffleData.nftIdOrAmount - raffleToFairRaffleFee[_raffleId],\n                    raffleToFairRaffleFee[_raffleId] // Take ownership of the FAIR_RAFFLE_FEE paid by the Raffle Owner\n                );\n            }\n            raffles[_raffleId].raffleState = RaffleState.REFUNDED;\n            emit RaffleStateChanged(_raffleId, RaffleState.IN_PROGRESS, RaffleState.REFUNDED);\n        }\n        // Normal flow\n        else {\n            // This will mark the raffle State as FINISHED. Can only be called once.\n            bytes32 request = _requestRandomness(_raffleId);\n            emit ChainlinkRequest(request);\n            chainlinkRequestToRaffleID[request] = _raffleId;\n        }\n    }\n\n    /**\n     * @notice  Allows users to claim the raffle. Owner of the raffle will receive the payment and the winner his asset\n     * @param   _raffleId The ID of the raffle the user wants to buy a ticket for\n     */\n    function claimRaffle(uint256 _raffleId) external nonReentrant whenNotPaused {\n        RaffleData storage raffleData = raffles[_raffleId];\n        require(raffleData.raffleOwner != address(0), \"This raffle does not exist\");\n        require(raffleData.raffleState == RaffleState.COMPLETED, \"This raffle was already completed\");\n\n        raffleData.raffleState = RaffleState.CLAIMED;\n        emit RaffleStateChanged(_raffleId, RaffleState.COMPLETED, RaffleState.CLAIMED);\n\n        address raffleOwner = raffleData.raffleOwner;\n        address winner = raffleData.raffleWinner;\n\n        // Sending the asset to the winner\n        if (raffleData.raffleType == RaffleType.ERC721){\n            emit MainnetCall(\n                winner,\n                raffleData.assetContract,\n                true,\n                raffleData.nftIdOrAmount,\n                0\n            );\n            // Give back to the Raffle Owner the FAIR_RAFFLE_FEE paid\n            emit MainnetCall(\n                raffleData.raffleOwner,\n                address(0),\n                false,\n                raffleToFairRaffleFee[_raffleId],\n                0\n            );\n        }\n        if (raffleData.raffleType == RaffleType.ERC20){\n            emit MainnetCall(\n                winner,\n                raffleData.assetContract,\n                false,\n                raffleData.nftIdOrAmount,\n                0\n            );\n        }\n\n        uint256 totalAmountEarned = raffleData.ticketsSold * raffleData.pricePerTicket;\n        uint256 fee = (totalAmountEarned * FEE_NUMERATOR) / FEE_DENOMINATOR;\n        totalAmountEarned -= fee;\n        address raffleCurrency = raffleData.currency;\n        totalAmountClaimable[raffleCurrency] += fee;\n\n        // Payments to the raffle owner\n        IERC20(raffleCurrency).safeTransfer(raffleOwner, totalAmountEarned);\n    }\n\n    /**\n     * @notice  Allows users to claim a cancelled raffle where they will receive their initially payment\n     * @param   _raffleId The ID of the raffle the user wants to buy a ticket for\n     * @param   ticketIds Array of ticketIds to claim\n     */\n    function claimCancelledRaffle(uint256 _raffleId, uint256[] calldata ticketIds) external nonReentrant whenNotPaused{\n        RaffleData memory raffleData = raffles[_raffleId];\n        require(raffleData.raffleState == RaffleState.REFUNDED, \"Raffle is not in REFUNDED state\");\n        uint256 len = ticketIds.length;\n        for(uint i; i < len; ++i){\n            require(raffleTicketSystem.getTicketOwner(_raffleId, ticketIds[i]) == msg.sender, \"You do not own this ticket Id\");\n            raffleTicketSystem.assignTicketToUser(address(0), _raffleId, ticketIds[i], ticketIds[i]);\n        }\n        uint256 totalRefund = len * raffleData.pricePerTicket;\n        IERC20(raffleData.currency).safeTransfer(msg.sender, totalRefund);\n    }\n\n    /** ############################################################################################\n     *              INTERNAL/PRIVATE FUNCTIONS\n     *  ############################################################################################\n     */\n\n    function _requestRandomness(uint256 _raffleId) internal returns (bytes32 requestId) {\n        require(LINK.balanceOf(address(this)) >= linkFee, \"Not enough LINK\");\n        RaffleData storage raffleData = raffles[_raffleId];\n        raffleData.raffleState = RaffleState.FINISHED;\n        emit RaffleStateChanged(_raffleId, RaffleState.IN_PROGRESS, RaffleState.FINISHED);\n        requestId = requestRandomness(linkKeyHash, linkFee);\n    }\n\n    function fulfillRandomness(bytes32 requestId, uint256 randomness) internal override {\n        uint256 raffleId = chainlinkRequestToRaffleID[requestId];\n        RaffleData storage raffleData = raffles[raffleId];\n        raffleData.raffleState = RaffleState.COMPLETED;\n        emit RaffleStateChanged(raffleId, RaffleState.FINISHED, RaffleState.COMPLETED);\n        // Picking up the winner\n        uint256 winningIndex = randomness % raffleData.ticketsSold;\n        raffleData.raffleWinner = raffleTicketSystem.getTicketOwner(raffleId, winningIndex);\n    }\n\n    //TODO: REMOVE AFTER TESTING\n    function fulfillRandomnessTest(bytes32 requestId, uint256 randomness) external {\n        fulfillRandomness(requestId, randomness);\n    }\n\n    /**\n     *  Function to handle native transfers\n     */\n    function _handleNativeTransfer(address _dest, uint256 _amount) internal {\n        // Handle MATIC payment\n        require(address(this).balance >= _amount, \"_handleNativeTransfer insolvent\");\n        uint256 gas =  gasleft();\n        (bool success, ) = _dest.call{value: _amount, gas: gas}(\"\");\n        // If the MATIC transfer fails, wrap the MATIC and try to send it as WMATIC.\n        if (!success) {\n            WMATIC.deposit{value: _amount}();\n            IERC20(address(WMATIC)).safeTransfer(_dest, _amount);\n        }\n    }\n\n    /** ############################################################################################\n     *              ONLYOWNER FUNCTIONS\n     *  ############################################################################################\n     */\n\n    /**\n     * @notice  Used to pause/unpause the smart contract by the owner\n     */\n    function togglePause() external onlyOwner {\n        if (!paused()) _pause();\n        else _unpause();\n    }\n\n    /**\n     * @notice  Used to set the contract that will manage all the ticket logic\n     */\n    function setRaffleTicketContract(address _raffleTicketContract) external onlyOwner {\n        raffleTicketSystem = IRaffleTicketSystem(_raffleTicketContract);\n        emit RaffleTicketContractSet(_raffleTicketContract);\n    }\n\n    /**\n     * @notice  Used to set a new relayer account\n     */\n    function setRelayer(address _relayer) external onlyOwner {\n        emit RelayerUpdated(relayer, _relayer);\n        relayer = _relayer;\n    }\n\n    /**\n     * @notice  Used to set the FEE_NUMERATOR by the owner\n     */\n    function setProtocolFee(uint256 _newFeeNumerator) external onlyOwner {\n        require(_newFeeNumerator < 10000, \"Fee must be <= 100 %\");\n        emit ProtocolFeeUpdated(FEE_NUMERATOR, _newFeeNumerator);\n        FEE_NUMERATOR = _newFeeNumerator;\n    }\n\n    /**\n     * @notice  Used to whitelist/blacklist an ERC20 token to be used as a payment currency\n     */\n    function toggleCurrency(address _ERC20TokenAddress) external onlyOwner {\n        if (whitelistedCurrencies[_ERC20TokenAddress]){\n            whitelistedCurrencies[_ERC20TokenAddress] = false;\n            emit ERC20CurrencyRemoved(_ERC20TokenAddress);\n        }\n        else{\n            whitelistedCurrencies[_ERC20TokenAddress] = true;\n            emit ERC20CurrencyAdded(_ERC20TokenAddress);\n        }\n    }\n\n    /**\n     * @notice  Used by the contract owners to claim the fees accrued\n     * @param   _tokenAddress List of tokens to withdraw the fees\n     * @param   _amounts List of amounts that will be withdrawn\n     * @param   _receiver Address that will receive the fees\n     */\n    function withdrawFees(address[] calldata _tokenAddress, uint256[] calldata _amounts, address _receiver) external onlyOwner {\n        uint256 len = _tokenAddress.length;\n        require(len == _amounts.length, \"Array lengths do not match\");\n        uint256 amount;\n        address tokenAddress;\n        for (uint256 i; i < len; ++i) {\n            tokenAddress = _tokenAddress[i];\n            amount = _amounts[i];\n            require(amount <= totalAmountClaimable[tokenAddress], \"Amount too high\");\n            if(tokenAddress == address(0)){\n                _handleNativeTransfer(_receiver, amount);\n            }\n            else{\n                IERC20(tokenAddress).safeTransfer(_receiver, amount);\n            }\n            // No overflow here as => require(amount <= totalAmountClaimable[tokenAddress])\n            unchecked {\n                totalAmountClaimable[tokenAddress] -= amount;\n            }\n        }\n    }\n\n    /** ############################################################################################\n     *                 VIEW FUNCTIONS\n     *  ############################################################################################\n     */\n\n    function getRaffleDetails(uint256 _raffleId) external view returns(RaffleData memory) {\n        require(_raffleId <= raffleCounter, \"The raffle ID does not exist\");\n        return(raffles[_raffleId]);\n    }\n\n    function getRaffleState(uint256 _raffleId) external view returns(RaffleState) {\n        require(_raffleId <= raffleCounter, \"The raffle ID does not exist\");\n        return(raffles[_raffleId].raffleState);\n    }\n\n    function isCurrencyWhitelisted(address _erc20Token) external view returns(bool) {\n        return whitelistedCurrencies[_erc20Token];\n    }\n}",
  "sourcePath": "contracts/RafflePolygon.sol",
  "type": "contract"
}