{
    "abi": [
        {
            "anonymous": false,
            "inputs": [
                {
                    "indexed": false,
                    "internalType": "uint8",
                    "name": "version",
                    "type": "uint8"
                }
            ],
            "name": "Initialized",
            "type": "event"
        },
        {
            "anonymous": false,
            "inputs": [
                {
                    "indexed": true,
                    "internalType": "address",
                    "name": "previousOwner",
                    "type": "address"
                },
                {
                    "indexed": true,
                    "internalType": "address",
                    "name": "newOwner",
                    "type": "address"
                }
            ],
            "name": "OwnershipTransferred",
            "type": "event"
        },
        {
            "anonymous": false,
            "inputs": [
                {
                    "indexed": false,
                    "internalType": "address",
                    "name": "account",
                    "type": "address"
                }
            ],
            "name": "Paused",
            "type": "event"
        },
        {
            "anonymous": false,
            "inputs": [
                {
                    "indexed": false,
                    "internalType": "uint256",
                    "name": "oldFee",
                    "type": "uint256"
                },
                {
                    "indexed": false,
                    "internalType": "uint256",
                    "name": "newFee",
                    "type": "uint256"
                }
            ],
            "name": "ProtocolFeeUpdated",
            "type": "event"
        },
        {
            "anonymous": false,
            "inputs": [
                {
                    "indexed": false,
                    "internalType": "address",
                    "name": "oldRaffleContract",
                    "type": "address"
                },
                {
                    "indexed": false,
                    "internalType": "address",
                    "name": "newRaffleContract",
                    "type": "address"
                }
            ],
            "name": "RaffleContractUpdated",
            "type": "event"
        },
        {
            "anonymous": false,
            "inputs": [
                {
                    "indexed": false,
                    "internalType": "address",
                    "name": "buyer",
                    "type": "address"
                },
                {
                    "indexed": false,
                    "internalType": "address",
                    "name": "seller",
                    "type": "address"
                },
                {
                    "indexed": false,
                    "internalType": "uint256",
                    "name": "raffleId",
                    "type": "uint256"
                },
                {
                    "indexed": false,
                    "internalType": "uint256",
                    "name": "ticketId",
                    "type": "uint256"
                },
                {
                    "indexed": false,
                    "internalType": "address",
                    "name": "currency",
                    "type": "address"
                },
                {
                    "indexed": false,
                    "internalType": "uint128",
                    "name": "price",
                    "type": "uint128"
                }
            ],
            "name": "TicketBoughtFromMarket",
            "type": "event"
        },
        {
            "anonymous": false,
            "inputs": [
                {
                    "indexed": false,
                    "internalType": "address",
                    "name": "buyer",
                    "type": "address"
                },
                {
                    "indexed": false,
                    "internalType": "address",
                    "name": "seller",
                    "type": "address"
                },
                {
                    "indexed": false,
                    "internalType": "uint256",
                    "name": "raffleId",
                    "type": "uint256"
                },
                {
                    "indexed": false,
                    "internalType": "uint256",
                    "name": "ticketId",
                    "type": "uint256"
                },
                {
                    "indexed": false,
                    "internalType": "address",
                    "name": "currency",
                    "type": "address"
                },
                {
                    "indexed": false,
                    "internalType": "uint128",
                    "name": "price",
                    "type": "uint128"
                }
            ],
            "name": "TicketBoughtFromMarketWithSignature",
            "type": "event"
        },
        {
            "anonymous": false,
            "inputs": [
                {
                    "indexed": false,
                    "internalType": "address",
                    "name": "seller",
                    "type": "address"
                },
                {
                    "indexed": false,
                    "internalType": "uint256",
                    "name": "raffleId",
                    "type": "uint256"
                },
                {
                    "indexed": false,
                    "internalType": "uint256",
                    "name": "ticketId",
                    "type": "uint256"
                },
                {
                    "indexed": false,
                    "internalType": "address",
                    "name": "currency",
                    "type": "address"
                },
                {
                    "indexed": false,
                    "internalType": "uint128",
                    "name": "price",
                    "type": "uint128"
                }
            ],
            "name": "TicketSellOrderCancelled",
            "type": "event"
        },
        {
            "anonymous": false,
            "inputs": [
                {
                    "indexed": false,
                    "internalType": "address",
                    "name": "seller",
                    "type": "address"
                },
                {
                    "indexed": false,
                    "internalType": "uint256",
                    "name": "raffleId",
                    "type": "uint256"
                },
                {
                    "indexed": false,
                    "internalType": "uint256",
                    "name": "ticketId",
                    "type": "uint256"
                },
                {
                    "indexed": false,
                    "internalType": "address",
                    "name": "currency",
                    "type": "address"
                },
                {
                    "indexed": false,
                    "internalType": "uint128",
                    "name": "price",
                    "type": "uint128"
                }
            ],
            "name": "TicketSellOrderCreated",
            "type": "event"
        },
        {
            "anonymous": false,
            "inputs": [
                {
                    "indexed": false,
                    "internalType": "address",
                    "name": "account",
                    "type": "address"
                }
            ],
            "name": "Unpaused",
            "type": "event"
        },
        {
            "inputs": [],
            "name": "FEE_DENOMINATOR",
            "outputs": [
                {
                    "internalType": "uint256",
                    "name": "",
                    "type": "uint256"
                }
            ],
            "stateMutability": "view",
            "type": "function"
        },
        {
            "inputs": [],
            "name": "FEE_NUMERATOR",
            "outputs": [
                {
                    "internalType": "uint256",
                    "name": "",
                    "type": "uint256"
                }
            ],
            "stateMutability": "view",
            "type": "function"
        },
        {
            "inputs": [
                {
                    "internalType": "address",
                    "name": "user",
                    "type": "address"
                },
                {
                    "internalType": "uint256",
                    "name": "_raffleId",
                    "type": "uint256"
                },
                {
                    "internalType": "uint256",
                    "name": "initTicketId",
                    "type": "uint256"
                },
                {
                    "internalType": "uint256",
                    "name": "endTicketId",
                    "type": "uint256"
                }
            ],
            "name": "assignTicketToUser",
            "outputs": [],
            "stateMutability": "nonpayable",
            "type": "function"
        },
        {
            "inputs": [
                {
                    "internalType": "uint256",
                    "name": "_raffleId",
                    "type": "uint256"
                },
                {
                    "internalType": "uint256",
                    "name": "_ticketId",
                    "type": "uint256"
                },
                {
                    "internalType": "address",
                    "name": "_currency",
                    "type": "address"
                },
                {
                    "internalType": "uint128",
                    "name": "_price",
                    "type": "uint128"
                },
                {
                    "internalType": "address",
                    "name": "_buyer",
                    "type": "address"
                },
                {
                    "internalType": "bytes32",
                    "name": "_r",
                    "type": "bytes32"
                },
                {
                    "internalType": "bytes32",
                    "name": "_s",
                    "type": "bytes32"
                },
                {
                    "internalType": "uint8",
                    "name": "_v",
                    "type": "uint8"
                }
            ],
            "name": "buyTicketWithSignature",
            "outputs": [],
            "stateMutability": "payable",
            "type": "function"
        },
        {
            "inputs": [
                {
                    "internalType": "uint256",
                    "name": "_raffleId",
                    "type": "uint256"
                },
                {
                    "internalType": "uint256",
                    "name": "_ticketId",
                    "type": "uint256"
                }
            ],
            "name": "cancelSellOrder",
            "outputs": [],
            "stateMutability": "nonpayable",
            "type": "function"
        },
        {
            "inputs": [
                {
                    "internalType": "uint256",
                    "name": "_raffleId",
                    "type": "uint256"
                },
                {
                    "internalType": "uint256",
                    "name": "_ticketId",
                    "type": "uint256"
                }
            ],
            "name": "getTicketOwner",
            "outputs": [
                {
                    "internalType": "address",
                    "name": "",
                    "type": "address"
                }
            ],
            "stateMutability": "view",
            "type": "function"
        },
        {
            "inputs": [
                {
                    "internalType": "address",
                    "name": "_rafflePolygon",
                    "type": "address"
                }
            ],
            "name": "initialize",
            "outputs": [],
            "stateMutability": "nonpayable",
            "type": "function"
        },
        {
            "inputs": [],
            "name": "name",
            "outputs": [
                {
                    "internalType": "string",
                    "name": "",
                    "type": "string"
                }
            ],
            "stateMutability": "view",
            "type": "function"
        },
        {
            "inputs": [
                {
                    "internalType": "address",
                    "name": "",
                    "type": "address"
                }
            ],
            "name": "nonce",
            "outputs": [
                {
                    "internalType": "uint256",
                    "name": "",
                    "type": "uint256"
                }
            ],
            "stateMutability": "view",
            "type": "function"
        },
        {
            "inputs": [],
            "name": "owner",
            "outputs": [
                {
                    "internalType": "address",
                    "name": "",
                    "type": "address"
                }
            ],
            "stateMutability": "view",
            "type": "function"
        },
        {
            "inputs": [],
            "name": "paused",
            "outputs": [
                {
                    "internalType": "bool",
                    "name": "",
                    "type": "bool"
                }
            ],
            "stateMutability": "view",
            "type": "function"
        },
        {
            "inputs": [
                {
                    "internalType": "uint256",
                    "name": "_raffleId",
                    "type": "uint256"
                },
                {
                    "internalType": "uint256",
                    "name": "_ticketId",
                    "type": "uint256"
                },
                {
                    "internalType": "address",
                    "name": "_buyer",
                    "type": "address"
                },
                {
                    "internalType": "address",
                    "name": "_currency",
                    "type": "address"
                },
                {
                    "internalType": "uint256",
                    "name": "_price",
                    "type": "uint256"
                }
            ],
            "name": "postBuyOrder",
            "outputs": [],
            "stateMutability": "payable",
            "type": "function"
        },
        {
            "inputs": [
                {
                    "internalType": "uint256",
                    "name": "_raffleId",
                    "type": "uint256"
                },
                {
                    "internalType": "uint256",
                    "name": "_ticketId",
                    "type": "uint256"
                },
                {
                    "internalType": "address",
                    "name": "_currency",
                    "type": "address"
                },
                {
                    "internalType": "uint128",
                    "name": "_price",
                    "type": "uint128"
                }
            ],
            "name": "postSellOrder",
            "outputs": [],
            "stateMutability": "nonpayable",
            "type": "function"
        },
        {
            "inputs": [],
            "name": "rafflePolygon",
            "outputs": [
                {
                    "internalType": "contract IRafflePolygon",
                    "name": "",
                    "type": "address"
                }
            ],
            "stateMutability": "view",
            "type": "function"
        },
        {
            "inputs": [
                {
                    "internalType": "uint256",
                    "name": "",
                    "type": "uint256"
                },
                {
                    "internalType": "uint256",
                    "name": "",
                    "type": "uint256"
                }
            ],
            "name": "raffleTickets",
            "outputs": [
                {
                    "internalType": "address",
                    "name": "",
                    "type": "address"
                }
            ],
            "stateMutability": "view",
            "type": "function"
        },
        {
            "inputs": [],
            "name": "renounceOwnership",
            "outputs": [],
            "stateMutability": "nonpayable",
            "type": "function"
        },
        {
            "inputs": [
                {
                    "internalType": "address",
                    "name": "_newRaffleContract",
                    "type": "address"
                }
            ],
            "name": "setNewRaffleContract",
            "outputs": [],
            "stateMutability": "nonpayable",
            "type": "function"
        },
        {
            "inputs": [
                {
                    "internalType": "uint256",
                    "name": "_newFeeNumerator",
                    "type": "uint256"
                }
            ],
            "name": "setProtocolFee",
            "outputs": [],
            "stateMutability": "nonpayable",
            "type": "function"
        },
        {
            "inputs": [
                {
                    "internalType": "uint256",
                    "name": "",
                    "type": "uint256"
                },
                {
                    "internalType": "uint256",
                    "name": "",
                    "type": "uint256"
                }
            ],
            "name": "ticketOrders",
            "outputs": [
                {
                    "internalType": "address",
                    "name": "owner",
                    "type": "address"
                },
                {
                    "internalType": "address",
                    "name": "currency",
                    "type": "address"
                },
                {
                    "internalType": "uint128",
                    "name": "price",
                    "type": "uint128"
                }
            ],
            "stateMutability": "view",
            "type": "function"
        },
        {
            "inputs": [],
            "name": "togglePause",
            "outputs": [],
            "stateMutability": "nonpayable",
            "type": "function"
        },
        {
            "inputs": [
                {
                    "internalType": "address",
                    "name": "",
                    "type": "address"
                }
            ],
            "name": "totalAmountClaimable",
            "outputs": [
                {
                    "internalType": "uint256",
                    "name": "",
                    "type": "uint256"
                }
            ],
            "stateMutability": "view",
            "type": "function"
        },
        {
            "inputs": [
                {
                    "internalType": "address",
                    "name": "newOwner",
                    "type": "address"
                }
            ],
            "name": "transferOwnership",
            "outputs": [],
            "stateMutability": "nonpayable",
            "type": "function"
        },
        {
            "inputs": [],
            "name": "version",
            "outputs": [
                {
                    "internalType": "string",
                    "name": "",
                    "type": "string"
                }
            ],
            "stateMutability": "view",
            "type": "function"
        },
        {
            "inputs": [
                {
                    "internalType": "address[]",
                    "name": "_tokenAddress",
                    "type": "address[]"
                },
                {
                    "internalType": "uint256[]",
                    "name": "_amounts",
                    "type": "uint256[]"
                },
                {
                    "internalType": "address",
                    "name": "_receiver",
                    "type": "address"
                }
            ],
            "name": "withdrawFees",
            "outputs": [],
            "stateMutability": "nonpayable",
            "type": "function"
        }
    ],
    "bytecode": "608060405234801561001057600080fd5b506126f3806100206000396000f3fe60806040526004361061014b5760003560e01c80637678c27f116100b6578063c4d66de81161006f578063c4d66de814610474578063d73792a914610494578063e51dfd90146104aa578063e762f59f146104ca578063e8ce50b1146104ea578063f2fde38b146104fd57600080fd5b80637678c27f14610355578063787dce3d146103e15780638da5cb5b146104015780639f5609931461041f578063a21afc7614610432578063c4ae31681461045f57600080fd5b80635c975abb116101085780635c975abb146102905780635ceb1e1a146102b35780635f773d7f146102d35780637094303b146102f357806370ae92d214610313578063715018a61461034057600080fd5b806306fdde03146101505780630a82e3f9146101a457806331f91a84146101c65780633a1ec473146101e657806341cd47bf1461023f57806354fd4d5014610263575b600080fd5b34801561015c57600080fd5b5061018e60405180604001604052806012815260200171526166666c655469636b657453797374656d60701b81525081565b60405161019b9190612183565b60405180910390f35b3480156101b057600080fd5b506101c46101bf3660046121d2565b61051d565b005b3480156101d257600080fd5b506101c46101e1366004612257565b6105c3565b3480156101f257600080fd5b506102276102013660046122d8565b60ca6020908152600092835260408084209091529082529020546001600160a01b031681565b6040516001600160a01b03909116815260200161019b565b34801561024b57600080fd5b5061025560cc5481565b60405190815260200161019b565b34801561026f57600080fd5b5061018e604051806040016040528060018152602001603160f81b81525081565b34801561029c57600080fd5b5060655460ff16604051901515815260200161019b565b3480156102bf57600080fd5b506101c46102ce3660046122fa565b61073f565b3480156102df57600080fd5b506102276102ee3660046122d8565b6107b0565b3480156102ff57600080fd5b506101c461030e36600461232c565b61081d565b34801561031f57600080fd5b5061025561032e3660046122fa565b60cf6020526000908152604090205481565b34801561034c57600080fd5b506101c4610a65565b34801561036157600080fd5b506103b26103703660046122d8565b60cb6020908152600092835260408084209091529082529020805460018201546002909201546001600160a01b0391821692909116906001600160801b031683565b604080516001600160a01b0394851681529390921660208401526001600160801b03169082015260600161019b565b3480156103ed57600080fd5b506101c46103fc366004612372565b610a79565b34801561040d57600080fd5b506033546001600160a01b0316610227565b6101c461042d36600461238b565b610b0a565b34801561043e57600080fd5b5061025561044d3660046122fa565b60ce6020526000908152604090205481565b34801561046b57600080fd5b506101c4611082565b34801561048057600080fd5b506101c461048f3660046122fa565b6110a4565b3480156104a057600080fd5b5061025560cd5481565b3480156104b657600080fd5b506101c46104c53660046122d8565b6111ec565b3480156104d657600080fd5b5060c954610227906001600160a01b031681565b6101c46104f83660046123d9565b611327565b34801561050957600080fd5b506101c46105183660046122fa565b6119bb565b60c9546001600160a01b031633146105715760405162461bcd60e51b815260206004820152601260248201527113db9b1e549859999b1950dbdb9d1c9858dd60721b60448201526064015b60405180910390fd5b815b8181116105bc57600084815260ca60209081526040808320868452909152902080546001600160a01b0319166001600160a01b0387161790556105b581612474565b9050610573565b5050505050565b6105cb611a34565b8382811461061b5760405162461bcd60e51b815260206004820152601a60248201527f4172726179206c656e6774687320646f206e6f74206d617463680000000000006044820152606401610568565b60008060005b838110156107345788888281811061063b5761063b61248d565b905060200201602081019061065091906122fa565b91508686828181106106645761066461248d565b90506020020135925060ce6000836001600160a01b03166001600160a01b03168152602001908152602001600020548311156106d45760405162461bcd60e51b815260206004820152600f60248201526e082dadeeadce840e8dede40d0d2ced608b1b6044820152606401610568565b6001600160a01b0382166106f1576106ec8584611a8e565b610705565b6107056001600160a01b0383168685611bd2565b6001600160a01b038216600090815260ce602052604090208054849003905561072d81612474565b9050610621565b505050505050505050565b610747611a34565b60c954604080516001600160a01b03928316815291831660208301527f64a755f8ca202dce0957a8e670844e8baa0d23ad470f1e987dda75b4a750cae5910160405180910390a160c980546001600160a01b0319166001600160a01b0392909216919091179055565b600082815260ca602090815260408083208484529091528120546001600160a01b0316806108165760405162461bcd60e51b81526020600482015260136024820152722a34b1b5b2ba103430b99037379037bbb732b960691b6044820152606401610568565b9392505050565b610825611c3a565b600084815260ca602090815260408083208684529091529020546001600160a01b031633146108965760405162461bcd60e51b815260206004820152601a60248201527f596f7520646f206e6f74206f776e2074686973207469636b65740000000000006044820152606401610568565b60c9546040516343b938c560e01b81526001600160a01b038481166004830152909116906343b938c590602401602060405180830381865afa1580156108e0573d6000803e3d6000fd5b505050506040513d601f19601f8201168201806040525081019061090491906124a3565b6109205760405162461bcd60e51b8152600401610568906124c5565b60c954604051631599ddf360e21b8152600481018690526000916001600160a01b03169063566777cc90602401602060405180830381865afa15801561096a573d6000803e3d6000fd5b505050506040513d601f19601f8201168201806040525081019061098e9190612512565b600481111561099f5761099f6124fc565b146109bc5760405162461bcd60e51b815260040161056890612533565b600084815260cb60209081526040808320868452909152908190208054336001600160a01b0319918216811783556001830180549092166001600160a01b038716179091556002820180546001600160801b0319166001600160801b038616179055915190917fe25f318179f8b2e7117f1bbe46d0c32e76e31ba60e7717909b0279a1dec5613391610a5691908890889088908890612568565b60405180910390a15050505050565b610a6d611a34565b610a776000611c80565b565b610a81611a34565b6127108110610ac95760405162461bcd60e51b8152602060048201526014602482015273466565206d757374206265203c3d20313030202560601b6044820152606401610568565b60cc5460408051918252602082018390527fb404cac19fb1cbeff98d325795b08886e3cd8fe8cb1a2f193aac66f13fb239c3910160405180910390a160cc55565b600260975403610b5c5760405162461bcd60e51b815260206004820152601f60248201527f5265656e7472616e637947756172643a207265656e7472616e742063616c6c006044820152606401610568565b6002609755610b69611c3a565b600085815260cb60209081526040808320878452825291829020825160608101845281546001600160a01b039081168083526001840154909116938201939093526002909101546001600160801b031692810192909252610c0c5760405162461bcd60e51b815260206004820152601960248201527f54686973206f7264657220646f6573206e6f74206578697374000000000000006044820152606401610568565b600086815260ca6020908152604080832088845290915290205481516001600160a01b03908116911614610c7b5760405162461bcd60e51b81526020600482015260166024820152752a34b1b5b2ba103430b99030903732bb9037bbb732b960511b6044820152606401610568565b60c95460208201516040516343b938c560e01b81526001600160a01b0391821660048201529116906343b938c590602401602060405180830381865afa158015610cc9573d6000803e3d6000fd5b505050506040513d601f19601f82011682018060405250810190610ced91906124a3565b610d095760405162461bcd60e51b8152600401610568906124c5565b60c954604051631599ddf360e21b8152600481018890526000916001600160a01b03169063566777cc90602401602060405180830381865afa158015610d53573d6000803e3d6000fd5b505050506040513d601f19601f82011682018060405250810190610d779190612512565b6004811115610d8857610d886124fc565b14610da55760405162461bcd60e51b815260040161056890612533565b826001600160a01b031681602001516001600160a01b031614610e015760405162461bcd60e51b815260206004820152601460248201527310dd5c9c995b98de481dd85cc818da185b99d95960621b6044820152606401610568565b8181604001516001600160801b031614610e515760405162461bcd60e51b8152602060048201526011602482015270141c9a58d9481dd85cc818da185b99d959607a1b6044820152606401610568565b600060cd5460cc5483604001516001600160801b0316610e7191906125a3565b610e7b91906125c2565b905060008183604001516001600160801b0316610e9891906125e4565b60208401519091506001600160a01b0316610f535782604001516001600160801b03163414610f015760405162461bcd60e51b81526020600482015260156024820152744d61746963207061796d656e7420746f6f206c6f7760581b6044820152606401610568565b8251610f0d9082611a8e565b600080805260ce6020527fd3f5862f6f80175da7514904f3a889cc3cc8c4f3af5129e28cdeaee2baa6efc48054849290610f489084906125fb565b90915550610fbf9050565b6020830151610f6d906001600160a01b0316333085611cd2565b82516020840151610f8c916001600160a01b0390911690339084611cd2565b6020808401516001600160a01b0316600090815260ce909152604081208054849290610fb99084906125fb565b90915550505b600088815260cb602090815260408083208a8452825280832080546001600160a01b0319908116825560018201805482169055600290910180546001600160801b03191690558b845260ca83528184208b855283529281902080549093166001600160a01b038a16179092558451908501518583015192517fb1654d435f5f4797513d52142c36c297361ffe87e796c10ca7b2d24003cc274b9361106b938b9390928e928e9291612613565b60405180910390a150506001609755505050505050565b61108a611a34565b60655460ff1661109c57610a77611d0a565b610a77611d64565b600054610100900460ff16158080156110c45750600054600160ff909116105b806110de5750303b1580156110de575060005460ff166001145b6111415760405162461bcd60e51b815260206004820152602e60248201527f496e697469616c697a61626c653a20636f6e747261637420697320616c72656160448201526d191e481a5b9a5d1a585b1a5e995960921b6064820152608401610568565b6000805460ff191660011790558015611164576000805461ff0019166101001790555b61116c611d9d565b611174611dcc565b61117c611dfb565b60c980546001600160a01b0319166001600160a01b03841617905560fa60cc5561271060cd5580156111e8576000805461ff0019169055604051600181527f7f26b83ff96e1f2b6a682f133852f6798a09c465da95921460cefb38474024989060200160405180910390a15b5050565b6111f4611c3a565b600082815260cb60209081526040808320848452825291829020825160608101845281546001600160a01b039081168083526001840154909116938201939093526002909101546001600160801b03169281019290925233146112995760405162461bcd60e51b815260206004820152601960248201527f596f7520646f206e6f74206f776e2074686973206f72646572000000000000006044820152606401610568565b600083815260cb6020908152604080832085845282529182902080546001600160a01b03199081168255600182018054909116905560020180546001600160801b03191690558201518282015191517fdfb5dfaa81a89e8e8da092a59e3090660afd72b8533c2ab9bb7bd4fb7b9c5e069261131a9233928892889291612568565b60405180910390a1505050565b6002609754036113795760405162461bcd60e51b815260206004820152601f60248201527f5265656e7472616e637947756172643a207265656e7472616e742063616c6c006044820152606401610568565b6002609755611386611c3a565b600088815260ca602090815260408083208a84529091529020546001600160a01b0316806113f65760405162461bcd60e51b815260206004820152601a60248201527f54686973207469636b657420646f6573206e6f742065786973740000000000006044820152606401610568565b60c9546040516343b938c560e01b81526001600160a01b038981166004830152909116906343b938c590602401602060405180830381865afa158015611440573d6000803e3d6000fd5b505050506040513d601f19601f8201168201806040525081019061146491906124a3565b6114805760405162461bcd60e51b8152600401610568906124c5565b60c954604051631599ddf360e21b8152600481018b90526000916001600160a01b03169063566777cc90602401602060405180830381865afa1580156114ca573d6000803e3d6000fd5b505050506040513d601f19601f820116820180604052508101906114ee9190612512565b60048111156114ff576114ff6124fc565b1461151c5760405162461bcd60e51b815260040161056890612533565b6040805180820182526012815271526166666c655469636b657453797374656d60701b6020918201528151808301835260018152603160f81b9082015281517f8b73c3c69bb8fe3d512ecc4cf759cc79239f7b179b0ffacaa9a75d522b39400f918101919091527f72e9c93a6b376f05f6822dd34497adaf2ccd61484cd34c63ba261bd20821e901918101919091527fc89efdaa54c0f20c7adf612882df0950f5a951637e0307cdcb4c672f298b8bc660608201524660808201523060a082015260009060c00160408051601f1981840301815282825280516020918201206001600160a01b03808716600090815260cf8452848120547fd5d8257c00a566d5e44ac531fbd43c4e3dbaa0debf869f903785354681aea9ad948701949094523394860194909452606085018f9052608085018e90528c1660a08501526001600160801b038b1660c085015260e084019190915292509061010001604051602081830303815290604052805190602001209050600082826040516020016116b992919061190160f01b81526002810192909252602282015260420190565b60408051601f198184030181528282528051602091820120600080855291840180845281905260ff891692840192909252606083018a9052608083018990529092509060019060a0016020604051602081039080840390855afa158015611724573d6000803e3d6000fd5b505050602060405103519050846001600160a01b0316816001600160a01b0316146117855760405162461bcd60e51b8152602060048201526011602482015270496e76616c6964207369676e617475726560781b6044820152606401610568565b505050506001600160a01b038116600090815260cf602052604081208054600192906117b29084906125fb565b909155505060cd5460cc54600091906117d4906001600160801b038a166125a3565b6117de91906125c2565b905060006117f5826001600160801b038a166125e4565b90506001600160a01b0389166118a557876001600160801b031634146118555760405162461bcd60e51b81526020600482015260156024820152744d61746963207061796d656e7420746f6f206c6f7760581b6044820152606401610568565b61185f8382611a8e565b600080805260ce6020527fd3f5862f6f80175da7514904f3a889cc3cc8c4f3af5129e28cdeaee2baa6efc4805484929061189a9084906125fb565b909155506118fd9050565b6118ba6001600160a01b038a16333085611cd2565b6118cf6001600160a01b038a16338584611cd2565b6001600160a01b038916600090815260ce6020526040812080548492906118f79084906125fb565b90915550505b60008b815260ca602090815260408083208d8452825280832080546001600160a01b038c166001600160a01b0319918216179091558e845260cb83528184208e85529092529182902080548216815560018101805490921690915560020180546001600160801b0319169055517f31ff2bc8e03b9217d7964447f662fd5df92f892f5f349c6537482b1bf6aca934906119a190899086908f908f908f908f90612613565b60405180910390a150506001609755505050505050505050565b6119c3611a34565b6001600160a01b038116611a285760405162461bcd60e51b815260206004820152602660248201527f4f776e61626c653a206e6577206f776e657220697320746865207a65726f206160448201526564647265737360d01b6064820152608401610568565b611a3181611c80565b50565b6033546001600160a01b03163314610a775760405162461bcd60e51b815260206004820181905260248201527f4f776e61626c653a2063616c6c6572206973206e6f7420746865206f776e65726044820152606401610568565b80471015611ade5760405162461bcd60e51b815260206004820152601f60248201527f5f68616e646c654e61746976655472616e7366657220696e736f6c76656e74006044820152606401610568565b60005a90506000836001600160a01b0316838390604051600060405180830381858888f193505050503d8060008114611b33576040519150601f19603f3d011682016040523d82523d6000602084013e611b38565b606091505b5050905080611bcc57730d500b1d8e8ef31e21c99d1db9a6444d3adf12706001600160a01b031663d0e30db0846040518263ffffffff1660e01b81526004016000604051808303818588803b158015611b9057600080fd5b505af1158015611ba4573d6000803e3d6000fd5b50611bcc9350730d500b1d8e8ef31e21c99d1db9a6444d3adf12709250879150869050611bd2565b50505050565b6040516001600160a01b038316602482015260448101829052611c3590849063a9059cbb60e01b906064015b60408051601f198184030181529190526020810180516001600160e01b03166001600160e01b031990931692909217909152611e2a565b505050565b60655460ff1615610a775760405162461bcd60e51b815260206004820152601060248201526f14185d5cd8589b194e881c185d5cd95960821b6044820152606401610568565b603380546001600160a01b038381166001600160a01b0319831681179093556040519116919082907f8be0079c531659141344cd1fd0a4f28419497f9722a3daafe3b4186f6b6457e090600090a35050565b6040516001600160a01b0380851660248301528316604482015260648101829052611bcc9085906323b872dd60e01b90608401611bfe565b611d12611c3a565b6065805460ff191660011790557f62e78cea01bee320cd4e420270b5ea74000d11b0c9f74754ebdbfc544b05a258611d473390565b6040516001600160a01b03909116815260200160405180910390a1565b611d6c611efc565b6065805460ff191690557f5db9ee0a495bf2e6ff9c91a7834c1ba4fdd244a5e8aa4e537bd38aeae4b073aa33611d47565b600054610100900460ff16611dc45760405162461bcd60e51b815260040161056890612656565b610a77611f45565b600054610100900460ff16611df35760405162461bcd60e51b815260040161056890612656565b610a77611f75565b600054610100900460ff16611e225760405162461bcd60e51b815260040161056890612656565b610a77611fa8565b6000611e7f826040518060400160405280602081526020017f5361666545524332303a206c6f772d6c6576656c2063616c6c206661696c6564815250856001600160a01b0316611fd69092919063ffffffff16565b805190915015611c355780806020019051810190611e9d91906124a3565b611c355760405162461bcd60e51b815260206004820152602a60248201527f5361666545524332303a204552433230206f7065726174696f6e20646964206e6044820152691bdd081cdd58d8d9595960b21b6064820152608401610568565b60655460ff16610a775760405162461bcd60e51b815260206004820152601460248201527314185d5cd8589b194e881b9bdd081c185d5cd95960621b6044820152606401610568565b600054610100900460ff16611f6c5760405162461bcd60e51b815260040161056890612656565b610a7733611c80565b600054610100900460ff16611f9c5760405162461bcd60e51b815260040161056890612656565b6065805460ff19169055565b600054610100900460ff16611fcf5760405162461bcd60e51b815260040161056890612656565b6001609755565b6060611fe58484600085611fed565b949350505050565b60608247101561204e5760405162461bcd60e51b815260206004820152602660248201527f416464726573733a20696e73756666696369656e742062616c616e636520666f6044820152651c8818d85b1b60d21b6064820152608401610568565b6001600160a01b0385163b6120a55760405162461bcd60e51b815260206004820152601d60248201527f416464726573733a2063616c6c20746f206e6f6e2d636f6e74726163740000006044820152606401610568565b600080866001600160a01b031685876040516120c191906126a1565b60006040518083038185875af1925050503d80600081146120fe576040519150601f19603f3d011682016040523d82523d6000602084013e612103565b606091505b509150915061211382828661211e565b979650505050505050565b6060831561212d575081610816565b82511561213d5782518084602001fd5b8160405162461bcd60e51b81526004016105689190612183565b60005b8381101561217257818101518382015260200161215a565b83811115611bcc5750506000910152565b60208152600082518060208401526121a2816040850160208701612157565b601f01601f19169190910160400192915050565b80356001600160a01b03811681146121cd57600080fd5b919050565b600080600080608085870312156121e857600080fd5b6121f1856121b6565b966020860135965060408601359560600135945092505050565b60008083601f84011261221d57600080fd5b50813567ffffffffffffffff81111561223557600080fd5b6020830191508360208260051b850101111561225057600080fd5b9250929050565b60008060008060006060868803121561226f57600080fd5b853567ffffffffffffffff8082111561228757600080fd5b61229389838a0161220b565b909750955060208801359150808211156122ac57600080fd5b506122b98882890161220b565b90945092506122cc9050604087016121b6565b90509295509295909350565b600080604083850312156122eb57600080fd5b50508035926020909101359150565b60006020828403121561230c57600080fd5b610816826121b6565b80356001600160801b03811681146121cd57600080fd5b6000806000806080858703121561234257600080fd5b8435935060208501359250612359604086016121b6565b915061236760608601612315565b905092959194509250565b60006020828403121561238457600080fd5b5035919050565b600080600080600060a086880312156123a357600080fd5b85359450602086013593506123ba604087016121b6565b92506123c8606087016121b6565b949793965091946080013592915050565b600080600080600080600080610100898b0312156123f657600080fd5b883597506020890135965061240d60408a016121b6565b955061241b60608a01612315565b945061242960808a016121b6565b935060a0890135925060c0890135915060e089013560ff8116811461244d57600080fd5b809150509295985092959890939650565b634e487b7160e01b600052601160045260246000fd5b6000600182016124865761248661245e565b5060010190565b634e487b7160e01b600052603260045260246000fd5b6000602082840312156124b557600080fd5b8151801515811461081657600080fd5b6020808252601b908201527f43757272656e6379206973206e6f742077686974656c69737465640000000000604082015260600190565b634e487b7160e01b600052602160045260246000fd5b60006020828403121561252457600080fd5b81516005811061081657600080fd5b6020808252818101527f526166666c65207374617465206d75737420626520494e5f50524f4752455353604082015260600190565b6001600160a01b0395861681526020810194909452604084019290925290921660608201526001600160801b03909116608082015260a00190565b60008160001904831182151516156125bd576125bd61245e565b500290565b6000826125df57634e487b7160e01b600052601260045260246000fd5b500490565b6000828210156125f6576125f661245e565b500390565b6000821982111561260e5761260e61245e565b500190565b6001600160a01b03968716815294861660208601526040850193909352606084019190915290921660808201526001600160801b0390911660a082015260c00190565b6020808252602b908201527f496e697469616c697a61626c653a20636f6e7472616374206973206e6f74206960408201526a6e697469616c697a696e6760a81b606082015260800190565b600082516126b3818460208701612157565b919091019291505056fea26469706673582212206a54caf02a84513ec92a58d97b1924534aef124895a36999f0b239a7d03401de64736f6c634300080f0033",
    "bytecodeSha1": "e06b567a3a9033c3adc72607d409e6d867507954",
    "compiler": {
        "evm_version": "istanbul",
        "optimizer": {
            "enabled": true,
            "runs": 200
        },
        "version": "0.8.15+commit.e14f2714"
    },
    "contractName": "RaffleTicketSystem",
    "language": "Solidity",
    "natspec": {
        "kind": "dev",
        "methods": {
            "assignTicketToUser(address,uint256,uint256,uint256)": {
                "notice": "Called by the RaffleContract to \"mint/burn\" raffle tickets"
            },
            "buyTicketWithSignature(uint256,uint256,address,uint128,address,bytes32,bytes32,uint8)": {
                "notice": "Allows users to buy a raffle ticket with a valid signature of the current NFT owner",
                "params": {
                    "_buyer": "Address which the ticket will be assigned to",
                    "_currency": "ERC20 used as payment",
                    "_price": "Price",
                    "_r": "Signature R",
                    "_raffleId": "rafleId",
                    "_s": "Signature S",
                    "_ticketId": "ticketId",
                    "_v": "Signature V"
                }
            },
            "cancelSellOrder(uint256,uint256)": {
                "notice": "Allows Order owners to cancel a current sell order",
                "params": {
                    "_raffleId": "raffleID",
                    "_ticketId": "ticketID"
                }
            },
            "getTicketOwner(uint256,uint256)": {
                "notice": "############################################################################################                 VIEW FUNCTIONS  ############################################################################################"
            },
            "owner()": {
                "details": "Returns the address of the current owner."
            },
            "paused()": {
                "details": "Returns true if the contract is paused, and false otherwise."
            },
            "postBuyOrder(uint256,uint256,address,address,uint256)": {
                "notice": "Allows users to buy a raffle ticket",
                "params": {
                    "_buyer": "Address which the ticket will be assigned to",
                    "_currency": "Currency used as payment",
                    "_price": "Price Note: Last 2 parameters are used to prevent sellers of frontrunning the postBuyOrder() call setting a new price/currency",
                    "_raffleId": "raffleID",
                    "_ticketId": "ticketID"
                }
            },
            "postSellOrder(uint256,uint256,address,uint128)": {
                "notice": "Allows users to put their raffle tickets for sale",
                "params": {
                    "_currency": "Tickets will be bought with this ERC20 token. address(0) should be put here if the currency will be Matic",
                    "_price": "Price per ticket. It can be zero in case of an \"airdrop\"",
                    "_raffleId": "raffleID",
                    "_ticketId": "ticketID"
                }
            },
            "renounceOwnership()": {
                "details": "Leaves the contract without owner. It will not be possible to call `onlyOwner` functions anymore. Can only be called by the current owner. NOTE: Renouncing ownership will leave the contract without an owner, thereby removing any functionality that is only available to the owner."
            },
            "setNewRaffleContract(address)": {
                "notice": "Used to set a new RafflePolygon contract"
            },
            "setProtocolFee(uint256)": {
                "notice": "Used to set the FEE_NUMERATOR by the owner"
            },
            "togglePause()": {
                "notice": "Used to pause/unpause the smart contract by the owner"
            },
            "totalAmountClaimable(address)": {
                "notice": "Token address => Amount that owners of the contract can claim as fee rewards address(0) = Matic"
            },
            "transferOwnership(address)": {
                "details": "Transfers ownership of the contract to a new account (`newOwner`). Can only be called by the current owner."
            },
            "withdrawFees(address[],uint256[],address)": {
                "notice": "Used by the contract owners to claim the fees accrued",
                "params": {
                    "_amounts": "List of amounts that will be withdrawn",
                    "_receiver": "Address that will receive the fees",
                    "_tokenAddress": "List of tokens to withdraw the fees"
                }
            }
        },
        "version": 1
    },
    "opcodes": "PUSH1 0x80 PUSH1 0x40 MSTORE PUSH1 0x4 CALLDATASIZE LT PUSH2 0x14B JUMPI PUSH1 0x0 CALLDATALOAD PUSH1 0xE0 SHR DUP1 PUSH4 0x7678C27F GT PUSH2 0xB6 JUMPI DUP1 PUSH4 0xC4D66DE8 GT PUSH2 0x6F JUMPI DUP1 PUSH4 0xC4D66DE8 EQ PUSH2 0x474 JUMPI DUP1 PUSH4 0xD73792A9 EQ PUSH2 0x494 JUMPI DUP1 PUSH4 0xE51DFD90 EQ PUSH2 0x4AA JUMPI DUP1 PUSH4 0xE762F59F EQ PUSH2 0x4CA JUMPI DUP1 PUSH4 0xE8CE50B1 EQ PUSH2 0x4EA JUMPI DUP1 PUSH4 0xF2FDE38B EQ PUSH2 0x4FD JUMPI PUSH1 0x0 DUP1 REVERT JUMPDEST DUP1 PUSH4 0x7678C27F EQ PUSH2 0x355 JUMPI DUP1 PUSH4 0x787DCE3D EQ PUSH2 0x3E1 JUMPI DUP1 PUSH4 0x8DA5CB5B EQ PUSH2 0x401 JUMPI DUP1 PUSH4 0x9F560993 EQ PUSH2 0x41F JUMPI DUP1 PUSH4 0xA21AFC76 EQ PUSH2 0x432 JUMPI DUP1 PUSH4 0xC4AE3168 EQ PUSH2 0x45F JUMPI PUSH1 0x0 DUP1 REVERT JUMPDEST DUP1 PUSH4 0x5C975ABB GT PUSH2 0x108 JUMPI DUP1 PUSH4 0x5C975ABB EQ PUSH2 0x290 JUMPI DUP1 PUSH4 0x5CEB1E1A EQ PUSH2 0x2B3 JUMPI DUP1 PUSH4 0x5F773D7F EQ PUSH2 0x2D3 JUMPI DUP1 PUSH4 0x7094303B EQ PUSH2 0x2F3 JUMPI DUP1 PUSH4 0x70AE92D2 EQ PUSH2 0x313 JUMPI DUP1 PUSH4 0x715018A6 EQ PUSH2 0x340 JUMPI PUSH1 0x0 DUP1 REVERT JUMPDEST DUP1 PUSH4 0x6FDDE03 EQ PUSH2 0x150 JUMPI DUP1 PUSH4 0xA82E3F9 EQ PUSH2 0x1A4 JUMPI DUP1 PUSH4 0x31F91A84 EQ PUSH2 0x1C6 JUMPI DUP1 PUSH4 0x3A1EC473 EQ PUSH2 0x1E6 JUMPI DUP1 PUSH4 0x41CD47BF EQ PUSH2 0x23F JUMPI DUP1 PUSH4 0x54FD4D50 EQ PUSH2 0x263 JUMPI JUMPDEST PUSH1 0x0 DUP1 REVERT JUMPDEST CALLVALUE DUP1 ISZERO PUSH2 0x15C JUMPI PUSH1 0x0 DUP1 REVERT JUMPDEST POP PUSH2 0x18E PUSH1 0x40 MLOAD DUP1 PUSH1 0x40 ADD PUSH1 0x40 MSTORE DUP1 PUSH1 0x12 DUP2 MSTORE PUSH1 0x20 ADD PUSH18 0x526166666C655469636B657453797374656D PUSH1 0x70 SHL DUP2 MSTORE POP DUP2 JUMP JUMPDEST PUSH1 0x40 MLOAD PUSH2 0x19B SWAP2 SWAP1 PUSH2 0x2183 JUMP JUMPDEST PUSH1 0x40 MLOAD DUP1 SWAP2 SUB SWAP1 RETURN JUMPDEST CALLVALUE DUP1 ISZERO PUSH2 0x1B0 JUMPI PUSH1 0x0 DUP1 REVERT JUMPDEST POP PUSH2 0x1C4 PUSH2 0x1BF CALLDATASIZE PUSH1 0x4 PUSH2 0x21D2 JUMP JUMPDEST PUSH2 0x51D JUMP JUMPDEST STOP JUMPDEST CALLVALUE DUP1 ISZERO PUSH2 0x1D2 JUMPI PUSH1 0x0 DUP1 REVERT JUMPDEST POP PUSH2 0x1C4 PUSH2 0x1E1 CALLDATASIZE PUSH1 0x4 PUSH2 0x2257 JUMP JUMPDEST PUSH2 0x5C3 JUMP JUMPDEST CALLVALUE DUP1 ISZERO PUSH2 0x1F2 JUMPI PUSH1 0x0 DUP1 REVERT JUMPDEST POP PUSH2 0x227 PUSH2 0x201 CALLDATASIZE PUSH1 0x4 PUSH2 0x22D8 JUMP JUMPDEST PUSH1 0xCA PUSH1 0x20 SWAP1 DUP2 MSTORE PUSH1 0x0 SWAP3 DUP4 MSTORE PUSH1 0x40 DUP1 DUP5 KECCAK256 SWAP1 SWAP2 MSTORE SWAP1 DUP3 MSTORE SWAP1 KECCAK256 SLOAD PUSH1 0x1 PUSH1 0x1 PUSH1 0xA0 SHL SUB AND DUP2 JUMP JUMPDEST PUSH1 0x40 MLOAD PUSH1 0x1 PUSH1 0x1 PUSH1 0xA0 SHL SUB SWAP1 SWAP2 AND DUP2 MSTORE PUSH1 0x20 ADD PUSH2 0x19B JUMP JUMPDEST CALLVALUE DUP1 ISZERO PUSH2 0x24B JUMPI PUSH1 0x0 DUP1 REVERT JUMPDEST POP PUSH2 0x255 PUSH1 0xCC SLOAD DUP2 JUMP JUMPDEST PUSH1 0x40 MLOAD SWAP1 DUP2 MSTORE PUSH1 0x20 ADD PUSH2 0x19B JUMP JUMPDEST CALLVALUE DUP1 ISZERO PUSH2 0x26F JUMPI PUSH1 0x0 DUP1 REVERT JUMPDEST POP PUSH2 0x18E PUSH1 0x40 MLOAD DUP1 PUSH1 0x40 ADD PUSH1 0x40 MSTORE DUP1 PUSH1 0x1 DUP2 MSTORE PUSH1 0x20 ADD PUSH1 0x31 PUSH1 0xF8 SHL DUP2 MSTORE POP DUP2 JUMP JUMPDEST CALLVALUE DUP1 ISZERO PUSH2 0x29C JUMPI PUSH1 0x0 DUP1 REVERT JUMPDEST POP PUSH1 0x65 SLOAD PUSH1 0xFF AND PUSH1 0x40 MLOAD SWAP1 ISZERO ISZERO DUP2 MSTORE PUSH1 0x20 ADD PUSH2 0x19B JUMP JUMPDEST CALLVALUE DUP1 ISZERO PUSH2 0x2BF JUMPI PUSH1 0x0 DUP1 REVERT JUMPDEST POP PUSH2 0x1C4 PUSH2 0x2CE CALLDATASIZE PUSH1 0x4 PUSH2 0x22FA JUMP JUMPDEST PUSH2 0x73F JUMP JUMPDEST CALLVALUE DUP1 ISZERO PUSH2 0x2DF JUMPI PUSH1 0x0 DUP1 REVERT JUMPDEST POP PUSH2 0x227 PUSH2 0x2EE CALLDATASIZE PUSH1 0x4 PUSH2 0x22D8 JUMP JUMPDEST PUSH2 0x7B0 JUMP JUMPDEST CALLVALUE DUP1 ISZERO PUSH2 0x2FF JUMPI PUSH1 0x0 DUP1 REVERT JUMPDEST POP PUSH2 0x1C4 PUSH2 0x30E CALLDATASIZE PUSH1 0x4 PUSH2 0x232C JUMP JUMPDEST PUSH2 0x81D JUMP JUMPDEST CALLVALUE DUP1 ISZERO PUSH2 0x31F JUMPI PUSH1 0x0 DUP1 REVERT JUMPDEST POP PUSH2 0x255 PUSH2 0x32E CALLDATASIZE PUSH1 0x4 PUSH2 0x22FA JUMP JUMPDEST PUSH1 0xCF PUSH1 0x20 MSTORE PUSH1 0x0 SWAP1 DUP2 MSTORE PUSH1 0x40 SWAP1 KECCAK256 SLOAD DUP2 JUMP JUMPDEST CALLVALUE DUP1 ISZERO PUSH2 0x34C JUMPI PUSH1 0x0 DUP1 REVERT JUMPDEST POP PUSH2 0x1C4 PUSH2 0xA65 JUMP JUMPDEST CALLVALUE DUP1 ISZERO PUSH2 0x361 JUMPI PUSH1 0x0 DUP1 REVERT JUMPDEST POP PUSH2 0x3B2 PUSH2 0x370 CALLDATASIZE PUSH1 0x4 PUSH2 0x22D8 JUMP JUMPDEST PUSH1 0xCB PUSH1 0x20 SWAP1 DUP2 MSTORE PUSH1 0x0 SWAP3 DUP4 MSTORE PUSH1 0x40 DUP1 DUP5 KECCAK256 SWAP1 SWAP2 MSTORE SWAP1 DUP3 MSTORE SWAP1 KECCAK256 DUP1 SLOAD PUSH1 0x1 DUP3 ADD SLOAD PUSH1 0x2 SWAP1 SWAP3 ADD SLOAD PUSH1 0x1 PUSH1 0x1 PUSH1 0xA0 SHL SUB SWAP2 DUP3 AND SWAP3 SWAP1 SWAP2 AND SWAP1 PUSH1 0x1 PUSH1 0x1 PUSH1 0x80 SHL SUB AND DUP4 JUMP JUMPDEST PUSH1 0x40 DUP1 MLOAD PUSH1 0x1 PUSH1 0x1 PUSH1 0xA0 SHL SUB SWAP5 DUP6 AND DUP2 MSTORE SWAP4 SWAP1 SWAP3 AND PUSH1 0x20 DUP5 ADD MSTORE PUSH1 0x1 PUSH1 0x1 PUSH1 0x80 SHL SUB AND SWAP1 DUP3 ADD MSTORE PUSH1 0x60 ADD PUSH2 0x19B JUMP JUMPDEST CALLVALUE DUP1 ISZERO PUSH2 0x3ED JUMPI PUSH1 0x0 DUP1 REVERT JUMPDEST POP PUSH2 0x1C4 PUSH2 0x3FC CALLDATASIZE PUSH1 0x4 PUSH2 0x2372 JUMP JUMPDEST PUSH2 0xA79 JUMP JUMPDEST CALLVALUE DUP1 ISZERO PUSH2 0x40D JUMPI PUSH1 0x0 DUP1 REVERT JUMPDEST POP PUSH1 0x33 SLOAD PUSH1 0x1 PUSH1 0x1 PUSH1 0xA0 SHL SUB AND PUSH2 0x227 JUMP JUMPDEST PUSH2 0x1C4 PUSH2 0x42D CALLDATASIZE PUSH1 0x4 PUSH2 0x238B JUMP JUMPDEST PUSH2 0xB0A JUMP JUMPDEST CALLVALUE DUP1 ISZERO PUSH2 0x43E JUMPI PUSH1 0x0 DUP1 REVERT JUMPDEST POP PUSH2 0x255 PUSH2 0x44D CALLDATASIZE PUSH1 0x4 PUSH2 0x22FA JUMP JUMPDEST PUSH1 0xCE PUSH1 0x20 MSTORE PUSH1 0x0 SWAP1 DUP2 MSTORE PUSH1 0x40 SWAP1 KECCAK256 SLOAD DUP2 JUMP JUMPDEST CALLVALUE DUP1 ISZERO PUSH2 0x46B JUMPI PUSH1 0x0 DUP1 REVERT JUMPDEST POP PUSH2 0x1C4 PUSH2 0x1082 JUMP JUMPDEST CALLVALUE DUP1 ISZERO PUSH2 0x480 JUMPI PUSH1 0x0 DUP1 REVERT JUMPDEST POP PUSH2 0x1C4 PUSH2 0x48F CALLDATASIZE PUSH1 0x4 PUSH2 0x22FA JUMP JUMPDEST PUSH2 0x10A4 JUMP JUMPDEST CALLVALUE DUP1 ISZERO PUSH2 0x4A0 JUMPI PUSH1 0x0 DUP1 REVERT JUMPDEST POP PUSH2 0x255 PUSH1 0xCD SLOAD DUP2 JUMP JUMPDEST CALLVALUE DUP1 ISZERO PUSH2 0x4B6 JUMPI PUSH1 0x0 DUP1 REVERT JUMPDEST POP PUSH2 0x1C4 PUSH2 0x4C5 CALLDATASIZE PUSH1 0x4 PUSH2 0x22D8 JUMP JUMPDEST PUSH2 0x11EC JUMP JUMPDEST CALLVALUE DUP1 ISZERO PUSH2 0x4D6 JUMPI PUSH1 0x0 DUP1 REVERT JUMPDEST POP PUSH1 0xC9 SLOAD PUSH2 0x227 SWAP1 PUSH1 0x1 PUSH1 0x1 PUSH1 0xA0 SHL SUB AND DUP2 JUMP JUMPDEST PUSH2 0x1C4 PUSH2 0x4F8 CALLDATASIZE PUSH1 0x4 PUSH2 0x23D9 JUMP JUMPDEST PUSH2 0x1327 JUMP JUMPDEST CALLVALUE DUP1 ISZERO PUSH2 0x509 JUMPI PUSH1 0x0 DUP1 REVERT JUMPDEST POP PUSH2 0x1C4 PUSH2 0x518 CALLDATASIZE PUSH1 0x4 PUSH2 0x22FA JUMP JUMPDEST PUSH2 0x19BB JUMP JUMPDEST PUSH1 0xC9 SLOAD PUSH1 0x1 PUSH1 0x1 PUSH1 0xA0 SHL SUB AND CALLER EQ PUSH2 0x571 JUMPI PUSH1 0x40 MLOAD PUSH3 0x461BCD PUSH1 0xE5 SHL DUP2 MSTORE PUSH1 0x20 PUSH1 0x4 DUP3 ADD MSTORE PUSH1 0x12 PUSH1 0x24 DUP3 ADD MSTORE PUSH18 0x13DB9B1E549859999B1950DBDB9D1C9858DD PUSH1 0x72 SHL PUSH1 0x44 DUP3 ADD MSTORE PUSH1 0x64 ADD JUMPDEST PUSH1 0x40 MLOAD DUP1 SWAP2 SUB SWAP1 REVERT JUMPDEST DUP2 JUMPDEST DUP2 DUP2 GT PUSH2 0x5BC JUMPI PUSH1 0x0 DUP5 DUP2 MSTORE PUSH1 0xCA PUSH1 0x20 SWAP1 DUP2 MSTORE PUSH1 0x40 DUP1 DUP4 KECCAK256 DUP7 DUP5 MSTORE SWAP1 SWAP2 MSTORE SWAP1 KECCAK256 DUP1 SLOAD PUSH1 0x1 PUSH1 0x1 PUSH1 0xA0 SHL SUB NOT AND PUSH1 0x1 PUSH1 0x1 PUSH1 0xA0 SHL SUB DUP8 AND OR SWAP1 SSTORE PUSH2 0x5B5 DUP2 PUSH2 0x2474 JUMP JUMPDEST SWAP1 POP PUSH2 0x573 JUMP JUMPDEST POP POP POP POP POP JUMP JUMPDEST PUSH2 0x5CB PUSH2 0x1A34 JUMP JUMPDEST DUP4 DUP3 DUP2 EQ PUSH2 0x61B JUMPI PUSH1 0x40 MLOAD PUSH3 0x461BCD PUSH1 0xE5 SHL DUP2 MSTORE PUSH1 0x20 PUSH1 0x4 DUP3 ADD MSTORE PUSH1 0x1A PUSH1 0x24 DUP3 ADD MSTORE PUSH32 0x4172726179206C656E6774687320646F206E6F74206D61746368000000000000 PUSH1 0x44 DUP3 ADD MSTORE PUSH1 0x64 ADD PUSH2 0x568 JUMP JUMPDEST PUSH1 0x0 DUP1 PUSH1 0x0 JUMPDEST DUP4 DUP2 LT ISZERO PUSH2 0x734 JUMPI DUP9 DUP9 DUP3 DUP2 DUP2 LT PUSH2 0x63B JUMPI PUSH2 0x63B PUSH2 0x248D JUMP JUMPDEST SWAP1 POP PUSH1 0x20 MUL ADD PUSH1 0x20 DUP2 ADD SWAP1 PUSH2 0x650 SWAP2 SWAP1 PUSH2 0x22FA JUMP JUMPDEST SWAP2 POP DUP7 DUP7 DUP3 DUP2 DUP2 LT PUSH2 0x664 JUMPI PUSH2 0x664 PUSH2 0x248D JUMP JUMPDEST SWAP1 POP PUSH1 0x20 MUL ADD CALLDATALOAD SWAP3 POP PUSH1 0xCE PUSH1 0x0 DUP4 PUSH1 0x1 PUSH1 0x1 PUSH1 0xA0 SHL SUB AND PUSH1 0x1 PUSH1 0x1 PUSH1 0xA0 SHL SUB AND DUP2 MSTORE PUSH1 0x20 ADD SWAP1 DUP2 MSTORE PUSH1 0x20 ADD PUSH1 0x0 KECCAK256 SLOAD DUP4 GT ISZERO PUSH2 0x6D4 JUMPI PUSH1 0x40 MLOAD PUSH3 0x461BCD PUSH1 0xE5 SHL DUP2 MSTORE PUSH1 0x20 PUSH1 0x4 DUP3 ADD MSTORE PUSH1 0xF PUSH1 0x24 DUP3 ADD MSTORE PUSH15 0x82DADEEADCE840E8DEDE40D0D2CED PUSH1 0x8B SHL PUSH1 0x44 DUP3 ADD MSTORE PUSH1 0x64 ADD PUSH2 0x568 JUMP JUMPDEST PUSH1 0x1 PUSH1 0x1 PUSH1 0xA0 SHL SUB DUP3 AND PUSH2 0x6F1 JUMPI PUSH2 0x6EC DUP6 DUP5 PUSH2 0x1A8E JUMP JUMPDEST PUSH2 0x705 JUMP JUMPDEST PUSH2 0x705 PUSH1 0x1 PUSH1 0x1 PUSH1 0xA0 SHL SUB DUP4 AND DUP7 DUP6 PUSH2 0x1BD2 JUMP JUMPDEST PUSH1 0x1 PUSH1 0x1 PUSH1 0xA0 SHL SUB DUP3 AND PUSH1 0x0 SWAP1 DUP2 MSTORE PUSH1 0xCE PUSH1 0x20 MSTORE PUSH1 0x40 SWAP1 KECCAK256 DUP1 SLOAD DUP5 SWAP1 SUB SWAP1 SSTORE PUSH2 0x72D DUP2 PUSH2 0x2474 JUMP JUMPDEST SWAP1 POP PUSH2 0x621 JUMP JUMPDEST POP POP POP POP POP POP POP POP POP JUMP JUMPDEST PUSH2 0x747 PUSH2 0x1A34 JUMP JUMPDEST PUSH1 0xC9 SLOAD PUSH1 0x40 DUP1 MLOAD PUSH1 0x1 PUSH1 0x1 PUSH1 0xA0 SHL SUB SWAP3 DUP4 AND DUP2 MSTORE SWAP2 DUP4 AND PUSH1 0x20 DUP4 ADD MSTORE PUSH32 0x64A755F8CA202DCE0957A8E670844E8BAA0D23AD470F1E987DDA75B4A750CAE5 SWAP2 ADD PUSH1 0x40 MLOAD DUP1 SWAP2 SUB SWAP1 LOG1 PUSH1 0xC9 DUP1 SLOAD PUSH1 0x1 PUSH1 0x1 PUSH1 0xA0 SHL SUB NOT AND PUSH1 0x1 PUSH1 0x1 PUSH1 0xA0 SHL SUB SWAP3 SWAP1 SWAP3 AND SWAP2 SWAP1 SWAP2 OR SWAP1 SSTORE JUMP JUMPDEST PUSH1 0x0 DUP3 DUP2 MSTORE PUSH1 0xCA PUSH1 0x20 SWAP1 DUP2 MSTORE PUSH1 0x40 DUP1 DUP4 KECCAK256 DUP5 DUP5 MSTORE SWAP1 SWAP2 MSTORE DUP2 KECCAK256 SLOAD PUSH1 0x1 PUSH1 0x1 PUSH1 0xA0 SHL SUB AND DUP1 PUSH2 0x816 JUMPI PUSH1 0x40 MLOAD PUSH3 0x461BCD PUSH1 0xE5 SHL DUP2 MSTORE PUSH1 0x20 PUSH1 0x4 DUP3 ADD MSTORE PUSH1 0x13 PUSH1 0x24 DUP3 ADD MSTORE PUSH19 0x2A34B1B5B2BA103430B99037379037BBB732B9 PUSH1 0x69 SHL PUSH1 0x44 DUP3 ADD MSTORE PUSH1 0x64 ADD PUSH2 0x568 JUMP JUMPDEST SWAP4 SWAP3 POP POP POP JUMP JUMPDEST PUSH2 0x825 PUSH2 0x1C3A JUMP JUMPDEST PUSH1 0x0 DUP5 DUP2 MSTORE PUSH1 0xCA PUSH1 0x20 SWAP1 DUP2 MSTORE PUSH1 0x40 DUP1 DUP4 KECCAK256 DUP7 DUP5 MSTORE SWAP1 SWAP2 MSTORE SWAP1 KECCAK256 SLOAD PUSH1 0x1 PUSH1 0x1 PUSH1 0xA0 SHL SUB AND CALLER EQ PUSH2 0x896 JUMPI PUSH1 0x40 MLOAD PUSH3 0x461BCD PUSH1 0xE5 SHL DUP2 MSTORE PUSH1 0x20 PUSH1 0x4 DUP3 ADD MSTORE PUSH1 0x1A PUSH1 0x24 DUP3 ADD MSTORE PUSH32 0x596F7520646F206E6F74206F776E2074686973207469636B6574000000000000 PUSH1 0x44 DUP3 ADD MSTORE PUSH1 0x64 ADD PUSH2 0x568 JUMP JUMPDEST PUSH1 0xC9 SLOAD PUSH1 0x40 MLOAD PUSH4 0x43B938C5 PUSH1 0xE0 SHL DUP2 MSTORE PUSH1 0x1 PUSH1 0x1 PUSH1 0xA0 SHL SUB DUP5 DUP2 AND PUSH1 0x4 DUP4 ADD MSTORE SWAP1 SWAP2 AND SWAP1 PUSH4 0x43B938C5 SWAP1 PUSH1 0x24 ADD PUSH1 0x20 PUSH1 0x40 MLOAD DUP1 DUP4 SUB DUP2 DUP7 GAS STATICCALL ISZERO DUP1 ISZERO PUSH2 0x8E0 JUMPI RETURNDATASIZE PUSH1 0x0 DUP1 RETURNDATACOPY RETURNDATASIZE PUSH1 0x0 REVERT JUMPDEST POP POP POP POP PUSH1 0x40 MLOAD RETURNDATASIZE PUSH1 0x1F NOT PUSH1 0x1F DUP3 ADD AND DUP3 ADD DUP1 PUSH1 0x40 MSTORE POP DUP2 ADD SWAP1 PUSH2 0x904 SWAP2 SWAP1 PUSH2 0x24A3 JUMP JUMPDEST PUSH2 0x920 JUMPI PUSH1 0x40 MLOAD PUSH3 0x461BCD PUSH1 0xE5 SHL DUP2 MSTORE PUSH1 0x4 ADD PUSH2 0x568 SWAP1 PUSH2 0x24C5 JUMP JUMPDEST PUSH1 0xC9 SLOAD PUSH1 0x40 MLOAD PUSH4 0x1599DDF3 PUSH1 0xE2 SHL DUP2 MSTORE PUSH1 0x4 DUP2 ADD DUP7 SWAP1 MSTORE PUSH1 0x0 SWAP2 PUSH1 0x1 PUSH1 0x1 PUSH1 0xA0 SHL SUB AND SWAP1 PUSH4 0x566777CC SWAP1 PUSH1 0x24 ADD PUSH1 0x20 PUSH1 0x40 MLOAD DUP1 DUP4 SUB DUP2 DUP7 GAS STATICCALL ISZERO DUP1 ISZERO PUSH2 0x96A JUMPI RETURNDATASIZE PUSH1 0x0 DUP1 RETURNDATACOPY RETURNDATASIZE PUSH1 0x0 REVERT JUMPDEST POP POP POP POP PUSH1 0x40 MLOAD RETURNDATASIZE PUSH1 0x1F NOT PUSH1 0x1F DUP3 ADD AND DUP3 ADD DUP1 PUSH1 0x40 MSTORE POP DUP2 ADD SWAP1 PUSH2 0x98E SWAP2 SWAP1 PUSH2 0x2512 JUMP JUMPDEST PUSH1 0x4 DUP2 GT ISZERO PUSH2 0x99F JUMPI PUSH2 0x99F PUSH2 0x24FC JUMP JUMPDEST EQ PUSH2 0x9BC JUMPI PUSH1 0x40 MLOAD PUSH3 0x461BCD PUSH1 0xE5 SHL DUP2 MSTORE PUSH1 0x4 ADD PUSH2 0x568 SWAP1 PUSH2 0x2533 JUMP JUMPDEST PUSH1 0x0 DUP5 DUP2 MSTORE PUSH1 0xCB PUSH1 0x20 SWAP1 DUP2 MSTORE PUSH1 0x40 DUP1 DUP4 KECCAK256 DUP7 DUP5 MSTORE SWAP1 SWAP2 MSTORE SWAP1 DUP2 SWAP1 KECCAK256 DUP1 SLOAD CALLER PUSH1 0x1 PUSH1 0x1 PUSH1 0xA0 SHL SUB NOT SWAP2 DUP3 AND DUP2 OR DUP4 SSTORE PUSH1 0x1 DUP4 ADD DUP1 SLOAD SWAP1 SWAP3 AND PUSH1 0x1 PUSH1 0x1 PUSH1 0xA0 SHL SUB DUP8 AND OR SWAP1 SWAP2 SSTORE PUSH1 0x2 DUP3 ADD DUP1 SLOAD PUSH1 0x1 PUSH1 0x1 PUSH1 0x80 SHL SUB NOT AND PUSH1 0x1 PUSH1 0x1 PUSH1 0x80 SHL SUB DUP7 AND OR SWAP1 SSTORE SWAP2 MLOAD SWAP1 SWAP2 PUSH32 0xE25F318179F8B2E7117F1BBE46D0C32E76E31BA60E7717909B0279A1DEC56133 SWAP2 PUSH2 0xA56 SWAP2 SWAP1 DUP9 SWAP1 DUP9 SWAP1 DUP9 SWAP1 DUP9 SWAP1 PUSH2 0x2568 JUMP JUMPDEST PUSH1 0x40 MLOAD DUP1 SWAP2 SUB SWAP1 LOG1 POP POP POP POP POP JUMP JUMPDEST PUSH2 0xA6D PUSH2 0x1A34 JUMP JUMPDEST PUSH2 0xA77 PUSH1 0x0 PUSH2 0x1C80 JUMP JUMPDEST JUMP JUMPDEST PUSH2 0xA81 PUSH2 0x1A34 JUMP JUMPDEST PUSH2 0x2710 DUP2 LT PUSH2 0xAC9 JUMPI PUSH1 0x40 MLOAD PUSH3 0x461BCD PUSH1 0xE5 SHL DUP2 MSTORE PUSH1 0x20 PUSH1 0x4 DUP3 ADD MSTORE PUSH1 0x14 PUSH1 0x24 DUP3 ADD MSTORE PUSH20 0x466565206D757374206265203C3D203130302025 PUSH1 0x60 SHL PUSH1 0x44 DUP3 ADD MSTORE PUSH1 0x64 ADD PUSH2 0x568 JUMP JUMPDEST PUSH1 0xCC SLOAD PUSH1 0x40 DUP1 MLOAD SWAP2 DUP3 MSTORE PUSH1 0x20 DUP3 ADD DUP4 SWAP1 MSTORE PUSH32 0xB404CAC19FB1CBEFF98D325795B08886E3CD8FE8CB1A2F193AAC66F13FB239C3 SWAP2 ADD PUSH1 0x40 MLOAD DUP1 SWAP2 SUB SWAP1 LOG1 PUSH1 0xCC SSTORE JUMP JUMPDEST PUSH1 0x2 PUSH1 0x97 SLOAD SUB PUSH2 0xB5C JUMPI PUSH1 0x40 MLOAD PUSH3 0x461BCD PUSH1 0xE5 SHL DUP2 MSTORE PUSH1 0x20 PUSH1 0x4 DUP3 ADD MSTORE PUSH1 0x1F PUSH1 0x24 DUP3 ADD MSTORE PUSH32 0x5265656E7472616E637947756172643A207265656E7472616E742063616C6C00 PUSH1 0x44 DUP3 ADD MSTORE PUSH1 0x64 ADD PUSH2 0x568 JUMP JUMPDEST PUSH1 0x2 PUSH1 0x97 SSTORE PUSH2 0xB69 PUSH2 0x1C3A JUMP JUMPDEST PUSH1 0x0 DUP6 DUP2 MSTORE PUSH1 0xCB PUSH1 0x20 SWAP1 DUP2 MSTORE PUSH1 0x40 DUP1 DUP4 KECCAK256 DUP8 DUP5 MSTORE DUP3 MSTORE SWAP2 DUP3 SWAP1 KECCAK256 DUP3 MLOAD PUSH1 0x60 DUP2 ADD DUP5 MSTORE DUP2 SLOAD PUSH1 0x1 PUSH1 0x1 PUSH1 0xA0 SHL SUB SWAP1 DUP2 AND DUP1 DUP4 MSTORE PUSH1 0x1 DUP5 ADD SLOAD SWAP1 SWAP2 AND SWAP4 DUP3 ADD SWAP4 SWAP1 SWAP4 MSTORE PUSH1 0x2 SWAP1 SWAP2 ADD SLOAD PUSH1 0x1 PUSH1 0x1 PUSH1 0x80 SHL SUB AND SWAP3 DUP2 ADD SWAP3 SWAP1 SWAP3 MSTORE PUSH2 0xC0C JUMPI PUSH1 0x40 MLOAD PUSH3 0x461BCD PUSH1 0xE5 SHL DUP2 MSTORE PUSH1 0x20 PUSH1 0x4 DUP3 ADD MSTORE PUSH1 0x19 PUSH1 0x24 DUP3 ADD MSTORE PUSH32 0x54686973206F7264657220646F6573206E6F7420657869737400000000000000 PUSH1 0x44 DUP3 ADD MSTORE PUSH1 0x64 ADD PUSH2 0x568 JUMP JUMPDEST PUSH1 0x0 DUP7 DUP2 MSTORE PUSH1 0xCA PUSH1 0x20 SWAP1 DUP2 MSTORE PUSH1 0x40 DUP1 DUP4 KECCAK256 DUP9 DUP5 MSTORE SWAP1 SWAP2 MSTORE SWAP1 KECCAK256 SLOAD DUP2 MLOAD PUSH1 0x1 PUSH1 0x1 PUSH1 0xA0 SHL SUB SWAP1 DUP2 AND SWAP2 AND EQ PUSH2 0xC7B JUMPI PUSH1 0x40 MLOAD PUSH3 0x461BCD PUSH1 0xE5 SHL DUP2 MSTORE PUSH1 0x20 PUSH1 0x4 DUP3 ADD MSTORE PUSH1 0x16 PUSH1 0x24 DUP3 ADD MSTORE PUSH22 0x2A34B1B5B2BA103430B99030903732BB9037BBB732B9 PUSH1 0x51 SHL PUSH1 0x44 DUP3 ADD MSTORE PUSH1 0x64 ADD PUSH2 0x568 JUMP JUMPDEST PUSH1 0xC9 SLOAD PUSH1 0x20 DUP3 ADD MLOAD PUSH1 0x40 MLOAD PUSH4 0x43B938C5 PUSH1 0xE0 SHL DUP2 MSTORE PUSH1 0x1 PUSH1 0x1 PUSH1 0xA0 SHL SUB SWAP2 DUP3 AND PUSH1 0x4 DUP3 ADD MSTORE SWAP2 AND SWAP1 PUSH4 0x43B938C5 SWAP1 PUSH1 0x24 ADD PUSH1 0x20 PUSH1 0x40 MLOAD DUP1 DUP4 SUB DUP2 DUP7 GAS STATICCALL ISZERO DUP1 ISZERO PUSH2 0xCC9 JUMPI RETURNDATASIZE PUSH1 0x0 DUP1 RETURNDATACOPY RETURNDATASIZE PUSH1 0x0 REVERT JUMPDEST POP POP POP POP PUSH1 0x40 MLOAD RETURNDATASIZE PUSH1 0x1F NOT PUSH1 0x1F DUP3 ADD AND DUP3 ADD DUP1 PUSH1 0x40 MSTORE POP DUP2 ADD SWAP1 PUSH2 0xCED SWAP2 SWAP1 PUSH2 0x24A3 JUMP JUMPDEST PUSH2 0xD09 JUMPI PUSH1 0x40 MLOAD PUSH3 0x461BCD PUSH1 0xE5 SHL DUP2 MSTORE PUSH1 0x4 ADD PUSH2 0x568 SWAP1 PUSH2 0x24C5 JUMP JUMPDEST PUSH1 0xC9 SLOAD PUSH1 0x40 MLOAD PUSH4 0x1599DDF3 PUSH1 0xE2 SHL DUP2 MSTORE PUSH1 0x4 DUP2 ADD DUP9 SWAP1 MSTORE PUSH1 0x0 SWAP2 PUSH1 0x1 PUSH1 0x1 PUSH1 0xA0 SHL SUB AND SWAP1 PUSH4 0x566777CC SWAP1 PUSH1 0x24 ADD PUSH1 0x20 PUSH1 0x40 MLOAD DUP1 DUP4 SUB DUP2 DUP7 GAS STATICCALL ISZERO DUP1 ISZERO PUSH2 0xD53 JUMPI RETURNDATASIZE PUSH1 0x0 DUP1 RETURNDATACOPY RETURNDATASIZE PUSH1 0x0 REVERT JUMPDEST POP POP POP POP PUSH1 0x40 MLOAD RETURNDATASIZE PUSH1 0x1F NOT PUSH1 0x1F DUP3 ADD AND DUP3 ADD DUP1 PUSH1 0x40 MSTORE POP DUP2 ADD SWAP1 PUSH2 0xD77 SWAP2 SWAP1 PUSH2 0x2512 JUMP JUMPDEST PUSH1 0x4 DUP2 GT ISZERO PUSH2 0xD88 JUMPI PUSH2 0xD88 PUSH2 0x24FC JUMP JUMPDEST EQ PUSH2 0xDA5 JUMPI PUSH1 0x40 MLOAD PUSH3 0x461BCD PUSH1 0xE5 SHL DUP2 MSTORE PUSH1 0x4 ADD PUSH2 0x568 SWAP1 PUSH2 0x2533 JUMP JUMPDEST DUP3 PUSH1 0x1 PUSH1 0x1 PUSH1 0xA0 SHL SUB AND DUP2 PUSH1 0x20 ADD MLOAD PUSH1 0x1 PUSH1 0x1 PUSH1 0xA0 SHL SUB AND EQ PUSH2 0xE01 JUMPI PUSH1 0x40 MLOAD PUSH3 0x461BCD PUSH1 0xE5 SHL DUP2 MSTORE PUSH1 0x20 PUSH1 0x4 DUP3 ADD MSTORE PUSH1 0x14 PUSH1 0x24 DUP3 ADD MSTORE PUSH20 0x10DD5C9C995B98DE481DD85CC818DA185B99D959 PUSH1 0x62 SHL PUSH1 0x44 DUP3 ADD MSTORE PUSH1 0x64 ADD PUSH2 0x568 JUMP JUMPDEST DUP2 DUP2 PUSH1 0x40 ADD MLOAD PUSH1 0x1 PUSH1 0x1 PUSH1 0x80 SHL SUB AND EQ PUSH2 0xE51 JUMPI PUSH1 0x40 MLOAD PUSH3 0x461BCD PUSH1 0xE5 SHL DUP2 MSTORE PUSH1 0x20 PUSH1 0x4 DUP3 ADD MSTORE PUSH1 0x11 PUSH1 0x24 DUP3 ADD MSTORE PUSH17 0x141C9A58D9481DD85CC818DA185B99D959 PUSH1 0x7A SHL PUSH1 0x44 DUP3 ADD MSTORE PUSH1 0x64 ADD PUSH2 0x568 JUMP JUMPDEST PUSH1 0x0 PUSH1 0xCD SLOAD PUSH1 0xCC SLOAD DUP4 PUSH1 0x40 ADD MLOAD PUSH1 0x1 PUSH1 0x1 PUSH1 0x80 SHL SUB AND PUSH2 0xE71 SWAP2 SWAP1 PUSH2 0x25A3 JUMP JUMPDEST PUSH2 0xE7B SWAP2 SWAP1 PUSH2 0x25C2 JUMP JUMPDEST SWAP1 POP PUSH1 0x0 DUP2 DUP4 PUSH1 0x40 ADD MLOAD PUSH1 0x1 PUSH1 0x1 PUSH1 0x80 SHL SUB AND PUSH2 0xE98 SWAP2 SWAP1 PUSH2 0x25E4 JUMP JUMPDEST PUSH1 0x20 DUP5 ADD MLOAD SWAP1 SWAP2 POP PUSH1 0x1 PUSH1 0x1 PUSH1 0xA0 SHL SUB AND PUSH2 0xF53 JUMPI DUP3 PUSH1 0x40 ADD MLOAD PUSH1 0x1 PUSH1 0x1 PUSH1 0x80 SHL SUB AND CALLVALUE EQ PUSH2 0xF01 JUMPI PUSH1 0x40 MLOAD PUSH3 0x461BCD PUSH1 0xE5 SHL DUP2 MSTORE PUSH1 0x20 PUSH1 0x4 DUP3 ADD MSTORE PUSH1 0x15 PUSH1 0x24 DUP3 ADD MSTORE PUSH21 0x4D61746963207061796D656E7420746F6F206C6F77 PUSH1 0x58 SHL PUSH1 0x44 DUP3 ADD MSTORE PUSH1 0x64 ADD PUSH2 0x568 JUMP JUMPDEST DUP3 MLOAD PUSH2 0xF0D SWAP1 DUP3 PUSH2 0x1A8E JUMP JUMPDEST PUSH1 0x0 DUP1 DUP1 MSTORE PUSH1 0xCE PUSH1 0x20 MSTORE PUSH32 0xD3F5862F6F80175DA7514904F3A889CC3CC8C4F3AF5129E28CDEAEE2BAA6EFC4 DUP1 SLOAD DUP5 SWAP3 SWAP1 PUSH2 0xF48 SWAP1 DUP5 SWAP1 PUSH2 0x25FB JUMP JUMPDEST SWAP1 SWAP2 SSTORE POP PUSH2 0xFBF SWAP1 POP JUMP JUMPDEST PUSH1 0x20 DUP4 ADD MLOAD PUSH2 0xF6D SWAP1 PUSH1 0x1 PUSH1 0x1 PUSH1 0xA0 SHL SUB AND CALLER ADDRESS DUP6 PUSH2 0x1CD2 JUMP JUMPDEST DUP3 MLOAD PUSH1 0x20 DUP5 ADD MLOAD PUSH2 0xF8C SWAP2 PUSH1 0x1 PUSH1 0x1 PUSH1 0xA0 SHL SUB SWAP1 SWAP2 AND SWAP1 CALLER SWAP1 DUP5 PUSH2 0x1CD2 JUMP JUMPDEST PUSH1 0x20 DUP1 DUP5 ADD MLOAD PUSH1 0x1 PUSH1 0x1 PUSH1 0xA0 SHL SUB AND PUSH1 0x0 SWAP1 DUP2 MSTORE PUSH1 0xCE SWAP1 SWAP2 MSTORE PUSH1 0x40 DUP2 KECCAK256 DUP1 SLOAD DUP5 SWAP3 SWAP1 PUSH2 0xFB9 SWAP1 DUP5 SWAP1 PUSH2 0x25FB JUMP JUMPDEST SWAP1 SWAP2 SSTORE POP POP JUMPDEST PUSH1 0x0 DUP9 DUP2 MSTORE PUSH1 0xCB PUSH1 0x20 SWAP1 DUP2 MSTORE PUSH1 0x40 DUP1 DUP4 KECCAK256 DUP11 DUP5 MSTORE DUP3 MSTORE DUP1 DUP4 KECCAK256 DUP1 SLOAD PUSH1 0x1 PUSH1 0x1 PUSH1 0xA0 SHL SUB NOT SWAP1 DUP2 AND DUP3 SSTORE PUSH1 0x1 DUP3 ADD DUP1 SLOAD DUP3 AND SWAP1 SSTORE PUSH1 0x2 SWAP1 SWAP2 ADD DUP1 SLOAD PUSH1 0x1 PUSH1 0x1 PUSH1 0x80 SHL SUB NOT AND SWAP1 SSTORE DUP12 DUP5 MSTORE PUSH1 0xCA DUP4 MSTORE DUP2 DUP5 KECCAK256 DUP12 DUP6 MSTORE DUP4 MSTORE SWAP3 DUP2 SWAP1 KECCAK256 DUP1 SLOAD SWAP1 SWAP4 AND PUSH1 0x1 PUSH1 0x1 PUSH1 0xA0 SHL SUB DUP11 AND OR SWAP1 SWAP3 SSTORE DUP5 MLOAD SWAP1 DUP6 ADD MLOAD DUP6 DUP4 ADD MLOAD SWAP3 MLOAD PUSH32 0xB1654D435F5F4797513D52142C36C297361FFE87E796C10CA7B2D24003CC274B SWAP4 PUSH2 0x106B SWAP4 DUP12 SWAP4 SWAP1 SWAP3 DUP15 SWAP3 DUP15 SWAP3 SWAP2 PUSH2 0x2613 JUMP JUMPDEST PUSH1 0x40 MLOAD DUP1 SWAP2 SUB SWAP1 LOG1 POP POP PUSH1 0x1 PUSH1 0x97 SSTORE POP POP POP POP POP POP JUMP JUMPDEST PUSH2 0x108A PUSH2 0x1A34 JUMP JUMPDEST PUSH1 0x65 SLOAD PUSH1 0xFF AND PUSH2 0x109C JUMPI PUSH2 0xA77 PUSH2 0x1D0A JUMP JUMPDEST PUSH2 0xA77 PUSH2 0x1D64 JUMP JUMPDEST PUSH1 0x0 SLOAD PUSH2 0x100 SWAP1 DIV PUSH1 0xFF AND ISZERO DUP1 DUP1 ISZERO PUSH2 0x10C4 JUMPI POP PUSH1 0x0 SLOAD PUSH1 0x1 PUSH1 0xFF SWAP1 SWAP2 AND LT JUMPDEST DUP1 PUSH2 0x10DE JUMPI POP ADDRESS EXTCODESIZE ISZERO DUP1 ISZERO PUSH2 0x10DE JUMPI POP PUSH1 0x0 SLOAD PUSH1 0xFF AND PUSH1 0x1 EQ JUMPDEST PUSH2 0x1141 JUMPI PUSH1 0x40 MLOAD PUSH3 0x461BCD PUSH1 0xE5 SHL DUP2 MSTORE PUSH1 0x20 PUSH1 0x4 DUP3 ADD MSTORE PUSH1 0x2E PUSH1 0x24 DUP3 ADD MSTORE PUSH32 0x496E697469616C697A61626C653A20636F6E747261637420697320616C726561 PUSH1 0x44 DUP3 ADD MSTORE PUSH14 0x191E481A5B9A5D1A585B1A5E9959 PUSH1 0x92 SHL PUSH1 0x64 DUP3 ADD MSTORE PUSH1 0x84 ADD PUSH2 0x568 JUMP JUMPDEST PUSH1 0x0 DUP1 SLOAD PUSH1 0xFF NOT AND PUSH1 0x1 OR SWAP1 SSTORE DUP1 ISZERO PUSH2 0x1164 JUMPI PUSH1 0x0 DUP1 SLOAD PUSH2 0xFF00 NOT AND PUSH2 0x100 OR SWAP1 SSTORE JUMPDEST PUSH2 0x116C PUSH2 0x1D9D JUMP JUMPDEST PUSH2 0x1174 PUSH2 0x1DCC JUMP JUMPDEST PUSH2 0x117C PUSH2 0x1DFB JUMP JUMPDEST PUSH1 0xC9 DUP1 SLOAD PUSH1 0x1 PUSH1 0x1 PUSH1 0xA0 SHL SUB NOT AND PUSH1 0x1 PUSH1 0x1 PUSH1 0xA0 SHL SUB DUP5 AND OR SWAP1 SSTORE PUSH1 0xFA PUSH1 0xCC SSTORE PUSH2 0x2710 PUSH1 0xCD SSTORE DUP1 ISZERO PUSH2 0x11E8 JUMPI PUSH1 0x0 DUP1 SLOAD PUSH2 0xFF00 NOT AND SWAP1 SSTORE PUSH1 0x40 MLOAD PUSH1 0x1 DUP2 MSTORE PUSH32 0x7F26B83FF96E1F2B6A682F133852F6798A09C465DA95921460CEFB3847402498 SWAP1 PUSH1 0x20 ADD PUSH1 0x40 MLOAD DUP1 SWAP2 SUB SWAP1 LOG1 JUMPDEST POP POP JUMP JUMPDEST PUSH2 0x11F4 PUSH2 0x1C3A JUMP JUMPDEST PUSH1 0x0 DUP3 DUP2 MSTORE PUSH1 0xCB PUSH1 0x20 SWAP1 DUP2 MSTORE PUSH1 0x40 DUP1 DUP4 KECCAK256 DUP5 DUP5 MSTORE DUP3 MSTORE SWAP2 DUP3 SWAP1 KECCAK256 DUP3 MLOAD PUSH1 0x60 DUP2 ADD DUP5 MSTORE DUP2 SLOAD PUSH1 0x1 PUSH1 0x1 PUSH1 0xA0 SHL SUB SWAP1 DUP2 AND DUP1 DUP4 MSTORE PUSH1 0x1 DUP5 ADD SLOAD SWAP1 SWAP2 AND SWAP4 DUP3 ADD SWAP4 SWAP1 SWAP4 MSTORE PUSH1 0x2 SWAP1 SWAP2 ADD SLOAD PUSH1 0x1 PUSH1 0x1 PUSH1 0x80 SHL SUB AND SWAP3 DUP2 ADD SWAP3 SWAP1 SWAP3 MSTORE CALLER EQ PUSH2 0x1299 JUMPI PUSH1 0x40 MLOAD PUSH3 0x461BCD PUSH1 0xE5 SHL DUP2 MSTORE PUSH1 0x20 PUSH1 0x4 DUP3 ADD MSTORE PUSH1 0x19 PUSH1 0x24 DUP3 ADD MSTORE PUSH32 0x596F7520646F206E6F74206F776E2074686973206F7264657200000000000000 PUSH1 0x44 DUP3 ADD MSTORE PUSH1 0x64 ADD PUSH2 0x568 JUMP JUMPDEST PUSH1 0x0 DUP4 DUP2 MSTORE PUSH1 0xCB PUSH1 0x20 SWAP1 DUP2 MSTORE PUSH1 0x40 DUP1 DUP4 KECCAK256 DUP6 DUP5 MSTORE DUP3 MSTORE SWAP2 DUP3 SWAP1 KECCAK256 DUP1 SLOAD PUSH1 0x1 PUSH1 0x1 PUSH1 0xA0 SHL SUB NOT SWAP1 DUP2 AND DUP3 SSTORE PUSH1 0x1 DUP3 ADD DUP1 SLOAD SWAP1 SWAP2 AND SWAP1 SSTORE PUSH1 0x2 ADD DUP1 SLOAD PUSH1 0x1 PUSH1 0x1 PUSH1 0x80 SHL SUB NOT AND SWAP1 SSTORE DUP3 ADD MLOAD DUP3 DUP3 ADD MLOAD SWAP2 MLOAD PUSH32 0xDFB5DFAA81A89E8E8DA092A59E3090660AFD72B8533C2AB9BB7BD4FB7B9C5E06 SWAP3 PUSH2 0x131A SWAP3 CALLER SWAP3 DUP9 SWAP3 DUP9 SWAP3 SWAP2 PUSH2 0x2568 JUMP JUMPDEST PUSH1 0x40 MLOAD DUP1 SWAP2 SUB SWAP1 LOG1 POP POP POP JUMP JUMPDEST PUSH1 0x2 PUSH1 0x97 SLOAD SUB PUSH2 0x1379 JUMPI PUSH1 0x40 MLOAD PUSH3 0x461BCD PUSH1 0xE5 SHL DUP2 MSTORE PUSH1 0x20 PUSH1 0x4 DUP3 ADD MSTORE PUSH1 0x1F PUSH1 0x24 DUP3 ADD MSTORE PUSH32 0x5265656E7472616E637947756172643A207265656E7472616E742063616C6C00 PUSH1 0x44 DUP3 ADD MSTORE PUSH1 0x64 ADD PUSH2 0x568 JUMP JUMPDEST PUSH1 0x2 PUSH1 0x97 SSTORE PUSH2 0x1386 PUSH2 0x1C3A JUMP JUMPDEST PUSH1 0x0 DUP9 DUP2 MSTORE PUSH1 0xCA PUSH1 0x20 SWAP1 DUP2 MSTORE PUSH1 0x40 DUP1 DUP4 KECCAK256 DUP11 DUP5 MSTORE SWAP1 SWAP2 MSTORE SWAP1 KECCAK256 SLOAD PUSH1 0x1 PUSH1 0x1 PUSH1 0xA0 SHL SUB AND DUP1 PUSH2 0x13F6 JUMPI PUSH1 0x40 MLOAD PUSH3 0x461BCD PUSH1 0xE5 SHL DUP2 MSTORE PUSH1 0x20 PUSH1 0x4 DUP3 ADD MSTORE PUSH1 0x1A PUSH1 0x24 DUP3 ADD MSTORE PUSH32 0x54686973207469636B657420646F6573206E6F74206578697374000000000000 PUSH1 0x44 DUP3 ADD MSTORE PUSH1 0x64 ADD PUSH2 0x568 JUMP JUMPDEST PUSH1 0xC9 SLOAD PUSH1 0x40 MLOAD PUSH4 0x43B938C5 PUSH1 0xE0 SHL DUP2 MSTORE PUSH1 0x1 PUSH1 0x1 PUSH1 0xA0 SHL SUB DUP10 DUP2 AND PUSH1 0x4 DUP4 ADD MSTORE SWAP1 SWAP2 AND SWAP1 PUSH4 0x43B938C5 SWAP1 PUSH1 0x24 ADD PUSH1 0x20 PUSH1 0x40 MLOAD DUP1 DUP4 SUB DUP2 DUP7 GAS STATICCALL ISZERO DUP1 ISZERO PUSH2 0x1440 JUMPI RETURNDATASIZE PUSH1 0x0 DUP1 RETURNDATACOPY RETURNDATASIZE PUSH1 0x0 REVERT JUMPDEST POP POP POP POP PUSH1 0x40 MLOAD RETURNDATASIZE PUSH1 0x1F NOT PUSH1 0x1F DUP3 ADD AND DUP3 ADD DUP1 PUSH1 0x40 MSTORE POP DUP2 ADD SWAP1 PUSH2 0x1464 SWAP2 SWAP1 PUSH2 0x24A3 JUMP JUMPDEST PUSH2 0x1480 JUMPI PUSH1 0x40 MLOAD PUSH3 0x461BCD PUSH1 0xE5 SHL DUP2 MSTORE PUSH1 0x4 ADD PUSH2 0x568 SWAP1 PUSH2 0x24C5 JUMP JUMPDEST PUSH1 0xC9 SLOAD PUSH1 0x40 MLOAD PUSH4 0x1599DDF3 PUSH1 0xE2 SHL DUP2 MSTORE PUSH1 0x4 DUP2 ADD DUP12 SWAP1 MSTORE PUSH1 0x0 SWAP2 PUSH1 0x1 PUSH1 0x1 PUSH1 0xA0 SHL SUB AND SWAP1 PUSH4 0x566777CC SWAP1 PUSH1 0x24 ADD PUSH1 0x20 PUSH1 0x40 MLOAD DUP1 DUP4 SUB DUP2 DUP7 GAS STATICCALL ISZERO DUP1 ISZERO PUSH2 0x14CA JUMPI RETURNDATASIZE PUSH1 0x0 DUP1 RETURNDATACOPY RETURNDATASIZE PUSH1 0x0 REVERT JUMPDEST POP POP POP POP PUSH1 0x40 MLOAD RETURNDATASIZE PUSH1 0x1F NOT PUSH1 0x1F DUP3 ADD AND DUP3 ADD DUP1 PUSH1 0x40 MSTORE POP DUP2 ADD SWAP1 PUSH2 0x14EE SWAP2 SWAP1 PUSH2 0x2512 JUMP JUMPDEST PUSH1 0x4 DUP2 GT ISZERO PUSH2 0x14FF JUMPI PUSH2 0x14FF PUSH2 0x24FC JUMP JUMPDEST EQ PUSH2 0x151C JUMPI PUSH1 0x40 MLOAD PUSH3 0x461BCD PUSH1 0xE5 SHL DUP2 MSTORE PUSH1 0x4 ADD PUSH2 0x568 SWAP1 PUSH2 0x2533 JUMP JUMPDEST PUSH1 0x40 DUP1 MLOAD DUP1 DUP3 ADD DUP3 MSTORE PUSH1 0x12 DUP2 MSTORE PUSH18 0x526166666C655469636B657453797374656D PUSH1 0x70 SHL PUSH1 0x20 SWAP2 DUP3 ADD MSTORE DUP2 MLOAD DUP1 DUP4 ADD DUP4 MSTORE PUSH1 0x1 DUP2 MSTORE PUSH1 0x31 PUSH1 0xF8 SHL SWAP1 DUP3 ADD MSTORE DUP2 MLOAD PUSH32 0x8B73C3C69BB8FE3D512ECC4CF759CC79239F7B179B0FFACAA9A75D522B39400F SWAP2 DUP2 ADD SWAP2 SWAP1 SWAP2 MSTORE PUSH32 0x72E9C93A6B376F05F6822DD34497ADAF2CCD61484CD34C63BA261BD20821E901 SWAP2 DUP2 ADD SWAP2 SWAP1 SWAP2 MSTORE PUSH32 0xC89EFDAA54C0F20C7ADF612882DF0950F5A951637E0307CDCB4C672F298B8BC6 PUSH1 0x60 DUP3 ADD MSTORE CHAINID PUSH1 0x80 DUP3 ADD MSTORE ADDRESS PUSH1 0xA0 DUP3 ADD MSTORE PUSH1 0x0 SWAP1 PUSH1 0xC0 ADD PUSH1 0x40 DUP1 MLOAD PUSH1 0x1F NOT DUP2 DUP5 SUB ADD DUP2 MSTORE DUP3 DUP3 MSTORE DUP1 MLOAD PUSH1 0x20 SWAP2 DUP3 ADD KECCAK256 PUSH1 0x1 PUSH1 0x1 PUSH1 0xA0 SHL SUB DUP1 DUP8 AND PUSH1 0x0 SWAP1 DUP2 MSTORE PUSH1 0xCF DUP5 MSTORE DUP5 DUP2 KECCAK256 SLOAD PUSH32 0xD5D8257C00A566D5E44AC531FBD43C4E3DBAA0DEBF869F903785354681AEA9AD SWAP5 DUP8 ADD SWAP5 SWAP1 SWAP5 MSTORE CALLER SWAP5 DUP7 ADD SWAP5 SWAP1 SWAP5 MSTORE PUSH1 0x60 DUP6 ADD DUP16 SWAP1 MSTORE PUSH1 0x80 DUP6 ADD DUP15 SWAP1 MSTORE DUP13 AND PUSH1 0xA0 DUP6 ADD MSTORE PUSH1 0x1 PUSH1 0x1 PUSH1 0x80 SHL SUB DUP12 AND PUSH1 0xC0 DUP6 ADD MSTORE PUSH1 0xE0 DUP5 ADD SWAP2 SWAP1 SWAP2 MSTORE SWAP3 POP SWAP1 PUSH2 0x100 ADD PUSH1 0x40 MLOAD PUSH1 0x20 DUP2 DUP4 SUB SUB DUP2 MSTORE SWAP1 PUSH1 0x40 MSTORE DUP1 MLOAD SWAP1 PUSH1 0x20 ADD KECCAK256 SWAP1 POP PUSH1 0x0 DUP3 DUP3 PUSH1 0x40 MLOAD PUSH1 0x20 ADD PUSH2 0x16B9 SWAP3 SWAP2 SWAP1 PUSH2 0x1901 PUSH1 0xF0 SHL DUP2 MSTORE PUSH1 0x2 DUP2 ADD SWAP3 SWAP1 SWAP3 MSTORE PUSH1 0x22 DUP3 ADD MSTORE PUSH1 0x42 ADD SWAP1 JUMP JUMPDEST PUSH1 0x40 DUP1 MLOAD PUSH1 0x1F NOT DUP2 DUP5 SUB ADD DUP2 MSTORE DUP3 DUP3 MSTORE DUP1 MLOAD PUSH1 0x20 SWAP2 DUP3 ADD KECCAK256 PUSH1 0x0 DUP1 DUP6 MSTORE SWAP2 DUP5 ADD DUP1 DUP5 MSTORE DUP2 SWAP1 MSTORE PUSH1 0xFF DUP10 AND SWAP3 DUP5 ADD SWAP3 SWAP1 SWAP3 MSTORE PUSH1 0x60 DUP4 ADD DUP11 SWAP1 MSTORE PUSH1 0x80 DUP4 ADD DUP10 SWAP1 MSTORE SWAP1 SWAP3 POP SWAP1 PUSH1 0x1 SWAP1 PUSH1 0xA0 ADD PUSH1 0x20 PUSH1 0x40 MLOAD PUSH1 0x20 DUP2 SUB SWAP1 DUP1 DUP5 SUB SWAP1 DUP6 GAS STATICCALL ISZERO DUP1 ISZERO PUSH2 0x1724 JUMPI RETURNDATASIZE PUSH1 0x0 DUP1 RETURNDATACOPY RETURNDATASIZE PUSH1 0x0 REVERT JUMPDEST POP POP POP PUSH1 0x20 PUSH1 0x40 MLOAD SUB MLOAD SWAP1 POP DUP5 PUSH1 0x1 PUSH1 0x1 PUSH1 0xA0 SHL SUB AND DUP2 PUSH1 0x1 PUSH1 0x1 PUSH1 0xA0 SHL SUB AND EQ PUSH2 0x1785 JUMPI PUSH1 0x40 MLOAD PUSH3 0x461BCD PUSH1 0xE5 SHL DUP2 MSTORE PUSH1 0x20 PUSH1 0x4 DUP3 ADD MSTORE PUSH1 0x11 PUSH1 0x24 DUP3 ADD MSTORE PUSH17 0x496E76616C6964207369676E6174757265 PUSH1 0x78 SHL PUSH1 0x44 DUP3 ADD MSTORE PUSH1 0x64 ADD PUSH2 0x568 JUMP JUMPDEST POP POP POP POP PUSH1 0x1 PUSH1 0x1 PUSH1 0xA0 SHL SUB DUP2 AND PUSH1 0x0 SWAP1 DUP2 MSTORE PUSH1 0xCF PUSH1 0x20 MSTORE PUSH1 0x40 DUP2 KECCAK256 DUP1 SLOAD PUSH1 0x1 SWAP3 SWAP1 PUSH2 0x17B2 SWAP1 DUP5 SWAP1 PUSH2 0x25FB JUMP JUMPDEST SWAP1 SWAP2 SSTORE POP POP PUSH1 0xCD SLOAD PUSH1 0xCC SLOAD PUSH1 0x0 SWAP2 SWAP1 PUSH2 0x17D4 SWAP1 PUSH1 0x1 PUSH1 0x1 PUSH1 0x80 SHL SUB DUP11 AND PUSH2 0x25A3 JUMP JUMPDEST PUSH2 0x17DE SWAP2 SWAP1 PUSH2 0x25C2 JUMP JUMPDEST SWAP1 POP PUSH1 0x0 PUSH2 0x17F5 DUP3 PUSH1 0x1 PUSH1 0x1 PUSH1 0x80 SHL SUB DUP11 AND PUSH2 0x25E4 JUMP JUMPDEST SWAP1 POP PUSH1 0x1 PUSH1 0x1 PUSH1 0xA0 SHL SUB DUP10 AND PUSH2 0x18A5 JUMPI DUP8 PUSH1 0x1 PUSH1 0x1 PUSH1 0x80 SHL SUB AND CALLVALUE EQ PUSH2 0x1855 JUMPI PUSH1 0x40 MLOAD PUSH3 0x461BCD PUSH1 0xE5 SHL DUP2 MSTORE PUSH1 0x20 PUSH1 0x4 DUP3 ADD MSTORE PUSH1 0x15 PUSH1 0x24 DUP3 ADD MSTORE PUSH21 0x4D61746963207061796D656E7420746F6F206C6F77 PUSH1 0x58 SHL PUSH1 0x44 DUP3 ADD MSTORE PUSH1 0x64 ADD PUSH2 0x568 JUMP JUMPDEST PUSH2 0x185F DUP4 DUP3 PUSH2 0x1A8E JUMP JUMPDEST PUSH1 0x0 DUP1 DUP1 MSTORE PUSH1 0xCE PUSH1 0x20 MSTORE PUSH32 0xD3F5862F6F80175DA7514904F3A889CC3CC8C4F3AF5129E28CDEAEE2BAA6EFC4 DUP1 SLOAD DUP5 SWAP3 SWAP1 PUSH2 0x189A SWAP1 DUP5 SWAP1 PUSH2 0x25FB JUMP JUMPDEST SWAP1 SWAP2 SSTORE POP PUSH2 0x18FD SWAP1 POP JUMP JUMPDEST PUSH2 0x18BA PUSH1 0x1 PUSH1 0x1 PUSH1 0xA0 SHL SUB DUP11 AND CALLER ADDRESS DUP6 PUSH2 0x1CD2 JUMP JUMPDEST PUSH2 0x18CF PUSH1 0x1 PUSH1 0x1 PUSH1 0xA0 SHL SUB DUP11 AND CALLER DUP6 DUP5 PUSH2 0x1CD2 JUMP JUMPDEST PUSH1 0x1 PUSH1 0x1 PUSH1 0xA0 SHL SUB DUP10 AND PUSH1 0x0 SWAP1 DUP2 MSTORE PUSH1 0xCE PUSH1 0x20 MSTORE PUSH1 0x40 DUP2 KECCAK256 DUP1 SLOAD DUP5 SWAP3 SWAP1 PUSH2 0x18F7 SWAP1 DUP5 SWAP1 PUSH2 0x25FB JUMP JUMPDEST SWAP1 SWAP2 SSTORE POP POP JUMPDEST PUSH1 0x0 DUP12 DUP2 MSTORE PUSH1 0xCA PUSH1 0x20 SWAP1 DUP2 MSTORE PUSH1 0x40 DUP1 DUP4 KECCAK256 DUP14 DUP5 MSTORE DUP3 MSTORE DUP1 DUP4 KECCAK256 DUP1 SLOAD PUSH1 0x1 PUSH1 0x1 PUSH1 0xA0 SHL SUB DUP13 AND PUSH1 0x1 PUSH1 0x1 PUSH1 0xA0 SHL SUB NOT SWAP2 DUP3 AND OR SWAP1 SWAP2 SSTORE DUP15 DUP5 MSTORE PUSH1 0xCB DUP4 MSTORE DUP2 DUP5 KECCAK256 DUP15 DUP6 MSTORE SWAP1 SWAP3 MSTORE SWAP2 DUP3 SWAP1 KECCAK256 DUP1 SLOAD DUP3 AND DUP2 SSTORE PUSH1 0x1 DUP2 ADD DUP1 SLOAD SWAP1 SWAP3 AND SWAP1 SWAP2 SSTORE PUSH1 0x2 ADD DUP1 SLOAD PUSH1 0x1 PUSH1 0x1 PUSH1 0x80 SHL SUB NOT AND SWAP1 SSTORE MLOAD PUSH32 0x31FF2BC8E03B9217D7964447F662FD5DF92F892F5F349C6537482B1BF6ACA934 SWAP1 PUSH2 0x19A1 SWAP1 DUP10 SWAP1 DUP7 SWAP1 DUP16 SWAP1 DUP16 SWAP1 DUP16 SWAP1 DUP16 SWAP1 PUSH2 0x2613 JUMP JUMPDEST PUSH1 0x40 MLOAD DUP1 SWAP2 SUB SWAP1 LOG1 POP POP PUSH1 0x1 PUSH1 0x97 SSTORE POP POP POP POP POP POP POP POP POP JUMP JUMPDEST PUSH2 0x19C3 PUSH2 0x1A34 JUMP JUMPDEST PUSH1 0x1 PUSH1 0x1 PUSH1 0xA0 SHL SUB DUP2 AND PUSH2 0x1A28 JUMPI PUSH1 0x40 MLOAD PUSH3 0x461BCD PUSH1 0xE5 SHL DUP2 MSTORE PUSH1 0x20 PUSH1 0x4 DUP3 ADD MSTORE PUSH1 0x26 PUSH1 0x24 DUP3 ADD MSTORE PUSH32 0x4F776E61626C653A206E6577206F776E657220697320746865207A65726F2061 PUSH1 0x44 DUP3 ADD MSTORE PUSH6 0x646472657373 PUSH1 0xD0 SHL PUSH1 0x64 DUP3 ADD MSTORE PUSH1 0x84 ADD PUSH2 0x568 JUMP JUMPDEST PUSH2 0x1A31 DUP2 PUSH2 0x1C80 JUMP JUMPDEST POP JUMP JUMPDEST PUSH1 0x33 SLOAD PUSH1 0x1 PUSH1 0x1 PUSH1 0xA0 SHL SUB AND CALLER EQ PUSH2 0xA77 JUMPI PUSH1 0x40 MLOAD PUSH3 0x461BCD PUSH1 0xE5 SHL DUP2 MSTORE PUSH1 0x20 PUSH1 0x4 DUP3 ADD DUP2 SWAP1 MSTORE PUSH1 0x24 DUP3 ADD MSTORE PUSH32 0x4F776E61626C653A2063616C6C6572206973206E6F7420746865206F776E6572 PUSH1 0x44 DUP3 ADD MSTORE PUSH1 0x64 ADD PUSH2 0x568 JUMP JUMPDEST DUP1 SELFBALANCE LT ISZERO PUSH2 0x1ADE JUMPI PUSH1 0x40 MLOAD PUSH3 0x461BCD PUSH1 0xE5 SHL DUP2 MSTORE PUSH1 0x20 PUSH1 0x4 DUP3 ADD MSTORE PUSH1 0x1F PUSH1 0x24 DUP3 ADD MSTORE PUSH32 0x5F68616E646C654E61746976655472616E7366657220696E736F6C76656E7400 PUSH1 0x44 DUP3 ADD MSTORE PUSH1 0x64 ADD PUSH2 0x568 JUMP JUMPDEST PUSH1 0x0 GAS SWAP1 POP PUSH1 0x0 DUP4 PUSH1 0x1 PUSH1 0x1 PUSH1 0xA0 SHL SUB AND DUP4 DUP4 SWAP1 PUSH1 0x40 MLOAD PUSH1 0x0 PUSH1 0x40 MLOAD DUP1 DUP4 SUB DUP2 DUP6 DUP9 DUP9 CALL SWAP4 POP POP POP POP RETURNDATASIZE DUP1 PUSH1 0x0 DUP2 EQ PUSH2 0x1B33 JUMPI PUSH1 0x40 MLOAD SWAP2 POP PUSH1 0x1F NOT PUSH1 0x3F RETURNDATASIZE ADD AND DUP3 ADD PUSH1 0x40 MSTORE RETURNDATASIZE DUP3 MSTORE RETURNDATASIZE PUSH1 0x0 PUSH1 0x20 DUP5 ADD RETURNDATACOPY PUSH2 0x1B38 JUMP JUMPDEST PUSH1 0x60 SWAP2 POP JUMPDEST POP POP SWAP1 POP DUP1 PUSH2 0x1BCC JUMPI PUSH20 0xD500B1D8E8EF31E21C99D1DB9A6444D3ADF1270 PUSH1 0x1 PUSH1 0x1 PUSH1 0xA0 SHL SUB AND PUSH4 0xD0E30DB0 DUP5 PUSH1 0x40 MLOAD DUP3 PUSH4 0xFFFFFFFF AND PUSH1 0xE0 SHL DUP2 MSTORE PUSH1 0x4 ADD PUSH1 0x0 PUSH1 0x40 MLOAD DUP1 DUP4 SUB DUP2 DUP6 DUP9 DUP1 EXTCODESIZE ISZERO DUP1 ISZERO PUSH2 0x1B90 JUMPI PUSH1 0x0 DUP1 REVERT JUMPDEST POP GAS CALL ISZERO DUP1 ISZERO PUSH2 0x1BA4 JUMPI RETURNDATASIZE PUSH1 0x0 DUP1 RETURNDATACOPY RETURNDATASIZE PUSH1 0x0 REVERT JUMPDEST POP PUSH2 0x1BCC SWAP4 POP PUSH20 0xD500B1D8E8EF31E21C99D1DB9A6444D3ADF1270 SWAP3 POP DUP8 SWAP2 POP DUP7 SWAP1 POP PUSH2 0x1BD2 JUMP JUMPDEST POP POP POP POP JUMP JUMPDEST PUSH1 0x40 MLOAD PUSH1 0x1 PUSH1 0x1 PUSH1 0xA0 SHL SUB DUP4 AND PUSH1 0x24 DUP3 ADD MSTORE PUSH1 0x44 DUP2 ADD DUP3 SWAP1 MSTORE PUSH2 0x1C35 SWAP1 DUP5 SWAP1 PUSH4 0xA9059CBB PUSH1 0xE0 SHL SWAP1 PUSH1 0x64 ADD JUMPDEST PUSH1 0x40 DUP1 MLOAD PUSH1 0x1F NOT DUP2 DUP5 SUB ADD DUP2 MSTORE SWAP2 SWAP1 MSTORE PUSH1 0x20 DUP2 ADD DUP1 MLOAD PUSH1 0x1 PUSH1 0x1 PUSH1 0xE0 SHL SUB AND PUSH1 0x1 PUSH1 0x1 PUSH1 0xE0 SHL SUB NOT SWAP1 SWAP4 AND SWAP3 SWAP1 SWAP3 OR SWAP1 SWAP2 MSTORE PUSH2 0x1E2A JUMP JUMPDEST POP POP POP JUMP JUMPDEST PUSH1 0x65 SLOAD PUSH1 0xFF AND ISZERO PUSH2 0xA77 JUMPI PUSH1 0x40 MLOAD PUSH3 0x461BCD PUSH1 0xE5 SHL DUP2 MSTORE PUSH1 0x20 PUSH1 0x4 DUP3 ADD MSTORE PUSH1 0x10 PUSH1 0x24 DUP3 ADD MSTORE PUSH16 0x14185D5CD8589B194E881C185D5CD959 PUSH1 0x82 SHL PUSH1 0x44 DUP3 ADD MSTORE PUSH1 0x64 ADD PUSH2 0x568 JUMP JUMPDEST PUSH1 0x33 DUP1 SLOAD PUSH1 0x1 PUSH1 0x1 PUSH1 0xA0 SHL SUB DUP4 DUP2 AND PUSH1 0x1 PUSH1 0x1 PUSH1 0xA0 SHL SUB NOT DUP4 AND DUP2 OR SWAP1 SWAP4 SSTORE PUSH1 0x40 MLOAD SWAP2 AND SWAP2 SWAP1 DUP3 SWAP1 PUSH32 0x8BE0079C531659141344CD1FD0A4F28419497F9722A3DAAFE3B4186F6B6457E0 SWAP1 PUSH1 0x0 SWAP1 LOG3 POP POP JUMP JUMPDEST PUSH1 0x40 MLOAD PUSH1 0x1 PUSH1 0x1 PUSH1 0xA0 SHL SUB DUP1 DUP6 AND PUSH1 0x24 DUP4 ADD MSTORE DUP4 AND PUSH1 0x44 DUP3 ADD MSTORE PUSH1 0x64 DUP2 ADD DUP3 SWAP1 MSTORE PUSH2 0x1BCC SWAP1 DUP6 SWAP1 PUSH4 0x23B872DD PUSH1 0xE0 SHL SWAP1 PUSH1 0x84 ADD PUSH2 0x1BFE JUMP JUMPDEST PUSH2 0x1D12 PUSH2 0x1C3A JUMP JUMPDEST PUSH1 0x65 DUP1 SLOAD PUSH1 0xFF NOT AND PUSH1 0x1 OR SWAP1 SSTORE PUSH32 0x62E78CEA01BEE320CD4E420270B5EA74000D11B0C9F74754EBDBFC544B05A258 PUSH2 0x1D47 CALLER SWAP1 JUMP JUMPDEST PUSH1 0x40 MLOAD PUSH1 0x1 PUSH1 0x1 PUSH1 0xA0 SHL SUB SWAP1 SWAP2 AND DUP2 MSTORE PUSH1 0x20 ADD PUSH1 0x40 MLOAD DUP1 SWAP2 SUB SWAP1 LOG1 JUMP JUMPDEST PUSH2 0x1D6C PUSH2 0x1EFC JUMP JUMPDEST PUSH1 0x65 DUP1 SLOAD PUSH1 0xFF NOT AND SWAP1 SSTORE PUSH32 0x5DB9EE0A495BF2E6FF9C91A7834C1BA4FDD244A5E8AA4E537BD38AEAE4B073AA CALLER PUSH2 0x1D47 JUMP JUMPDEST PUSH1 0x0 SLOAD PUSH2 0x100 SWAP1 DIV PUSH1 0xFF AND PUSH2 0x1DC4 JUMPI PUSH1 0x40 MLOAD PUSH3 0x461BCD PUSH1 0xE5 SHL DUP2 MSTORE PUSH1 0x4 ADD PUSH2 0x568 SWAP1 PUSH2 0x2656 JUMP JUMPDEST PUSH2 0xA77 PUSH2 0x1F45 JUMP JUMPDEST PUSH1 0x0 SLOAD PUSH2 0x100 SWAP1 DIV PUSH1 0xFF AND PUSH2 0x1DF3 JUMPI PUSH1 0x40 MLOAD PUSH3 0x461BCD PUSH1 0xE5 SHL DUP2 MSTORE PUSH1 0x4 ADD PUSH2 0x568 SWAP1 PUSH2 0x2656 JUMP JUMPDEST PUSH2 0xA77 PUSH2 0x1F75 JUMP JUMPDEST PUSH1 0x0 SLOAD PUSH2 0x100 SWAP1 DIV PUSH1 0xFF AND PUSH2 0x1E22 JUMPI PUSH1 0x40 MLOAD PUSH3 0x461BCD PUSH1 0xE5 SHL DUP2 MSTORE PUSH1 0x4 ADD PUSH2 0x568 SWAP1 PUSH2 0x2656 JUMP JUMPDEST PUSH2 0xA77 PUSH2 0x1FA8 JUMP JUMPDEST PUSH1 0x0 PUSH2 0x1E7F DUP3 PUSH1 0x40 MLOAD DUP1 PUSH1 0x40 ADD PUSH1 0x40 MSTORE DUP1 PUSH1 0x20 DUP2 MSTORE PUSH1 0x20 ADD PUSH32 0x5361666545524332303A206C6F772D6C6576656C2063616C6C206661696C6564 DUP2 MSTORE POP DUP6 PUSH1 0x1 PUSH1 0x1 PUSH1 0xA0 SHL SUB AND PUSH2 0x1FD6 SWAP1 SWAP3 SWAP2 SWAP1 PUSH4 0xFFFFFFFF AND JUMP JUMPDEST DUP1 MLOAD SWAP1 SWAP2 POP ISZERO PUSH2 0x1C35 JUMPI DUP1 DUP1 PUSH1 0x20 ADD SWAP1 MLOAD DUP2 ADD SWAP1 PUSH2 0x1E9D SWAP2 SWAP1 PUSH2 0x24A3 JUMP JUMPDEST PUSH2 0x1C35 JUMPI PUSH1 0x40 MLOAD PUSH3 0x461BCD PUSH1 0xE5 SHL DUP2 MSTORE PUSH1 0x20 PUSH1 0x4 DUP3 ADD MSTORE PUSH1 0x2A PUSH1 0x24 DUP3 ADD MSTORE PUSH32 0x5361666545524332303A204552433230206F7065726174696F6E20646964206E PUSH1 0x44 DUP3 ADD MSTORE PUSH10 0x1BDD081CDD58D8D95959 PUSH1 0xB2 SHL PUSH1 0x64 DUP3 ADD MSTORE PUSH1 0x84 ADD PUSH2 0x568 JUMP JUMPDEST PUSH1 0x65 SLOAD PUSH1 0xFF AND PUSH2 0xA77 JUMPI PUSH1 0x40 MLOAD PUSH3 0x461BCD PUSH1 0xE5 SHL DUP2 MSTORE PUSH1 0x20 PUSH1 0x4 DUP3 ADD MSTORE PUSH1 0x14 PUSH1 0x24 DUP3 ADD MSTORE PUSH20 0x14185D5CD8589B194E881B9BDD081C185D5CD959 PUSH1 0x62 SHL PUSH1 0x44 DUP3 ADD MSTORE PUSH1 0x64 ADD PUSH2 0x568 JUMP JUMPDEST PUSH1 0x0 SLOAD PUSH2 0x100 SWAP1 DIV PUSH1 0xFF AND PUSH2 0x1F6C JUMPI PUSH1 0x40 MLOAD PUSH3 0x461BCD PUSH1 0xE5 SHL DUP2 MSTORE PUSH1 0x4 ADD PUSH2 0x568 SWAP1 PUSH2 0x2656 JUMP JUMPDEST PUSH2 0xA77 CALLER PUSH2 0x1C80 JUMP JUMPDEST PUSH1 0x0 SLOAD PUSH2 0x100 SWAP1 DIV PUSH1 0xFF AND PUSH2 0x1F9C JUMPI PUSH1 0x40 MLOAD PUSH3 0x461BCD PUSH1 0xE5 SHL DUP2 MSTORE PUSH1 0x4 ADD PUSH2 0x568 SWAP1 PUSH2 0x2656 JUMP JUMPDEST PUSH1 0x65 DUP1 SLOAD PUSH1 0xFF NOT AND SWAP1 SSTORE JUMP JUMPDEST PUSH1 0x0 SLOAD PUSH2 0x100 SWAP1 DIV PUSH1 0xFF AND PUSH2 0x1FCF JUMPI PUSH1 0x40 MLOAD PUSH3 0x461BCD PUSH1 0xE5 SHL DUP2 MSTORE PUSH1 0x4 ADD PUSH2 0x568 SWAP1 PUSH2 0x2656 JUMP JUMPDEST PUSH1 0x1 PUSH1 0x97 SSTORE JUMP JUMPDEST PUSH1 0x60 PUSH2 0x1FE5 DUP5 DUP5 PUSH1 0x0 DUP6 PUSH2 0x1FED JUMP JUMPDEST SWAP5 SWAP4 POP POP POP POP JUMP JUMPDEST PUSH1 0x60 DUP3 SELFBALANCE LT ISZERO PUSH2 0x204E JUMPI PUSH1 0x40 MLOAD PUSH3 0x461BCD PUSH1 0xE5 SHL DUP2 MSTORE PUSH1 0x20 PUSH1 0x4 DUP3 ADD MSTORE PUSH1 0x26 PUSH1 0x24 DUP3 ADD MSTORE PUSH32 0x416464726573733A20696E73756666696369656E742062616C616E636520666F PUSH1 0x44 DUP3 ADD MSTORE PUSH6 0x1C8818D85B1B PUSH1 0xD2 SHL PUSH1 0x64 DUP3 ADD MSTORE PUSH1 0x84 ADD PUSH2 0x568 JUMP JUMPDEST PUSH1 0x1 PUSH1 0x1 PUSH1 0xA0 SHL SUB DUP6 AND EXTCODESIZE PUSH2 0x20A5 JUMPI PUSH1 0x40 MLOAD PUSH3 0x461BCD PUSH1 0xE5 SHL DUP2 MSTORE PUSH1 0x20 PUSH1 0x4 DUP3 ADD MSTORE PUSH1 0x1D PUSH1 0x24 DUP3 ADD MSTORE PUSH32 0x416464726573733A2063616C6C20746F206E6F6E2D636F6E7472616374000000 PUSH1 0x44 DUP3 ADD MSTORE PUSH1 0x64 ADD PUSH2 0x568 JUMP JUMPDEST PUSH1 0x0 DUP1 DUP7 PUSH1 0x1 PUSH1 0x1 PUSH1 0xA0 SHL SUB AND DUP6 DUP8 PUSH1 0x40 MLOAD PUSH2 0x20C1 SWAP2 SWAP1 PUSH2 0x26A1 JUMP JUMPDEST PUSH1 0x0 PUSH1 0x40 MLOAD DUP1 DUP4 SUB DUP2 DUP6 DUP8 GAS CALL SWAP3 POP POP POP RETURNDATASIZE DUP1 PUSH1 0x0 DUP2 EQ PUSH2 0x20FE JUMPI PUSH1 0x40 MLOAD SWAP2 POP PUSH1 0x1F NOT PUSH1 0x3F RETURNDATASIZE ADD AND DUP3 ADD PUSH1 0x40 MSTORE RETURNDATASIZE DUP3 MSTORE RETURNDATASIZE PUSH1 0x0 PUSH1 0x20 DUP5 ADD RETURNDATACOPY PUSH2 0x2103 JUMP JUMPDEST PUSH1 0x60 SWAP2 POP JUMPDEST POP SWAP2 POP SWAP2 POP PUSH2 0x2113 DUP3 DUP3 DUP7 PUSH2 0x211E JUMP JUMPDEST SWAP8 SWAP7 POP POP POP POP POP POP POP JUMP JUMPDEST PUSH1 0x60 DUP4 ISZERO PUSH2 0x212D JUMPI POP DUP2 PUSH2 0x816 JUMP JUMPDEST DUP3 MLOAD ISZERO PUSH2 0x213D JUMPI DUP3 MLOAD DUP1 DUP5 PUSH1 0x20 ADD REVERT JUMPDEST DUP2 PUSH1 0x40 MLOAD PUSH3 0x461BCD PUSH1 0xE5 SHL DUP2 MSTORE PUSH1 0x4 ADD PUSH2 0x568 SWAP2 SWAP1 PUSH2 0x2183 JUMP JUMPDEST PUSH1 0x0 JUMPDEST DUP4 DUP2 LT ISZERO PUSH2 0x2172 JUMPI DUP2 DUP2 ADD MLOAD DUP4 DUP3 ADD MSTORE PUSH1 0x20 ADD PUSH2 0x215A JUMP JUMPDEST DUP4 DUP2 GT ISZERO PUSH2 0x1BCC JUMPI POP POP PUSH1 0x0 SWAP2 ADD MSTORE JUMP JUMPDEST PUSH1 0x20 DUP2 MSTORE PUSH1 0x0 DUP3 MLOAD DUP1 PUSH1 0x20 DUP5 ADD MSTORE PUSH2 0x21A2 DUP2 PUSH1 0x40 DUP6 ADD PUSH1 0x20 DUP8 ADD PUSH2 0x2157 JUMP JUMPDEST PUSH1 0x1F ADD PUSH1 0x1F NOT AND SWAP2 SWAP1 SWAP2 ADD PUSH1 0x40 ADD SWAP3 SWAP2 POP POP JUMP JUMPDEST DUP1 CALLDATALOAD PUSH1 0x1 PUSH1 0x1 PUSH1 0xA0 SHL SUB DUP2 AND DUP2 EQ PUSH2 0x21CD JUMPI PUSH1 0x0 DUP1 REVERT JUMPDEST SWAP2 SWAP1 POP JUMP JUMPDEST PUSH1 0x0 DUP1 PUSH1 0x0 DUP1 PUSH1 0x80 DUP6 DUP8 SUB SLT ISZERO PUSH2 0x21E8 JUMPI PUSH1 0x0 DUP1 REVERT JUMPDEST PUSH2 0x21F1 DUP6 PUSH2 0x21B6 JUMP JUMPDEST SWAP7 PUSH1 0x20 DUP7 ADD CALLDATALOAD SWAP7 POP PUSH1 0x40 DUP7 ADD CALLDATALOAD SWAP6 PUSH1 0x60 ADD CALLDATALOAD SWAP5 POP SWAP3 POP POP POP JUMP JUMPDEST PUSH1 0x0 DUP1 DUP4 PUSH1 0x1F DUP5 ADD SLT PUSH2 0x221D JUMPI PUSH1 0x0 DUP1 REVERT JUMPDEST POP DUP2 CALLDATALOAD PUSH8 0xFFFFFFFFFFFFFFFF DUP2 GT ISZERO PUSH2 0x2235 JUMPI PUSH1 0x0 DUP1 REVERT JUMPDEST PUSH1 0x20 DUP4 ADD SWAP2 POP DUP4 PUSH1 0x20 DUP3 PUSH1 0x5 SHL DUP6 ADD ADD GT ISZERO PUSH2 0x2250 JUMPI PUSH1 0x0 DUP1 REVERT JUMPDEST SWAP3 POP SWAP3 SWAP1 POP JUMP JUMPDEST PUSH1 0x0 DUP1 PUSH1 0x0 DUP1 PUSH1 0x0 PUSH1 0x60 DUP7 DUP9 SUB SLT ISZERO PUSH2 0x226F JUMPI PUSH1 0x0 DUP1 REVERT JUMPDEST DUP6 CALLDATALOAD PUSH8 0xFFFFFFFFFFFFFFFF DUP1 DUP3 GT ISZERO PUSH2 0x2287 JUMPI PUSH1 0x0 DUP1 REVERT JUMPDEST PUSH2 0x2293 DUP10 DUP4 DUP11 ADD PUSH2 0x220B JUMP JUMPDEST SWAP1 SWAP8 POP SWAP6 POP PUSH1 0x20 DUP9 ADD CALLDATALOAD SWAP2 POP DUP1 DUP3 GT ISZERO PUSH2 0x22AC JUMPI PUSH1 0x0 DUP1 REVERT JUMPDEST POP PUSH2 0x22B9 DUP9 DUP3 DUP10 ADD PUSH2 0x220B JUMP JUMPDEST SWAP1 SWAP5 POP SWAP3 POP PUSH2 0x22CC SWAP1 POP PUSH1 0x40 DUP8 ADD PUSH2 0x21B6 JUMP JUMPDEST SWAP1 POP SWAP3 SWAP6 POP SWAP3 SWAP6 SWAP1 SWAP4 POP JUMP JUMPDEST PUSH1 0x0 DUP1 PUSH1 0x40 DUP4 DUP6 SUB SLT ISZERO PUSH2 0x22EB JUMPI PUSH1 0x0 DUP1 REVERT JUMPDEST POP POP DUP1 CALLDATALOAD SWAP3 PUSH1 0x20 SWAP1 SWAP2 ADD CALLDATALOAD SWAP2 POP JUMP JUMPDEST PUSH1 0x0 PUSH1 0x20 DUP3 DUP5 SUB SLT ISZERO PUSH2 0x230C JUMPI PUSH1 0x0 DUP1 REVERT JUMPDEST PUSH2 0x816 DUP3 PUSH2 0x21B6 JUMP JUMPDEST DUP1 CALLDATALOAD PUSH1 0x1 PUSH1 0x1 PUSH1 0x80 SHL SUB DUP2 AND DUP2 EQ PUSH2 0x21CD JUMPI PUSH1 0x0 DUP1 REVERT JUMPDEST PUSH1 0x0 DUP1 PUSH1 0x0 DUP1 PUSH1 0x80 DUP6 DUP8 SUB SLT ISZERO PUSH2 0x2342 JUMPI PUSH1 0x0 DUP1 REVERT JUMPDEST DUP5 CALLDATALOAD SWAP4 POP PUSH1 0x20 DUP6 ADD CALLDATALOAD SWAP3 POP PUSH2 0x2359 PUSH1 0x40 DUP7 ADD PUSH2 0x21B6 JUMP JUMPDEST SWAP2 POP PUSH2 0x2367 PUSH1 0x60 DUP7 ADD PUSH2 0x2315 JUMP JUMPDEST SWAP1 POP SWAP3 SWAP6 SWAP2 SWAP5 POP SWAP3 POP JUMP JUMPDEST PUSH1 0x0 PUSH1 0x20 DUP3 DUP5 SUB SLT ISZERO PUSH2 0x2384 JUMPI PUSH1 0x0 DUP1 REVERT JUMPDEST POP CALLDATALOAD SWAP2 SWAP1 POP JUMP JUMPDEST PUSH1 0x0 DUP1 PUSH1 0x0 DUP1 PUSH1 0x0 PUSH1 0xA0 DUP7 DUP9 SUB SLT ISZERO PUSH2 0x23A3 JUMPI PUSH1 0x0 DUP1 REVERT JUMPDEST DUP6 CALLDATALOAD SWAP5 POP PUSH1 0x20 DUP7 ADD CALLDATALOAD SWAP4 POP PUSH2 0x23BA PUSH1 0x40 DUP8 ADD PUSH2 0x21B6 JUMP JUMPDEST SWAP3 POP PUSH2 0x23C8 PUSH1 0x60 DUP8 ADD PUSH2 0x21B6 JUMP JUMPDEST SWAP5 SWAP8 SWAP4 SWAP7 POP SWAP2 SWAP5 PUSH1 0x80 ADD CALLDATALOAD SWAP3 SWAP2 POP POP JUMP JUMPDEST PUSH1 0x0 DUP1 PUSH1 0x0 DUP1 PUSH1 0x0 DUP1 PUSH1 0x0 DUP1 PUSH2 0x100 DUP10 DUP12 SUB SLT ISZERO PUSH2 0x23F6 JUMPI PUSH1 0x0 DUP1 REVERT JUMPDEST DUP9 CALLDATALOAD SWAP8 POP PUSH1 0x20 DUP10 ADD CALLDATALOAD SWAP7 POP PUSH2 0x240D PUSH1 0x40 DUP11 ADD PUSH2 0x21B6 JUMP JUMPDEST SWAP6 POP PUSH2 0x241B PUSH1 0x60 DUP11 ADD PUSH2 0x2315 JUMP JUMPDEST SWAP5 POP PUSH2 0x2429 PUSH1 0x80 DUP11 ADD PUSH2 0x21B6 JUMP JUMPDEST SWAP4 POP PUSH1 0xA0 DUP10 ADD CALLDATALOAD SWAP3 POP PUSH1 0xC0 DUP10 ADD CALLDATALOAD SWAP2 POP PUSH1 0xE0 DUP10 ADD CALLDATALOAD PUSH1 0xFF DUP2 AND DUP2 EQ PUSH2 0x244D JUMPI PUSH1 0x0 DUP1 REVERT JUMPDEST DUP1 SWAP2 POP POP SWAP3 SWAP6 SWAP9 POP SWAP3 SWAP6 SWAP9 SWAP1 SWAP4 SWAP7 POP JUMP JUMPDEST PUSH4 0x4E487B71 PUSH1 0xE0 SHL PUSH1 0x0 MSTORE PUSH1 0x11 PUSH1 0x4 MSTORE PUSH1 0x24 PUSH1 0x0 REVERT JUMPDEST PUSH1 0x0 PUSH1 0x1 DUP3 ADD PUSH2 0x2486 JUMPI PUSH2 0x2486 PUSH2 0x245E JUMP JUMPDEST POP PUSH1 0x1 ADD SWAP1 JUMP JUMPDEST PUSH4 0x4E487B71 PUSH1 0xE0 SHL PUSH1 0x0 MSTORE PUSH1 0x32 PUSH1 0x4 MSTORE PUSH1 0x24 PUSH1 0x0 REVERT JUMPDEST PUSH1 0x0 PUSH1 0x20 DUP3 DUP5 SUB SLT ISZERO PUSH2 0x24B5 JUMPI PUSH1 0x0 DUP1 REVERT JUMPDEST DUP2 MLOAD DUP1 ISZERO ISZERO DUP2 EQ PUSH2 0x816 JUMPI PUSH1 0x0 DUP1 REVERT JUMPDEST PUSH1 0x20 DUP1 DUP3 MSTORE PUSH1 0x1B SWAP1 DUP3 ADD MSTORE PUSH32 0x43757272656E6379206973206E6F742077686974656C69737465640000000000 PUSH1 0x40 DUP3 ADD MSTORE PUSH1 0x60 ADD SWAP1 JUMP JUMPDEST PUSH4 0x4E487B71 PUSH1 0xE0 SHL PUSH1 0x0 MSTORE PUSH1 0x21 PUSH1 0x4 MSTORE PUSH1 0x24 PUSH1 0x0 REVERT JUMPDEST PUSH1 0x0 PUSH1 0x20 DUP3 DUP5 SUB SLT ISZERO PUSH2 0x2524 JUMPI PUSH1 0x0 DUP1 REVERT JUMPDEST DUP2 MLOAD PUSH1 0x5 DUP2 LT PUSH2 0x816 JUMPI PUSH1 0x0 DUP1 REVERT JUMPDEST PUSH1 0x20 DUP1 DUP3 MSTORE DUP2 DUP2 ADD MSTORE PUSH32 0x526166666C65207374617465206D75737420626520494E5F50524F4752455353 PUSH1 0x40 DUP3 ADD MSTORE PUSH1 0x60 ADD SWAP1 JUMP JUMPDEST PUSH1 0x1 PUSH1 0x1 PUSH1 0xA0 SHL SUB SWAP6 DUP7 AND DUP2 MSTORE PUSH1 0x20 DUP2 ADD SWAP5 SWAP1 SWAP5 MSTORE PUSH1 0x40 DUP5 ADD SWAP3 SWAP1 SWAP3 MSTORE SWAP1 SWAP3 AND PUSH1 0x60 DUP3 ADD MSTORE PUSH1 0x1 PUSH1 0x1 PUSH1 0x80 SHL SUB SWAP1 SWAP2 AND PUSH1 0x80 DUP3 ADD MSTORE PUSH1 0xA0 ADD SWAP1 JUMP JUMPDEST PUSH1 0x0 DUP2 PUSH1 0x0 NOT DIV DUP4 GT DUP3 ISZERO ISZERO AND ISZERO PUSH2 0x25BD JUMPI PUSH2 0x25BD PUSH2 0x245E JUMP JUMPDEST POP MUL SWAP1 JUMP JUMPDEST PUSH1 0x0 DUP3 PUSH2 0x25DF JUMPI PUSH4 0x4E487B71 PUSH1 0xE0 SHL PUSH1 0x0 MSTORE PUSH1 0x12 PUSH1 0x4 MSTORE PUSH1 0x24 PUSH1 0x0 REVERT JUMPDEST POP DIV SWAP1 JUMP JUMPDEST PUSH1 0x0 DUP3 DUP3 LT ISZERO PUSH2 0x25F6 JUMPI PUSH2 0x25F6 PUSH2 0x245E JUMP JUMPDEST POP SUB SWAP1 JUMP JUMPDEST PUSH1 0x0 DUP3 NOT DUP3 GT ISZERO PUSH2 0x260E JUMPI PUSH2 0x260E PUSH2 0x245E JUMP JUMPDEST POP ADD SWAP1 JUMP JUMPDEST PUSH1 0x1 PUSH1 0x1 PUSH1 0xA0 SHL SUB SWAP7 DUP8 AND DUP2 MSTORE SWAP5 DUP7 AND PUSH1 0x20 DUP7 ADD MSTORE PUSH1 0x40 DUP6 ADD SWAP4 SWAP1 SWAP4 MSTORE PUSH1 0x60 DUP5 ADD SWAP2 SWAP1 SWAP2 MSTORE SWAP1 SWAP3 AND PUSH1 0x80 DUP3 ADD MSTORE PUSH1 0x1 PUSH1 0x1 PUSH1 0x80 SHL SUB SWAP1 SWAP2 AND PUSH1 0xA0 DUP3 ADD MSTORE PUSH1 0xC0 ADD SWAP1 JUMP JUMPDEST PUSH1 0x20 DUP1 DUP3 MSTORE PUSH1 0x2B SWAP1 DUP3 ADD MSTORE PUSH32 0x496E697469616C697A61626C653A20636F6E7472616374206973206E6F742069 PUSH1 0x40 DUP3 ADD MSTORE PUSH11 0x6E697469616C697A696E67 PUSH1 0xA8 SHL PUSH1 0x60 DUP3 ADD MSTORE PUSH1 0x80 ADD SWAP1 JUMP JUMPDEST PUSH1 0x0 DUP3 MLOAD PUSH2 0x26B3 DUP2 DUP5 PUSH1 0x20 DUP8 ADD PUSH2 0x2157 JUMP JUMPDEST SWAP2 SWAP1 SWAP2 ADD SWAP3 SWAP2 POP POP JUMP INVALID LOG2 PUSH5 0x6970667358 0x22 SLT KECCAK256 PUSH11 0x54CAF02A84513EC92A58D9 PUSH28 0x1924534AEF124895A36999F0B239A7D03401DE64736F6C634300080F STOP CALLER ",
    "sha1": "da27bfb8a886b47416c18a5427e1364ea403f5f8",
    "source": "// SPDX-License-Identifier: MIT\npragma solidity 0.8.15;\n\n/**\n\n█▄▄▄▄ ██   ▄████  ▄████  █     ▄███▄   ▄████  ▄█ \n█  ▄▀ █ █  █▀   ▀ █▀   ▀ █     █▀   ▀  █▀   ▀ ██ \n█▀▀▌  █▄▄█ █▀▀    █▀▀    █     ██▄▄    █▀▀    ██ \n█  █  █  █ █      █      ███▄  █▄   ▄▀ █      ▐█ \n  █      █  █      █         ▀ ▀███▀    █      ▐ \n ▀      █    ▀      ▀                    ▀       \n       ▀                                         \n\n Written by: UnT4x3d\n\n RaffleFi© 2022\n\n */\n\nimport \"node_modules/@openzeppelin/contracts-upgradeable/access/OwnableUpgradeable.sol\";\nimport \"node_modules/@openzeppelin/contracts-upgradeable/security/PausableUpgradeable.sol\";\nimport \"node_modules/@openzeppelin/contracts/token/ERC20/IERC20.sol\";\nimport \"node_modules/@openzeppelin/contracts/token/ERC20/utils/SafeERC20.sol\";\nimport \"node_modules/@openzeppelin/contracts-upgradeable/security/ReentrancyGuardUpgradeable.sol\";\nimport {IWETH} from \"./interfaces/IWETH.sol\";\n\ninterface IRafflePolygon {\n    enum RaffleState {\n        IN_PROGRESS,\n        FINISHED,\n        COMPLETED,\n        REFUNDED,\n        CLAIMED\n    }\n    function getRaffleState(uint256 _raffleId) external view returns(RaffleState);\n    function isCurrencyWhitelisted(address _erc20Token) external view returns(bool);\n}\n\ncontract RaffleTicketSystem is Initializable, OwnableUpgradeable, PausableUpgradeable, ReentrancyGuardUpgradeable {\n    using SafeERC20 for IERC20;\n\n    struct Order {\n        address owner;\n        address currency;\n        uint128 price;\n    }\n\n    // RafflePolygon contract\n    IRafflePolygon public rafflePolygon;\n\n    // raffleID => ticketId => ticketOwner\n    mapping(uint256 => mapping(uint256 => address)) public raffleTickets;\n    // raffleId => ticketId => Order\n    mapping(uint256 => mapping(uint256 => Order)) public ticketOrders;\n\n    // We can use IWETH interface as the contracts are identical\n    IWETH private constant WMATIC = IWETH(0x0d500B1d8E8eF31E21C99d1Db9A6444d3ADf1270); // WMATIC address in Polygon\n\n    // 2,5% Fee\n    uint256 public FEE_NUMERATOR;\n    uint256 public FEE_DENOMINATOR;\n\n    /**\n        Token address => Amount that owners of the contract can claim as fee rewards\n        address(0) = Matic\n     */\n    mapping(address => uint256) public totalAmountClaimable;\n\n    // The name of this contract\n    string public constant name = \"RaffleTicketSystem\";\n    string public constant version = \"1\";\n    // The EIP-712 typehash for the contract's domain\n    bytes32 private constant DOMAIN_TYPEHASH = keccak256(\"EIP712Domain(string name,string version,uint256 chainId,address verifyingContract)\");\n    // The EIP-712 typehash for the ballot struct used by the contract\n    bytes32 private constant BALLOT_TYPEHASH = keccak256(\"Ballot(address buyer,uint256 raffleId,uint256 ticketId,address currency,uint128 price,uint256 nonce)\");\n    mapping (address => uint256) public nonce;\n\n    // NOTE: Reserved for future upgrades\n    uint256[20] private __gap;\n\n    event TicketSellOrderCreated(address seller, \n        uint256 raffleId, \n        uint256 ticketId, \n        address currency, \n        uint128 price\n    );\n    event TicketSellOrderCancelled(\n        address seller, \n        uint256 raffleId, \n        uint256 ticketId, \n        address currency, \n        uint128 price\n    );\n    event TicketBoughtFromMarket(\n        address buyer, \n        address seller, \n        uint256 raffleId, \n        uint256 ticketId, \n        address currency, \n        uint128 price\n    );\n    event TicketBoughtFromMarketWithSignature(\n        address buyer, \n        address seller, \n        uint256 raffleId, \n        uint256 ticketId, \n        address currency, \n        uint128 price\n    );\n    event RaffleContractUpdated(address oldRaffleContract, address newRaffleContract);\n    event ProtocolFeeUpdated(uint256 oldFee, uint256 newFee);\n\n    function initialize(address _rafflePolygon) public initializer {\n        __Ownable_init();\n        __Pausable_init();\n        __ReentrancyGuard_init();\n\n        rafflePolygon = IRafflePolygon(_rafflePolygon);\n\n        FEE_NUMERATOR = 250;\n        FEE_DENOMINATOR = 10000;\n    }\n\n    modifier onlyRaffleContract {\n        require(msg.sender == address(rafflePolygon), \"OnlyRaffleContract\");\n        _;\n    }\n\n    /**\n     * @notice  Called by the RaffleContract to \"mint/burn\" raffle tickets\n     */\n    function assignTicketToUser(address user, uint256 _raffleId, uint256 initTicketId, uint256 endTicketId) external onlyRaffleContract {\n        for (uint256 i = initTicketId; i <= endTicketId; ++i){\n            raffleTickets[_raffleId][initTicketId] = user;\n        }\n    }\n\n    /** ############################################################################################\n     *              TICKET MARKETPLACE FUNCTIONS\n     *  ############################################################################################\n     */\n\n    /**\n     * @notice  Allows users to put their raffle tickets for sale\n     * @param   _raffleId raffleID\n     * @param   _ticketId ticketID\n     * @param   _currency Tickets will be bought with this ERC20 token. address(0) should be put here if the currency will be Matic\n     * @param   _price Price per ticket. It can be zero in case of an \"airdrop\"\n     */\n    function postSellOrder(uint256 _raffleId, uint256 _ticketId, address _currency, uint128 _price) external whenNotPaused {\n        require(msg.sender == raffleTickets[_raffleId][_ticketId], \"You do not own this ticket\");\n        require(rafflePolygon.isCurrencyWhitelisted(_currency), \"Currency is not whitelisted\");\n        require(rafflePolygon.getRaffleState(_raffleId) == IRafflePolygon.RaffleState.IN_PROGRESS, \"Raffle state must be IN_PROGRESS\");\n\n        Order storage orderData = ticketOrders[_raffleId][_ticketId];\n        orderData.owner = msg.sender;\n        orderData.currency = _currency;\n        orderData.price = _price;\n        emit TicketSellOrderCreated(msg.sender, _raffleId, _ticketId, _currency, _price);\n    }\n\n    /**\n     * @notice  Allows Order owners to cancel a current sell order\n     * @param   _raffleId raffleID\n     * @param   _ticketId ticketID\n     */\n    function cancelSellOrder(uint256 _raffleId, uint256 _ticketId) external whenNotPaused {\n        Order memory orderData = ticketOrders[_raffleId][_ticketId];\n        require(orderData.owner == msg.sender, \"You do not own this order\");\n\n        delete ticketOrders[_raffleId][_ticketId];\n        emit TicketSellOrderCancelled(msg.sender, _raffleId, _ticketId, orderData.currency, orderData.price);\n    }\n\n    /**\n     * @notice  Allows users to buy a raffle ticket\n     * @param   _raffleId raffleID\n     * @param   _ticketId ticketID\n     * @param   _buyer Address which the ticket will be assigned to\n     * @param   _currency Currency used as payment\n     * @param   _price Price\n     * Note: Last 2 parameters are used to prevent sellers of frontrunning the postBuyOrder() call setting a new price/currency\n     */\n    function postBuyOrder(uint256 _raffleId, uint256 _ticketId, address _buyer, address _currency, uint256 _price) external payable nonReentrant whenNotPaused {\n        Order memory orderData = ticketOrders[_raffleId][_ticketId];\n        require(orderData.owner != address(0), \"This order does not exist\");\n        require(orderData.owner == raffleTickets[_raffleId][_ticketId], \"Ticket has a new owner\");\n        require(rafflePolygon.isCurrencyWhitelisted(orderData.currency), \"Currency is not whitelisted\");\n        require(rafflePolygon.getRaffleState(_raffleId) == IRafflePolygon.RaffleState.IN_PROGRESS, \"Raffle state must be IN_PROGRESS\");\n        // Prevent frontrunning\n        require(orderData.currency == _currency, \"Currency was changed\");\n        require(orderData.price == _price, \"Price was changed\");\n        \n        uint256 fee = (orderData.price * FEE_NUMERATOR) / FEE_DENOMINATOR;\n        uint256 payment = orderData.price - fee;\n        // Payment in Matic\n        if(orderData.currency == address(0)){\n            require(msg.value == orderData.price, \"Matic payment too low\");\n            _handleNativeTransfer(orderData.owner, payment);\n            totalAmountClaimable[address(0)] += fee;\n        }\n        else{\n            IERC20(orderData.currency).safeTransferFrom(msg.sender, address(this), fee);\n            IERC20(orderData.currency).safeTransferFrom(msg.sender, orderData.owner, payment);\n            totalAmountClaimable[orderData.currency] += fee;\n        }\n        \n        delete ticketOrders[_raffleId][_ticketId];\n        raffleTickets[_raffleId][_ticketId] = _buyer;\n\n        emit TicketBoughtFromMarket(_buyer, orderData.owner, _raffleId, _ticketId, orderData.currency, orderData.price);\n    }\n\n    /**\n     * @notice  Allows users to buy a raffle ticket with a valid signature of the current NFT owner\n     * @param   _raffleId rafleId\n     * @param   _ticketId ticketId\n     * @param   _currency ERC20 used as payment\n     * @param   _price Price\n     * @param   _buyer Address which the ticket will be assigned to\n     * @param   _r Signature R\n     * @param   _s Signature S\n     * @param   _v Signature V\n     */\n    function buyTicketWithSignature(uint256 _raffleId, uint256 _ticketId, address _currency, uint128 _price, address _buyer, bytes32 _r, bytes32 _s, uint8 _v) external payable nonReentrant whenNotPaused {\n        address seller = raffleTickets[_raffleId][_ticketId];\n        require(seller != address(0), \"This ticket does not exist\");\n        require(rafflePolygon.isCurrencyWhitelisted(_currency), \"Currency is not whitelisted\");\n        require(rafflePolygon.getRaffleState(_raffleId) == IRafflePolygon.RaffleState.IN_PROGRESS, \"Raffle state must be IN_PROGRESS\");\n        \n        // Used to prevent stack too deep error\n        {\n            bytes32 domainSeparator = keccak256(abi.encode(DOMAIN_TYPEHASH, keccak256(bytes(name)), keccak256(bytes(version)), block.chainid, address(this)));\n            bytes32 structHash = keccak256(abi.encode(BALLOT_TYPEHASH, msg.sender, _raffleId, _ticketId, _currency, _price, nonce[seller]));\n            bytes32 digest = keccak256(abi.encodePacked(\"\\x19\\x01\", domainSeparator, structHash));\n            address signer = ecrecover(digest, _v, _r, _s);\n            require(signer == seller, \"Invalid signature\");\n        }\n        nonce[seller] += 1;\n\n        uint256 fee = (_price * FEE_NUMERATOR) / FEE_DENOMINATOR;\n        uint256 payment = _price - fee;\n        // Payment in Matic\n        if(_currency == address(0)){\n            require(msg.value == _price, \"Matic payment too low\");\n            _handleNativeTransfer(seller, payment);\n            totalAmountClaimable[address(0)] += fee;\n        }\n        else{\n            IERC20(_currency).safeTransferFrom(msg.sender, address(this), fee);\n            IERC20(_currency).safeTransferFrom(msg.sender, seller, payment);\n            totalAmountClaimable[_currency] += fee;\n        }\n\n        raffleTickets[_raffleId][_ticketId] = _buyer;\n        delete ticketOrders[_raffleId][_ticketId];\n        emit TicketBoughtFromMarketWithSignature(_buyer, seller, _raffleId, _ticketId, _currency, _price);\n    }\n\n    /** ############################################################################################\n     *              INTERNAL/PRIVATE FUNCTIONS\n     *  ############################################################################################\n     */\n\n    /**\n     *  Function to handle native transfers\n     */\n    function _handleNativeTransfer(address _dest, uint256 _amount) internal {\n        // Handle MATIC payment\n        require(address(this).balance >= _amount, \"_handleNativeTransfer insolvent\");\n        uint256 gas =  gasleft();\n        (bool success, ) = _dest.call{value: _amount, gas: gas}(\"\");\n        // If the MATIC transfer fails, wrap the MATIC and try to send it as WMATIC.\n        if (!success) {\n            WMATIC.deposit{value: _amount}();\n            IERC20(address(WMATIC)).safeTransfer(_dest, _amount);\n        }\n    }\n\n    /** ############################################################################################\n     *              ONLYOWNER FUNCTIONS\n     *  ############################################################################################\n     */\n\n    /**\n     * @notice  Used to pause/unpause the smart contract by the owner\n     */\n    function togglePause() external onlyOwner {\n        if (!paused()) _pause();\n        else _unpause();\n    }\n\n    /**\n     * @notice  Used to set a new RafflePolygon contract\n     */\n    function setNewRaffleContract(address _newRaffleContract) external onlyOwner {\n        emit RaffleContractUpdated(address(rafflePolygon), _newRaffleContract);\n        rafflePolygon = IRafflePolygon(_newRaffleContract);\n    }\n\n    /**\n     * @notice  Used to set the FEE_NUMERATOR by the owner\n     */\n    function setProtocolFee(uint256 _newFeeNumerator) external onlyOwner {\n        require(_newFeeNumerator < 10000, \"Fee must be <= 100 %\");\n        emit ProtocolFeeUpdated(FEE_NUMERATOR, _newFeeNumerator);\n        FEE_NUMERATOR = _newFeeNumerator;\n    }\n\n    /**\n     * @notice  Used by the contract owners to claim the fees accrued\n     * @param   _tokenAddress List of tokens to withdraw the fees\n     * @param   _amounts List of amounts that will be withdrawn\n     * @param   _receiver Address that will receive the fees\n     */\n    function withdrawFees(address[] calldata _tokenAddress, uint256[] calldata _amounts, address _receiver) external onlyOwner {\n        uint256 len = _tokenAddress.length;\n        require(len == _amounts.length, \"Array lengths do not match\");\n        uint256 amount;\n        address tokenAddress;\n        for (uint256 i; i < len; ++i) {\n            tokenAddress = _tokenAddress[i];\n            amount = _amounts[i];\n            require(amount <= totalAmountClaimable[tokenAddress], \"Amount too high\");\n            if(tokenAddress == address(0)){\n                _handleNativeTransfer(_receiver, amount);\n            }\n            else{\n                IERC20(tokenAddress).safeTransfer(_receiver, amount);\n            }\n            // No overflow here as => require(amount <= totalAmountClaimable[tokenAddress])\n            unchecked {\n                totalAmountClaimable[tokenAddress] -= amount;\n            }\n        }\n    }\n\n    /** ############################################################################################\n     *                 VIEW FUNCTIONS\n     *  ############################################################################################\n     */\n\n    function getTicketOwner(uint256 _raffleId, uint256 _ticketId) external view returns(address) {\n        address owner = raffleTickets[_raffleId][_ticketId];\n        require(owner != address(0), \"Ticket has no owner\");\n        return owner;\n    }\n}",
    "sourcePath": "contracts/RaffleTicketSystem.sol",
    "type": "contract"
}